:0400000007EF00F016
:100008006F8278ED03F057EF05F06D6E56D3470E0B
:10001800696E000ECBEC05F0000E6E6E1A0E6E6463
:1000280001D022D06B50360D930E0001806F7F0EE9
:100038000001816FF35000018027F45000018123F3
:100048006E50010DF35000018025616EF4500001DF
:100058008121626E400E636E000E656E010E646E45
:1000680081EC05F06E2ADAD7470E696E010ECBECEB
:1000780005F0000E6E6E1A0E6E6401D012006B5001
:10008800360D1B0EF326000EF422930E0001806F2E
:100098007F0E0001816FF35000018027F4500001AA
:1000A80081236E50010DF35000018025616EF450DC
:1000B80000018121626E400E636E000E656E010EB6
:1000C800646E81EC05F06E2AD6D7230E696E000E99
:1000D800CBEC05F0000E6E6E1A0E6E6401D022D0C5
:1000E8006B50360D270E0001806F7F0E0001816F67
:1000F800F35000018027F450000181236E50010D58
:10010800F35000018025616EF45000018121626E78
:10011800400E636E000E656E010E646E81EC05F094
:100128006E2ADAD7230E696E010ECBEC05F0000EAD
:100138006E6E1A0E6E6401D012006B50360D1B0ED7
:10014800F326000EF422270E0001806F7F0E0001B7
:10015800816FF35000018027F450000181236E5015
:10016800010DF35000018025616EF45000018121DA
:10017800626E400E636E000E656E010E646E81EC59
:1001880005F06E2AD6D7000E696E000ECBEC05F08E
:10019800000E6E6E1A0E6E6401D022D06B50360DB2
:1001A800BB0E0001806F7E0E0001816FF3500001CD
:1001B8008027F450000181236E50010DF350000197
:1001C8008025616EF45000018121626E400E636EDD
:1001D800000E656E010E646E81EC05F06E2ADAD7AA
:1001E800000E696E010ECBEC05F0000E6E6E1A0E55
:1001F8006E6401D012006B50360D1B0EF326000EF4
:10020800F422BB0E0001806F7E0E0001816FF35057
:1002180000018027F450000181236E50010DF35036
:1002280000018025616EF45000018121626E400E4C
:10023800636E000E656E010E646E81EC05F06E2A29
:10024800D6D7310E696E020ECBEC05F0000E6E6E3D
:100258002F0E6E6401D022D06B50900D9B0E0001C2
:10026800806F7D0E0001816FF35000018027F450EC
:10027800000181236E50010DF35000018025616E4D
:10028800F45000018121626E400E636E000E656EAF
:10029800010E646E81EC05F06E2ADAD7310E696EB4
:1002A800030ECBEC05F0000E6E6E2F0E6E6401D0BF
:1002B80026D06B50900D300EF326000EF4229B0EC4
:1002C8000001806F7D0E0001816FF35000018027CF
:1002D800F450000181236E50010DF3500001802578
:1002E800616EF45000018121626E400E636E000E53
:1002F800656E010E646E81EC05F06E2AD6D7310E5C
:10030800696E040ECBEC05F0000E6E6E2F0E6E6457
:1003180001D012006B50900D600EF326000EF422EF
:100328009B0E0001806F7D0E0001816FF35000016C
:100338008027F450000181236E50010DF350000115
:100348008025616EF45000018121626E400E636E5B
:10035800000E656E010E646E81EC05F06E2AD6D72C
:10036800000E696E020ECBEC05F0000E6E6E2F0EBD
:100378006E6401D022D06B50900D7B0E0001806F0F
:100388007C0E0001816FF35000018027F4500001BA
:1003980081236E50010DF35000018025616EF450E9
:1003A80000018121626E400E636E000E656E010EC3
:1003B800646E81EC05F06E2ADAD7000E696E030EC2
:1003C800CBEC05F0000E6E6E2F0E6E6401D026D0B9
:1003D8006B50900D300EF326000EF4227B0E0001B8
:1003E800806F7C0E0001816FF35000018027F4506C
:1003F800000181236E50010DF35000018025616ECC
:10040800F45000018121626E400E636E000E656E2D
:10041800010E646E81EC05F06E2AD6D7000E696E67
:10042800040ECBEC05F0000E6E6E2F0E6E6401D03C
:1004380012006B50900D600EF326000EF4227B0E16
:100448000001806F7C0E0001816FF350000180274E
:10045800F450000181236E50010DF35000018025F6
:10046800616EF45000018121626E400E636E000ED1
:10047800656E010E646E81EC05F06E2AD6D7310EDA
:10048800696E050ECBEC05F0000E6E6E2F0E6E64D5
:1004980001D022D06B50900D5B0E0001806F7B0E57
:1004A8000001816FF35000018027F450000181237F
:1004B8006E50010DF35000018025616EF45000016B
:1004C8008121626E400E636E000E656E010E646ED1
:1004D80081EC05F06E2ADAD7310E696E060ECBEC88
:1004E80005F0000E6E6E2F0E6E6401D026D06B5094
:1004F800900D300EF326000EF4225B0E0001806F83
:100508007B0E0001816FF35000018027F450000139
:1005180081236E50010DF35000018025616EF45067
:1005280000018121626E400E636E000E656E010E41
:10053800646E81EC05F06E2AD6D7310E696E070E0F
:10054800CBEC05F0000E6E6E2F0E6E6401D012001B
:100558006B50900D600EF326000EF4225B0E000126
:10056800806F7B0E0001816FF35000018027F450EB
:10057800000181236E50010DF35000018025616E4A
:10058800F45000018121626E400E636E000E656EAC
:10059800010E646E81EC05F06E2AD6D7000E696EE6
:1005A800050ECBEC05F0000E6E6E2F0E6E6401D0BA
:1005B80022D06B50900D3B0E0001806F7A0E000127
:1005C800816FF35000018027F450000181236E50A1
:1005D800010DF35000018025616EF4500001812166
:1005E800626E400E636E000E656E010E646E81ECE5
:1005F80005F06E2ADAD7000E696E060ECBEC05F010
:10060800000E6E6E2F0E6E6401D026D06B50900DCA
:10061800300EF326000EF4223B0E0001806F7A0E96
:100628000001816FF35000018027F45000018123FD
:100638006E50010DF35000018025616EF4500001E9
:100648008121626E400E636E000E656E010E646E4F
:1006580081EC05F06E2AD6D7000E696E070ECBEC3A
:1006680005F0000E6E6E2F0E6E6401D012006B50F6
:10067800900D600EF326000EF4223B0E0001806FF1
:100688007A0E0001816FF35000018027F4500001B9
:1006980081236E50010DF35000018025616EF450E6
:1006A80000018121626E400E636E000E656E010EC0
:1006B800646E81EC05F06E2AD6D76D50010AD8B465
:1006C800A6D4030AD8B401D5010AD8B45CD5070A60
:1006D800D8B4B7D5010AD8B443D6030AD8B4CFD60C
:1006E800010AD8A412005AD70600FACF50F0FBCF5F
:1006F80051F0E9CF52F0EACF53F0E1CF54F0E2CF16
:1007080055F0D9CF56F0DACF57F0F3CF58F0F4CFF1
:1007180059F0F6CF5AF0F7CF5BF0F8CF5CF0F5CF91
:100728005DF0000E5E6EF2BAF2A4F1D04850D8A483
:100738004806000E81B4010E5E6E5E503F18D8B4B4
:100748000BD04150D8B404D02F06D8A0300602D020
:100758002F4A302A5EC03FF0000E83B2010E5E6E53
:100768005E503E18D8B404D0334A342A5EC03EF0F6
:100778004904D8B472D077D04050D8A41BD0000E0A
:10078800416E8294838482822F502D5C2E50800A81
:100798004F6E3050800A4F58D8A007D02D502F18D0
:1007A80054E12E503018D8A450D082848384828299
:1007B800010E2FD04004D8A415D08482849484805C
:1007C8003350315C34503258D8A007D031503318E8
:1007D8003CE132503418D8A438D084828484848090
:1007E800020E17D0020E4018D8A419D0010E416E7F
:1007F8002B502F5C2C503058D8A007D02B502F18D6
:100808000AE12C503018D8A406D0828483848282CE
:10081800030E406E1AD082848394828216D0030E0F
:100828004018D8A412D0030E406E23502410D8A428
:100838000CD025C023F026C024F0000E406E2150B5
:100848003324316E22503420326E23502410D8B411
:100858005ED02306D8A024065AD04A50000AD8B43D
:100868008BD7010A54D04250D8A44BD081B029D09C
:10087800000E306E000E2F6E010E3D6E8294838442
:100888008282040E4C18D8A409D0010E2C6EEB0EEF
:1008980012D02BC02DF02CC02EF039D0060E4C18DB
:1008A800D8A404D0010E2C6E980E05D00D0E4C184D
:1008B800D8A403D002D02B6EECD7000E2C6E740E89
:1008C800FAD73D04D8A417D02F502D5C2E50800A9B
:1008D8004F6E3050800A4F58D8A007D02D502F188F
:1008E80016E12E503018D8A412D0828483848282D4
:1008F800010E426E03D0828483948282000E3D6E84
:1009080006D0828483848282848284848480F29460
:100918005DC0F5FF5CC0F8FF5BC0F7FF5AC0F6FF8B
:1009280059C0F4FF58C0F3FF57C0DAFF56C0D9FFCB
:1009380055C0E2FF54C0E1FF53C0EAFF52C0E9FFCF
:1009480051C0FBFF50C0FAFF6F92110061EC06F036
:100958008D92000E606E010E5F6E09EC06F08D82BE
:10096800000E606E010E5F6E09EC06F0210E0101AB
:10097800006F000E616E010E626E000E636E000E57
:10098800656E010E646E81EC05F0150E0101006FB5
:10099800000E616E010E626E000E636E000E656ED3
:1009A800010E646E81EC05F0080E0101006F000E67
:1009B800616E010E626E000E636E000E656E010EB2
:1009C800646E81EC05F09F0E0101006F000E616EF0
:1009D800010E626E000E636E000E656E010E646E8F
:1009E80081EC05F0200E0101006F000E616E010E12
:1009F800626E000E636E000E656E010E646E81EC11
:100A080005F0050E0101006F000E616E010E626EA9
:100A1800000E636E000E656E010E646E81EC05F0CB
:100A28000C0E0101006F000E616E010E626E000E69
:100A3800636E000E656E010E646E81EC05F0A7EC26
:100A480005F0010E6B6E000E6C6E010E09EC00F0E5
:100A5800000E6B6E000E6C6E020E09EC00F0000EBC
:100A68006B6E000E6C6E030E09EC00F0000E6B6EE0
:100A7800000E6C6E040E09EC00F0000E6B6E000E9A
:100A88006C6E050E09EC00F0000E6B6E000E6C6EBD
:100A9800060E09EC00F0000E6B6E000E6C6E070E71
:100AA80009EC00F01200EE0EF66E0C0EF76E000E5A
:100AB800F86E0900F5CF6EF002EE00F011EE00F0CE
:100AC800EE6AE550E150FCE1E250FAE101EE00F097
:100AD80011EE00F0EE6AE550E150FCE1E250FAE177
:100AE80000EE01F04E0EEE6AE806FDE16F906F929F
:100AF800000EF86E000137EF06F063C068F056ECA0
:100B080006F0780EEDEC05F024EC06F06850EDECFC
:100B180005F024EC06F061C0F6FF62C0F7FFF86A42
:100B2800050EF76403D00800F55005D0F6CFE9FFAD
:100B3800F7CFEAFFEF50EDEC05F024EC06F068EC97
:100B480006F0010E1200000E6C6E080E6C6401D0E7
:100B58001200000E696E6C50CBEC05F0000E01011E
:100B6800006F000E6B6E620E6B6401D00ED0000E2B
:100B7800616E010E626E400E636E000E656E010EB0
:100B8800646E81EC05F06B2AEED76C2ADED76A6EAC
:100B98006950800F0101006F000E616E010E626ED8
:100BA800000E636E000E656E010E646E81EC05F03A
:100BB8006A50400F0101006F000E616E010E626EF7
:100BC800000E636E000E656E010E646E81EC05F01A
:100BD80012005F6E000E606E070E606401D0120096
:100BE8005FAE02D08B8801D08B9876EC06F08B86AE
:100BF80076EC06F08B96070E6018D8B48B88D890E0
:100C08005F3676EC06F0602AE7D7000E626E000EBB
:100C1800616E0FD0000E646E000E636E645007E1C3
:100C28000A0E635CD8B003D0634A642AF7D7614AD6
:100C3800622A5F50615C60506258D8B01200EAD7EF
:100C48008B8876EC06F08B86948876EC06F082A882
:100C580002D0010E01D0000E5F6E8B96949876EC50
:100C680006F05F50120071EC06F06EEC06F074ECC2
:100C780006F0AAEC04F048EC06F0000E606E640E74
:100C88005F6E09EC06F0F9D7D59AD596D594D5922A
:100C9800D590D58CF294F28AF28E000ED76E000EA3
:100CA800D66E12008B888B8676EC06F08B9876ECE5
:100CB80006F08B9676EC06F0120094968B96949834
:100CC8008B9896928D9212008B988B8676EC06F014
:100CD8008B88120096908D90120096948D94120035
:070CE8008D8012001200666E
:10423A0000DDDDDDDDDDDDDDDDDDDDDDDDDDDDDD81
:10424A00DDDDDDDDDCDDDEDDEADCDECCDDDDDCDD99
:10425A00DDDDCDCDDDDDDDDDDDDDDDDDDDDDDDDDA4
:10426A00DDDDDDDDDDDDDDDDDDCDDCDDDDDCDDDC87
:10427A00DECFFAEADEDEDCDDCDDDDDDDDDDDDDDD56
:10428A00DCDDDDDDDDDDDDDDDDDDDDDDDDCDDCDD66
:10429A00DDCDDDDDDDDDCDCDDCDDCCDEDCEADDCE88
:1042AA00DDDDDCCCDCDCDDDDDDDDDDDDDDDDDDDD48
:1042BA00DDDDDDDDDDDDDDDDDDCDDDDDCDDDDDDD44
:1042CA00DCDCDCDCDEEDD8822072DBEEDDDDDDDD80
:1042DA00DDCDCDDDDDDCDCDDDDDDDDDDDDDDDDDD26
:1042EA00DDDDDDDDDDDDDDDDDDDDCDCDDCCEDFFA05
:1042FA00D270000170E2EADFDDDDDCDDDDCDDCDD80
:10430A00DDDDDDDDDDDDDDDDDDDDCDCDDDDDDDDDF3
:10431A00DDDDDDCDCDCDCDDDDDDDDEDB722082D88C
:10432A00EECDDDDCDDDDDDDDDDDDDDDDDDDDDDDDB3
:10433A00DDDDDDDDDDDDDDDDDDCDDCDCDDCDCEDED3
:10434A00DDEEDDEFEE962000000085DDDFDEDCEA43
:10435A00E8D6D7D7E8EBECDDCEDDDDDDDDDDDDDD72
:10436A00DDDDDDDDDDDDDDDDDDDDDDDEEFF880007F
:10437A000322222122030071F7EECECDDCDDDDCC53
:10438A00DDDDDDDDDDDDDDDDDDCDDCDCCDCEDEEC74
:10439A00EAE8D7D6D7E8EADCDEDFDD7510000020D0
:1043AA0095EEEEDEDEDEDEDECDDDDDDDDDDDDDDD64
:1043BA00DDDDDDDDDDDDDDDDDDDCDDDEDDDAC5A279
:1043CA0091707191A3674926010055DCD88150206C
:1043DA000000000000205093D7DEDDDDDDDDDDDDED
:1043EA00DDDDDDDDDDDDDDDDDDDDDFE98001123294
:1043FA0022222223232222120290DAEFCDDCDDDDF3
:10440A00DDDDDDDDDDDDDDDDDDDDCDDEEDD8A2509E
:10441A00201000000000205081E8DC5500012659D8
:10442A0067A391808081A2C6E9DEDDDDDDDDDDDD09
:10443A00DDDDDDDDDDDDDDDDDDCEEDC661100000BB
:10444A0000000000001040837729886210000000F5
:10445A0000000101000000001094ECDECDDDDDDD7E
:10446A00DCDDDDCDDDDDDDDCCEFEB5100233233350
:10447A003333333322333333221201C5FECEDDDC2C
:10448A00DDDDDDDDDDDDDDDDDDDDCEFC8410000022
:10449A0000000101000000000010637838778440B2
:1044AA0010000000000000001060C6ECDECDDDDD6B
:1044BA00DDDDDDDDDDDDDDDDDDEEA8200000001661
:1044CA002A4D6D5D4C19050043A8520000000328CF
:1044DA004C7E8E7E5D2903000011A9EEDDCCDDDC69
:1044EA00DDDCDDDDDDDDDDCDFEA40013333333336A
:1044FA00343344442333333333331200A4FEDDCD43
:10450A00DDDDDDDDDDDDDDDDDDDDEEA91100000354
:10451A00296D8E8E7E5C180400000052A8430005A7
:10452A00194C5D5D4C2A0501000020A8EEDDDDDD99
:10453A00DCDDDDDDDDDDDDDDDDEE8B0300125ACFF6
:10454A00FDECEDEDECEDBE5A5775100000279EDE2E
:10455A00ECDDDCECFDDE7A0200119AEEDDDDDDCD6C
:10456A00DDCDDDCCDDCCDDFEA500233323343334B1
:10457A0033325555333333333333332300A5FFDD19
:10458A00CDDDDDDDDDDDDDDDDDDDEE9B1200127A68
:10459A00EEEDDCDCEDEDDE9D2600001075575ACEFF
:1045AA00EDEDECDCECEDCF6A0200028AEEDDDDDD3A
:1045BA00CDDDDDDDDDDDDDDDDDDDDE6D0612A8ED67
:1045CA00CDDCDDCDDCDCDDDEAB430000129AEEDCB7
:1045DA00CDDDDDDDDDED9811045BCEEDDCDDDCDD6E
:1045EA00DDDDDCDDDDDDEEB8102233233333344389
:1045FA003322555533333333333333232210B7EF52
:10460A00DCDDDDDDDDDDDDDDDDDDECCE5B0411A82D
:10461A00EDDCDDDCDDCDDDEEAA120000439BDEEC35
:10462A00CDCDDDDCCCDEED9722066CCEEDDCDDDD1A
:10463A00DDDDDDDDCDDCDCCDDEDECEEDECCDBEDDDF
:10464A00DDDDDDDDDDDDDDDDCC34000032AAEEDDD1
:10465A00DDDDDDDDDDCDBEBECEEDDDCDDDDDCDDCEE
:10466A00DCDDDDDDCDDEEC4311333333444433434B
:10467A00332266662233433334343333331143EC03
:10468A00DECDDDDCDDDDCDCDDDCDDCDCEDDDAEAEE0
:10469A00DDDDEDDCDDDDDDEEAA21000034CCEEDD72
:1046AA00DDDDDDDDDDCDCDCDBEEDDDDDCEDEDDCC8E
:1046BA00DDCDDDCCDDDEEBE7B4B2D4E9EDDDDCCD7A
:1046CA00DDDDDDDDDDDDDDDDDD5700001086EDDE63
:1046DA00DDDDDDDDDDDCDCDDCECDDDDEDEDDDDDD1F
:1046EA00DDDCDDDCDDEFA810323333334455333300
:1046FA00332166662233333445443333342221A8C6
:10470A00EFCDDDDCDCDDCDCDDDDECECECECEDDDD2A
:10471A00CDDDCCDDDDCCDEED9600000057CDDDDD54
:10472A00DDDDDDDDDDDDDCDCDCDDEAC4A2B4D7EB1A
:10473A00DEDDDCDEECB6400001071A6CCCDDDCDC29
:10474A00DDDDDDDDDDDDDDDDEE9B12000031B8EE05
:10475A00CDDDDDCDCCCDEED7D3C2C1C1C1C2D3E54B
:10476A00F7EBEDCFCEEE7511333344333366452282
:10477A0032116666112222456633333333331265AA
:10478A00EECEDEEDEBE8E5D2C1C0B0C1C1D3D8EEC2
:10479A00CDDDDDDDCCDEEEC9310000139BEEDDDDC3
:1047AA00DDDDDDDDCDDDDDDDDDCC6B1A06010041B1
:1047BA00B5DDDDEE961000126ADEEDECCDDDCDCD75
:1047CA00DDDDDDDDCCDDDDDCDDDF6A12000041B8D8
:1047DA00EECDDCDDDDEEDA1001010101010101029D
:1047EA00021250A1D6EB44233333433322666622A6
:1047FA002211666611222266662233343333234439
:10480A00DCE591401102010101010100010010DA09
:10481A00EEDDDDDDDDEEB8410000126ADFDCDDDD54
:10482A00DDCDCDDDDDDDDDDDDDDDECFDDE7A0100BA
:10483A0032DDDDED56000011AAEEDDCCDDCDDCDD8A
:10484A00DDDCDCDDDDDDDDDDDDDDEE7B050000212F
:10485A00A3EBDECEDCFF7700011111111222122226
:10486A0031233323233343333433433322657812DA
:10487A0011006666002122885422334333343333CD
:10488A00331233322322212322111111110000770E
:10489A00FFDCCEDEEBA4200000047BDEEDCDCDDC18
:1048AA00DDDDDDDCDCDDDDDDDDDDDCCDEEA92100FD
:1048BA0011DDDCEE8A12000062EAEDDECCDCDDDD21
:1048CA00CDDDDDCCDCDDDDDDDDDDDCEEAD280200BD
:1048DA000051C6EBDEFF650011111222212133457A
:1048EA002532334433333433553432432232883415
:1048FA00100066660010349943223332344543333C
:10490A003333333322254643222212111111005523
:10491A00EFDEEBC65110000228AEDEDDCDDDDDCDC7
:10492A00DCDDDDDDDDDDDDDDDDDDCDEED9630000E5
:10493A0023DDDDEDDE6C04001040B5FAEDDECECDF0
:10494A00DDCDDDDEDEEDECEBEBEAEAEAFBFD9D3BDD
:10495A0006021151B5FB65001122222223232243AC
:10496A00754935323334333353562321222187563E
:10497A00000055550000568821222223565422331E
:10498A00333442255986322333222212121100640B
:10499A00FBB5421102053A9DEEEBEBEAEAEBEBECD2
:1049AA00DDDEDECECDCDCDDEDEEDEAB55000000493
:1049BA006CDDDDDDECEDAF4B0502002070A1C4C754
:1049CA00DAE9D6B39170503020203030304080A2DE
:1049DA009488694A276622112122223333333334D9
:1049EA0023838B482233333322665711211076678B
:1049FA0000005555000066770021115766313333A0
:104A0A003332399A84233443342323222222013332
:104A1A0065284A6A88B4A17040303020203030407E
:104A2A0060A1B3C7D9D9C7B4A270300002054BAF91
:104A3A00EDDDDCDDCEEDD792728768371719688411
:104A4A0051200000000000010102010100000000E5
:104A5A0000003071A4CB5802312233334344454419
:104A6A00443443C87C2432321232982410005477DA
:104A7A000000444400007744001024894222233273
:104A8A00247BC953234534444443333333230168D5
:104A9A00CBB37130100000000001010202020100D4
:104AAA00000000002051846718174767867292D762
:104ABA00EDDDCDEED982100000001045888330006C
:104ACA0000000105294C7E9E9EAEAE9E8E7E4D2A2A
:104ADA0008040100106375222333335557464455A1
:104AEA0056553543C68C2521321175680100328727
:104AFA000100444400017732000168860122222520
:104B0A009CB633445645554446575644333223756A
:104B1A006200000104072B4D6D8E9EAEAEAE8E6D07
:104B2A005D2A05020000003083894520000000103C
:104B3A0083CEDDCD7B2A1A1919193B785100001052
:104B4A0002398DDFFDECDCDDDCDCDDDDCDDDEDED1C
:104B5A00DDBE7D4C183556342334454565A78B4A4E
:104B6A004555655523A59C252112329824001076B7
:104B7A00120043330022661000249831211025AC1C
:104B8A00A534555665555A8CA76544454532446641
:104B9A0025274B8EBEDDFDEDDCDDDDDDDDDDDDDD7A
:104BAA00DDEDCE8D280200000051784B0A18191A43
:104BBA003BDDCDCDDCEDEDEDEDFEEB54000000026A
:104BCA0069DEEDDDCDCDDCDCDDDDECEAF9F9EAEA22
:104BDA00EBDCECFEDFAF9E7923444565564695D85B
:104BEA00BF6B45555623A59B1411107667000065C7
:104BFA0023003433002365000067751111249B9646
:104C0A00335556555BBFE885476656554423699E1A
:104C1A009FEFEEECDBEBEAF9F9F9FAECDDCDCDDD4D
:104C2A00DCCDDCEDDE690100000063DBFEEDEDEDBD
:104C3A00EDDDDDDDDDDDDDDDDDEEBB2300000023A6
:104C4A00BCEEDDDDDDDDDCCDDFE9200000000000AB
:104C5A00000020206080C1D3734265676777676769
:104C6A0086FABF39645533968A1300438712005572
:104C7A0033003434003354001288320013999634C6
:104C8A00555449AFFA965777676766653373D3C148
:104C9A00906030100000000000000030E9EEDDDD19
:104CAA00CDDCDDDCFEBB3400000022BBEECDCDCD79
:104CBA00DDDDDDDDDDDDDDDDDDDDBD360000003124
:104CCA00B8EFDDCDDDDDCDDDFE42000100000000E4
:104CDA0001100101010101000000002061838789A0
:104CEA007967D7FE6C45543497671221774501449A
:104CFA004411444412444401347611026797334400
:104D0A00457DFED76669898784603000010100000D
:104D1A0001010101011100000100010052EEDDCC88
:104D2A00DDDDDCDEEEC83100000046BDEEDDDDDC97
:104D3A00DDDDDDDDDDDDDDDDDDDCED9C2701000017
:104D4A0040B3D8EDDDCCDDDDDC100001000112013D
:104D5A00001111111101021210111111020120503A
:104D6A0093986986EAAC3754548745236656234597
:104D7A0055244545344545235666124678544546DA
:104D8A009DEA7569989351100101121110111212BE
:104D9A0011110111111002021101100010DCDDDDE8
:104DAA00DCCDDDE9B340000001279DEEDCDDDDCC82
:104DBA00DDDDDDDDDDDDDDDDDDDDDCEDCE7E4B18CF
:104DCA00071A7CCDDDDCDCDEDE1200101111213386
:104DDA0036131121121221314615111112222213F2
:104DEA000230828868B8BA4745777845667745566B
:104DFA005655555545565645776645787656569BC7
:104E0A00B768998330031221221112012436221124
:104E1A0012121111042633201111010012DDEEDCE9
:104E2A00DDECCD6D1907184B7ECEEDDCCDDDDDCD89
:104E3A00DDDDDDDDDDDDDDDDDDCDDDDCDCDDEDED8A
:104E4A00DDEDDDDCDDDDCCDDFF58001011111211C6
:104E5A00228158291320121321835A19113133231D
:104E6A003334134384879898687788787777777785
:104E7A0068776767677777777777788867779899B2
:104E8A00788442233432232331111969832102326F
:104E9A0020041968722002121111110057FFDDDC7B
:104EAA00DCDDDCDCEDEDDDDDDDDDDDDDDDDDDDDD0B
:104EBA00DDDDDDDDDDDDDDDDDDCDDDDDDDDDDDDD28
:104ECA00DDCDDDDDDCDDDDDDEDBE130022112112DD
:104EDA0022121171A56B1913211142A49A3B144194
:104EEA00343445353364988A8888898989898987D9
:104EFA00877776768787878899898988888989874D
:104F0A0064344434354431242B9AA35102211218B3
:104F1A006BA571200222211211121004BEEDDDDDF3
:104F2A00DDDDDDCDDDDDDDDDCDDDDDDDDDDDDDDDC7
:104F3A00DDDDDDDDDDDDDDDDDDDCDDDDDDDCDDCDA9
:104F4A00CDDDDEDFDFCEDEDEDEFF9F0510211121A3
:104F5A00222222231230A2B75B18120141A2B86C96
:104F6A0037444465564565979A9A99979675646544
:104F7A005454545454546465759697999A9A9865FA
:104F8A004566555545376BA9B2211113184BB7B170
:104F9A0041022232222222211210059FFFDEDEDE8A
:104FAA00CFDEDFDECDDDDDDDCDDDDDDDDDDDDDDD51
:104FBA00DDDDDDDDDDDDDDDDDDCDDDDDCDCFDFEC34
:104FCA00E8E3C190704040405070B0731211221251
:104FDA00122131212222121241A1A75A2824325326
:104FEA00B579685767675777A89665544444434329
:104FFA004343334343434344444455749798776740
:10500A006767576898A5632324286AA6A1410212F4
:10501A002221222121121221211183C070504040E5
:10502A00407090C1E3F8ECDECFDDDDDDDDDDDDDDF6
:10503A00DDDCCEDCDCCDDDDDDCCECFEDF6C0500034
:10504A000001010111111111111111111111112177
:10505A0031443516151210202121112172957858E4
:10506A00475677878889898765554444333332227E
:10507A002222222222222232333343445465878851
:10508A007878877656475877957131021220201121
:10509A001205163534322111111111111111111184
:1050AA001111000001000060B0F6EDDFDDDDDCDC8F
:1050BA00DCDDBCDDDEDCDDCFFDF591200002010088
:1050CA0001011111111010101011111111111111EA
:1050DA0011012040608387592A171512222343643D
:1050EA008677888989998754444443332222212127
:1050FA0011111111111121212222323344545476F3
:10510A009999898887856443133123051739597614
:10511A008460402101011111211111111111101086
:10512A001011111111101101010010A0F7DDDEDDBF
:10513A00DCDDECDDCDDFFBC1300101101101011115
:10514A00111121313233343536171706040302019F
:10515A0000000010000000203070819375676968B4
:10516A0067778899A987654444333322211111113D
:10517A00101000000010111111212222334444554D
:10518A0087AA9978676858686785838160401000A4
:10519A000000101010000102030506071727353416
:1051AA004332212011111111011111010040C2EBEA
:1051BA00DFCDDDDFF9B0100111000111111111115C
:1051CA0011111111010100101030406070718273C9
:1051DA007465564636261606050504041424355504
:1051EA007677889998664544333222211111000056
:1051FA000000000000000010111122222243444442
:10520A0065989988776656452404040404050616A9
:10521A0026374666757473828170604030201001AB
:10522A0001111111111111011110110111110000B7
:10523A00A0CFF8A00000000110111112020303040C
:10524A0004040505060606050506060606050505FF
:10525A000505040303021212213232424253545505
:10526A00657677988855444433222211110000004C
:10527A000000000000000000001111222233345403
:10528A005587987776655454534242323222121225
:10529A0003030304040405050606060606060505B7
:1052AA000506050504041303030312110111110075
:1052BA0000FD7F1800001001111020212131314119
:1052CA004150505060606060606060606060605033
:1052DA005050504040303021222223232434455557
:1052EA0066677789885544443322221111000000E9
:1052FA000000000000000000001111222233444483
:10530A00557889786755454534242323222221304C
:10531A003040405050606060607060606060606003
:10532A00606050505040404030211110101101105F
:10533A0010DDECFE8F08001010101111111111115F
:10534A001111111110101000010303050607172887
:10535A003857666473736160504040403142445527
:10536A006678889989664444332322121111000011
:10537A0000000000000000011111122223344444ED
:10538A00568A998877665554324140405050617226
:10539A00726465665737280807050504020100107C
:1053AA001011111111111111110111010120000126
:1053BA0008DDDDCDECFDAF0B01001011111111114B
:1053CA001112121223344453636161605040301049
:1053DA00000000010000000002061839597776869D
:1053EA0086778799AA7855444433232211111101EB
:1053FA00000000000000011111112223334444551A
:10540A00789A89878786758777483918060200004F
:10541A000001010000102030406060617162534455
:10542A0034131312111111111111011000012B9FC4
:10543A00FDDDDDDDDDDDDDEDED4F070010100011D6
:10544A001111212111010101010111111111111172
:10545A001110110306386885937160412223334580
:10546A00587988879999674554343323222212122E
:10547A0011111111111111122222233344444567CB
:10548A009A988887785845332223316071938658D1
:10549A003906040110111111111112111101110112
:1054AA001101112111011110101000086FDEFCDD2D
:1054BA00CDDDDDDDDDDDDDDDDDDDFDDE5E0B050007
:1054CA0000101001111111111111101111111101F6
:1054DA00133453626041110212211113174977855F
:1054EA00746577788797887846554434342323221D
:1054FA002222222222222323333444444456788807
:10550A0098888777667495774817222012120211B5
:10551A00316062534423121112121010211110111A
:10552A0011010111101000060B5FCEFDDCDDDDDD7F
:10553A00DDDDDDDDDDDDDDDDDDDCDDDDDDFDFDAE81
:10554A006F2D0B080605040405071B2721111221DC
:10555A00210212221222201113196AA792513235FE
:10556A004B888676777775778A69574544444434F9
:10557A003433333333333434444445566979777595
:10558A0077667686895A26326192965A19032021BD
:10559A0022221212112122121211270A06050504CB
:1055AA000506080B2D6EAEEDFCDCCDDCDDCDDCECAA
:1055BA00CEDDDDDDDDDDDDDDDDDDDDDCDDDDDDDD21
:1055CA00CDEDEDFDFDEDEDEDEDFFF95001121112FE
:1055DA00212222222103297AB6913211132A8BC75A
:1055EA008354455565645679A9A9997968575645EA
:1055FA00444545454545555656687A8AA9A9795676
:10560A00645554555482B78B2922123091B66B19BE
:10561A002221222222222212120150FAFFEDEDED5E
:10562A00FDFDFDEDEDDDDDDDDCECDDCDDDDDDDDD22
:10563A00DCDDDDDDDDDDDDDDDDDDDDDDDDDDCDDDA1
:10564A00DCDDCDDDCDDDDCDCDEEB3100112122122B
:10565A00222112065AB6913103211449AAB35123C1
:10566A0043434444424689988998989898989888D8
:10567A0078686867687888899998998998889988EC
:10568A003642444443432341C3BA3A042113319175
:10569A00B64A16112123122112120041EBDEDDDD7A
:1056AA00DDDCDDCDDDDDDCDCDDDDCDDDDDDCDDCD54
:1056BA00DDDDDDDDDDDDDDDDDDCDDDDCDDCEDEDE2E
:1056CA00DEDECECDDCDDDDDDFF750000211221112D
:1056DA000226779340021221122896922012333220
:1056EA00233332234887888986778887778787870D
:1056FA0086867676767676767777878877888899B3
:10570A0087482332433232231220919738122123B9
:10571A0011408377260220211111110085FFDDDD5A
:10572A00DDDDCDCEDEDEDEDECDDDDCDDDDCCDDDDDC
:10573A00CDDDDDDDDDDDDDDDDDDDCDDEEDD8B49217
:10574A0080A1C7DCDDCDDDDDDD32000111111224BF
:10575A0053401002222001235460010232211131E8
:10576A0030133889867ABA75657776647676646690
:10577A006664556564656564777654777764869957
:10578A008B8689370221312122310211506424018A
:10579A0021220211506324021011000031ECDDDDD8
:1057AA00DCDDDCD7A18091B4E8EDDECDDCDDDDDD2A
:1057BA00DDDDDDDDDDDDDDDDDDDDEEDA82200000D3
:1057CA00032B8ECDDCDCDDDDCC1100001011202096
:1057DA0000111111111121211011101110101004B2
:1057EA00297996779ECA644444885432666632544C
:1057FA00544254544355543266663254784544747C
:10580A00CA8F7796792905001011101111111121EB
:10581A0011111111110111211110000011CDDEDD3C
:10582A00CDDDCD8E3B0300001081CADECDDDDDCC9F
:10583A00DDDCDDDDDCDDDDDDDDDEDC64000000136A
:10584A008BEEDDDDDDDCDDDDEE2400000100100085
:10585A00101000011110100010000003063778889C
:10586A0087756CEED7555334697621126754004414
:10587A004411444411544400546712218669335533
:10588A0055E7DF7B659798773805030000101010FD
:10589A0001011010101101000010000025DFDDDCED
:1058AA00CDDCDDDCEE8B0300000064DBEECDDDDC5D
:1058BA00DCDDDDDDDDDDDDDCDCEDBB32000000330F
:1058CA00CCEDDDDDDDDDDDDDFD9D0300000000004A
:1058DA000000020305070B2B272456767677766697
:1058EA0068AFFBA446554469A831003478210055B5
:1058FA0043004443004344002178230031A859322D
:10590A00554595FBAF5974787776765534261B0B37
:10591A000704030201000000000000039CFEDCCC27
:10592A00DDCDDDCCFECB3300000022BBEEDCDCDDBE
:10593A00DDDCDDCDDDDEDEDEDEEFCD350000002094
:10594A00A6EEDECDCCDDDDCDDDECBE9E9F9F9FAE0B
:10595A00BECDDEEEFDFBE9A6334445567674588C7F
:10596A00FCC65456644348BA4111015776000055A3
:10597A003200443400325600007657001241B959B9
:10598A0033555555C5FC8E57755655553342A6FAAB
:10599A00FBFDEECEBEBEAEAEAF9F9EBEFDDCDDDC35
:1059AA00DDDCCDDEED962000000036BDEFDEDEDE6A
:1059BA00DECDDEDCC7A3919191A1B5882400000059
:1059CA0020A2D9EDDEDEDDDDDDCDDDDDDDDDDDDEF6
:1059DA00DEEDE8D48253655323435454467AC8B45F
:1059EA00455665543359CA62121123894200016728
:1059FA00210044440022661100438813211252BA3E
:105A0A00594365555655A5D87A5544544433547567
:105A1A005391B5E9ECDDCECECDCDDDDDDDDDDCCDDE
:105A2A00CEDEEDD893200000001488B4A1929192A2
:105A3A00B3CDDCEE9D170100000010638838020028
:105A4A0000002051A3D5E7E9EBEAEAEAE9D7D5B2A3
:105A5A00814010001035563232334455756444552E
:105A6A00555554335BC962132211578700002377B7
:105A7A001000443400007723000087670133124383
:105A8A00D95A335355556445648554343332326692
:105A9A00250000104081B2C5D8E9EAEBEBEAE9D764
:105AAA00C6A26010000000032889541000000001FB
:105ABA0027DCDDDCECCE6D192759777471828648B4
:105ACA000601010000001010202030201000000004
:105ADA00000103064ABC861023324343334444542C
:105AEA004442358CC7421333212489520100457739
:105AFA0000004544000077450001528824213322E2
:105B0A0043C78C36425445534434433233221086B9
:105B1A00BC3A0602010000000010202030202010AC
:105B2A000000000001155876816274776827096DB4
:105B3A00DEDDDDCCCDEEFAC46030000206194B7C06
:105B4A008D7D6C3B18060402020202020204071A47
:105B5A003A6897A4826523012122223333333333EF
:105B6A003337AA83233433331267751112016776E8
:105B7A00000055550000666701221175671233331C
:105B8A00333294A938324334433233223122003239
:105B9A006592A49778391A070302020102020304E4
:105BAA0005082B5D7D8D7B4B1A0602003060B4FA26
:105BBA00DECDDCDEDDC6500000044A9FDEFCEDDDF2
:105BCA00DDDDEDEDEDDDCEBEAE9EAEAEAFDEEAB40E
:105BDA00602011144AAF5500122221222233323397
:105BEA00479552244333332335763222221288656D
:105BFA000000565600005588122223327644333369
:105C0A00334324529548323232222222121100564C
:105C1A00AF4A14012070C4EACEBEAE9E9EAEAECD8F
:105C2A00DDEDECECDDDDEDECEDDE9E3A030100503E
:105C3A00C7DDDDEEA8210000269DEEECCDDDCCDD32
:105C4A00DDDDDDDDDDDDDDDDDDCDDEDEEA9320005F
:105C5A0000156BBDEEFE550011111121211233639F
:105C6A005224333344343333554423332233884361
:105C7A0000006666000143993322333343543424C7
:105C8A003334433323537333222121111111005525
:105C9A00FEEEBE5B0500002183EAEDCDDDDDCDDD44
:105CAA00CDDDDDDDDDDDDDDDDDCDDCFEAD260000BB
:105CBA0033DDDDDD660000119AFEDCDDDDDCCDDDE5
:105CCA00DDDDDDDDDDDDDDDDDCDDEDC74000000233
:105CDA0039BEEEDCDDFF78001011111121213132BD
:105CEA002223334231333334333333332256873228
:105CFA001101666601112287452233333343433348
:105D0A00243132332322212122211120101100783B
:105D1A00FFDDDCFEBE3902000040C8EDDDDDDDCC72
:105D2A00DDDDDDDDDDDDDDDDDDDDCDDDEE9A120083
:105D3A0011DDDDEE79010020A7EEDFCECDDDDDCD70
:105D4A00DDDDDDDDDDDDDDDDDDEDA7300000147B31
:105D5A00DEECCDDDDCFEAC000000101010101010DF
:105D6A00201003186EAF453233334333236665225E
:105D7A002211666611222276662243333333224584
:105D8A00AE5E08132010201000101000100001ADA4
:105D9A00EDDDCDCCEDDE7B14000030A6EDDECCDDF2
:105DAA00DDDDDDDDDDDDDDDDDDDDDEDEFDA71000D7
:105DBA0012DDDDDDBE5A04002070B2C6CBDEDDDDA9
:105DCA00DCDDDDDDDDDDCCDDEEB8310000138BEE90
:105DDA00DCDDDDDCCDDCEE6E3D1D1C0B1B1C3D4EFF
:105DEA006FAFDDFDFCDE46223333333333664422A4
:105DFA002312666711332254663433333333115511
:105E0A00EEEDEDDD9F7F4E1D2C0B1C1C2C3E7EED16
:105E1A00DCCDDCDDCDDDDE8B13000031B9EEDDDD5E
:105E2A00DDDDDDDDDDDDDDDDDDCCC5B270200003CD
:105E3A005BDDCDDDDDDEBE6D2C1B3C9DDDDDDCDCFE
:105E4A00DDDDCDDDDDDDDDDDDC6500000168DEEDFB
:105E5A00DDDDCDDDDDDDDDDDDCECEDEDEDDDDDDD3A
:105E6A00CDDDDDDDCDEF89113333333344543333A4
:105E7A003312766622333333554433333332118A3D
:105E8A00EECDDDDDDDDDDDDDDDECEDEDEDDCDDDDF9
:105E9A00DCCDDDDDDDDDDDDE6800000065EDDEDDAB
:105EAA00DDDCDCCDDDDCDDDDDCED9D3B1A3B6DBEF2
:105EBA00EDDCDDDDDDDDDCEDEDEDDCDDDDEBEBDDAF
:105ECA00DDDDDCDCDDDDDDDECC43000012AAEEDC4C
:105EDA00DDDDDCDDDDDDDBEAEDDEDECDDCDDCCCDFE
:105EEA00DDDDDDDCDCEDCE242133333343443333D3
:105EFA00332266662233333344433333332124CE89
:105F0A00EDDDDDDDDDDDDDDDDDCDDCCDDEEDEADBAC
:105F1A00DDDDDCCCDDDDDDEEAA12000044CCEECC0A
:105F2A00DDDDDDDCDDCDDCEBEBDEDDDDEDEDDCDC6E
:105F3A00CDDDDDDDDDDDDCDCDDDDEDD7803179DEFB
:105F4A00DCDCDDDDDCCCDEEDB934000022AAEFCDED
:105F5A00DCCCDDDDDDDE893140B6ECDDDDDDDCDD2E
:105F6A00DDDDDDDDCDDDFE7A01213333333333333D
:105F7A0033226555223333333333333231017BFFD6
:105F8A00CDDDDDDDDDDDDDDDDDDDDDEDB6503189EB
:105F9A00DEDDDCDDDDCCDDEEAA21000044B9EDDE7C
:105FAA00DCDCDCDDDCDDCE893080C7EDDDCCDDDD9F
:105FBA00DDCDCDDCDDDDDCDDDDEEB8210021A6FDA9
:105FCA00CECEDDDDCDDFECA6755701000073DAEE2B
:105FDA00DEDDDCDDDEFEA8200020AAEEDDDDDDDD73
:105FEA00DDDDDCDCDDDDDCDF591022333333333336
:105FFA003322555522333333333333220059EFECEE
:10600A00DDDDDDDDDDDDDDDDDDDCEEBA210021A853
:10601A00EEDECDDDDDDDEEDA720000015775A6EDAC
:10602A00DEDEDDDDDEDFFCA6200030B9FEDDCDDD03
:10603A00DCDDDDDDDDDDDDDDDDEF791200001060A8
:10604A00B2C5D7D6D4A240004379250000003182D8
:10605A00D5F9E9E9E79330000011AAEEDDDDDDDDCF
:10606A00DDDDDDDDDDDDDDDDEE391022333134331A
:10607A0033224443333333333322320049DEDDCD16
:10608A00DDDDDDDDDDDDDDDDDDDDEE9A02000030AA
:10609A0093E6F8E9E8D682300000003579440050EA
:1060AA00A3D4D6E6D5A250200000028AEEDDCDDDCB
:1060BA00DCDDDDDDDDDDDDDDDDECCE6C05010000E6
:1060CA0000000000000105377893772601000000E0
:1060DA0000001010000000000149CDEECCDDDDCD3E
:1060EA00DDDDDDDDDDDDDDDDDDEF4B0130242233FD
:1060FA0033333333323233232231004BEFECCCDDEE
:10610A00CCDDDDDDDDDDDDDDDDCCEDCE4801000001
:10611A000000102000000000000027779476380461
:10612A00000000000000000001067BDEEDDCDDDD82
:10613A00DDDDDDDDDDDDDDDDDDDDDCEDCE8E5C2A08
:10614A001816061839679472200065BD7E18040275
:10615A0000000000000204297DDEDDDCDDDDCCDD8F
:10616A00DCDDDDDDDDDDDDDDDCDCEE8E07103022A1
:10617A00332222222323323110078FFEDCDDDDCDCC
:10618A00DDDDDDDDDDDDDDDDDDDDCDEDDE7C290422
:10619A000201000000000104176ECE65002071851F
:1061AA007729180706171A4C8ECEDDDCCCCDDDDD3B
:1061BA00CCDDDDDDDDDDDDDDDDDCCDCDCCDDEDED28
:1061CA00DDDDECFDCE5A0300000157DDFDDDBE8E9C
:1061DA007D5D5D5D7E9ECEDDECDCDDCDDCDDDDDD75
:1061EA00DDDCDDDDDDDDDDDDDDDDDDECEE6E0721B7
:1061FA0021222221222111265FEEFCCDDCCDCDDD2C
:10620A00DDDDDDDDDDDDDDDDDDDCDDDDCDEDEDBEC4
:10621A009E7D6D5D5D7E9EBEEDEDCD570100000356
:10622A004AEEEDDDDDEDEDEDDDDCDDCDDDDDDCDDE8
:10623A00DD73403030403030403030303030303034
:10624A003030303030303030304030303030404014
:10625A0030403040304030403030403040304030C4
:10626A0040303030303030303030404040403040C4
:10627A003030304030304030404030404040304094
:10628A0030303030303040404030304030403040A4
:10629A00744400001D9D9EAE9E9E9E9E9E9E9E9E46
:1062AA009E9E9E9E9E9E9E9E9E9EAE9E9E6E090057
:1062BA00000000000009807070807080707080702B
:1062CA00808080808080808080707070807071197A
:1062DA0001000008728070808070807080807080F9
:1062EA007080808080808080708070807028030039
:1062FA0043330099EEEDEEEEEEEEEEEEEEEEEEEE5E
:10630A00EEEEEEEEEEEEEEEEEEEDEEEDEEEEEF335F
:10631A00000000008800000000000000000B0B00D5
:10632A000000000000000000000000000000001053
:10633A0077004353000000000000000873000000CB
:10634A0007000000000000000000000000008800B4
:10635A0043440099EEEEEEEEEEEEEEEEEEEEEEEEEB
:10636A00EEEEEEEEEEEEEEEEEEEEDEEEEEDEEE341D
:10637A0000000000870000000000000BBFFFFFBF05
:10638A000B000000000000000000000000000000F8
:10639A008800433400000000000A8B3000000983A3
:1063AA00300000000000000000000000000077003C
:1063BA0043330099EEEEEEEEEEEEEEEEEEEEEEEE9C
:1063CA00EEEEEEEEEEEEEEEEEEEEEEEEEEEEEE448D
:1063DA000000000077000000000BBFFFFFFFFFFF77
:1063EA00FFBF0B00000000000000000000000000DA
:1063FA008800333400000008932060950EAFFF4FE9
:10640A0004000000000000000000000000008800F6
:10641A0033330099EEEEEEEEEEEEEEEDEEEEEEEE4C
:10642A00EEEEEEEEEEEEEEEDEEEEEEEEEEEEEE442D
:10643A00000000008700000ABFFFFFFFFFFFFFFF09
:10644A00FFFFFFBF0B00000000000000000000007B
:10645A00880034330000002000000BBFFFFFFFFF5D
:10646A00EF5F040000000000000000000000880048
:10647A0033330099EEEEEEEEEEDEEEEEEEEEEEEEFB
:10648A00EEEEEEEDEEEEEDEEEEEEEEEEEEEEEE44CE
:10649A000000000078000040F4FFFFFFFFFFFFFF4D
:1064AA00FFFFFFFFFFAA000000000000000000003D
:1064BA008800334400000000089260F4FEFFFFFFEA
:1064CA00FFFFEF4F040000000000000000008800FA
:1064DA0033330099EEEEEEEEEEEEDEEBD4A0501082
:1064EA000000102060C0E6EEDEEEEEEEEEEEEE44C8
:1064FA0000000000870000000040E4FFFFFFFFFFEC
:10650A00FFFFFFFFFF8700000000000000000000FF
:10651A0088004334000000103000000040E4FEFF11
:10652A00FFFFFFFFEF4F050000000000000088009A
:10653A0033330099EEEEEEEEEEEEC20000000408F0
:10654A000A0A090600000040E8EEEEEEEEEEEE441E
:10655A00000000008800000000000040F4FFFFFF78
:10656A00FFFFFFFFFE000000000000000000000027
:10657A00870033330000000000000000000050E5EF
:10658A00FEFFFFFFFFFFFF5C000000000000880025
:10659A0034330099EEEEEEEEEE9400001CCEEEEDF2
:1065AA00EEEEEEEEEE7E030010ECEEEEEEEEEE44D4
:1065BA000000000088000000000000000040F4FA1B
:1065CA00F7F3F0C0B02A020000000000000000004B
:1065DA0087003333000000000000000000000000C4
:1065EA0050F4FFFFFFFFFFFF0300000000007800E8
:1065FA0033330099EEEEEEEEEE120023EEEEDEEE0F
:10660A00EEEEEEEEEEEE9A0000A8EEEEEEEEEE44C0
:10661A0000000000880000000000000000000000E8
:10662A00000000000000A01B0100000000000000A4
:10663A008800333300000000000000000000000062
:10664A00000040E4F8F9FDFD6C000000000087003E
:10665A0043330099EEEEEEEEEE240020DAEEEEEE93
:10666A00EEEEEEEEEDED830000ADEEEEEEEEEF3384
:10667A000000000088000000000000000000000088
:10668A000000000000000000B02A02000000000024
:10669A007700333300000000000000000000000013
:1066AA00000000000000000060960600000078006C
:1066BA0043330099EEEEEEEEEEAE03000060DAEE42
:1066CA00EEEEEEEEA32000014CEEEEEEEEEEEE4420
:1066DA000000000088000000000000000000000028
:1066EA0000000000000000000000A02600000000DA
:1066FA0078003333000000000000000000000000B2
:10670A0000000000000000000000000000008800F7
:10671A0033330099EEEEEEEEEEEEDE3E0802ABEE1D
:10672A00EDEEEEDF35060DAEEEEEEEEEEEEEEE44FB
:10673A0000000000880000000000000000000000C7
:10674A00000000000000000000000000000000003F
:10675A007800333300000000000000000000000051
:10676A000000000000000000000000000000880097
:10677A0033330099EEEEEEEEEEEEEEEEEEEEEEDEF8
:10678A00EEEEEEEEEEEEEEEEEEEEEEEEEEEEEE44C9
:10679A000000000088000000000000000000000067
:1067AA0000000000000000000000000000000000DF
:1067BA0077003333000000000000000000000000F2
:1067CA000000000000000000000000000000880037
:1067DA0033330099EEEEEEEEEEEEEEEEEDEEEEEE89
:1067EA00EEEEEEEEDEEEEEDEEEEEEEEEEEEEEE4489
:1067FA000000000088000000000000000000000007
:10680A00000000000000000000000000000000007E
:10681A008700333300000000000000000000000081
:10682A0000000000000000000000000000008800D6
:10683A0033330099EEEEEEEEEEEEEEEEEEEEEEEE27
:10684A00EEEEEEEEEEEEEEEEEEEEEEEEEEEEEE4309
:10685A0000000000880000000000000000000000A6
:10686A00000000000000000000000000000000001E
:10687A008800333300000000000000000000000020
:10688A000000000000000000000000000000880076
:10689A0033330099EEEEEEEEEEEEEEEEEEEEEEEEC7
:1068AA00EEEEEEEEEEEEEEEEEEEEEEEEEEEEEE33B9
:1068BA000000000088000000000000000000000046
:1068CA0000000000000000000000000000000000BE
:1068DA0088003333000000000000000000000000C0
:1068EA000000000000000000000000000000880016
:1068FA0033340099EEEEEEEEEEEEEEEEEEEEEEEE66
:10690A00EEEEEEEEEEEEEEEEEEEEEEEEEEEEEE3358
:10691A0000000000880000000000000000000000E5
:10692A00000000000000000000000000000000005D
:10693A00880033330000000000000000000000005F
:10694A0000000000000000000000000000008800B5
:10695A0033440099EEEEEEEEEEEEEEEEEEEEEEEEF5
:10696A00EEEEEEEEEEEEEEEEEEEEEEEEEEEEEE33F8
:10697A000000000088000000000000000000000085
:10698A0000000000000000000000000000000000FD
:10699A0088003333000000000000000000000000FF
:1069AA000000000000000000000000000000880055
:1069BA0033430000C0E8E9E9E9E9E9E9E9E9E9E995
:1069CA00E9E9E9E9E9E9E9E9E9E9EAE9E9F6900061
:1069DA000000000088000000000000000000000025
:1069EA00000000000000000000000000000000009D
:1069FA00880033330000000000000000000000009F
:106A0A0000000000000000000000000000008800F4
:106A1A0043340000000000000000000000000000F5
:106A2A00000000000000000000000000000000005C
:106A3A0000000000880000000000000000000000C4
:106A4A00000000000000000000000000000000003C
:106A5A00870033330000000000000000000000003F
:106A6A0000000000000000000000000000007800A4
:106A7A0034340000030A0708070707070707070750
:106A8A000707070707070707070807080709000096
:106A9A000000000088000000000000000000000064
:106AAA0000000000000003070707070707000000AF
:106ABA0078003333000000000000000000000000EE
:106ACA000000000000000000000000000000880034
:106ADA00334300378000000000000000000000007F
:106AEA000000000000000000000000000000A303F6
:106AFA000000000088000000000000000000000004
:106B0A0000000000000075FFFFFEFAF4F01000001C
:106B1A00780033330000000000000000000000008D
:106B2A0000000000030707070707070000008800A6
:106B3A00334300770000000000000000000000005E
:106B4A0000000000000000000000000000003333D5
:106B5A0000000000880000000000000000000000A3
:106B6A000000000000000000459AEFFFFB01000052
:106B7A00880033330000000000000000000000001D
:106B8A000000000075FFFFFEFAF5F0200000870004
:106B9A0034340088000000000000000000000000FB
:106BAA000000000000000000000000000000333375
:106BBA000000000088000000000000000000000043
:106BCA0000000000000057FFFFFFAF2F2F02000058
:106BDA0078003333000000000000000000000000CD
:106BEA00000000000000449BDFFFFC10000087004B
:106BFA00344400780000004F6F6F6F6F6F6F0200B0
:106C0A000000000000000000000000000000333314
:106C1A0000000000880000000000000000000000E2
:106C2A0000000000000022676767675767000000DE
:106C3A00770033330000000000000000000000006D
:106C4A000000000057FFFFFFAF2F1F010000780070
:106C5A0034430087000000F1F7FCCF7F1F2A0000B1
:106C6A0000000000000000000000000000003333B4
:106C7A000000000088000000000000000000000082
:106C8A0000000000000075FFFFFEFAF5F01000009A
:106C9A0087003333000000000000000000000000FD
:106CAA0000000000236767676767670000007800D5
:106CBA0033430078000000040A0F5FFDF8F3200058
:106CCA000000000002090D0A04000000000033342D
:106CDA000000000087000000000000000000000023
:106CEA000000000000000000459AEFFFFB010000D1
:106CFA00870043340000000000000000000000008C
:106D0A000000000070F0F0F0F0F1FF1200007700D0
:106D1A0033440078000000FFFFFFAF7F7F7F02004F
:106D2A000000005FFDF2F0F2FC6F00000000443446
:106D3A0000000000870000000000000000000000C2
:106D4A0000000000000057FFFFFFAF2F1F010000E7
:106D5A00870044330000000000000000000000002B
:106D6A0000000000000000000022FF12000088005E
:106D7A004334007800000015262616262616000041
:106D8A00000021FF6700000046FF44000000334472
:106D9A000000000086020000000000000000000061
:106DAA000000000000002060606060606000000574
:106DBA0074003346000000000000000000000000DC
:106DCA000000000000000000000040000002770000
:106DDA0034340078000000FFFAFAFFF6FAFF1200D6
:106DEA00000000D1FDAF7F9FFED2000000003443B7
:106DFA000000000000907080807070707070707079
:106E0A0070707080708080708080808080708060F8
:106E1A000000006080807080707070707070707098
:106E2A0070807070807070807080708070900000C8
:106E3A0033430078000000FF6666FF0066FF120019
:106E4A0000000003091F66360606000000003443EE
:106E5A000000000000000000000000000000000028
:106E6A000000000000000000000000000000000018
:106E7A000000000000000000000000000000000008
:106E8A0000000000000000000000000000000000F8
:106E9A0043430088000000F54636C60656F6100041
:106EAA00000059FFFAFFF6F6F6F620000000334418
:106EBA00000000000782708080707070808070808F
:106ECA008080808080808080807080707080806602
:106EDA00040002668070807080708080708070808C
:106EEA0070707080807070708070808080920800EE
:106EFA0033430078000000FFFFFFFCF7F1F22000A7
:106F0A000000066FBFFF7F7F7F7F020000003343D0
:106F1A00000000007800000000000000000B9D0047
:106F2A000000000000000000000000000000000057
:106F3A0087004344000000000000000000D0FBFF6F
:106F4A00FFFFFFFFFFFFFDE10000000000007700E8
:106F5A00334300770000001070C0F5FFFFAF020056
:106F6A00000090E080F1102010200000000043345F
:106F7A0000000000880000000000000CBFFFDC00D9
:106F8A0000000000000000000000000000000000F7
:106F9A00870044330000000000000000000000B039
:106FAA00FBFFFFFFFBB0200000000000000088008C
:106FBA00433300870000004FAFFFFAD7873700003E
:106FCA000000000000000000000000000000333351
:106FDA000000000078000000000BBFFFFFFFDC008C
:106FEA000000000000000000000000000000000097
:106FFA00870033330000000000000000000000009A
:10700A0000FFFFFF000000000000000000008800F1
:10701A0033340078000000F2F1F2F2F2F1F22000CB
:10702A0000000000000000000000000000003333F0
:10703A0000000000780000003070706070608A6F95
:10704A006F6F6F6F6F5F6F6F6F6F6F6F030000000F
:10705A008800333300000000006A9F360000000AEF
:10706A003FFFFFFFAF5F0B02000000000000880037
:10707A003333008700000000000000000000000019
:10708A000000000000000000000000000000333390
:10709A000000000078000000000000000000BAFEB6
:1070AA007070707070FFA7707070707010000000C0
:1070BA0087003333000000000099FF7D0C0EAFFFFC
:1070CA00FFFFFFFFFFFFFFDF07000000000088004F
:1070DA0033430078000000000000000000000000B8
:1070EA000000000000000000000000000000333330
:1070FA000000000087000000000000000000AAEF66
:10710A000000000001FF77000000000000000000FE
:10711A0078003333000000000099FFFAF7F9FFFF07
:10712A00FFFFFFFFFFFFFFFFA8000000000088002D
:10713A003334007800000000000000000000000066
:10714A0000000000000000000000000000003334CE
:10715A00000000008800000000000000000096FF08
:10716A000600000039FF67070706080A0300000047
:10717A008800333300000000009AFF770000D3FD37
:10718A00FFFFFFFFFFFFFFE4200000000000880070
:10719A003334004065080708080808080808080882
:1071AA0008080808080808080808070808099320B2
:1071BA00000000008800000000000000000000D26B
:1071CA00FCBF8FCFFAA0DCFFFFFFFBB0000000007E
:1071DA0078003333000000000000000000000020A7
:1071EA0090FFFFFFE79010000000000000008800F9
:1071FA00333300000000000000000000000000001F
:10720A000000000000000000000000000000000074
:10721A0000000000880000000000000000000000DC
:10722A00001020100000DEFFFBB00000000000008C
:10723A007700333300000000000000000000000067
:10724A0000FFFFFFCF9FAF9F6A0000000000880089
:10725A003333000000030403030404040404040495
:10726A0004040404040404040404030404020000DF
:10727A00000000008800000000000000000000007C
:10728A00000000000000FBB0000000000000000049
:10729A0087003333000000000000000000000000F7
:1072AA0000C1FAFAFAF9FAF996000000000088001B
:1072BA003334000683503040303030303030303094
:1072CA00303030303030303030403030406066035B
:1072DA00000000008800000000000000000000001C
:1072EA000000000000000000000000000000000094
:1072FA008800333300000000000000000000000096
:10730A0000000000000000000000000000008800EB
:10731A003344008700000000000000000000000065
:10732A0000000000000000000000000000004333DD
:10733A0000000000880000000000000000000000BB
:10734A000000000000000000000000000000000033
:10735A008800333300000000000000000000000035
:10736A00000000000000000000000000000088008B
:10737A003334008800000000000000000000000014
:10738A00000000000000000000000000000043337D
:10739A00000000008800000000000000000000005B
:1073AA0000000000000000000000000000000000D3
:1073BA0088003333000000000000000000000000D5
:1073CA00000000000000000000000000000088002B
:1073DA0033430077000000000000000000000000B6
:1073EA00000000000000000000000000000034431C
:1073FA0000000000880000000000000000000000FB
:10740A000000000000000000000000000000000072
:10741A008800333300000000000000000000000074
:10742A0000000000000000000000000000008800CA
:10743A003333008800000000000000000000000054
:10744A0000000000000000000000000000004333BC
:10745A00000000008800000000000000000000009A
:10746A000000000000000000000000000000000012
:10747A008800333300000000000000000000000014
:10748A00000000000000000000000000000088006A
:10749A0033330088000000000000000000000000F4
:1074AA00000000000000000000000000000043335C
:1074BA00000000008800000000000000000000003A
:1074CA0000000000000000000000000000000000B2
:1074DA0088003333000000000000000000000000B4
:1074EA00000000000000000000000000000088000A
:1074FA003333008800000000000000000000000094
:10750A0000000000000000000000000000004343EB
:10751A0000000000880000000000000000000000D9
:10752A000000000000000000000000000000000051
:10753A008800333300000000000000000000000053
:10754A0000000000000000000000000000008800A9
:10755A00333300880000000000001330403096FFEB
:10756A00FFFFFFFFFFFFFFFFFFFF990000004343FC
:10757A000000000088000000000000000000000079
:10758A0000000000000000000000000000000000F1
:10759A0088003333000000000000000000000000F3
:1075AA000000000000000000000000000000880049
:1075BA00333400880000005330303000000076FF7A
:1075CA00FFFFFFFFFFFFFFFFFFFF990000003343AC
:1075DA000000000088000000000000000000000019
:1075EA000000000000000000000000000000000091
:1075FA008800333300000000000000000000000093
:10760A0000000000000000000000000000008700E9
:10761A00343400870000004400000000000067FFC7
:10762A00FFFFFFFFFFFFFFFFFFFF9900000033444A
:10763A0000000000880000000000000000000000B8
:10764A000000000000000000000000000000000030
:10765A008700333300000000000000000000000033
:10766A000000000000000000000000000000870089
:10767A00343400880000003403030400000076FF5D
:10768A00FFFFFFFFFFFFFFFFFFFF990000004434E9
:10769A000000000088000000000000000000000058
:1076AA0000000000000003070707070707000000A3
:1076BA0078003333000000000000000000000000E2
:1076CA000000000000277F7F7F7F7F7F0200780015
:1076DA00343300880000000000003003030378FD03
:1076EA00FDFDFDFDFDFDFDFDFDFD870000003434BF
:1076FA0000000000880000000000000000000000F8
:10770A0000000000000075FFFFFEFAF4F010000010
:10771A0078003333000000000000000000377F7F4C
:10772A007F7F7F7F0250F0F4E9BD4F0F0000870092
:10773A004333008800000000000000000000000041
:10774A0000000000000000000000000000003333C9
:10775A000000000088000000000000000000000097
:10776A000000000000000000459AEFFFFB01000046
:10777A008800333300000000000000000050F0F4DD
:10778A00E9AD5F0F01050F5FAFFAF1C200007800A3
:10779A0043330088000000000000000000000000E1
:1077AA000000000000000000000000000000333369
:1077BA000000000088000000000000000000000037
:1077CA0000000000000057FFFFFFAF2F2F0200004C
:1077DA0078003333000000000000000000050F5F4E
:1077EA00AFFAF2B11072F6F6F6F6F6F62000870056
:1077FA004333008800000000000000000000000081
:10780A000000000000000000000000000000333308
:10781A0000000000880000000000000000000000D6
:10782A0000000000000022676767675767000000D2
:10783A007700333300000000000000000072F5F604
:10784A00F6F6F6F620277F7F7F7F7F7F020087008C
:10785A00343300880000000000000000000000002F
:10786A0000000000000000000000000000003333A8
:10787A000000000088000000000000000000000076
:10788A0000000000000075FFFFFEFAF5F01000008E
:10789A0087003333000000000000000000377F7FBC
:1078AA007F7F7F7F02277F7F7F7F7F7F0200780035
:1078BA0043430087000000000000000000000000B1
:1078CA000000000000000000000000000000434328
:1078DA000000000087000000000000000000000017
:1078EA000000000000000000459BDFFFFB100000C5
:1078FA008800434300000000000000000000000070
:10790A00000022FF1230E0F79F0F07000000780006
:10791A00344300780000000000000000000000006E
:10792A0000000000000000000000000000003433E6
:10793A0000000000780000000000000000000000C5
:10794A0000000000000057FFFFFFAF2F2F020000CA
:10795A00780033340000000000000000000000003E
:10796A00000020F420276F6F7FEFFFFF11008700D0
:10797A0034430071190100000000000000000000FB
:10798A000000000000000000000000000003583062
:10799A0000000000800A0000000000000000000053
:1079AA000000000000002060606060606000000A63
:1079BA0070003058030000000000000000000000C2
:1079CA000000000000002020101020200009930071
:1079DA003347030314737483738383838383838397
:1079EA00838383838383838383748384836403038A
:1079FA000403030403148374838383838383838349
:107A0A008373748374838374838383837483830407
:107A1A000304030364838483748383838383838358
:107A2A0083748374848473838374837483340304B4
:107A3A00470F102020202F202F2422242F202020FF
:107A4A00202020202020202020202020202020202C
:107A5A0020202020202028292F2F292820212310E8
:107A6A000FFF0023A2A3A02BA02F2426A42F0000DF
:107A7A0000000000000000FFFF181818F8F80000C6
:107A8A000000007AF9C0C0E0F0F0E0C0C0E0F00009
:107A9A00FFC02090109010901090101010901010AD
:107AAA0010101010101010101010101010101010CC
:107ABA00101010901010101010101010101010202C
:107ACA00C0000000000000000000000000000000EC
:107ADA00000000000000000000000000000000009C
:107AEA00000000000000000000000000000000008C
:107AFA00000000000000000000000000000000007C
:107B0A00000000000000000000000000000000006B
:107B1A00000000000000000000000000000000005B
:107B2A00000000000000000000000000000000004B
:107B3A00000000000000000000000000000000003B
:107B4A00000000000000000000000000000000002B
:107B5A00000F10202020202020202020202020205C
:107B6A00202020202020202020202020202020200B
:107B7A0020202020202020292622212A24222010E9
:107B8A000FFF00000001011F001F0804081F00006A
:107B9A0000000000000000FFFF181818F8F80000A5
:107BAA000000011E22428204081020C0402000006A
:107BBA00FFC020101010101010101010101010100C
:107BCA0010101010101010101010101010101010AB
:107BDA00101010101010101010101010101010208B
:107BEA00C0000000000000000000000000000000CB
:107BFA00000000000000000000000000000000007B
:107C0A00000000000000000000000000000000006A
:107C1A00000000000000000000000000000000005A
:107C2A00000000000000000000000000000000004A
:107C3A00000000000000000000000000000000003A
:107C4A00000000000000000000000000000000002A
:107C5A00000000000000000000000000000000001A
:107C6A00000000000000000000000000000000000A
:107C7A00000F10202020202020202020202020203B
:107C8A0020202020202020202020202020202020EA
:107C9A0020202020202020202020202F27232110D0
:107CAA000FFF001F0804081F001F0804081F000018
:107CBA0000000000000000FFFF181818F8F8000084
:107CCA00000406070770888888FF0000000000008B
:107CDA00FFC02010101010101010101010101010EB
:107CEA00101010101010101010101010101010108A
:107CFA00101010109010101010D01010101010202A
:107D0A00C0000000000000000000000000000000A9
:107D1A000000000000000000000000000000000059
:107D2A000000000000000000000000000000000049
:107D3A000000000000000000000000000000000039
:107D4A000000000000000000000000000000000029
:107D5A000000000000000000000000000000000019
:107D6A000000000000000000000000000000000009
:107D7A0000000000000000000000000000000000F9
:107D8A0000000000000000000000000000000000E9
:107D9A00000F10202020202020202020202020201A
:107DAA0020202020202020202020202020202020C9
:107DBA0020202020202020202021232F27232110AB
:107DCA000FFF001F0804081F001F0804081F0000F7
:107DDA0000000000000000FFFF181818F8F8000063
:107DEA000000000102040810E0E0E0C0800000008A
:107DFA00FFC02010101010101010101010101010CA
:107E0A001010101010101010101010101010101068
:107E1A001010101010101010101010101010102048
:107E2A00C000000000000000000000000000000088
:107E3A000000000000000000000000000000000038
:107E4A000000000000000000000000000000000028
:107E5A000000000000000000000000000000000018
:107E6A000000000000000000000000000000000008
:107E7A0000000000000000000000000000000000F8
:107E8A0000000000000000000000000000000000E8
:107E9A0000000000000000000000000000000000D8
:107EAA0000000000000000000000000000000000C8
:107EBA00003F40808080808080808F88B8A0A0A00A
:107ECA00B8888F80808080808080403FFC020101DA
:107EDA000101010101FD7D7D7D7D7D7D7DFD01012C
:107EEA00010101010102FC00000000000000000085
:107EFA000000000000000000000000000000000078
:107F0A000000000000000000000000000000000067
:107F1A00000000000000000000000000003F409F39
:107F2A009F909F9F909F9F808D9595958E80BF9FD4
:107F3A008884889FBF80403FFC0201010101517D76
:107F4A003D01517D3D01397D457D39010101010127
:107F5A000102FC0000000000000000000000000018
:107F6A000000000000000000000000000000000007
:107F7A0000000000000000000000000000000000F7
:107F8A000000000000000000003F408080808080E8
:107F9A0080808098B8B0B0B0B0B89C8F8380808061
:107FAA008080403FFC0201010101010101013139D8
:107FBA00191919193971E181010101010102FC3F05
:107FCA004080838FBF8F83808080838FBF8F838021
:107FDA008080838FBF8F8380403FFC02F1F9FDFDD3
:107FEA00FDF9F101F1F9FDFDFDF9F101F1F9FDFDEF
:067FFA00FDF9F102FC009C
:020000040020DA
:08000000FFFFFFFFFFFFFFFF00
:020000040030CA
:0E000000FF02010CFF8180FF0FC00FE00F40D8
:00000001FF
