:0400000007EF00F016
:100008006F8209ED00F0E4EF01F00600FACF50F03E
:10001800FBCF51F0E9CF52F0EACF53F0E1CF54F0E3
:10002800E2CF55F0D9CF56F0DACF57F0F3CF58F0EA
:10003800F4CF59F0F6CF5AF0F7CF5BF0F8CF5CF079
:10004800F5CF5DF0000E5E6EF2BAF2A4F1D0475023
:10005800D8A44706000E81B4010E5E6E5E503F18AC
:10006800D8B40BD04150D8B404D02F06D8A030064D
:1000780002D02F4A302A5EC03FF0000E83B2010E34
:100088005E6E5E503E18D8B404D0334A342A5EC03F
:100098003EF04804D8B472D077D04050D8A41BD0D2
:1000A800000E416E8294838482822F502D5C2E50E4
:1000B800800A4F6E3050800A4F58D8A007D02D5074
:1000C8002F1854E12E503018D8A450D0828483843D
:1000D8008282010E2FD04004D8A415D08482849443
:1000E80084803350315C34503258D8A007D0315016
:1000F80033183CE132503418D8A438D08482848430
:100108008480020E17D0020E4018D8A419D0010E10
:10011800416E2B502F5C2C503058D8A007D02B5054
:100128002F180AE12C503018D8A406D08284838472
:100138008282030E406E1AD082848394828216D003
:10014800030E4018D8A412D0030E406E235024107A
:10015800D8A40CD025C023F026C024F0000E406E91
:1001680021503324316E22503420326E2350241013
:10017800D8B45ED02306D8A024065AD04950000A25
:10018800D8B48BD7010A54D04250D8A44BD081B0F0
:1001980029D0000E306E000E2F6E010E3D6E829437
:1001A80083848282040E4B18D8A409D0010E2C6EC9
:1001B800EB0E12D02BC02DF02CC02EF039D0060E2D
:1001C8004B18D8A404D0010E2C6E980E05D00D0E35
:1001D8004B18D8A403D002D02B6EECD7000E2C6E8F
:1001E800740EFAD73D04D8A417D02F502D5C2E508A
:1001F800800A4F6E3050800A4F58D8A007D02D5033
:100208002F1816E12E503018D8A412D08284838477
:100218008282010E426E03D0828483948282000E11
:100228003D6E06D082848384828284828484848022
:10023800F2945DC0F5FF5CC0F8FF5BC0F7FF5AC0E1
:10024800F6FF59C0F4FF58C0F3FF57C0DAFF56C095
:10025800D9FF55C0E2FF54C0E1FF53C0EAFF52C0C6
:10026800E9FF51C0FBFF50C0FAFF6F921100CDECBF
:1002780002F08D92000E606E010E5F6E6DEC02F062
:100288008D82000E606E010E5F6E6DEC02F0210E25
:100298000101006F000E656E010E666E000E676E3E
:1002A800000E696E010E686E52EC02F0150E010127
:1002B800006F000E656E010E666E000E676E000E12
:1002C800696E010E686E52EC02F0080E0101006FB3
:1002D800000E656E010E666E000E676E000E696E8A
:1002E800010E686E52EC02F09F0E0101006F000EC5
:1002F800656E010E666E000E676E000E696E010E69
:10030800686E52EC02F0200E0101006F000E656E5F
:10031800010E666E000E676E000E696E010E686E45
:1003280052EC02F0050E0101006F000E656E010E21
:10033800666E000E676E000E696E010E686E52ECF6
:1003480002F00C0E0101006F000E656E010E666E64
:10035800000E676E000E696E010E686E52EC02F0B8
:10036800000E436E080E436401D01200000E000117
:10037800806F435011EC02F0000E0101006F000E77
:10038800446E650E446401D019D0EF0E3524F66E24
:100398007B0E3620F76E0800F5CF4EF0354A362A28
:1003A8004E0E656E000E666E400E676E000E696E2C
:1003B800010E686E52EC02F0442AE3D7432AD2D7E2
:1003C800C40EF66E050EF76E000EF86E0900F5CF36
:1003D8006DF00900F5CF6EF002EE00F011EE00F0BE
:1003E800EE6AE550E150FCE1E250FAE101EE00F07E
:1003F80011EE00F0EE6AE550E150FCE1E250FAE15E
:1004080000EE01F04E0EEE6AE806FDE16F906F9285
:10041800000EF86E0001B3EF02F00001816F0001D9
:100428008051800F0101006F000E656E010E666E2F
:10043800000E676E000E696E010E686E52EC02F0D7
:1004480000018151400F0101006F000E656E010E21
:10045800666E000E676E000E696E010E686E52ECD5
:1004680002F01200636E000E646E070E646401D021
:10047800120063AE02D08B8801D08B9888EC02F012
:100488008B8688EC02F08B96070E6418D8B48B889C
:10049800D890633688EC02F0642AE7D767C06CF01E
:1004A800C2EC02F0780E36EC02F0A0EC02F06C50D0
:1004B80036EC02F0A0EC02F065C0D9FF66C0DAFFA6
:1004C800DF5036EC02F0A0EC02F0D4EC02F0010EA2
:1004D8001200000E626E000E616E0FD0000E646E88
:1004E800000E636E645007E10A0E635CD8B003D057
:1004F800634A642AF7D7614A622A5F50615C605098
:100508006258D8B01200EAD7000E5F6E000E606E17
:10051800000E616E000E626E6250611060100BE199
:100528000A0E5F5CD8B01200010E5F26000E602232
:1005380061226222F1D712008B8888EC02F08B8648
:10054800948888EC02F082A802D0010E01D0000E37
:10055800636E8B96949888EC02F063501200DDEC81
:1005680002F0DAEC02F0E0EC02F03BEC01F0000EF5
:10057800606E640E5F6E6DEC02F0F9D78B888B8627
:1005880088EC02F08B9888EC02F08B9688EC02F0ED
:10059800120094968B9694988B9896928D9212004E
:1005A8008B988B8688EC02F08B88120096908D9041
:0E05B800120096948D9412008D8012000A6637
:1043EE0000DDDDDDDDDDDDDDDDDDDDDDDDDDDDDDCC
:1043FE00DDDDDDDDDCDDDEDDEADCDECCDDDDDCDDE4
:10440E00DDDDCDCDDDDDDDDDDDDDDDDDDDDDDDDDEE
:10441E00DDDDDDDDDDDDDDDDDDCDDCDDDDDCDDDCD1
:10442E00DECFFAEADEDEDCDDCDDDDDDDDDDDDDDDA0
:10443E00DCDDDDDDDDDDDDDDDDDDDDDDDDCDDCDDB0
:10444E00DDCDDDDDDDDDCDCDDCDDCCDEDCEADDCED2
:10445E00DDDDDCCCDCDCDDDDDDDDDDDDDDDDDDDD92
:10446E00DDDDDDDDDDDDDDDDDDCDDDDDCDDDDDDD8E
:10447E00DCDCDCDCDEEDD8822072DBEEDDDDDDDDCA
:10448E00DDCDCDDDDDDCDCDDDDDDDDDDDDDDDDDD70
:10449E00DDDDDDDDDDDDDDDDDDDDCDCDDCCEDFFA4F
:1044AE00D270000170E2EADFDDDDDCDDDDCDDCDDCA
:1044BE00DDDDDDDDDDDDDDDDDDDDCDCDDDDDDDDD3E
:1044CE00DDDDDDCDCDCDCDDDDDDDDEDB722082D8D7
:1044DE00EECDDDDCDDDDDDDDDDDDDDDDDDDDDDDDFE
:1044EE00DDDDDDDDDDDDDDDDDDCDDCDCDDCDCEDE1E
:1044FE00DDEEDDEFEE962000000085DDDFDEDCEA8E
:10450E00E8D6D7D7E8EBECDDCEDDDDDDDDDDDDDDBC
:10451E00DDDDDDDDDDDDDDDDDDDDDDDEEFF88000C9
:10452E000322222122030071F7EECECDDCDDDDCC9D
:10453E00DDDDDDDDDDDDDDDDDDCDDCDCCDCEDEECBE
:10454E00EAE8D7D6D7E8EADCDEDFDD75100000201A
:10455E0095EEEEDEDEDEDEDECDDDDDDDDDDDDDDDAE
:10456E00DDDDDDDDDDDDDDDDDDDCDDDEDDDAC5A2C3
:10457E0091707191A3674926010055DCD8815020B6
:10458E000000000000205093D7DEDDDDDDDDDDDD37
:10459E00DDDDDDDDDDDDDDDDDDDDDFE980011232DE
:1045AE0022222223232222120290DAEFCDDCDDDD3D
:1045BE00DDDDDDDDDDDDDDDDDDDDCDDEEDD8A250E9
:1045CE00201000000000205081E8DC550001265923
:1045DE0067A391808081A2C6E9DEDDDDDDDDDDDD54
:1045EE00DDDDDDDDDDDDDDDDDDCEEDC66110000006
:1045FE000000000000104083772988621000000040
:10460E0000000101000000001094ECDECDDDDDDDC8
:10461E00DCDDDDCDDDDDDDDCCEFEB510023323339A
:10462E003333333322333333221201C5FECEDDDC76
:10463E00DDDDDDDDDDDDDDDDDDDDCEFC841000006C
:10464E0000000101000000000010637838778440FC
:10465E0010000000000000001060C6ECDECDDDDDB5
:10466E00DDDDDDDDDDDDDDDDDDEEA82000000016AB
:10467E002A4D6D5D4C19050043A852000000032819
:10468E004C7E8E7E5D2903000011A9EEDDCCDDDCB3
:10469E00DDDCDDDDDDDDDDCDFEA4001333333333B4
:1046AE00343344442333333333331200A4FEDDCD8D
:1046BE00DDDDDDDDDDDDDDDDDDDDEEA9110000039F
:1046CE00296D8E8E7E5C180400000052A8430005F2
:1046DE00194C5D5D4C2A0501000020A8EEDDDDDDE4
:1046EE00DCDDDDDDDDDDDDDDDDEE8B0300125ACF41
:1046FE00FDECEDEDECEDBE5A5775100000279EDE79
:10470E00ECDDDCECFDDE7A0200119AEEDDDDDDCDB6
:10471E00DDCDDDCCDDCCDDFEA500233323343334FB
:10472E0033325555333333333333332300A5FFDD63
:10473E00CDDDDDDDDDDDDDDDDDDDEE9B1200127AB2
:10474E00EEEDDCDCEDEDDE9D2600001075575ACE49
:10475E00EDEDECDCECEDCF6A0200028AEEDDDDDD84
:10476E00CDDDDDDDDDDDDDDDDDDDDE6D0612A8EDB1
:10477E00CDDCDDCDDCDCDDDEAB430000129AEEDC01
:10478E00CDDDDDDDDDED9811045BCEEDDCDDDCDDB8
:10479E00DDDDDCDDDDDDEEB81022332333333443D3
:1047AE003322555533333333333333232210B7EF9C
:1047BE00DCDDDDDDDDDDDDDDDDDDECCE5B0411A878
:1047CE00EDDCDDDCDDCDDDEEAA120000439BDEEC80
:1047DE00CDCDDDDCCCDEED9722066CCEEDDCDDDD65
:1047EE00DDDDDDDDCDDCDCCDDEDECEEDECCDBEDD2A
:1047FE00DDDDDDDDDDDDDDDDCC34000032AAEEDD1C
:10480E00DDDDDDDDDDCDBEBECEEDDDCDDDDDCDDC38
:10481E00DCDDDDDDCDDEEC43113333334444334395
:10482E00332266662233433334343333331143EC4D
:10483E00DECDDDDCDDDDCDCDDDCDDCDCEDDDAEAE2A
:10484E00DDDDEDDCDDDDDDEEAA21000034CCEEDDBC
:10485E00DDDDDDDDDDCDCDCDBEEDDDDDCEDEDDCCD8
:10486E00DDCDDDCCDDDEEBE7B4B2D4E9EDDDDCCDC4
:10487E00DDDDDDDDDDDDDDDDDD5700001086EDDEAD
:10488E00DDDDDDDDDDDCDCDDCECDDDDEDEDDDDDD69
:10489E00DDDCDDDCDDEFA81032333333445533334A
:1048AE00332166662233333445443333342221A810
:1048BE00EFCDDDDCDCDDCDCDDDDECECECECEDDDD75
:1048CE00CDDDCCDDDDCCDEED9600000057CDDDDD9F
:1048DE00DDDDDDDDDDDDDCDCDCDDEAC4A2B4D7EB65
:1048EE00DEDDDCDEECB6400001071A6CCCDDDCDC74
:1048FE00DDDDDDDDDDDDDDDDEE9B12000031B8EE50
:10490E00CDDDDDCDCCCDEED7D3C2C1C1C1C2D3E595
:10491E00F7EBEDCFCEEE75113333443333664522CC
:10492E0032116666112222456633333333331265F4
:10493E00EECEDEEDEBE8E5D2C1C0B0C1C1D3D8EE0C
:10494E00CDDDDDDDCCDEEEC9310000139BEEDDDD0D
:10495E00DDDDDDDDCDDDDDDDDDCC6B1A06010041FB
:10496E00B5DDDDEE961000126ADEEDECCDDDCDCDBF
:10497E00DDDDDDDDCCDDDDDCDDDF6A12000041B822
:10498E00EECDDCDDDDEEDA100101010101010102E7
:10499E00021250A1D6EB44233333433322666622F0
:1049AE002211666611222266662233343333234483
:1049BE00DCE591401102010101010100010010DA54
:1049CE00EEDDDDDDDDEEB8410000126ADFDCDDDD9F
:1049DE00DDCDCDDDDDDDDDDDDDDDECFDDE7A010005
:1049EE0032DDDDED56000011AAEEDDCCDDCDDCDDD5
:1049FE00DDDCDCDDDDDDDDDDDDDDEE7B050000217A
:104A0E00A3EBDECEDCFF7700011111111222122270
:104A1E003123332323334333343343332265781224
:104A2E001100666600212288542233433334333317
:104A3E003312333223222123221111111100007758
:104A4E00FFDCCEDEEBA4200000047BDEEDCDCDDC62
:104A5E00DDDDDDDCDCDDDDDDDDDDDCCDEEA9210047
:104A6E0011DDDCEE8A12000062EAEDDECCDCDDDD6B
:104A7E00CDDDDDCCDCDDDDDDDDDDDCEEAD28020007
:104A8E000051C6EBDEFF65001111122221213345C4
:104A9E00253233443333343355343243223288345F
:104AAE001000666600103499432233323445433386
:104ABE00333333332225464322221211111100556E
:104ACE00EFDEEBC65110000228AEDEDDCDDDDDCD12
:104ADE00DCDDDDDDDDDDDDDDDDDDCDEED963000030
:104AEE0023DDDDEDDE6C04001040B5FAEDDECECD3B
:104AFE00DDCDDDDEDEEDECEBEBEAEAEAFBFD9D3B28
:104B0E0006021151B5FB65001122222223232243F6
:104B1E007549353233343333535623212221875688
:104B2E000000555500005688212222235654223368
:104B3E003334422559863223332222121211006455
:104B4E00FBB5421102053A9DEEEBEBEAEAEBEBEC1C
:104B5E00DDDEDECECDCDCDDEDEEDEAB550000004DD
:104B6E006CDDDDDDECEDAF4B0502002070A1C4C79E
:104B7E00DAE9D6B39170503020203030304080A228
:104B8E009488694A27662211212222333333333423
:104B9E0023838B48223333332266571121107667D5
:104BAE0000005555000066770021115766313333EA
:104BBE003332399A8423344334232322222201337D
:104BCE0065284A6A88B4A1704030302020303040C9
:104BDE0060A1B3C7D9D9C7B4A270300002054BAFDC
:104BEE00EDDDDCDDCEEDD79272876837171968845C
:104BFE005120000000000001010201010000000030
:104C0E0000003071A4CB5802312233334344454463
:104C1E00443443C87C243232123298241000547724
:104C2E0000004444000077440010248942222332BD
:104C3E00247BC9532345344444433333332301681F
:104C4E00CBB371301000000000010102020201001E
:104C5E00000000002051846718174767867292D7AC
:104C6E00EDDDCDEED98210000000104588833000B6
:104C7E0000000105294C7E9E9EAEAE9E8E7E4D2A74
:104C8E0008040100106375222333335557464455EB
:104C9E0056553543C68C2521321175680100328771
:104CAE00010044440001773200016886012222256A
:104CBE009CB63344564555444657564433322375B5
:104CCE006200000104072B4D6D8E9EAEAEAE8E6D52
:104CDE005D2A050200000030838945200000001087
:104CEE0083CEDDCD7B2A1A1919193B78510000109D
:104CFE0002398DDFFDECDCDDDCDCDDDDCDDDEDED67
:104D0E00DDBE7D4C183556342334454565A78B4A98
:104D1E004555655523A59C25211232982400107601
:104D2E00120043330022661000249831211025AC66
:104D3E00A534555665555A8CA7654445453244668B
:104D4E0025274B8EBEDDFDEDDCDDDDDDDDDDDDDDC4
:104D5E00DDEDCE8D280200000051784B0A18191A8D
:104D6E003BDDCDCDDCEDEDEDEDFEEB5400000002B4
:104D7E0069DEEDDDCDCDDCDCDDDDECEAF9F9EAEA6C
:104D8E00EBDCECFEDFAF9E7923444565564695D8A5
:104D9E00BF6B45555623A59B141110766700006511
:104DAE0023003433002365000067751111249B9690
:104DBE00335556555BBFE885476656554423699E65
:104DCE009FEFEEECDBEBEAF9F9F9FAECDDCDCDDD98
:104DDE00DCCDDCEDDE690100000063DBFEEDEDED08
:104DEE00EDDDDDDDDDDDDDDDDDEEBB2300000023F1
:104DFE00BCEEDDDDDDDDDCCDDFE9200000000000F6
:104E0E00000020206080C1D37342656767776767B3
:104E1E0086FABF39645533968A13004387120055BC
:104E2E003300343400335400128832001399963410
:104E3E00555449AFFA965777676766653373D3C192
:104E4E00906030100000000000000030E9EEDDDD63
:104E5E00CDDCDDDCFEBB3400000022BBEECDCDCDC3
:104E6E00DDDDDDDDDDDDDDDDDDDDBD36000000316E
:104E7E00B8EFDDCDDDDDCDDDFE420001000000002E
:104E8E0001100101010101000000002061838789EA
:104E9E007967D7FE6C4554349767122177450144E4
:104EAE00441144441244440134761102679733444A
:104EBE00457DFED766698987846030000101000058
:104ECE0001010101011100000100010052EEDDCCD3
:104EDE00DDDDDCDEEEC83100000046BDEEDDDDDCE2
:104EEE00DDDDDDDDDDDDDDDDDDDCED9C2701000062
:104EFE0040B3D8EDDDCCDDDDDC1000010001120188
:104F0E000011111111010212101111110201205084
:104F1E0093986986EAAC37545487452366562345E1
:104F2E005524454534454523566612467854454624
:104F3E009DEA756998935110010112111011121208
:104F4E0011110111111002021101100010DCDDDD32
:104F5E00DCCDDDE9B340000001279DEEDCDDDDCCCC
:104F6E00DDDDDDDDDDDDDDDDDDDDDCEDCE7E4B1819
:104F7E00071A7CCDDDDCDCDEDE12001011112133D0
:104F8E00361311211212213146151111122222133C
:104F9E000230828868B8BA474577784566774556B5
:104FAE005655555545565645776645787656569B11
:104FBE00B76899833003122122111201243622116F
:104FCE0012121111042633201111010012DDEEDC34
:104FDE00DDECCD6D1907184B7ECEEDDCCDDDDDCDD4
:104FEE00DDDDDDDDDDDDDDDDDDCDDDDCDCDDEDEDD5
:104FFE00DDEDDDDCDDDDCCDDFF5800101111121111
:10500E00228158291320121321835A191131332367
:10501E0033341343848798986877887877777777CF
:10502E0068776767677777777777788867779899FC
:10503E0078844223343223233111196983210232B9
:10504E0020041968722002121111110057FFDDDCC5
:10505E00DCDDDCDCEDEDDDDDDDDDDDDDDDDDDDDD55
:10506E00DDDDDDDDDDDDDDDDDDCDDDDDDDDDDDDD72
:10507E00DDCDDDDDDCDDDDDDEDBE13002211211227
:10508E0022121171A56B1913211142A49A3B1441DE
:10509E00343445353364988A888889898989898723
:1050AE008777767687878788998989888889898797
:1050BE0064344434354431242B9AA35102211218FE
:1050CE006BA571200222211211121004BEEDDDDD3E
:1050DE00DDDDDDCDDDDDDDDDCDDDDDDDDDDDDDDD12
:1050EE00DDDDDDDDDDDDDDDDDDDCDDDDDDDCDDCDF4
:1050FE00CDDDDEDFDFCEDEDEDEFF9F0510211121EE
:10510E00222222231230A2B75B18120141A2B86CE0
:10511E0037444465564565979A9A9997967564658E
:10512E005454545454546465759697999A9A986544
:10513E004566555545376BA9B2211113184BB7B1BA
:10514E0041022232222222211210059FFFDEDEDED4
:10515E00CFDEDFDECDDDDDDDCDDDDDDDDDDDDDDD9B
:10516E00DDDDDDDDDDDDDDDDDDCDDDDDCDCFDFEC7E
:10517E00E8E3C190704040405070B073121122129B
:10518E00122131212222121241A1A75A2824325370
:10519E00B579685767675777A89665544444434373
:1051AE00434333434343434444445574979877678A
:1051BE006767576898A5632324286AA6A14102123F
:1051CE002221222121121221211183C07050404030
:1051DE00407090C1E3F8ECDECFDDDDDDDDDDDDDD41
:1051EE00DDDCCEDCDCCDDDDDDCCECFEDF6C050007F
:1051FE0000010101111111111111111111111121C2
:10520E00314435161512102021211121729578582E
:10521E0047567787888989876555444433333222C8
:10522E00222222222222223233334344546587889B
:10523E00787887765647587795713102122020116B
:10524E0012051635343221111111111111111111CE
:10525E001111000001000060B0F6EDDFDDDDDCDCD9
:10526E00DCDDBCDDDEDCDDCFFDF5912000020100D2
:10527E000101111111101010101111111111111134
:10528E0011012040608387592A1715122223436487
:10529E008677888989998754444443332222212171
:1052AE00111111111111212122223233445454763D
:1052BE00999989888785644313312305173959765F
:1052CE0084604021010111112111111111111010D1
:1052DE001011111111101101010010A0F7DDDEDD0A
:1052EE00DCDDECDDCDDFFBC1300101101101011160
:1052FE0011112131323334353617170604030201EA
:10530E0000000010000000203070819375676968FE
:10531E0067778899A9876544443333222111111187
:10532E001010000000101111112122223344445597
:10533E0087AA9978676858686785838160401000EE
:10534E000000101010000102030506071727353460
:10535E004332212011111111011111010040C2EB34
:10536E00DFCDDDDFF9B010011100011111111111A6
:10537E001111111101010010103040607071827313
:10538E00746556463626160605050404142435554E
:10539E0076778899986645443332222111110000A0
:1053AE00000000000000001011112222224344448C
:1053BE0065989988776656452404040404050616F4
:1053CE0026374666757473828170604030201001F6
:1053DE000111111111111101111011011111000002
:1053EE00A0CFF8A000000001101111120203030457
:1053FE00040405050606060505060606060505054A
:10540E00050504030302121221323242425354554F
:10541E006576779888554444332222111100000096
:10542E00000000000000000000111122223334544D
:10543E00558798777665545453424232322212126F
:10544E000303030404040505060606060606050501
:10545E0005060505040413030303121101111100BF
:10546E0000FD7F1800001001111020212131314163
:10547E00415050506060606060606060606060507D
:10548E0050505040403030212222232324344555A1
:10549E006667778988554444332222111100000033
:1054AE0000000000000000000011112222334444CD
:1054BE005578897867554545342423232222213097
:1054CE00304040505060606060706060606060604E
:1054DE0060605050504040403021111010110110AA
:1054EE0010DDECFE8F0800101010111111111111AA
:1054FE0011111111101010000103030506071728D2
:10550E003857666473736160504040403142445571
:10551E00667888998966444433232212111100005B
:10552E000000000000000001111112222334444437
:10553E00568A998877665554324140405050617270
:10554E0072646566573728080705050402010010C6
:10555E001011111111111111110111010120000170
:10556E0008DDDDCDECFDAF0B010010111111111195
:10557E001112121223344453636161605040301093
:10558E0000000001000000000206183959777686E7
:10559E0086778799AA785544443323221111110135
:1055AE000000000000000111111122233344445564
:1055BE00789A89878786758777483918060200009A
:1055CE0000010100001020304060606171625344A0
:1055DE0034131312111111111111011000012B9F0F
:1055EE00FDDDDDDDDDDDDDEDED4F07001010001121
:1055FE0011112121110101010101111111111111BD
:10560E0011101103063868859371604122233345CA
:10561E005879888799996745543433232222121278
:10562E001111111111111112222223334444456715
:10563E009A9888877858453322233160719386581B
:10564E00390604011011111111111211110111015C
:10565E001101112111011110101000086FDEFCDD77
:10566E00CDDDDDDDDDDDDDDDDDDDFDDE5E0B050051
:10567E000010100111111111111110111111110140
:10568E0013345362604111021221111317497785A9
:10569E007465777887978878465544343423232267
:1056AE002222222222222323333444444456788851
:1056BE009888877766749577481722201212021100
:1056CE003160625344231211121210102111101165
:1056DE0011010111101000060B5FCEFDDCDDDDDDCA
:1056EE00DDDDDDDDDDDDDDDDDDDCDDDDDDFDFDAECC
:1056FE006F2D0B080605040405071B272111122127
:10570E00210212221222201113196AA79251323548
:10571E004B888676777775778A6957454444443443
:10572E0034333333333334344444455669797775DF
:10573E0077667686895A26326192965A1903202107
:10574E0022221212112122121211270A0605050415
:10575E000506080B2D6EAEEDFCDCCDDCDDCDDCECF4
:10576E00CEDDDDDDDDDDDDDDDDDDDDDCDDDDDDDD6B
:10577E00CDEDEDFDFDEDEDEDEDFFF9500112111248
:10578E00212222222103297AB6913211132A8BC7A4
:10579E008354455565645679A9A999796857564534
:1057AE00444545454545555656687A8AA9A97956C0
:1057BE00645554555482B78B2922123091B66B1909
:1057CE002221222222222212120150FAFFEDEDEDA9
:1057DE00FDFDFDEDEDDDDDDDDCECDDCDDDDDDDDD6D
:1057EE00DCDDDDDDDDDDDDDDDDDDDDDDDDDDCDDDEC
:1057FE00DCDDCDDDCDDDDCDCDEEB31001121221276
:10580E00222112065AB6913103211449AAB351230B
:10581E004343444442468998899898989898988822
:10582E007868686768788889999899899888998836
:10583E003642444443432341C3BA3A0421133191BF
:10584E00B64A16112123122112120041EBDEDDDDC4
:10585E00DDDCDDCDDDDDDCDCDDDDCDDDDDDCDDCD9E
:10586E00DDDDDDDDDDDDDDDDDDCDDDDCDDCEDEDE78
:10587E00DEDECECDDCDDDDDDFF7500002112211177
:10588E00022677934002122112289692201233326A
:10589E002333322348878889867788877787878757
:1058AE0086867676767676767777878877888899FD
:1058BE008748233243323223122091973812212304
:1058CE0011408377260220211111110085FFDDDDA5
:1058DE00DDDDCDCEDEDEDEDECDDDDCDDDDCCDDDD27
:1058EE00CDDDDDDDDDDDDDDDDDDDCDDEEDD8B49262
:1058FE0080A1C7DCDDCDDDDDDD320001111112240A
:10590E005340100222200123546001023221113132
:10591E0030133889867ABA756577766476766466DA
:10592E0066645565646565647776547777648699A1
:10593E008B868937022131212231021150642401D4
:10594E0021220211506324021011000031ECDDDD22
:10595E00DCDDDCD7A18091B4E8EDDECDDCDDDDDD74
:10596E00DDDDDDDDDDDDDDDDDDDDEEDA822000001D
:10597E00032B8ECDDCDCDDDDCC11000010112020E0
:10598E0000111111111121211011101110101004FC
:10599E00297996779ECA6444448854326666325496
:1059AE0054425454435554326666325478454474C6
:1059BE00CA8F779679290500101110111111112136
:1059CE0011111111110111211110000011CDDEDD87
:1059DE00CDDDCD8E3B0300001081CADECDDDDDCCEA
:1059EE00DDDCDDDDDCDDDDDDDDDEDC6400000013B5
:1059FE008BEEDDDDDDDCDDDDEE24000001001000D0
:105A0E0010100001111010001000000306377888E6
:105A1E0087756CEED755533469762112675400445E
:105A2E00441144441154440054671221866933557D
:105A3E0055E7DF7B65979877380503000010101047
:105A4E0001011010101101000010000025DFDDDC37
:105A5E00CDDCDDDCEE8B0300000064DBEECDDDDCA7
:105A6E00DCDDDDDDDDDDDDDCDCEDBB320000003359
:105A7E00CCEDDDDDDDDDDDDDFD9D03000000000094
:105A8E000000020305070B2B2724567676777666E1
:105A9E0068AFFBA446554469A831003478210055FF
:105AAE0043004443004344002178230031A8593277
:105ABE00554595FBAF5974787776765534261B0B82
:105ACE000704030201000000000000039CFEDCCC72
:105ADE00DDCDDDCCFECB3300000022BBEEDCDCDD09
:105AEE00DDDCDDCDDDDEDEDEDEEFCD3500000020DF
:105AFE00A6EEDECDCCDDDDCDDDECBE9E9F9F9FAE56
:105B0E00BECDDEEEFDFBE9A6334445567674588CC9
:105B1E00FCC65456644348BA4111015776000055ED
:105B2E003200443400325600007657001241B95903
:105B3E0033555555C5FC8E57755655553342A6FAF5
:105B4E00FBFDEECEBEBEAEAEAF9F9EBEFDDCDDDC7F
:105B5E00DDDCCDDEED962000000036BDEFDEDEDEB4
:105B6E00DECDDEDCC7A3919191A1B58824000000A3
:105B7E0020A2D9EDDEDEDDDDDDCDDDDDDDDDDDDE40
:105B8E00DEEDE8D48253655323435454467AC8B4A9
:105B9E00455665543359CA62121123894200016772
:105BAE00210044440022661100438813211252BA88
:105BBE00594365555655A5D87A55445444335475B2
:105BCE005391B5E9ECDDCECECDCDDDDDDDDDDCCD29
:105BDE00CEDEEDD893200000001488B4A1929192ED
:105BEE00B3CDDCEE9D170100000010638838020073
:105BFE0000002051A3D5E7E9EBEAEAEAE9D7D5B2EE
:105C0E008140100010355632323344557564445578
:105C1E00555554335BC96213221157870000237701
:105C2E0010004434000077230000876701331243CD
:105C3E00D95A3353555564456485543433323266DC
:105C4E00250000104081B2C5D8E9EAEBEBEAE9D7AE
:105C5E00C6A2601000000003288954100000000145
:105C6E0027DCDDDCECCE6D192759777471828648FE
:105C7E00060101000000101020203020100000004E
:105C8E00000103064ABC8610233243433344445476
:105C9E004442358CC7421333212489520100457783
:105CAE00000045440000774500015288242133222C
:105CBE0043C78C3642544553443443323322108604
:105CCE00BC3A0602010000000010202030202010F7
:105CDE000000000001155876816274776827096DFF
:105CEE00DEDDDDCCCDEEFAC46030000206194B7C51
:105CFE008D7D6C3B18060402020202020204071A92
:105D0E003A6897A482652301212222333333333339
:105D1E003337AA8323343333126775111201677632
:105D2E000000555500006667012211756712333366
:105D3E00333294A938324334433233223122003283
:105D4E006592A49778391A0703020201020203042E
:105D5E0005082B5D7D8D7B4B1A0602003060B4FA70
:105D6E00DECDDCDEDDC6500000044A9FDEFCEDDD3C
:105D7E00DDDDEDEDEDDDCEBEAE9EAEAEAFDEEAB458
:105D8E00602011144AAF55001222212222333233E1
:105D9E0047955224433333233576322222128865B7
:105DAE0000005656000055881222233276443333B3
:105DBE003343245295483232322222221211005697
:105DCE00AF4A14012070C4EACEBEAE9E9EAEAECDDA
:105DDE00DDEDECECDDDDEDECEDDE9E3A0301005089
:105DEE00C7DDDDEEA8210000269DEEECCDDDCCDD7D
:105DFE00DDDDDDDDDDDDDDDDDDCDDEDEEA932000AA
:105E0E0000156BBDEEFE55001111112121123363E9
:105E1E0052243333443433335544233322338843AB
:105E2E000000666600014399332233334354342411
:105E3E00333443332353733322212111111100556F
:105E4E00FEEEBE5B0500002183EAEDCDDDDDCDDD8E
:105E5E00CDDDDDDDDDDDDDDDDDCDDCFEAD26000005
:105E6E0033DDDDDD660000119AFEDCDDDDDCCDDD2F
:105E7E00DDDDDDDDDDDDDDDDDCDDEDC7400000027D
:105E8E0039BEEEDCDDFF7800101111112121313207
:105E9E002223334231333334333333332256873272
:105EAE001101666601112287452233333343433392
:105EBE002431323323222121222111201011007886
:105ECE00FFDDDCFEBE3902000040C8EDDDDDDDCCBD
:105EDE00DDDDDDDDDDDDDDDDDDDDCDDDEE9A1200CE
:105EEE0011DDDDEE79010020A7EEDFCECDDDDDCDBB
:105EFE00DDDDDDDDDDDDDDDDDDEDA7300000147B7C
:105F0E00DEECCDDDDCFEAC00000010101010101029
:105F1E00201003186EAF45323333433323666522A8
:105F2E0022116666112222766622433333332245CE
:105F3E00AE5E08132010201000101000100001ADEE
:105F4E00EDDDCDCCEDDE7B14000030A6EDDECCDD3C
:105F5E00DDDDDDDDDDDDDDDDDDDDDEDEFDA7100021
:105F6E0012DDDDDDBE5A04002070B2C6CBDEDDDDF3
:105F7E00DCDDDDDDDDDDCCDDEEB8310000138BEEDA
:105F8E00DCDDDDDCCDDCEE6E3D1D1C0B1B1C3D4E49
:105F9E006FAFDDFDFCDE46223333333333664422EE
:105FAE00231266671133225466343333333311555B
:105FBE00EEEDEDDD9F7F4E1D2C0B1C1C2C3E7EED61
:105FCE00DCCDDCDDCDDDDE8B13000031B9EEDDDDA9
:105FDE00DDDDDDDDDDDDDDDDDDCCC5B27020000318
:105FEE005BDDCDDDDDDEBE6D2C1B3C9DDDDDDCDC49
:105FFE00DDDDCDDDDDDDDDDDDC6500000168DEED46
:10600E00DDDDCDDDDDDDDDDDDCECEDEDEDDDDDDD84
:10601E00CDDDDDDDCDEF89113333333344543333EE
:10602E003312766622333333554433333332118A87
:10603E00EECDDDDDDDDDDDDDDDECEDEDEDDCDDDD43
:10604E00DCCDDDDDDDDDDDDE6800000065EDDEDDF5
:10605E00DDDCDCCDDDDCDDDDDCED9D3B1A3B6DBE3C
:10606E00EDDCDDDDDDDDDCEDEDEDDCDDDDEBEBDDF9
:10607E00DDDDDCDCDDDDDDDECC43000012AAEEDC96
:10608E00DDDDDCDDDDDDDBEAEDDEDECDDCDDCCCD48
:10609E00DDDDDDDCDCEDCE2421333333434433331D
:1060AE00332266662233333344433333332124CED3
:1060BE00EDDDDDDDDDDDDDDDDDCDDCCDDEEDEADBF7
:1060CE00DDDDDCCCDDDDDDEEAA12000044CCEECC55
:1060DE00DDDDDDDCDDCDDCEBEBDEDDDDEDEDDCDCB9
:1060EE00CDDDDDDDDDDDDCDCDDDDEDD7803179DE46
:1060FE00DCDCDDDDDCCCDEEDB934000022AAEFCD38
:10610E00DCCCDDDDDDDE893140B6ECDDDDDDDCDD78
:10611E00DDDDDDDDCDDDFE7A012133333333333387
:10612E0033226555223333333333333231017BFF20
:10613E00CDDDDDDDDDDDDDDDDDDDDDEDB650318935
:10614E00DEDDDCDDDDCCDDEEAA21000044B9EDDEC6
:10615E00DCDCDCDDDCDDCE893080C7EDDDCCDDDDE9
:10616E00DDCDCDDCDDDDDCDDDDEEB8210021A6FDF3
:10617E00CECEDDDDCDDFECA6755701000073DAEE75
:10618E00DEDDDCDDDEFEA8200020AAEEDDDDDDDDBD
:10619E00DDDDDCDCDDDDDCDF591022333333333380
:1061AE003322555522333333333333220059EFEC38
:1061BE00DDDDDDDDDDDDDDDDDDDCEEBA210021A89E
:1061CE00EEDECDDDDDDDEEDA720000015775A6EDF7
:1061DE00DEDEDDDDDEDFFCA6200030B9FEDDCDDD4E
:1061EE00DCDDDDDDDDDDDDDDDDEF791200001060F3
:1061FE00B2C5D7D6D4A24000437925000000318223
:10620E00D5F9E9E9E79330000011AAEEDDDDDDDD19
:10621E00DDDDDDDDDDDDDDDDEE3910223331343364
:10622E0033224443333333333322320049DEDDCD60
:10623E00DDDDDDDDDDDDDDDDDDDDEE9A02000030F4
:10624E0093E6F8E9E8D68230000000357944005034
:10625E00A3D4D6E6D5A250200000028AEEDDCDDD15
:10626E00DCDDDDDDDDDDDDDDDDECCE6C0501000030
:10627E00000000000001053778937726010000002A
:10628E0000001010000000000149CDEECCDDDDCD88
:10629E00DDDDDDDDDDDDDDDDDDEF4B013024223347
:1062AE0033333333323233232231004BEFECCCDD38
:1062BE00CCDDDDDDDDDDDDDDDDCCEDCE480100004C
:1062CE0000001020000000000000277794763804AC
:1062DE00000000000000000001067BDEEDDCDDDDCD
:1062EE00DDDDDDDDDDDDDDDDDDDDDCEDCE8E5C2A53
:1062FE001816061839679472200065BD7E180402C0
:10630E0000000000000204297DDEDDDCDDDDCCDDD9
:10631E00DCDDDDDDDDDDDDDDDCDCEE8E07103022EB
:10632E00332222222323323110078FFEDCDDDDCD16
:10633E00DDDDDDDDDDDDDDDDDDDDCDEDDE7C29046C
:10634E000201000000000104176ECE650020718569
:10635E007729180706171A4C8ECEDDDCCCCDDDDD85
:10636E00CCDDDDDDDDDDDDDDDDDCCDCDCCDDEDED72
:10637E00DDDDECFDCE5A0300000157DDFDDDBE8EE6
:10638E007D5D5D5D7E9ECEDDECDCDDCDDCDDDDDDBF
:10639E00DDDCDDDDDDDDDDDDDDDDDDECEE6E072101
:1063AE0021222221222111265FEEFCCDDCCDCDDD76
:1063BE00DDDDDDDDDDDDDDDDDDDCDDDDCDEDEDBE0F
:1063CE009E7D6D5D5D7E9EBEEDEDCD5701000003A1
:1063DE004AEEEDDDDDEDEDEDDDDCDDCDDDDDDCDD33
:1063EE00DD7340303040303040303030303030307F
:1063FE00303030303030303030403030303040405F
:10640E00304030403040304030304030403040300E
:10641E00403030303030303030304040404030400E
:10642E0030303040303040304040304040403040DE
:10643E0030303030303040404030304030403040EE
:10644E00744400001D9D9EAE9E9E9E9E9E9E9E9E90
:10645E009E9E9E9E9E9E9E9E9E9EAE9E9E6E0900A1
:10646E000000000000098070708070807070807075
:10647E0080808080808080808070707080707119C4
:10648E000100000872807080807080708080708043
:10649E007080808080808080708070807028030083
:1064AE0043330099EEEDEEEEEEEEEEEEEEEEEEEEA8
:1064BE00EEEEEEEEEEEEEEEEEEEDEEEDEEEEEF33AA
:1064CE00000000008800000000000000000B0B0020
:1064DE00000000000000000000000000000000109E
:1064EE007700435300000000000000087300000016
:1064FE0007000000000000000000000000008800FF
:10650E0043440099EEEEEEEEEEEEEEEEEEEEEEEE35
:10651E00EEEEEEEEEEEEEEEEEEEEDEEEEEDEEE3467
:10652E0000000000870000000000000BBFFFFFBF4F
:10653E000B00000000000000000000000000000042
:10654E008800433400000000000A8B3000000983ED
:10655E003000000000000000000000000000770086
:10656E0043330099EEEEEEEEEEEEEEEEEEEEEEEEE6
:10657E00EEEEEEEEEEEEEEEEEEEEEEEEEEEEEE44D7
:10658E000000000077000000000BBFFFFFFFFFFFC1
:10659E00FFBF0B0000000000000000000000000024
:1065AE008800333400000008932060950EAFFF4F33
:1065BE000400000000000000000000000000880041
:1065CE0033330099EEEEEEEEEEEEEEEDEEEEEEEE97
:1065DE00EEEEEEEEEEEEEEEDEEEEEEEEEEEEEE4478
:1065EE00000000008700000ABFFFFFFFFFFFFFFF54
:1065FE00FFFFFFBF0B0000000000000000000000C6
:10660E00880034330000002000000BBFFFFFFFFFA7
:10661E00EF5F040000000000000000000000880092
:10662E0033330099EEEEEEEEEEDEEEEEEEEEEEEE45
:10663E00EEEEEEEDEEEEEDEEEEEEEEEEEEEEEE4418
:10664E000000000078000040F4FFFFFFFFFFFFFF97
:10665E00FFFFFFFFFFAA0000000000000000000087
:10666E008800334400000000089260F4FEFFFFFF34
:10667E00FFFFEF4F04000000000000000000880044
:10668E0033330099EEEEEEEEEEEEDEEBD4A05010CC
:10669E000000102060C0E6EEDEEEEEEEEEEEEE4412
:1066AE0000000000870000000040E4FFFFFFFFFF36
:1066BE00FFFFFFFFFF87000000000000000000004A
:1066CE0088004334000000103000000040E4FEFF5C
:1066DE00FFFFFFFFEF4F05000000000000008800E5
:1066EE0033330099EEEEEEEEEEEEC200000004083B
:1066FE000A0A090600000040E8EEEEEEEEEEEE4469
:10670E00000000008800000000000040F4FFFFFFC2
:10671E00FFFFFFFFFE000000000000000000000071
:10672E00870033330000000000000000000050E539
:10673E00FEFFFFFFFFFFFF5C00000000000088006F
:10674E0034330099EEEEEEEEEE9400001CCEEEED3C
:10675E00EEEEEEEEEE7E030010ECEEEEEEEEEE441E
:10676E000000000088000000000000000040F4FA65
:10677E00F7F3F0C0B02A0200000000000000000095
:10678E00870033330000000000000000000000000E
:10679E0050F4FFFFFFFFFFFF030000000000780032
:1067AE0033330099EEEEEEEEEE120023EEEEDEEE59
:1067BE00EEEEEEEEEEEE9A0000A8EEEEEEEEEE440B
:1067CE000000000088000000000000000000000033
:1067DE00000000000000A01B0100000000000000EF
:1067EE0088003333000000000000000000000000AD
:1067FE00000040E4F8F9FDFD6C0000000000870089
:10680E0043330099EEEEEEEEEE240020DAEEEEEEDD
:10681E00EEEEEEEEEDED830000ADEEEEEEEEEF33CE
:10682E0000000000880000000000000000000000D2
:10683E000000000000000000B02A0200000000006E
:10684E00770033330000000000000000000000005D
:10685E0000000000000000006096060000007800B6
:10686E0043330099EEEEEEEEEEAE03000060DAEE8C
:10687E00EEEEEEEEA32000014CEEEEEEEEEEEE446A
:10688E000000000088000000000000000000000072
:10689E0000000000000000000000A0260000000024
:1068AE0078003333000000000000000000000000FC
:1068BE000000000000000000000000000000880042
:1068CE0033330099EEEEEEEEEEEEDE3E0802ABEE68
:1068DE00EDEEEEDF35060DAEEEEEEEEEEEEEEE4446
:1068EE000000000088000000000000000000000012
:1068FE00000000000000000000000000000000008A
:10690E00780033330000000000000000000000009B
:10691E0000000000000000000000000000008800E1
:10692E0033330099EEEEEEEEEEEEEEEEEEEEEEDE42
:10693E00EEEEEEEEEEEEEEEEEEEEEEEEEEEEEE4413
:10694E0000000000880000000000000000000000B1
:10695E000000000000000000000000000000000029
:10696E00770033330000000000000000000000003C
:10697E000000000000000000000000000000880081
:10698E0033330099EEEEEEEEEEEEEEEEEDEEEEEED3
:10699E00EEEEEEEEDEEEEEDEEEEEEEEEEEEEEE44D3
:1069AE000000000088000000000000000000000051
:1069BE0000000000000000000000000000000000C9
:1069CE0087003333000000000000000000000000CC
:1069DE000000000000000000000000000000880021
:1069EE0033330099EEEEEEEEEEEEEEEEEEEEEEEE72
:1069FE00EEEEEEEEEEEEEEEEEEEEEEEEEEEEEE4354
:106A0E0000000000880000000000000000000000F0
:106A1E000000000000000000000000000000000068
:106A2E00880033330000000000000000000000006A
:106A3E0000000000000000000000000000008800C0
:106A4E0033330099EEEEEEEEEEEEEEEEEEEEEEEE11
:106A5E00EEEEEEEEEEEEEEEEEEEEEEEEEEEEEE3303
:106A6E000000000088000000000000000000000090
:106A7E000000000000000000000000000000000008
:106A8E00880033330000000000000000000000000A
:106A9E000000000000000000000000000000880060
:106AAE0033340099EEEEEEEEEEEEEEEEEEEEEEEEB0
:106ABE00EEEEEEEEEEEEEEEEEEEEEEEEEEEEEE33A3
:106ACE000000000088000000000000000000000030
:106ADE0000000000000000000000000000000000A8
:106AEE0088003333000000000000000000000000AA
:106AFE000000000000000000000000000000880000
:106B0E0033440099EEEEEEEEEEEEEEEEEEEEEEEE3F
:106B1E00EEEEEEEEEEEEEEEEEEEEEEEEEEEEEE3342
:106B2E0000000000880000000000000000000000CF
:106B3E000000000000000000000000000000000047
:106B4E008800333300000000000000000000000049
:106B5E00000000000000000000000000000088009F
:106B6E0033430000C0E8E9E9E9E9E9E9E9E9E9E9DF
:106B7E00E9E9E9E9E9E9E9E9E9E9EAE9E9F69000AB
:106B8E00000000008800000000000000000000006F
:106B9E0000000000000000000000000000000000E7
:106BAE0088003333000000000000000000000000E9
:106BBE00000000000000000000000000000088003F
:106BCE004334000000000000000000000000000040
:106BDE0000000000000000000000000000000000A7
:106BEE00000000008800000000000000000000000F
:106BFE000000000000000000000000000000000087
:106C0E008700333300000000000000000000000089
:106C1E0000000000000000000000000000007800EE
:106C2E0034340000030A070807070707070707079A
:106C3E0007070707070707070708070807090000E0
:106C4E0000000000880000000000000000000000AE
:106C5E0000000000000003070707070707000000F9
:106C6E007800333300000000000000000000000038
:106C7E00000000000000000000000000000088007E
:106C8E0033430037800000000000000000000000C9
:106C9E000000000000000000000000000000A30340
:106CAE00000000008800000000000000000000004E
:106CBE0000000000000075FFFFFEFAF4F010000067
:106CCE0078003333000000000000000000000000D8
:106CDE0000000000030707070707070000008800F1
:106CEE0033430077000000000000000000000000A9
:106CFE000000000000000000000000000000333320
:106D0E0000000000880000000000000000000000ED
:106D1E000000000000000000459AEFFFFB0100009C
:106D2E008800333300000000000000000000000067
:106D3E000000000075FFFFFEFAF5F020000087004E
:106D4E003434008800000000000000000000000045
:106D5E0000000000000000000000000000003333BF
:106D6E00000000008800000000000000000000008D
:106D7E0000000000000057FFFFFFAF2F2F020000A2
:106D8E007800333300000000000000000000000017
:106D9E00000000000000449BDFFFFC100000870095
:106DAE00344400780000004F6F6F6F6F6F6F0200FA
:106DBE00000000000000000000000000000033335F
:106DCE00000000008800000000000000000000002D
:106DDE000000000000002267676767576700000029
:106DEE0077003333000000000000000000000000B8
:106DFE000000000057FFFFFFAF2F1F0100007800BB
:106E0E0034430087000000F1F7FCCF7F1F2A0000FB
:106E1E0000000000000000000000000000003333FE
:106E2E0000000000880000000000000000000000CC
:106E3E0000000000000075FFFFFEFAF5F0100000E4
:106E4E008700333300000000000000000000000047
:106E5E00000000002367676767676700000078001F
:106E6E0033430078000000040A0F5FFDF8F32000A2
:106E7E000000000002090D0A040000000000333477
:106E8E00000000008700000000000000000000006D
:106E9E000000000000000000459AEFFFFB0100001B
:106EAE0087004334000000000000000000000000D6
:106EBE000000000070F0F0F0F0F1FF12000077001B
:106ECE0033440078000000FFFFFFAF7F7F7F02009A
:106EDE000000005FFDF2F0F2FC6F00000000443491
:106EEE00000000008700000000000000000000000D
:106EFE0000000000000057FFFFFFAF2F1F01000032
:106F0E008700443300000000000000000000000075
:106F1E0000000000000000000022FF1200008800A8
:106F2E00433400780000001526261626261600008B
:106F3E00000021FF6700000046FF440000003344BC
:106F4E0000000000860200000000000000000000AB
:106F5E0000000000000020606060606060000005BE
:106F6E007400334600000000000000000000000026
:106F7E00000000000000000000004000000277004A
:106F8E0034340078000000FFFAFAFFF6FAFF120020
:106F9E00000000D1FDAF7F9FFED200000000344301
:106FAE0000000000009070808070707070707070C3
:106FBE007070708070808070808080808070806043
:106FCE0000000060808070807070707070707070E3
:106FDE007080707080707080708070807090000013
:106FEE0033430078000000FF6666FF0066FF120064
:106FFE0000000003091F6636060600000000344339
:10700E000000000000000000000000000000000072
:10701E000000000000000000000000000000000062
:10702E000000000000000000000000000000000052
:10703E000000000000000000000000000000000042
:10704E0043430088000000F54636C60656F610008B
:10705E00000059FFFAFFF6F6F6F620000000334462
:10706E0000000000078270808070707080807080D9
:10707E00808080808080808080708070708080664C
:10708E0004000266807080708070808070807080D6
:10709E007070708080707070807080808092080038
:1070AE0033430078000000FFFFFFFCF7F1F22000F1
:1070BE000000066FBFFF7F7F7F7F0200000033431B
:1070CE00000000007800000000000000000B9D0092
:1070DE0000000000000000000000000000000000A2
:1070EE0087004344000000000000000000D0FBFFBA
:1070FE00FFFFFFFFFFFFFDE1000000000000770033
:10710E00334300770000001070C0F5FFFFAF0200A0
:10711E00000090E080F110201020000000004334A9
:10712E0000000000880000000000000CBFFFDC0023
:10713E000000000000000000000000000000000041
:10714E00870044330000000000000000000000B083
:10715E00FBFFFFFFFBB020000000000000008800D6
:10716E00433300870000004FAFFFFAD78737000088
:10717E00000000000000000000000000000033339B
:10718E000000000078000000000BBFFFFFFFDC00D6
:10719E0000000000000000000000000000000000E1
:1071AE0087003333000000000000000000000000E4
:1071BE0000FFFFFF0000000000000000000088003C
:1071CE0033340078000000F2F1F2F2F2F1F2200016
:1071DE00000000000000000000000000000033333B
:1071EE0000000000780000003070706070608A6FE0
:1071FE006F6F6F6F6F5F6F6F6F6F6F6F030000005A
:10720E008800333300000000006A9F360000000A39
:10721E003FFFFFFFAF5F0B02000000000000880081
:10722E003333008700000000000000000000000063
:10723E0000000000000000000000000000003333DA
:10724E000000000078000000000000000000BAFE00
:10725E007070707070FFA77070707070100000000A
:10726E0087003333000000000099FF7D0C0EAFFF46
:10727E00FFFFFFFFFFFFFFDF070000000000880099
:10728E003343007800000000000000000000000002
:10729E00000000000000000000000000000033337A
:1072AE000000000087000000000000000000AAEFB0
:1072BE000000000001FF7700000000000000000049
:1072CE0078003333000000000099FFFAF7F9FFFF52
:1072DE00FFFFFFFFFFFFFFFFA80000000000880078
:1072EE0033340078000000000000000000000000B1
:1072FE000000000000000000000000000000333419
:10730E00000000008800000000000000000096FF52
:10731E000600000039FF67070706080A0300000091
:10732E008800333300000000009AFF770000D3FD81
:10733E00FFFFFFFFFFFFFFE42000000000008800BA
:10734E0033340040650807080808080808080808CC
:10735E0008080808080808080808070808099320FC
:10736E00000000008800000000000000000000D2B5
:10737E00FCBF8FCFFAA0DCFFFFFFFBB000000000C8
:10738E0078003333000000000000000000000020F1
:10739E0090FFFFFFE7901000000000000000880043
:1073AE003333000000000000000000000000000069
:1073BE0000000000000000000000000000000000BF
:1073CE000000000088000000000000000000000027
:1073DE00001020100000DEFFFBB0000000000000D7
:1073EE0077003333000000000000000000000000B2
:1073FE0000FFFFFFCF9FAF9F6A00000000008800D4
:10740E0033330000000304030304040404040404DF
:10741E000404040404040404040403040402000029
:10742E0000000000880000000000000000000000C6
:10743E00000000000000FBB0000000000000000093
:10744E008700333300000000000000000000000041
:10745E0000C1FAFAFAF9FAF9960000000000880065
:10746E0033340006835030403030303030303030DE
:10747E0030303030303030303040303040606603A5
:10748E000000000088000000000000000000000066
:10749E0000000000000000000000000000000000DE
:1074AE0088003333000000000000000000000000E0
:1074BE000000000000000000000000000000880036
:1074CE0033440087000000000000000000000000B0
:1074DE000000000000000000000000000000433328
:1074EE000000000088000000000000000000000006
:1074FE00000000000000000000000000000000007E
:10750E00880033330000000000000000000000007F
:10751E0000000000000000000000000000008800D5
:10752E00333400880000000000000000000000005E
:10753E0000000000000000000000000000004333C7
:10754E0000000000880000000000000000000000A5
:10755E00000000000000000000000000000000001D
:10756E00880033330000000000000000000000001F
:10757E000000000000000000000000000000880075
:10758E003343007700000000000000000000000000
:10759E000000000000000000000000000000344366
:1075AE000000000088000000000000000000000045
:1075BE0000000000000000000000000000000000BD
:1075CE0088003333000000000000000000000000BF
:1075DE000000000000000000000000000000880015
:1075EE00333300880000000000000000000000009F
:1075FE000000000000000000000000000000433307
:10760E0000000000880000000000000000000000E4
:10761E00000000000000000000000000000000005C
:10762E00880033330000000000000000000000005E
:10763E0000000000000000000000000000008800B4
:10764E00333300880000000000000000000000003E
:10765E0000000000000000000000000000004333A6
:10766E000000000088000000000000000000000084
:10767E0000000000000000000000000000000000FC
:10768E0088003333000000000000000000000000FE
:10769E000000000000000000000000000000880054
:1076AE0033330088000000000000000000000000DE
:1076BE000000000000000000000000000000434336
:1076CE000000000088000000000000000000000024
:1076DE00000000000000000000000000000000009C
:1076EE00880033330000000000000000000000009E
:1076FE0000000000000000000000000000008800F4
:10770E00333300880000000000001330403096FF35
:10771E00FFFFFFFFFFFFFFFFFFFF99000000434346
:10772E0000000000880000000000000000000000C3
:10773E00000000000000000000000000000000003B
:10774E00880033330000000000000000000000003D
:10775E000000000000000000000000000000880093
:10776E00333400880000005330303000000076FFC4
:10777E00FFFFFFFFFFFFFFFFFFFF990000003343F6
:10778E000000000088000000000000000000000063
:10779E0000000000000000000000000000000000DB
:1077AE0088003333000000000000000000000000DD
:1077BE000000000000000000000000000000870034
:1077CE00343400870000004400000000000067FF12
:1077DE00FFFFFFFFFFFFFFFFFFFF99000000334495
:1077EE000000000088000000000000000000000003
:1077FE00000000000000000000000000000000007B
:10780E00870033330000000000000000000000007D
:10781E0000000000000000000000000000008700D3
:10782E00343400880000003403030400000076FFA7
:10783E00FFFFFFFFFFFFFFFFFFFF99000000443433
:10784E0000000000880000000000000000000000A2
:10785E0000000000000003070707070707000000ED
:10786E00780033330000000000000000000000002C
:10787E000000000000277F7F7F7F7F7F020078005F
:10788E00343300880000000000003003030378FD4D
:10789E00FDFDFDFDFDFDFDFDFDFD87000000343409
:1078AE000000000088000000000000000000000042
:1078BE0000000000000075FFFFFEFAF4F01000005B
:1078CE0078003333000000000000000000377F7F97
:1078DE007F7F7F7F0250F0F4E9BD4F0F00008700DD
:1078EE00433300880000000000000000000000008C
:1078FE000000000000000000000000000000333314
:10790E0000000000880000000000000000000000E1
:10791E000000000000000000459AEFFFFB01000090
:10792E008800333300000000000000000050F0F427
:10793E00E9AD5F0F01050F5FAFFAF1C200007800ED
:10794E00433300880000000000000000000000002B
:10795E0000000000000000000000000000003333B3
:10796E000000000088000000000000000000000081
:10797E0000000000000057FFFFFFAF2F2F02000096
:10798E0078003333000000000000000000050F5F98
:10799E00AFFAF2B11072F6F6F6F6F6F620008700A0
:1079AE0043330088000000000000000000000000CB
:1079BE000000000000000000000000000000333353
:1079CE000000000088000000000000000000000021
:1079DE00000000000000226767676757670000001D
:1079EE007700333300000000000000000072F5F64F
:1079FE00F6F6F6F620277F7F7F7F7F7F02008700D7
:107A0E003433008800000000000000000000000079
:107A1E0000000000000000000000000000003333F2
:107A2E0000000000880000000000000000000000C0
:107A3E0000000000000075FFFFFEFAF5F0100000D8
:107A4E0087003333000000000000000000377F7F06
:107A5E007F7F7F7F02277F7F7F7F7F7F020078007F
:107A6E0043430087000000000000000000000000FB
:107A7E000000000000000000000000000000434372
:107A8E000000000087000000000000000000000061
:107A9E000000000000000000459BDFFFFB1000000F
:107AAE0088004343000000000000000000000000BA
:107ABE00000022FF1230E0F79F0F07000000780051
:107ACE0034430078000000000000000000000000B9
:107ADE000000000000000000000000000000343331
:107AEE000000000078000000000000000000000010
:107AFE0000000000000057FFFFFFAF2F2F02000015
:107B0E007800333400000000000000000000000088
:107B1E00000020F420276F6F7FEFFFFF110087001A
:107B2E003443007119010000000000000000000045
:107B3E0000000000000000000000000000035830AC
:107B4E0000000000800A000000000000000000009D
:107B5E000000000000002060606060606000000AAD
:107B6E00700030580300000000000000000000000C
:107B7E0000000000000020201010202000099300BB
:107B8E0033470303147374837383838383838383E1
:107B9E0083838383838383838374838483640303D4
:107BAE000403030403148374838383838383838393
:107BBE008373748374838374838383837483830452
:107BCE0003040303648384837483838383838383A3
:107BDE0083748374848473838374837483340304FF
:107BEE0047FFE0DFBFBFBFBFBFBFBCB8B1B3B3B3CA
:107BFE00B3B3B3BBBFBFBFBFBFBFBFBFBFBFBFBFAF
:107C0E00DFE0FFE0DFBFA0AFB3B9B3AFA0BFB1AA53
:107C1E00AAA2BFA0AFA0AFA0BFBFBFBFBFBFBFBF15
:107C2E00BFBFBFBFBFDFE0FFE0DFBFBFBFBFBFBF94
:107C3E00BFBFB8BBBBA7AFA7BBBBB8BFBFBFBFBFA4
:107C4E00BFBFBFBFBFBFDFFF03FDFEFEFEFEFEFEDA
:107C5E000E06E2F2F2F2F2F2F2F6FEFEFEFEFEFE8A
:107C6E00FEFEFEFEFEFEFD03FF03FDFEFEFEC6BA99
:107C7E00BAC6FEC2AEFEC2AEFEFEFEFEFEFEFEFEAA
:107C8E00FEFEFEFEFEFEFEFEFEFEFEFD03FF03FDFD
:107C9E00FEFEFEFEFEFEFEFE028282828282828256
:107CAE0002FEFEFEFEFEFEFEFEFEFEFEFDFFF8F7EF
:107CBE00EFEEECE8EEEFEFEFEFEFEFEFEFEFEFEFD2
:107CCE00EFEFEFEFEFEFEFEFEFEFEFEFEFEFEFEFB6
:107CDE00EFEFEFEFEFEFEFEFEFEFEFEFEFEFEFEFA6
:107CEE00F7F8FFFFF8F7EFEFEEECE8EFEFEFEFEF5F
:107CFE00EFEFEFEFEFEEEEEEEEEEEFEEEEEEEEEE90
:107D0E00EFEFEFEFEFEFEFEFEFEFEFEFEFEFEFEF75
:107D1E00EFEFF7FF00FF7F7F3F1F0F0787C7FBFDCA
:107D2E00FEFFFFFFFF03FBFBFB00FFFF037B7B7BE5
:107D3E0000FFFFFFFFFFFFFCFDFEFFFEFDFCFFFC53
:107D4E00FDFEFFFEFDFCFF00FFFF00FFFF7F7F7FBC
:107D5E007FFF007777778FFFFFFFFF00F7F7F700C2
:107D6E00FF00F7F7F700FFFFFFFEFEFFFFFFFEFE2F
:107D7E00FFFEFEFFFFFFFEFEFFFF03FDFEFEFEFE0B
:107D8E00FEFEFEFEFEFEFE7EBEDEFEFEFEFEFE1EC5
:107D9E00FEFEDEDEDEDE1EFEFEFEFEFEFE1EFEFE35
:107DAE007EFEFE1EFE1EFEFE7EFEFE1EFD03FFFF7F
:107DBE0003FDFEFEFEFEFEFE7EFEFEFE0E1E3E7E61
:107DCE00FE7E7E7E7E7EFE7E7E7E7E7EFEFEFE0EB5
:107DDE00FE7EBE7EFE0EFE0EFE7EBE7EFE0EFDFF05
:107DEE00F0EFDDDBD5DEDDD9D6DFDFDFDFDFDFDF96
:107DFE00DFDFDEDEDEDEDFDFDEDEDEDEDEDFDFDF8E
:107E0E00DFDFDFDFDFDFDFDFDFDFDFDFDFDFDFDF74
:107E1E00DFDFEFF0FFFFF0EFD8DCDEDEDED6D0D016
:107E2E00D6DEDEDEDFDFDFDFDCDDDDDDDFDDDDDD6F
:107E3E00DCDFDFDFDFDFDFDFDFDEDEDFDFDFDEDE4B
:107E4E00DFDEDFDFEFFF00FFDFBF3FDFEFF7FB7BA4
:107E5E00BBC3FDFEFFFFFFFF07F7F7F0FFFFFFFFBE
:107E6E00FFFF00FFFFFFFFFFFFF8FBFDFEFDFBF82E
:107E7E00FFF8FFFFFFFFFFFFFF00FFFF00FF1F3FA9
:107E8E007F7F3F1F0F0F1F3F7F7F0E8BFFFF07F779
:107E9E00F7F0FFF7F7F700FFFFFFFFFBFBFAFA0B18
:107EAE00FB7BBA7AFB0AFB0BEBEBFFFF07FBFDFD3F
:107EBE00FDFDFDFDFDFDFDFDFDFDFDFDFDFDBDBD64
:107ECE00BD3DFDFDFDFDFDFD3DFDFDFDFDFDFD3D54
:107EDE00FDFDFDFDFD3DFD3DBDBDBDFDFDFDFB07FC
:107EEE00FFFF07FBFDFDFDFDFDFDFDFDFDFDFDFDA8
:107EFE00FDBDFDFDBDBDBD3DFDBDBDBD3DFDFDFDE4
:107F0E00FDFDFD0DFD7DBD7DFD0DFD8DFD0D7D0D83
:107F1E00FB00000000000000000000000000000058
:107F2E000000000000000000000000000000000043
:107F3E000000000000000000000000000000000033
:107F4E000000000000000000000000000000000023
:107F5E000000000000000000000000000000000013
:107F6E000000000000000000000000000000000003
:107F7E0000000000000000000000000000000000F3
:107F8E0000000000000000000000000000000000E3
:107F9E0000000000000000000000000000000000D3
:107FAE0000000000000000000000000000000000C3
:107FBE0000000000000000000000000000000000B3
:107FCE0000000000000000000000000000000000A3
:107FDE000000000000000000000000000000000093
:107FEE00000000000000780C7CCCCCCC76000000A9
:027FFE00000081
:020000040020DA
:08000000FFFFFFFFFFFFFFFF00
:020000040030CA
:0E000000FF02010CFF8180FF0FC00FE00F40D8
:00000001FF
