:0400000007EF00F016
:100008006D82BFED04F019EF05F00001906FC2D3C7
:10001800470E00018A6F000E7FEC05F0000E6C6E33
:100028001A0E6C6401D027D000018C51360D850E54
:1000380000018E6F7E0E00018F6FF35000018E2736
:10004800F45000018F236C50010DF35000018E25F0
:100058000001826FF45000018F210001836F400E70
:100068000001846F000E0001866F010E856FD4ECCD
:1000780005F06C2AD5D7470E00018A6F010E7FEC78
:1000880005F0000E6C6E1A0E6C6401D012000001AF
:100098008C51360D1B0EF326000EF422850E00013E
:1000A8008E6F7E0E00018F6FF35000018E27F45083
:1000B80000018F236C50010DF35000018E250001C3
:1000C800826FF45000018F210001836F400E000100
:1000D800846F000E0001866F010E856FD4EC05F069
:1000E8006C2AD1D7230E00018A6F000E7FEC05F031
:1000F800000E6C6E1A0E6C6401D027D000018C5172
:10010800360D930E00018E6F7F0E00018F6FF35036
:1001180000018E27F45000018F236C50010DF3501D
:1001280000018E250001826FF45000018F2100012B
:10013800836F400E0001846F000E0001866F010E70
:10014800856FD4EC05F06C2AD5D7230E00018A6F91
:10015800010E7FEC05F0000E6C6E1A0E6C6401D077
:10016800120000018C51360D1B0EF326000EF422EE
:10017800930E00018E6F7F0E00018F6FF350000108
:100188008E27F45000018F236C50010DF3500001AD
:100198008E250001826FF45000018F210001836FCA
:1001A800400E0001846F000E0001866F010E856FFE
:1001B800D4EC05F06C2AD1D7000E00018A6F000E2E
:1001C8007FEC05F0000E6C6E1A0E6C6401D027D01F
:1001D80000018C51360D270E00018E6F7F0E000135
:1001E8008F6FF35000018E27F45000018F236C505D
:1001F800010DF35000018E250001826FF4500001BB
:100208008F210001836F400E0001846F000E0001F2
:10021800866F010E856FD4EC05F06C2AD5D7000ED9
:1002280000018A6F010E7FEC05F0000E6C6E1A0E4D
:100238006C6401D0120000018C51360D1B0EF326A0
:10024800000EF422270E00018E6F7F0E00018F6FC3
:10025800F35000018E27F45000018F236C50010DDC
:10026800F35000018E250001826FF45000018F21A8
:100278000001836F400E0001846F000E0001866F3D
:10028800010E856FD4EC05F06C2AD1D7310E000130
:100298008A6F020E7FEC05F0000E6C6E2F0E6C64F8
:1002A80001D027D000018C51900D650E00018E6F92
:1002B8007D0E00018F6FF35000018E27F45000016E
:1002C8008F236C50010DF35000018E250001826FC1
:1002D800F45000018F210001836F400E0001846FEC
:1002E800000E0001866F010E856FD4EC05F06C2AB4
:1002F800D5D7310E00018A6F030E7FEC05F0000E92
:100308006C6E2F0E6C6401D02BD000018C51900DB7
:10031800300EF326000EF422650E00018E6F7D0E5E
:1003280000018F6FF35000018E27F45000018F23D6
:100338006C50010DF35000018E250001826FF450BE
:1003480000018F210001836F400E0001846F000EB1
:100358000001866F010E856FD4EC05F06C2AD1D7A9
:10036800310E00018A6F040E7FEC05F0000E6C6EF2
:100378002F0E6C6401D0120000018C51900D600E9C
:10038800F326000EF422650E00018E6F7D0E00012B
:100398008F6FF35000018E27F45000018F236C50AB
:1003A800010DF35000018E250001826FF450000109
:1003B8008F210001836F400E0001846F000E000141
:1003C800866F010E856FD4EC05F06C2AD1D7000E2C
:1003D80000018A6F020E7FEC05F0000E6C6E2F0E86
:1003E8006C6401D027D000018C51900D450E00019E
:1003F8008E6F7C0E00018F6FF35000018E27F45032
:1004080000018F236C50010DF35000018E2500016F
:10041800826FF45000018F210001836F400E0001AC
:10042800846F000E0001866F010E856FD4EC05F015
:100438006C2AD5D7000E00018A6F030E7FEC05F0F9
:10044800000E6C6E2F0E6C6401D02BD000018C5105
:10045800900D300EF326000EF422450E00018E6F2B
:100468007C0E00018F6FF35000018E27F4500001BD
:100478008F236C50010DF35000018E250001826F0F
:10048800F45000018F210001836F400E0001846F3A
:10049800000E0001866F010E856FD4EC05F06C2A02
:1004A800D1D7000E00018A6F040E7FEC05F0000E14
:1004B8006C6E2F0E6C6401D0120000018C51900DEF
:1004C800600EF326000EF422450E00018E6F7C0E9E
:1004D80000018F6FF35000018E27F45000018F2325
:1004E8006C50010DF35000018E250001826FF4500D
:1004F80000018F210001836F400E0001846F000E00
:100508000001866F010E856FD4EC05F06C2AD1D7F7
:10051800310E00018A6F050E7FEC05F0000E6C6E3F
:100528002F0E6C6401D027D000018C51900D250E40
:1005380000018E6F7B0E00018F6FF35000018E2734
:10054800F45000018F236C50010DF35000018E25EB
:100558000001826FF45000018F210001836F400E6B
:100568000001846F000E0001866F010E856FD4ECC8
:1005780005F06C2AD5D7310E00018A6F060E7FEC84
:1005880005F0000E6C6E2F0E6C6401D02BD00001AC
:100598008C51900D300EF326000EF422250E00012A
:1005A8008E6F7B0E00018F6FF35000018E27F45081
:1005B80000018F236C50010DF35000018E250001BE
:1005C800826FF45000018F210001836F400E0001FB
:1005D800846F000E0001866F010E856FD4EC05F064
:1005E8006C2AD1D7310E00018A6F070E7FEC05F017
:1005F800000E6C6E2F0E6C6401D0120000018C513D
:10060800900D600EF326000EF422250E00018E6F69
:100618007B0E00018F6FF35000018E27F45000010C
:100628008F236C50010DF35000018E250001826F5D
:10063800F45000018F210001836F400E0001846F88
:10064800000E0001866F010E856FD4EC05F06C2A50
:10065800D1D7000E00018A6F050E7FEC05F0000E61
:100668006C6E2F0E6C6401D027D000018C51900D58
:10067800750E00018E6F790E00018F6FF350000127
:100688008E27F45000018F236C50010DF3500001A8
:100698008E250001826FF45000018F210001836FC5
:1006A800400E0001846F000E0001866F010E856FF9
:1006B800D4EC05F06C2AD5D7000E00018A6F060E1F
:1006C8007FEC05F0000E6C6E2F0E6C6401D02BD001
:1006D80000018C51900D300EF326000EF422750E99
:1006E80000018E6F790E00018F6FF35000018E2785
:1006F800F45000018F236C50010DF35000018E253A
:100708000001826FF45000018F210001836F400EB9
:100718000001846F000E0001866F010E856FD4EC16
:1007280005F06C2AD1D7000E00018A6F070E7FEC06
:1007380005F0000E6C6E2F0E6C6401D012000001E3
:100748008C51900D600EF326000EF422750E0001F8
:100758008E6F790E00018F6FF35000018E27F450D1
:1007680000018F236C50010DF35000018E2500010C
:10077800826FF45000018F210001836F400E000149
:10078800846F000E0001866F010E856FD4EC05F0B2
:100798006C2AD1D700019051010AD8B439D4030A80
:1007A800D8B4A0D4010AD8B407D5070AD8B46ED5EE
:1007B800010AD8B40CD6030AD8B4AAD6010AD8A418
:1007C800120047D7D2EC06F08D92000E0001816F1F
:1007D800010E806FFBEC05F08D82000E0001816F29
:1007E800010E806FFBEC05F0210E0101006F000E79
:1007F8000001826F010E0001836F000E0001846FFB
:10080800000E0001866F010E856FD4EC05F0150E01
:100818000101006F000E0001826F010E0001836F5D
:10082800000E0001846F000E0001866F010E856FB7
:10083800D4EC05F0080E0101006F000E0001826F74
:10084800010E0001836F000E0001846F000E00018D
:10085800866F010E856FD4EC05F09F0E0101006FC5
:10086800000E0001826F010E0001836F000E00016F
:10087800846F000E0001866F010E856FD4EC05F0C1
:10088800200E0101006F000E0001826F010E0001B1
:10089800836F000E0001846F000E0001866F010E49
:1008A800856FD4EC05F0050E0101006F000E000104
:1008B800826F010E0001836F000E0001846F000E2D
:1008C8000001866F010E856FD4EC05F00C0E010156
:1008D800006F000E0001826F010E0001836F000E91
:1008E8000001846F000E0001866F010E856FD4EC45
:1008F80005F04FEC05F0020E00018C6F000E0001B0
:100908008D6F010E09EC00F0000E00018C6F000ED7
:1009180000018D6F020E09EC00F0000E00018C6FD3
:10092800000E00018D6F030E09EC00F0000E0001AF
:100938008C6F000E00018D6F040E09EC00F0000EA4
:1009480000018C6F000E00018D6F050E09EC00F0A0
:10095800000E00018C6F000E00018D6F060E09EC71
:1009680000F0020E00018C6F000E00018D6F070E63
:1009780009EC00F012000600FACF57F0FBCF58F050
:10098800E9CF59F0EACF5AF0E1CF5BF0E2CF5CF063
:10099800D9CF5DF0DACF5EF0F3CF5FF0F4CF60F03F
:1009A800F6CF61F0F7CF62F0F8CF63F0F5CF64F0DF
:1009B800F2A009D081A8C1EC06F081AAC1EC06F02A
:1009C80081CF65F0F290F2A203D0C1EC06F0F2926A
:1009D800F0A20DD0F2921F4A202A300E1F1807E10C
:1009E800750E2018D8A403D08C948C968C9864C06B
:1009F800F5FF63C0F8FF62C0F7FF61C0F6FF60C093
:100A0800F4FF5FC0F3FF5EC0DAFF5DC0D9FF5CC0D2
:100A1800E2FF5BC0E1FF5AC0EAFF59C0E9FF58C0D6
:100A2800FBFF57C0FAFF6D921100BE0EF66E0D0E59
:100A3800F76E000EF86E00EE66F010EE07F0090093
:100A4800F5CFEEFFE550E150FAE102EE00F011EECD
:100A580000F0EE6AE550E150FCE1E250FAE101EE07
:100A680000F011EE00F0EE6AE550E150FCE1E250D2
:100A7800FAE10001946B936B926B916B00EE01F0BD
:100A8800500EEE6AE806FDE16D906D92000EF86E6C
:100A9800000182EF06F0000E00018D6F080E0001C4
:100AA8008D6501D01200000E00018A6F00018D5182
:100AB8007FEC05F0000E0101006F000E00018C6F45
:100AC800620E00018C6501D013D0000E0001826F08
:100AD800010E0001836F400E0001846F000E0001BB
:100AE800866F010E856FD4EC05F000018C2BE8D7DA
:100AF80000018D2BD3D700018B6F00018A51800F25
:100B08000101006F000E0001826F010E0001836F6A
:100B1800000E0001846F000E0001866F010E856FC4
:100B2800D4EC05F000018B51400F0101006F000E5D
:100B38000001826F010E0001836F000E0001846FB7
:100B4800000E0001866F010E856FD4EC05F01200CF
:100B58008D84000E0001816F000E806F00018151AD
:100B68001DE1C80E0001805DD8B018D0000E00014C
:100B7800836F000E826F0001835109E1640E00014A
:100B8800825DD8B004D00001824B832BF4D70001DA
:100B9800804B812B0001815101E1E3D78D94120034
:100BA80084C089F0ACEC06F0780E44EC06F097ECC3
:100BB80006F00001895144EC06F097EC06F082C07B
:100BC800F6FF83C0F7FFF86A050EF76403D0080044
:100BD800F55005D0F6CFE9FFF7CFEAFFEF5044EC28
:100BE80006F097EC06F0D9EC06F0010E1200000EA4
:100BF8000001836F000E826F14D0000E0001856F14
:100C0800000E846F100E0001845D270E00018559C7
:100C1800D8B004D00001844B852BF4D70001824B57
:100C2800832B000180510001825D00018151000188
:100C38008359D8B01200E1D7630ECB6E0A0EBE6E90
:100C48009494CA50FC0B0109CA6EBD50F00B0C09F4
:100C5800BD6E000ECC6ECA84949495909592948241
:100C68009288948093849598959495968B948C907B
:100C78008C928C988C948C96F198F092F088120053
:100C88000001806F000E0001816F070E0001816571
:100C980001D01200000180AF02D08B8801D08B9860
:100CA800EBEC06F08B86EBEC06F08B96070E00015A
:100CB8008119D8B48B880001D8908037EBEC06F006
:100CC8000001812BE2D7000E546E000E536E0FD038
:100CD800000E566E000E556E100E555C270E5658B7
:100CE800D8B003D0554A562AF7D7534A542A5150F8
:100CF800535C52505458D8B01200EAD7E6EC06F0CC
:100D0800E3EC06F0E9EC06F020EC06F0CAEC06F09D
:100D1800E6EC03F0FFD7000E0001816F640E806FD0
:100D2800FBEC05F0F8D78B88EBEC06F08B86948803
:100D3800EBEC06F082A802D0010E01D0000E0001F3
:100D4800806F8B969498EBEC06F0000180511200AE
:100D58008B888B86EBEC06F08B98EBEC06F08B9689
:100D6800EBEC06F012008D80000E0001816F320E50
:100D7800806FFBEC05F08D9012008D80000E526E96
:100D8800320E516E67EC06F08D90120093869388B0
:100D9800938A958C958E93809286120094968B9662
:100DA80094988B9896928D9212008B988B86EBEC88
:0D0DB80006F08B8812000A000A000A00668F
:100DC60096908D90120096948D9412008D8012004C
:020DD600120009
:10797400000F102020202F202F2422242F2020200D
:1079840020202020202020202020202020202020F3
:1079940020202020202028292F2F292820212310AF
:1079A4000FFF0023A2A3A02BA02F2426A42F0000A6
:1079B40000000000000000FFFF181818F8F800008D
:1079C4000000007AF9C0C0E0F0F0E0C0C0E0F000D0
:1079D400FFC0209010901090109010101090101074
:1079E4001010101010101010101010101010101093
:1079F40010101090101010101010101010101020F3
:107A0400C00F1020202525272027252720242427C0
:107A1400202020202021232323212021232323214C
:107A24002021232323232120262626262627271028
:107A34000FFF000010D15151101510D7125152D719
:107A44001000000000FFFF81FFFF00FFFF01FFFFA8
:107A540000CFFF31318383000060606060FFFF006E
:107A6400FFC0201010D010D010D010D0101010D0A3
:107A74001010101010109090901010109090901002
:107A840010109090909010101010101010909020E2
:107A9400C00F102020202020202020202020202063
:107AA40020212323232323212020202020202020C1
:107AB40020202020202427242424242427242010A8
:107AC4000FFF00000000132424241900000000000C
:107AD40000FFFF010101FFFF0000000000000000A3
:107AE400000000000000078BD3E3D38B07000000E5
:107AF400FFC0201010101090909010101010101053
:107B040010109090909090101010101010101010F1
:107B140010101010109090909090909090901020D1
:107B2400C00F1020202020202020202020202020D2
:107B34002020202020202020202020202020202041
:107B440020202020202020202522212A2422201029
:107B54000FFF00000001011F001F0804081F0000A0
:107B640000000000000000FFFF181818F8F80000DB
:107B74000000010E122244881020408040000000C2
:107B8400FFC0201010101010101010101010101042
:107B940010101010101010101010101010101010E1
:107BA40010101010101010101010101010101020C1
:107BB400C000000000000000000000000000000001
:107BC40000000000000000000000000000000000B1
:107BD40000000000000000000000000000000000A1
:107BE4000000000000000000000000000000000091
:107BF4000000000000000000000000000000000081
:107C04000000000000000000000000000000000070
:107C14000000000000000000000000000000000060
:107C24000000000000000000000000000000000050
:107C34000000000000000000000000000000000040
:107C4400000F102020202020202020202020202071
:107C54002020202020202020202020202020202020
:107C640020202020202020202020202F2723211006
:107C74000FFF001F0804081F001F0804081F00004E
:107C840000000000000000FFFF181818F8F80000BA
:107C9400000406070770888888FF000000000000C1
:107CA400FFC0201010101010101010101010101021
:107CB40010101010101010101010101010101010C0
:107CC400101010109010101010D010101010102060
:107CD400C0000000000000000000000000000000E0
:107CE4000000000000000000000000000000000090
:107CF4000000000000000000000000000000000080
:107D0400000000000000000000000000000000006F
:107D1400000000000000000000000000000000005F
:107D2400000000000000000000000000000000004F
:107D3400000000000000000000000000000000003F
:107D4400000000000000000000000000000000002F
:107D5400000000000000000000000000000000001F
:107D6400000F102020202020202020202020202050
:107D740020202020202020202020202020202020FF
:107D840020202020202020202021232F27232110E1
:107D94000FFF001F0804081F001F0804081F00002D
:107DA40000000000000000FFFF181818F8F8000099
:107DB4000000000102040810E0E0E0C080000000C0
:107DC400FFC0201010101010101010101010101000
:107DD400101010101010101010101010101010109F
:107DE400101010101010101010101010101010207F
:107DF400C0000000000000000000000000000000BF
:107E0400000000000000000000000000000000006E
:107E1400000000000000000000000000000000005E
:107E2400000000000000000000000000000000004E
:107E3400000000000000000000000000000000003E
:107E4400000000000000000000000000000000002E
:107E5400000000000000000000000000000000001E
:107E6400000000000000000000000000000000000E
:107E740000000000000000000000000000000000FE
:107E8400003F40808080808080808098B8B0B0B00F
:107E9400B0B89C8F838080808080403FFC020101C9
:107EA4000101010101013139191919193971E181EE
:107EB400010101010102FC3F4080838FBF8F838059
:107EC4008080838FBF8F83808080838FBF8F8380E8
:107ED400403FFC02F1F9FDFDFDF9F101F1F9FDFD71
:107EE400FDF9F101F1F9FDFDFDF9F102FC3F4080DE
:107EF4008080808080808183869DBD9D86838180F3
:107F0400808080808080403FFC02010101010101EA
:107F140001F1F9CDB5B5B56DF9F101010101010129
:107F24000102FC3F40808080808080808F88B8A0E0
:107F3400A0A0B8888F80808080808080403FFC0231
:107F440001010101010101FD7D7D7D7D7D7D7DFDC1
:107F54000101010101010102FC0000000000000018
:107F6400000000000000000000000000000000000D
:107F740000000000000000000000000000000000FD
:107F84000000000000000000000000000000003FAE
:107F9400409F9F909F9F909F9F808D9595958E80E9
:107FA400BF9F8884889FBF80403FFC02010101017C
:107FB400517D3D01517D3D01397D457D39010101F1
:107FC40001010102FC0000000000000000000000AC
:107FD400000000000000000000000000000000009D
:107FE400000000000000000000000000000000008D
:0C7FF40000000000000000000000000081
:020000040020DA
:08000000FFFFFFFFFFFFFFFF00
:020000040030CA
:0E000000FF02010CFF8180FF0FC00FE00F40D8
:00000001FF
