:0400000007EF00F016
:100008006D8209ED00F0D5EF00F00600FACF5BF045
:10001800FBCF5CF0E9CF5DF0EACF5EF0E1CF5FF0B7
:10002800E2CF60F0D9CF61F0DACF62F0F3CF63F0BE
:10003800F4CF64F0F6CF65F0F7CF66F0F8CF67F04D
:10004800F5CF68F0F2A009D081A885EC01F081AA6B
:1000580085EC01F081CF69F0F290F2A203D085EC33
:1000680001F0F292F0A20DD0F2921F4A202A300E2F
:100078001F1807E1750E2018D8A403D08C948C960D
:100088008C9868C0F5FF67C0F8FF66C0F7FF65C0C9
:10009800F6FF64C0F4FF63C0F3FF62C0DAFF61C01B
:1000A800D9FF60C0E2FF5FC0E1FF5EC0EAFF5DC04C
:1000B800E9FF5CC0FBFF5BC0FAFF6D921100000E08
:1000C8000001886F000E0001896F000E0001856F26
:1000D800000E0001876F000E866FC282C2B2FED783
:1000E800C4CF88F0C3CF89F00001895188C082F05D
:1000F8000001836B82C083F00001826B00018213D0
:10010800000E8313060E0001846F0001D89083331C
:1001180082330001842FF9D7FF0E000182150001F8
:10012800866F030E000183150001876F86C080F07B
:1001380087C081F012009FEC01F09CEC01F067ECA5
:1001480001F08EEC01F095EC01F063EC00F080C05A
:100158006AF081C06BF0000E6B6E000E6A6E63EC85
:1001680000F080C06AF081C06BF0000E6B6E000E6C
:100178006A6E63EC00F080C06AF081C06BF083ACFB
:100188007BEC01F08350815081B8F9D7FFEC00F087
:10019800F6D7000E0001816F640E806F27EC01F026
:1001A800F8D7440EF66E030EF76E000EF86E0900CF
:1001B800F5CF6CF002EE00F011EE00F0EE6AE550BB
:1001C800E150FCE1E250FAE101EE00F011EE00F03E
:1001D800EE6AE550E150FCE1E250FAE100EE01F090
:1001E800540EEE6AE806FDE16D906D92000EF86E11
:1001F80000019FEF00F08D84000E0001816F000E5A
:10020800806F000181511DE1C80E0001805DD8B0EA
:1002180018D0000E0001836F000E826F0001835119
:1002280009E1640E0001825DD8B004D00001824B60
:10023800832BF4D70001804B812B0001815101E110
:10024800E3D78D941200000E0001836F000E826FB9
:1002580014D0000E0001856F000E846F100E00018F
:10026800845D270E00018559D8B004D00001844B65
:10027800852BF4D70001824B832B000180510001AC
:10028800825D0001815100018359D8B01200E1D785
:10029800000E586E000E576E0FD0000E5A6E000EEC
:1002A800596E100E595C270E5A58D8B003D0594AC7
:1002B8005A2AF7D7574A582A5550575C5650585813
:1002C800D8B01200EAD79494959095929482928827
:1002D800948093849598959495968B948C908C9211
:1002E8008C988C948C96F198F092F08812008D80FE
:1002F800000E0001816F320E806F27EC01F08D90A7
:1003080012008D80000E566E320E556E4CEC01F0C8
:100318008D90120093869388938A958C958E9380FE
:1003280012009280C294C296C298C29AC2801200E9
:0D03380096908D90120096948D94120066A0
:107A3A00000F102020202F202F2422242F20202046
:107A4A00202020202020202020202020202020202C
:107A5A0020202020202028292F2F292820212310E8
:107A6A000FFF0023A2A3A02BA02F2426A42F0000DF
:107A7A0000000000000000FFFF181818F8F80000C6
:107A8A000000007AF9C0C0E0F0F0E0C0C0E0F00009
:107A9A00FFC02090109010901090101010901010AD
:107AAA0010101010101010101010101010101010CC
:107ABA00101010901010101010101010101010202C
:107ACA00C0000000000000000000000000000000EC
:107ADA00000000000000000000000000000000009C
:107AEA00000000000000000000000000000000008C
:107AFA00000000000000000000000000000000007C
:107B0A00000000000000000000000000000000006B
:107B1A00000000000000000000000000000000005B
:107B2A00000000000000000000000000000000004B
:107B3A00000000000000000000000000000000003B
:107B4A00000000000000000000000000000000002B
:107B5A00000F10202020202020202020202020205C
:107B6A00202020202020202020202020202020200B
:107B7A0020202020202020292622212A24222010E9
:107B8A000FFF00000001011F001F0804081F00006A
:107B9A0000000000000000FFFF181818F8F80000A5
:107BAA000000011E22428204081020C0402000006A
:107BBA00FFC020101010101010101010101010100C
:107BCA0010101010101010101010101010101010AB
:107BDA00101010101010101010101010101010208B
:107BEA00C0000000000000000000000000000000CB
:107BFA00000000000000000000000000000000007B
:107C0A00000000000000000000000000000000006A
:107C1A00000000000000000000000000000000005A
:107C2A00000000000000000000000000000000004A
:107C3A00000000000000000000000000000000003A
:107C4A00000000000000000000000000000000002A
:107C5A00000000000000000000000000000000001A
:107C6A00000000000000000000000000000000000A
:107C7A00000F10202020202020202020202020203B
:107C8A0020202020202020202020202020202020EA
:107C9A0020202020202020202020202F27232110D0
:107CAA000FFF001F0804081F001F0804081F000018
:107CBA0000000000000000FFFF181818F8F8000084
:107CCA00000406070770888888FF0000000000008B
:107CDA00FFC02010101010101010101010101010EB
:107CEA00101010101010101010101010101010108A
:107CFA00101010109010101010D01010101010202A
:107D0A00C0000000000000000000000000000000A9
:107D1A000000000000000000000000000000000059
:107D2A000000000000000000000000000000000049
:107D3A000000000000000000000000000000000039
:107D4A000000000000000000000000000000000029
:107D5A000000000000000000000000000000000019
:107D6A000000000000000000000000000000000009
:107D7A0000000000000000000000000000000000F9
:107D8A0000000000000000000000000000000000E9
:107D9A00000F10202020202020202020202020201A
:107DAA0020202020202020202020202020202020C9
:107DBA0020202020202020202021232F27232110AB
:107DCA000FFF001F0804081F001F0804081F0000F7
:107DDA0000000000000000FFFF181818F8F8000063
:107DEA000000000102040810E0E0E0C0800000008A
:107DFA00FFC02010101010101010101010101010CA
:107E0A001010101010101010101010101010101068
:107E1A001010101010101010101010101010102048
:107E2A00C000000000000000000000000000000088
:107E3A000000000000000000000000000000000038
:107E4A000000000000000000000000000000000028
:107E5A000000000000000000000000000000000018
:107E6A000000000000000000000000000000000008
:107E7A0000000000000000000000000000000000F8
:107E8A0000000000000000000000000000000000E8
:107E9A0000000000000000000000000000000000D8
:107EAA0000000000000000000000000000000000C8
:107EBA00003F40808080808080808F88B8A0A0A00A
:107ECA00B8888F80808080808080403FFC020101DA
:107EDA000101010101FD7D7D7D7D7D7D7DFD01012C
:107EEA00010101010102FC00000000000000000085
:107EFA000000000000000000000000000000000078
:107F0A000000000000000000000000000000000067
:107F1A00000000000000000000000000003F409F39
:107F2A009F909F9F909F9F808D9595958E80BF9FD4
:107F3A008884889FBF80403FFC0201010101517D76
:107F4A003D01517D3D01397D457D39010101010127
:107F5A000102FC0000000000000000000000000018
:107F6A000000000000000000000000000000000007
:107F7A0000000000000000000000000000000000F7
:107F8A000000000000000000003F408080808080E8
:107F9A0080808098B8B0B0B0B0B89C8F8380808061
:107FAA008080403FFC0201010101010101013139D8
:107FBA00191919193971E181010101010102FC3F05
:107FCA004080838FBF8F83808080838FBF8F838021
:107FDA008080838FBF8F8380403FFC02F1F9FDFDD3
:107FEA00FDF9F101F1F9FDFDFDF9F101F1F9FDFDEF
:067FFA00FDF9F102FC009C
:020000040020DA
:08000000FFFFFFFFFFFFFFFF00
:020000040030CA
:0E000000FF02010CFF8180FF0FC00FE00F40D8
:00000001FF
