:0600000000F006EF00F025
:1000080014ED04F075EF04F0056612000A0E056E93
:100018008138010B5A1807E05FC05EF0000E81B806
:10002800010E5A6E11D08138010B5A1806E15E5044
:1000380002E05E0602D05AC05BF05B505C1804E038
:100048005BC05CF0010E5D6E8338010B661807E03B
:100058006BC06AF0000E83B8010E666E11D083384B
:10006800010B661806E16A5002E06A0602D066C013
:1000780067F06750681804E067C068F0010E696EA1
:100088008334E836010B541807E059C058F0000EC5
:1000980083BE010E546E12D08334E836010B541817
:1000A80006E1585002E0580602D054C055F05550A9
:1000B800561804E055C056F0010E576E8130E832EC
:1000C800E832010B4E1807E053C052F0000E81B61B
:1000D800010E4E6E13D08130E832E832010B4E1813
:1000E80006E1525002E0520602D04EC04FF04F5087
:1000F800501804E04FC050F0010E516E8138E832BC
:10010800010B601807E065C064F0000E81BA010EAB
:10011800606E12008138E832010B601806E1645005
:1001280002E0640602D060C061F061506218D8B481
:10013800120061C062F0010E636E010C829A2B6A94
:10014800640E2A6E00EC04F0828A2B6AC80E2A6EAE
:1001580000EC04F02D6AAE0ECFEC03F02D6AA00E71
:10016800CFEC03F02D6A550ECFEC03F02D6AA10EEB
:10017800CFEC03F0000E2D6ACFEC03F02D6AA20E2F
:10018800CFEC03F0000E2D6ACFEC03F02D6AA40E1D
:10019800CFEC03F02D6AA80ECFEC03F02D6A7F0E8A
:1001A800CFEC03F02D6AAB0ECFEC03F02D6A010EF5
:1001B800CFEC03F02D6A810ECFEC03F02D6A770E99
:1001C800CFEC03F02D6AB10ECFEC03F02D6A310E9F
:1001D800CFEC03F02D6AB30ECFEC03F02D6AB10E0D
:1001E800CFEC03F02D6AB50ECFEC03F02D6A030EA9
:1001F800CFEC03F02D6AB60ECFEC03F02D6A0D0E8E
:10020800CFEC03F02D6ABC0ECFEC03F02D6A070E7D
:10021800CFEC03F02D6ABE0ECFEC03F02D6A070E6B
:10022800CFEC03F02D6AD50ECFEC03F02D6A020E49
:10023800CFEC03F0316A800E326E600E336E000E22
:10024800346A7FEC01F02D6AAF0ECFEF03F004663D
:100258001200020E046E42D0000EDCEC02F02CC03C
:100268004CF02DC04DF04CC02AF04DC02BF0100EB4
:1002780073EC03F0260E436E100E49EC02F0B2EC5C
:1002880003F033D0010EDCEC02F02CC04CF02DC092
:100298004DF04CC02AF04DC02BF01A0E73EC03F051
:1002A800280E436E1A0E49EC02F095EC03F01DD0AF
:1002B800020EDCEC02F02CC04CF02DC04DF04CC00E
:1002C8002AF04DC02BF0060E73EC03F0240E436E9B
:1002D800060E49EC02F050EC03F007D00350BCE0E6
:1002E800010AD0E0030AE4E0010A032A040E0364C9
:1002F800040C036A1200E8CF3CF0D8903C32D89046
:10030800323232042F6E3C5042EC04F033042F6E2C
:10031800315034EC04F080EC04F0780EEAEC03F091
:1003280098EC04F0400EEAEC03F098EC04F03B6A19
:1003380014D03A6A06D03450EAEC03F098EC04F092
:100348003A2A3C5032C035F0366A355E000E365ACD
:100358003AC037F00FD8EFE33B2A315033C035F0BD
:10036800366A355E000E365A3BC037F003D8E1E3F3
:100378009EEF04F0386A3850800A396E3550375C81
:100388003650800A39581200E8CF3CF0D8903C32F9
:10039800D89032323C503224366E36042F6E3C50A0
:1003A80042EC04F031503324366E36042F6E31504F
:1003B80034EC04F032503302F3CF38F0F4CF39F094
:1003C80080EC04F0780EEAEC03F098EC04F0400EB0
:1003D800EAEC03F098EC04F03A6A3B6A14D034C0B3
:1003E80036F035C037F03A5036263B50372236C003
:1003F800F6FF37C0F7FF0800F550EAEC03F098EC79
:1004080004F03A4A3B2A38503A5C39503B58E7E303
:100418009EEF04F03E6A3F6A406A416A3D503A10D6
:100428003B103C1029E0010E426E06D0D8903A36B7
:100438003B363C363D36422A3DAEF8D7D8903E365C
:100448003F36403641363A50365C3B5037583C5080
:1004580038583D50395809E33A50365E3B50375AC0
:100468003C50385A3D50395A3E80D8903D323C3243
:100478003B323A32422EE2D73EC036F03FC037F028
:1004880040C038F041C039F01200E8CF4AF04B6A5A
:10049800466A476A486A496A4B6A4B50020D4A5095
:1004A800F324D96EDA6ADECF44F0DDCF45F044504C
:1004B800462645504722000E482249224B2A040E60
:1004C8004B64EBD746C036F047C037F048C038F029
:1004D80049C039F0050E3A6E000E3B6A3C6A3D6A27
:1004E8000EEC02F04350D96EDA6A36C0DEFF37C030
:1004F800DDFF120093889588958E9386938A010E66
:100508005A6E5B6E5C6E5D6A030E5F6E5FC05EF076
:10051800010E666E676E686E696A030E6B6E6BC05D
:100528006AF0010E546E556E566E576A030E596E78
:1005380059C058F0010E4E6E4F6E506E516A030E40
:10054800536E53C052F0010E606E616E626E636A44
:10055800030E656E65C064F0030C5D5006E05C66D2
:1005680004D05D6A010E5C6E5D6A695008E06866D9
:1005780006D0696A5FC06BF0010E686E696A5750F1
:1005880006E0566604D0576A010E566E576A5150F7
:1005980006E0506604D0516A010E506E516A6350ED
:1005A800D8A462661200636A010E626E636A120062
:1005B800E8CF34F0030E316EE80E306E326A336ADB
:1005C80034505DEC04F0B6EC04F03006D8A03106E7
:1005D8003028D8B4312802E0C2B2F7D7C4CF2EF001
:1005E8002F6AD8902E362F36D8902E362F362E508A
:1005F80032122F50331232C02CF033C02DF01200BB
:10060800B1EC04F025EC04F0A4EC04F07EEC02F06C
:1006180089EC04F0A2EC00F050EC04F069EC04F072
:10062800316A600E326E336E6B0E356EBE0E346EEE
:10063800100EC8EC01F02BEC01F008EC00F0B1EC66
:1006480002F0A9EC04F0ADEC04F0F5D7326A336A95
:10065800346A356A2AA008D02E5032262F50332209
:100668003050342231503522D8902E362F3630363D
:100678003136D8902D322C322B322A322D502A1076
:100688002B102C10E7E132C02AF033C02BF034C015
:100698002CF035C02DF01200580E2E6E000E2F6A69
:1006A800306A316A24C02AF025C02BF02C6A2D6AE2
:1006B8002AEC03F02AC036F02BC037F02CC038F0F3
:1006C8002DC039F00A0E3A6E000E3B6A3C6A3D6A4C
:1006D8000EEC02F036C001F037C002F01200E8CF8D
:1006E8002CF0040E2D6E2D50020D2C50F324D96ED3
:1006F800DA6AFE0ED926DA6A2D50020D2C50F32440
:10070800E16EE26ADECFE6FFDDCFE5FF2D062D665E
:10071800EAD72C50D96EDA6A2AC0DEFF2BC0DDFF7B
:1007280012000A0E2E6E000E2F6A306A316A28C037
:100738002AF029C02BF02C6A2D6A2AEC03F02AC073
:1007480036F02BC037F02CC038F02DC039F00A0E27
:100758003A6E3B6A3C6A3D6A0EEF02F00A0E2E6E54
:10076800000E2F6A306A316A26C02AF027C02BF0A3
:100778002C6A2D6A2AEC03F02AC036F02BC037F019
:100788002CC038F02DC039F00A0E3A6E3B6A3C6A2C
:100798003D6A0EEF02F0E8CF2EF080EC04F0780E00
:1007A800EAEC03F098EC04F02D5004E0400EEAEC7B
:1007B80003F003D0000EEAEC03F098EC04F02E509E
:1007C800EAEC03F098EC04F09EEF04F0E8CF2BF08D
:1007D8002C6A82962BAE02D0828801D0829891EC46
:1007E80004F0828691EC04F08296D8902B362C2A5D
:1007F800070E2C64EED7070C0ED0070E2D6E080ED0
:100808002C6E2C06D8A02D062C28D8B42D28F9E15A
:100818002A06D8A02B062B502A10D8B41200EDD7E0
:100828000600F2AA01D001D00BD0F2A401D001D069
:1008380007D0F2940450D8B401D001D001D00406F6
:1008480011008482969284849694848096908284FF
:1008580094948384959482829492809A929A1200B6
:10086800E8CF30F02D6A750ECFEC03F02D6A3050CA
:10087800CFEC03F02D6A2F50CFEF03F0E8CF30F024
:100888002D6A150ECFEC03F02D6A3050CFEC03F033
:100898002D6A2F50CFEF03F0640E2A6E010EC26E40
:1008A8000C0EC16E090EC06E2A062A28FDE1B4EFAF
:1008B80004F0E8CF2BF0C2CF2AF0030E2A162B44FF
:1008C800E846FC0B2A10C26E1200D59AD596D5843C
:1008D800D592D580D58CF294F28AF28ED66AD76AF0
:1008E800120000EE01F0290EEE6AE806FDE1000EA6
:1008F800F86E000104EF03F08288828691EC04F020
:10090800829891EC04F08296120094869488948AD6
:10091800948C948E829C829E1200010E2A6E2A0666
:100928002A28D8B41200FBD78288828691EC04F07A
:10093800829612008298828691EC04F082881200D6
:10094800948093849288958212008492848484800F
:100958001200828483948282120081929392120000
:08096800C2801200C2801200DF
:106BBE00FFFFFFFFFFFFFFFFFFFFFFFFFFFFFFFFD7
:106BCE00FFFFFFFFFFFFFFFFFFFFFFFFFFFFFFFFC7
:106BDE00FFFFFFFFFFFFFFFFFFFFFFFFFFFFFFFFB7
:106BEE00FFFFFFFFFFFFFFFFFFFFFFFFFFFFFFFFA7
:106BFE00FFFFFFFFFFFFFFFFFFFFFFFFFFFFFFFF97
:106C0E00FFFFFFFDFEFFFEFBFDFFFFFFFFFEF8F4A3
:106C1E00FFFFFFFFFFFFFFFFFFFFFFFFFFFFFFFF76
:106C2E00FFFFFFFFFFFFFFFFFFFFFFFFFFFFFFFF66
:106C3E00FFFFFFFFFFFFFFFFFFFFFFFFFFFFFFFF56
:106C4E00FFFFFFFFFFFFFFFFFFFFFFFFFFFFFFFF46
:106C5E00FFFFFFFFFFFFFFFFFFFEFDFCFDFBF7FA4F
:106C6E00FEEECEAC84A3DCAFAC685768BCECB9BD0D
:106C7E00FFFFFFFFFFFFFFFFFFFFFFFFFFFFFFFF16
:106C8E00FFFFFFFFFFFFFFFFFFFFFFFFFFFFFFFF06
:106C9E00FFFFFFFFFFFFFFFFFFFFFFFFFFFFFFFFF6
:106CAE00FFFFFFFFFFFFFFFFFFFFFFFFFFFFFFFFE6
:106CBE00FFFFFFFFFEFFFED99BAE691087CF3B079C
:106CCE0059CCFDCD5C5DDDF6F7F9FDFDFE8F1D3C6B
:106CDE00FFFFFFFFFFFFFFFFFFFFFFFFFFFFFFFFB6
:106CEE00FFFFFFFFFFFFFFFFFFFFFFFFFFFFFFFFA6
:106CFE00FFFFFFFFFFFFFFFFFFFFFFFFFFFFFFFF96
:106D0E00FFFFFFFFFFFFFFFFFFFFFFFFFFFFFFFF85
:106D1E00FFFAE5C7CCCA966678BACACBE9E6E6F4BE
:106D2E00FBEDCDDDDCEDAD0A06079EFFFFBA84DD7F
:106D3E00FFFFFFFFFFFFFFFFFFFFFFFFFFFFFFFF55
:106D4E00FFFFFFFFFFFFFFFFFFFFFFFFFFFFFFFF45
:106D5E00FFFFFFFFFFFFFFFFFEFFFDFBFCFDFCFA49
:106D6E00D6D8FCFCFDFAF7F7FBFCFCFAE7EAEFEFEE
:106D7E007834A4D7ECEDEDEC9B4C0A09090A0C1BF8
:106D8E0058E8DDDFBAA6C5E1D0D1C2C3FAFFFFEDE8
:106D9E00FFFFFFFFFFFFFFFFFFFFFFFFFFFFFFFFF5
:106DAE00FFFFFFFEFCFBFDFFFFFFFFFFFFFFFFFFEF
:106DBE00FFFFFFFFFEFEFEFFCC7481A496BAEEDD50
:106DCE00C4B0D1E7DBDE9E3B79EBEDCDC8D7C999D8
:106DDE00CDEBCABE9C58ACEEBA86ECFCFEFFAD49BC
:106DEE00496CEEFFFFEFCFAF5F0E0701222040DDB3
:106DFE00FFFFFFFFFFFFFFFFFFFFFFFFFFFFFFFF95
:106E0E00FCE9B99A8C8D8D9C9996C5F7FBFDFEFF1A
:106E1E00FFFBEACCDBD4A1729BCE8C4788CDCFCDC5
:106E2E006E4E4F2D076ADFEEFADBDEAF5F6EBBFEF6
:106E3E008E3E4FCEFEEFEFEFCFEFFFEFFFEFFFBF38
:106E4E002D1D6FFFD9D7FFDBE0F2F7B82166DFEF1C
:106E5E00FFFFFFFFFFFFFFFFFFFFFFFFFFFFFDC86D
:106E6E00799ADDEECCBBCBDCFBFEDF8F8FCFBE6C19
:106E7E005A4B8AC5845DAFF8E8DFEFBD6C86D0E172
:106E8E00FBCF8BB8E7C5B4F9AE7ECEFDDDEFFCF8D7
:106E9E00F6F69120106170607031B9FFB7C4A0D4BE
:106EAE00FDFFFFFFCF5EDFFF9F1D0510130160E9A1
:106EBE00FFFFFFFFFFFFFFFFFFFFFFFFFFFE9888B3
:106ECE00BADCEEEEDDCCBBBCCDCDDCECFEFDECECED
:106EDE00FEFEFFCFD9E77C392276BBFEFE6F0F8C0C
:106EEE00EAFCFEFFDFBFBFCFBFCACCDFDA913202B2
:106EFE0003040A4F3B083E8FD8DBFFFFFF8E2E3573
:106F0E0081C0E9FFFFFFEDDDFFFFFF6E0111ABEF6B
:106F1E00FFFFFFFFFFFFFFFFFFFFFFFFFFDD778993
:106F2E00BBCBECEDEECCBBBBCACABBCCCBA8A9DDB0
:106F3E00DEDEEFEBABAE380CD9A183CEDEFAFA7300
:106F4E000032EFFF5577FBF6F5DF8CA6C924108AC9
:106F5E00EFF8E0D1FEFFFFEECFFFECE8FDFFFF8F75
:106F6E000B0CBFFFFFCD436098FFFEFF9F04304226
:106F7E00FFFFFFFFFFFFFFFFFFFFFFFFFFDD788833
:106F8E00BABBBBCCEDDECDCD9BABABAAABABABBB3B
:106F9E00EFFD620A9FF6B0600214A9F68000053A72
:106FAE002CAFFEFFDFAE8A350053FFFFEEBF392058
:106FBE001000077EFDFAF7E3FCFFEFBFEBC2817016
:106FCE00D5FFFFFFFFF9EA9FFFDF7BDFFFD832120D
:106FDE00FFFFFFFFFFFFFFFFFFFFFFFFFFEF8A77C0
:106FEE0097BACCCBCCDDDDDDDDDDCDCCBBBCDFEFB0
:106FFE00E676BFE7B0468F7F4210060E5DCBE9F610
:10700E00F9FFFCFAEAFAFFEF9FAFEFFFE4E3EF7F41
:10701E00BDEFF8902347312CBFD7FAFFAD05041C06
:10702E00BDFBFFFFEF5B00B7FFFFEFEFA3001222E8
:10703E00FFFFFFFFFFFFFFFFFFFFFFFFFFFFCF8AF7
:10704E00979ABACCBCCBDEDDCEDDEEBECEEDB6BDB4
:10705E00DFFFB502111079FE9EACE3B031326263F0
:10706E008BFEBDAFDFCFEFFFFFFFFFEE250060FB16
:10707E00FFAD130164336BFFFFEE9FEEEEADEFFF3E
:10708E00998BFFFFFFFF7FDFF5F7FFFFAE4F0B037F
:10709E00FFFFFFFFFFFFFFFFFFFFFFFFFFFFF87682
:1070AE0056A6BD99CABCDCEECFDEEEDEFCEDDFF8F7
:1070BE0080CC27061A9FFFDD8BCD7E3E2801110066
:1070CE0034DCFED7E3F7F7F6FBFFFFFF8D0321500D
:1070DE0060C7263A8E8DB8B57286F5EAFFFCFFEFD3
:1070EE00AF9777FFF5C1D3FD8FAFFFB6B6FFFF9F0A
:1070FE00FFFFFFFFFFFFFFFFFFFFFFFFFFEA43A6BC
:10710E008A49A4A8ACCCEEFFD6DBFFCA6CFC922C4D
:10711E009EFBEC89DEFD7130302040B0F8AE7E8DE6
:10712E00BDDCEC9E2E2D05012297FBFAFF9D03255B
:10713E001520BAFFEBB844476882029DEE9DC9C682
:10714E00F9FFFFCF0800109BFFFCA1CBFEB0D3FFD1
:10715E00FFFFFFFFFFFFFFFFFFFFFFFFFD63351286
:10716E00BDB5007BDBDEEFD959DAF89AFB728FD30F
:10717E0014BFE7B0E4ED7E08051502087ED8EA9E3E
:10718E002531A7EF6840509ADFFF6C00A1FEDFFFAC
:10719E00CF2C9AA377778878710268DBEFFB838D0B
:1071AE006FFF9969EFAFAFF9F4EFCFFF850102954D
:1071BE00FFFFFFFFFFFFFFFFFFFFFFFFBA32445746
:1071CE00FDC88EDEE9FAB736867299DE1B9E973BB6
:1071DE00FFDF280117CCFEFAC2D3EEFCF7CAA4B02B
:1071EE00F8EFADCDD930066EFEFDFF8F1F9C837577
:1071FE00CCFDCF6D67757943011189FFFFFFEFFF5E
:10720E00EEEFFDB260C9FF8D3AEFFFFF4600106A48
:10721E00FFFFFFFFFFFFFFFFFFFFFFFF76219ADD5E
:10722E008532A69516007AFF7C9DB470D5DFE8FBFB
:10723E00CA706079FBF4E77C04088E6900132C3B5E
:10724E004090C7EDDE3E05F3BCAFAC50B0FCFFCABC
:10725E00DBEFFFFFCF7A84322313ABFFFFFFFFEF8D
:10726E00FFFF8C0C5FFFFA7001DEFFFFCF2300A73C
:10727E00FFFFFFFFFFFFFFFFFFFFFFFF6615AFDA08
:10728E0040454683E5A66488F3BA5E3DDFD402230B
:10729E00E79E5EEEAF1E4FB770D4CCA8D7CCCCE72E
:1072AE007A1EAD9232EDDC8DCEF8850C4EFFEAB92A
:1072BE00EF975194B3EA65243321DAFFFEFFFFFF07
:1072CE00DECEFFFE87149EACE9FFFFFFFF4411895F
:1072DE00FFFFFFFFFFFFFFFFFFFFFFFF9D60C221CC
:1072EE000045AF1B99FBF4A087FEB180DADFBE37F5
:1072FE002DDFD670DDFFE810284B28A1996AF74FD5
:10730E005AC2418FEC738BFEB9063BFEAA569CEE19
:10731E00DA9653774576337956386674AAFFFCFEB3
:10732E00FFFEC3A1FFFFCD073DFFFFFFA410159D7C
:10733E00FFFFFFFFFFFFFFFFFFFFFFFFFF580500EF
:10734E003CDDF3A6083B6F3BC9BF7EADCFD94120D4
:10735E0078FF6900B3FF35468421707923E94C83A9
:10736E00AE38C2E9076DF9DDEAD26649DDFAFBDE19
:10737E009C6F2B357655997798886598FCFFBFEFF3
:10738E00FF640279FFFFFBFAFFFFF4300111EEFFFD
:10739E00FFFFFFFFFFFFFFFFFFFFFFFFFFCDA74434
:1073AE00A7770012EEE4A1CBCC83212BDD987D9F35
:1073BE00FAA81B0B3AFF5340470719960056FFBD1C
:1073CE00B8AA69D9E9634EED7A6CEB9DADCE47A5AF
:1073DE00FFAAF8AD125366879779779457AEFEEEF3
:1073EE00DACFCFF7F8FFFFDFFC9100111000B8FFE6
:1073FE00FFFFFFFFFFFFFFFFFFFFFFFFFFEF8C20F1
:10740E00447B0035864341CBCF3F7D7324CFDB6376
:10741E008673898BBAFACE2F094531000050C2D43B
:10742E00A458AAA9B8FBEC4753BB8F9696EFBB772F
:10743E00DDDF8BFF5C24664583653613777A14DDBA
:10744E00FFFE74026DFFFEFFEF1300203A5FCFFFC9
:10745E00FFFFFFFFFFFFFFFFFFFFFFFFFFFFFF2904
:10746E0076B510A72727BB5187D395DFDC53A8FC31
:10747E00C6BFBFFEFDEEFDFCFEFFEFBF7F2B02225F
:10748E003444566798ADBBDACD9BDCEDBACBDE4DFE
:10749E00CDFD4B9EFF36796A66754349DFFF88D472
:1074AE00DA197EFFFFFFFCF33000110052EDDEFE15
:1074BE00FFFFFFFFFFFFFFFFFFFFFFFFFFFFFFEFDE
:1074CE0034002CC9D13074DC94695FECFF74D7DFC3
:1074DE000944F7B6B8AC6BD894A4C6ACE9FA9E3999
:1074EE0026366697A9CBDCCDDCCCBBCBCBDCFD79CD
:1074FE0099EF7AABFF78DC872A9C58CDFEFEFF7C95
:10750E0096FEEFFBE380310220131A0C8FEFFEEE96
:10751E00FFFFFFFFFFFFFFFFFFFFFFFFFFFFFFFF6D
:10752E00AF13A917002304348F5D9B4672BB4DF633
:10753E00E097BF5F4F9C8234ADDF5C89BA9CCCEC88
:10754E008B9B9A9A8A9BBBCACADCCCBBBCBCCBCAEF
:10755E0098DECEABFECBEEDDFFB788CDDEFFFFEFC4
:10756E0079A7FFBF5F4F3C3E6FAFFFFEFEDDDDEE46
:10757E00FFFFFFFFFFFFFFFFFFFFFFFFFFFFFFFF0D
:10758E00FF9F66B36CAF73B4FEE9E6BD7F8AE63B40
:10759E001BAE7472E75139FFDB77FCEAAADCCC9D97
:1075AE00DBCBCCCBCABABAABACABABBACABBCEBEDA
:1075BE00CBBCDC7BCFEEEFFFFC6486CACCDCFFFFDE
:1075CE008C59EFFEFFED76CAFFFFEEEFFCF8F9FEE9
:1075DE00FFFFFFFFFFFFFFFFFFFFFFFFFFFFFFFFAD
:1075EE00FFFFEF3E32919B1A58CE7791F673011042
:1075FE00A0FD7841EC789BDEBDD9D86938ABECCCD8
:10760E00CCCCBBCCBBBBBBBBBA9ABAD9BC4851E144
:10761E00FDEFEEDFFFFDFFFFA72268AADCEDFEFF08
:10762E00ECBBFFEFFEFAEAF9842043EF9C0427CD72
:10763E00FFFFFFFFFFFFFFFFFFFFFFFFFFFFFFFF4C
:10764E00FFFFFF9464AE279577D8AD4F9D62012E54
:10765E006ECBDE9FCF8C4774C55B398AACAACCCB80
:10766E00BCBCCDCCCACBBBBCBBAAAA9AABFB63003D
:10767E0040FCFFFFFFFFFFD8312466AAADDDFFFF00
:10768E00CEDE84729D3F1D4FFFDFFEEDF8F8FCFF4E
:10769E00FFFFFFFFFFFFFFFFFFFFFFFFFFFFFFFFEC
:1076AE00FFFFEE270180966AB9AEAF5A54537BFDA9
:1076BE00C46434586B5A7B9E6BB5CAABBCB9D6DC6E
:1076CE00BBBBCCCBBCBBBBCCCBBBABBCCD7512243C
:1076DE001554E7F8E9FAC421154889A9CCEFFFFB48
:1076EE00B58455ABFFFEFBC676BCEE6E2D2B9AFC19
:1076FE00FFFFFFFFFFFFFFFFFFFFFFFFFFFFFFFF8C
:10770E00FFFFECCD450023BACDCE9C98BBAC865B7B
:10771E008C86E6F8D9D9BB9741325083C3A58BC866
:10772E00D9D9DCBCBCCCCCBBBCABBBCCCB4344545E
:10773E00557643162D9FCF5D23A5FCEFFFEB975C8F
:10774E00AFFFEAB6C8DCDEAAE2F3FAE88221167FC2
:10775E00FFFFFFFFFFFFFFFFFFFFFFFFFFFFFFFF2B
:10776E00FFFFDFED53027AABDEFFFAFCDFAE8AE6F7
:10777E00C9B8A9CAC844AE79206444522579E5A98E
:10778E005A4988B6DABCBCBDBBBBBACCDF46344660
:10779E00577ECFFFFFFFEFFFFF8E5BBAEDBEDCE73C
:1077AE00DAEECDDFCE5510012D7FBFE8D6F7C3CA76
:1077BE00FFFFFFFFFFFFFFFFFFFFFFFFFFFFFFFFCB
:1077CE00FFFD9410027ABEEFEECECFEFFFFFFFFF6C
:1077DE00CFAF9F6F1A67D9DA180635A97B7CBCDE4E
:1077EE0088A1B849857367CBABABABCBC94549AE66
:1077FE00FFFFFCFDFFFBFAEBBAAACC8A75F4D84D5D
:10780E000BBDFCF9F9EE5F0C37A0F1BC1F0C9DFE11
:10781E00FFFFFFFFFFFFFFFFFFFFFFFFFFFFFFFF6A
:10782E00FF9400167CDFFFEFEFFFFFFFFFFFFFFF70
:10783E00FFFFFFFFFFFFEFFFEFBF6F5E7D9D8CCD64
:10784E007C0D9FFFCFDFFFFFFFFFEFEFDFCFDFCC22
:10785E00EBE9CBBABAADAC9999A7C8EBCD9E9EDC3D
:10786E00FFFA60100226DEFE6A0A3DDFFFFEEDBC67
:10787E00FFFFFFFFFFFFFFFFFFFFFFFFFFFFFFFF0A
:10788E00A90207AEFFFFFFFFFFFFFFFFFFFFFFFF96
:10789E00FFFFFFFFFFFFFFFFFFFFFFFFFFFFFFFFEA
:1078AE00FFFFFFFFFFFFFFFFFFFFFFFFFFFFFFFFDA
:1078BE00EFBEBCAA949399BBB94176EFCEBCECF95E
:1078CE00A232285CBDFFFEEFFEEE9860B0E8EEFE41
:1078DE00FFFFFFFFFFFFFFFFFFFFFFFFFFFFFFFFAA
:1078EE00FFEFFFFFFFFFFFFFFFFFFFFFFFFFFFFFAA
:1078FE00FFFFFFFFFFFFFFFFFFFFFFFFFFFFFFFF8A
:10790E00FFFFFFFFFFFFFFFFFFFFFFFFFFFFFFFF79
:10791E00FFFFEFDF8D8AD9CCCC9FAEDDFDFECE4AC8
:10792E00105299BAC8DCDEA7A1D6D6820035DFFF89
:10793E00FFFFFFFFFFFFFFFFFFFFFFFFFFFFFFFF49
:10794E00FFFFFFFFFFFFFFFFFFFFFFFFFFFFFFFF39
:10795E00FFFFFFFFFFFFFFFFFFFFFFFFFFFFFFFF29
:10796E00FFFFFFFFFFFFFFFFFFFFFFFFFFFFFFFF19
:10797E00FFFFFFFFFFCE7997FFDC888B3A87DCFE97
:10798E00CD7F5E4B385757391B0C1F3F6FCFFEEF25
:10799E00FFFFFFFFFFFFFFFFFFFFFFFFFFFFFFFFE9
:1079AE00FFFFFFFFFFFFFFFFFFFFFFFFFFFFFFFFD9
:1079BE00FFFFFFFFFFFFFFFFFFFFFFFFFFFFFFFFC9
:1079CE00FFFFFFFFFFFFFFFFFFFFFFFFFFFFFFFFB9
:1079DE00FFFFFFFFFFFFCF7BDAEF1153FFDFAABBE5
:1079EE005B95E7FFFFF8D0C0C2B8A782613334853C
:1079FE00FFFFFFFFFFFFFFFFFFFFFFFFFFFFFFFF89
:107A0E00FFFFFFFFFFFFFFFFFFFFFFFFFFFFFFFF78
:107A1E00FFFFFFFFFFFFFFFFFFFFFFFFFFFFFFFF68
:107A2E00FFFFFFFFFFFFFFFFFFFFFFFFFFFFFFFF58
:107A3E00FFFFFFFFFFFFFFFFAFCABB8DBCB7E9EF34
:107A4E00FECD6C76F2DB3F09145399CFDEB3A0B2B4
:107A5E00FFFFFFFFFFFFFFFFFFFFFFFFFFFFFFFF28
:107A6E00FFFFFFFFFFFFFFFFFFFFFFFFFFFFFFFF18
:107A7E00FFFFFFFFFFFFFFFFFFFFFFFFFFFFFFFF08
:107A8E00FFFFFFFFFFFFFFFFFFFFFFFFFFFFFFFFF8
:107A9E00FFFFFFFFFFFFFFFFFFEFADCBEDCE6D99B9
:107AAE00FBBEA863087EFEFEFFFAE3E6DDAF8E9E08
:107ABE00FFFFFFFFFFFFFFFFFFFFFFFFFFFFFFFFC8
:107ACE00FFFFFFFFFFFFFFFFFFFFFFFFFFFFFFFFB8
:107ADE00FFFFFFFFFFFFFFFFFFFFFFFFFFFFFFFFA8
:107AEE00FFFFFFFFFFFFFFFFFFFFFFFFFFFFFFFF98
:107AFE00FFFFFFFFFFFFFFFFFFFFFFCFBCEDCC73CC
:107B0E00DBFFEEDCF9F9DEFEAC021297D8D8DACA4A
:107B1E00FFFFFFFFFFFFFFFFFFFFFFFFFFFFFFFF67
:107B2E00FFFFFFFFFFFFFFFFFFFFFFFFFFFFFFFF57
:107B3E00FFFFFFFFFFFFFFFFFFFFFFFFFFFFFFFF47
:107B4E00FFFFFFFFFFFFFFFFFFFFFFFFFFFFFFFF37
:107B5E00FFFFFFFFFFFFFFFFFFFFFFFFEFCDCD7E1C
:107B6E004782A3A5752546CEECDF7F3F3C3C2D3CDE
:107B7E00FFFFFFFFFFFFFFFFFFFFFFFFFFFFFFFF07
:107B8E00FFFFFFFFFFFFFFFFFFFFFFFFFFFFFFFFF7
:107B9E00FFFFFFFFFFFFFFFFFFFFFFFFFFFFFFFFE7
:107BAE00FFFFFFFFFFFFFFFFFFFFFFFFFFFFFFFFD7
:107BBE00FFFFFFFFFFFFFFFFFFFFFFFFFFFFDFDD09
:107BCE00FD9E9FCFDEEEFBFAF7B080EAFDFCFAF4E5
:107BDE00FFFFFFFFFFFFFFFFFFFFFFFFFFFFFFFFA7
:107BEE00FFFFFFFFFFFFFFFFFFFFFFFFFFFFFFFF97
:107BFE00FFFFFFFFFFFFFFFFFFFFFFFFFFFFFFFF87
:107C0E00FFFFFFFFFFFFFFFFFFFFFFFFFFFFFFFF76
:107C1E00FFFFFFFFFFFFFFFFFFFFFFFFFFFFFFFF66
:107C2E00DFDBA1411342220012495CABC941024A7B
:107C3E00FFFFFFFFFFFFFFFFFFFFFFFFFFFFFFFF46
:107C4E00FFFFFFFFFFFFFFFFFFFFFFFFFFFFFFFF36
:107C5E00FFFFFFFFFFFFFFFFFFFFFFFFFFFFFFFF26
:107C6E00FFFFFFFFFFFFFFFFFFFFFFFFFFFFFFFF16
:107C7E00FFFFFFFFFFFFFFFFFFFFFFFFFFFFFFFF06
:107C8E00FFFF5D57C797323A1A2381502020145BAD
:107C9E00FFFFFFFFFFFFFFFFFFFFFFFFFFFFFFFFE6
:107CAE00FFFFFFFFFFFFFFFFFFFFFFFFFFFFFFFFD6
:107CBE00FFFFFFFFFFFFFFFFFFFFFFFFFFFFFFFFC6
:107CCE00FFFFFFFFFFFFFFFFFFFFFFFFFFFFFFFFB6
:107CDE00FFFFFFFFFFFFFFFFFFFFFFFFFFFFFFFFA6
:107CEE00FFFFFFCF7E393ADDFCCEAE8D8D9DCCD819
:107CFE00FFFFFFFFFFFFFFFFFFFFFFFFFFFFFFFF86
:107D0E00FFFFFFFFFFFFFFFFFFFFFFFFFFFFFFFF75
:107D1E00FFFFFFFFFFFFFFFFFFFFFFFFFFFFFFFF65
:107D2E00FFFFFFFFFFFFFFFFFFFFFFFFFFFFFFFF55
:107D3E00FFFFFFFFFFFFFFFFFFFFFFFFFFFFFFFF45
:107D4E00FFFFFFFFFFFFDFBECCBACACCBB75301101
:107D5E00FFFFFFFFFFFFFFFFFFFFFFFFFFFFFFFF25
:107D6E00FFFFFFFFFFFFFFFFFFFFFFFFFFFFFFFF15
:107D7E00FFFFFFFFFFFFFFFFFFFFFFFFFFFFFFFF05
:107D8E00FFFFFFFFFFFFFFFFFFFFFFFFFFFFFFFFF5
:107D9E00FFFFFFFFFFFFFFFFFFFFFFFFFFFFFFFFE5
:107DAE00FFFFFFFFFFEFFFFFFFDFBDBCCC66122220
:027DBE000000C3
:020000040030CA
:0600010002010C008180E9
:060008000FC00FE00F40E5
:00000001FF
