:0400000007EF00F016
:10000800628283ED07F0DDEF29F0010E616EB1EC3D
:100018002DF0A8EC2DF04CEC2DF0DBEC2CF0B8EC2E
:100028002DF0000E306E000E2F6E000E0101706F65
:10003800000E716F000E726F000E736F000E0101DB
:100048006C6F000E6D6F000E6E6F000E6F6F000EFE
:100058000001C56F010E0001C16F010E0001F76FAD
:100068009C0EF66F040E0001D46F000E0001C36FE2
:10007800030E0001C06F000E0001C66F000E0001E4
:10008800E96F000EE86F0001C351D8A40FD0C80E65
:1000980001017F6F7F0E0101806F4BEC26F000F0AD
:1000A80000F000F0030000F000F000F00001C5517E
:1000B800D8B40BD181B039D08C888C948C96000E32
:1000C8000001DE6F000E0001F56F000EF46F020EE6
:1000D8000001F76F580EF66F18D08C84200E0101BE
:1000E800786F000E796F000E7A6F000E7B6F07EC49
:1000F8002DF08C94100E0101786F000E796F000EB0
:100108007A6F000E7B6F07EC2DF02C0E0001F45D6A
:10011800010E0001F559D8A0E0D7000E0001DE6FEE
:10012800000E0001F56F000EF46F040E0001D419E3
:10013800D8A405D0010E0001F76F2C0E13D0060EBF
:100148000001D419D8A405D0010E0001F76F9C0E48
:1001580009D00D0E0001D419D8A405D0000E000155
:10016800F76F010EF66F8C888C948C96000E000148
:10017800C66F8C8810D08C86000E0001FF6F0A0EA7
:10018800FE6F3DEC2DF08C96000E0001FF6F0A0EFD
:10019800FE6F3DEC2DF00001C651D8B4ECD78C8829
:1001A8008C948C960D0E0001D419D8A404D0000E9E
:1001B8000001C56F5AD08C88000E0001DE6F000E5A
:1001C8000001F56F000EF46F010E0001C76F10D02B
:1001D8008C84000E0001FF6F0A0EFE6F3DEC2DF0BF
:1001E8008C94000E0001FF6F0A0EFE6F3DEC2DF09F
:1001F8000001F6510001F45D0001F7510001F559C5
:10020800D8A0E6D78C948C8681A404D001018D6B8C
:100218008D2B02D001018D6B01018D510D6E0E6A7F
:10022800000ECF6E000ECE6ECD8081A402D0010EDE
:1002380001D0000E01018D6F8E6B0D5001018D19DB
:1002480005E10E5001018E19D8B4EFD7CD90EF0E0D
:10025800CE5C030ECF58D8A005D08C888C948C9691
:1002680007EF00F08C888C948C965F0E01017F6FED
:100278007F0E0101806FF4C081F1F5C082F14BEC73
:1002880026F0C30E0001FF6F500EFE6F3DEC2DF0FF
:10029800730E01017F6F7F0E0101806FF4C081F141
:1002A800F5C082F14BEC26F0000E0001C56F000E80
:1002B8000001C66F000E0001F56F000EF46F000E0E
:1002C8000001DE6FF28AD58EDED60001C005D8A403
:1002D800E1D00001DB05D8A44ED00D0E0001D419E1
:1002E800D8A40FD08C888C840001E9BFFDD7000109
:1002F800E95106E19C0E0001E85DD8B00BD3F4D7B4
:1003080009D38C888C948C968C888C968C8400016C
:10031800E9BFFDD70001E95105E1960E0001E85D4E
:10032800D8A0F5D78C868C943A0E0001FF6F980EF2
:10033800FE6F3DEC2DF08C888C948C96DC0E0101C0
:100348007F6F7E0E0101806FE8C081F1E9C082F104
:100358004BEC26F0F70E01017F6F7E0E0101806FD6
:10036800E8C081F1E9C082F14BEC26F004D2000E1E
:100378000001DC6F04D20001DD05D8A422D0000EF4
:10038800106E000E0F6E8C908C928C808C928B84E9
:1003980008D080A8FED70F4A102A80B8FED70F4A87
:1003A800102A0001D95101018D6F8E6B01018D5109
:1003B8000F5C01018E511058D8A0EBD78C908C920D
:1003C8001DD20001DC05D8A4A5D20D0E0001D41958
:1003D800D8A405D08C888C8681A017D0FDD78C88AE
:1003E8008C948C860001E9BF07D00001E951FAE13D
:1003F8000001E805D8B0F6D78C848C963A0E000137
:10040800FF6F980EFE6F3DEC2DF08C888C948C96C7
:10041800120E01017F6F7F0E0101806FE8C081F12C
:10042800E9C082F14BEC26F0B80E01017F6F7E0E19
:100438000101806FE8C081F1E9C082F14BEC26F040
:1004480081AA25D08C888C948C968C908C928C90D8
:100458008C928C908C828B8408D080A8FED70F4A0F
:10046800102A80B8FED70F4A102A040E0F5C010E1E
:100478001058D8A0F2D78C908C9219D10D0E00018B
:10048800D419D8A423D120D10001C56F21D181BAB4
:1004980041D237D20001C051D8A41ED1AA0E010101
:1004A8007F6F7F0E0101806F4BEC26F003D00001B7
:1004B800C56F30D20001DB05D8A444D0000E00017E
:1004C800E36F000EE26F0D0E0001D419D8A40BD013
:1004D8008C888C840001E3510FE19C0E0001E25DE1
:1004E800D8B00AD0F7D78C888C84360E0001FF6FFD
:1004F800B00EFE6F3DEC2DF08C888C948C96C30E5C
:100508000001FF6F500EFE6F3DEC2DF0C30E000191
:10051800FF6F500EFE6F3DEC2DF02D0E01017F6F29
:100528007F0E0101806FE2C081F1E3C082F14BECE4
:1005380026F0000E0001DB6F000E0001DC6F010EDB
:100548000001DD6F0001DD05D8B42AD045D0000ECA
:10055800106E000E0F6E8C908C928C808C928B8417
:1005680008D080A8FED70F4A102A80B8FED70F4AB5
:10057800102A105004E1920E0F5CD8A0F2D78C908C
:100588008C92C30E0001FF6F500EFE6F3DEC2DF0F4
:10059800D50E01017F6F7F0E0101806F4BEC26F0B5
:1005A80081AAD5D7990E01017F6F7F0E0101806F57
:1005B8004BEC26F08C908C92C30E0001FF6F500E0E
:1005C800FE6F3DEC2DF0000E0001DB6F000E000108
:1005D800DD6F010E0001DC6F0001DC05D8A49AD1A3
:1005E800000E0001E56F000EE46F0D0E0001D41936
:1005F800D8A405D08C888C8681A00AD0FDD78C8899
:100608008C86860E0001FF6FA00EFE6F3DEC2DF06C
:100618008C888C948C96D7C074F1D8C075F1010E73
:100628000101776F2C0E766FC0EC2CF0010174C1BC
:1006380078F1010175C179F101017A6B7B6B07ECE7
:100648002DF0460E01017F6F7F0E0101806FE4C01F
:1006580081F1E5C082F14BEC26F081AA5BD13A0E1C
:100668000001FF6F980EFE6F3DEC2DF081AA52D16C
:100678008C888C948C968C908C928C908C928C908C
:100688008C828B84000E106E000E0F6E08D080A82E
:10069800FED70F4A102A80B8FED70F4A102A1050EA
:1006A80005E1780E0F5CD8B0E6D6F1D7E4D6000E97
:1006B8000001DB6F000E0001DC6F000E0001DD6F32
:1006C800000E0001DA6FDAD6000EDED6010EDCD697
:1006D800030E0001C06F1ED1040E0001C019D8B46A
:1006E80003D018D1010EE3D60001DB05D8A44BD006
:1006F800000E0001E36F000EE26F0D0E0001D41929
:10070800D8A40BD08C848C880001E3511BE19C0E8B
:100718000001E25DD8B016D0F7D78C848C880AD057
:1007280081A4FED70001E24BE32B81B4FED7000180
:10073800E24BE32B0001E35105E1140E0001E25DF9
:10074800D8A0EED78C888C948C96D7C074F1D8C07A
:1007580075F1010E0101776F2C0E766FC0EC2CF04D
:10076800010174C178F1010175C179F101017A6B58
:100778007B6B07EC2DF0000E0001DB6FF8D5010E46
:100788000001DD6FC7D00001DD05D8A441D0000EFF
:10079800106E000E0F6E8C908C928C808C928B84D5
:1007A80008D080A8FED70F4A102A80B8FED70F4A73
:1007B800102A0001D95101018D6F8E6B01018D51F5
:1007C8000F5C01018E511058D8A0EBD78C908C92F9
:1007D800D7C074F1D8C075F1010E0101776F2C0EE6
:1007E800766FC0EC2CF0010174C178F1010175C17C
:1007F80079F101017A6B7B6B07EC2DF0000E00019B
:10080800DB6F000E0001DD6F010E0001DC6F82D08E
:100818000001DC05D8A47ED0000E0001E56F000EB3
:10082800E46F0D0E0001D419D8A405D08C868C88ED
:1008380081A016D0FDD78C868C880AD081A4FED7DB
:100848000001E44BE52B81B4FED70001E44BE52B16
:100858000001E55105E1140E0001E45DD8A0EED7D2
:100868008C888C948C96D7C074F1D8C075F1010E21
:100878000101776F2C0E766FC0EC2CF0010174C16A
:1008880078F1010175C179F101017A6B7B6B07EC95
:100898002DF0B90E01017F6F7F0E0101806F4BECC7
:1008A80026F015B02ED08C888C948C968C908C92D7
:1008B8008C908C928C908C828B8408D080A8FED7E8
:1008C8000F4A102A80B8FED70F4A102A105004E1A8
:1008D8000E0E0F5CD8A0F2D78C908C92000E0001FF
:1008E800DB6F000E0001DC6F000E0001DD6F000EF3
:1008F8000001DA6F0D0E0001D419D8A4F3D6000E4A
:10090800D6D5000E0001DC6F000E0001DD6F010E70
:100918000001DB6F0001DA51D8B442D04E0E00015D
:10092800FF6F200EFE6F3DEC2DF081BA34D0F29AA5
:10093800F294D59E6AEC2DF00001C105D8A407D029
:10094800000E0001DA6F1DD0C1C0C0F026D0000132
:10095800C151D8A40FD0010E0001DB6F000E0001B9
:10096800DC6F000E0001DD6FC1C0C0F0000E000199
:10097800C06F13D0040E0001C119D8A40ED0154AB7
:10098800162A010E0001DB6F000E0001DC6F000E5D
:100998000001DD6FD9D7F28AD58E000E0001DA6F1B
:1009A800030E0001C019D8A447EF00F0B9EC2AF0F3
:1009B80047EF00F00101816F000E0101826F000E08
:1009C8000101806F01018105D8A44AD101017F513D
:1009D8000101D8A480D07EC17CF1020EE6EC2AF099
:1009E800000E5D6E2F0E5D6401D01DD05D50010DAF
:1009F800BB0EF324F66E730EF420F76E0800F5CFE5
:100A080082F1820E0101746F010E0101756F400EB3
:100A18000101766F000E0101786F010E776F8BEC84
:100A28002BF05D2ADFD77EC17CF1030EE6EC2AF0BD
:100A3800000E5D6E2F0E5D6401D021D05D50010D5A
:100A4800300EF326000EF422BB0EF324F66E730E5E
:100A5800F420F76E0800F5CF82F1820E0101746F61
:100A6800010E0101756F400E0101766F000E010144
:100A7800786F010E776F8BEC2BF05D2ADBD77EC188
:100A88007CF1040EE6EC2AF0000E5D6E2F0E5D641C
:100A980001D012005D50010D600EF326000EF42205
:100AA800BB0EF324F66E730EF420F76E0800F5CF34
:100AB80082F1820E0101746F010E0101756F400E03
:100AC8000101766F000E0101786F010E776F8BECD4
:100AD8002BF05D2ADBD7800E01017F19D8A4120004
:100AE8007EC17CF1020EE6EC2AF0000E5D6E2F0E40
:100AF8005D6401D036D05D50010DBB0EF324F66E57
:100B0800730EF420F76E0800F5CF82F15D50D8B46B
:100B180004D02F0E5D18D8A402D00F0E08D05D04A3
:100B2800D8B404D02E0E5D18D8A404D01F0E01012D
:100B3800826F05D00101821F3F0E01018217820ECC
:100B48000101746F010E0101756F400E0101766F8E
:100B5800000E0101786F010E776F8BEC2BF05D2A88
:100B6800C6D77EC17CF1030EE6EC2AF0000E5D6E5E
:100B78002F0E5D6401D02DD05D50010D300EF3268F
:100B8800000EF422BB0EF324F66E730EF420F76EFB
:100B98000800F5CF82F15D50D8B404D02F0E5D184F
:100BA800D8A403D00101826902D00101821F820EFC
:100BB8000101746F010E0101756F400E0101766F1E
:100BC800000E0101786F010E776F8BEC2BF05D2A18
:100BD800CFD77EC17CF1040EE6EC2AF0000E5D6EE4
:100BE8002F0E5D6401D012005D50010D600EF326DA
:100BF800000EF422BB0EF324F66E730EF420F76E8B
:100C08000800F5CF82F15D50D8B404D02F0E5D18DE
:100C1800D8A402D0E00E08D05D04D8B404D02E0EBB
:100C28005D18D8A404D0F00E0101826F07D001012D
:100C3800821FF00E0101821701018289820E0101D3
:100C4800746F010E0101756F400E0101766F000E81
:100C58000101786F010E776F8BEC2BF05D2AC0D7FE
:100C6800020E01018119D8A4120001017F5101016E
:100C7800D8A480D07EC17CF1020EE6EC2AF0000EEA
:100C88005D6E2F0E5D6401D01DD05D50010D2B0EE1
:100C9800F324F66E730EF420F76E0800F5CF82F198
:100CA800820E0101746F010E0101756F400E010182
:100CB800766F000E0101786F010E776F8BEC2BF0C9
:100CC8005D2ADFD77EC17CF1030EE6EC2AF0000E28
:100CD8005D6E2F0E5D6401D021D05D50010D300E88
:100CE800F326000EF4222B0EF324F66E730EF42076
:100CF800F76E0800F5CF82F1820E0101746F010EC4
:100D08000101756F400E0101766F000E0101786FC9
:100D1800010E776F8BEC2BF05D2ADBD77EC17CF15F
:100D2800040EE6EC2AF0000E5D6E2F0E5D6401D015
:100D380012005D50010D600EF326000EF4222B0EFA
:100D4800F324F66E730EF420F76E0800F5CF82F1E7
:100D5800820E0101746F010E0101756F400E0101D1
:100D6800766F000E0101786F010E776F8BEC2BF018
:100D78005D2ADBD7800E01017F19D8A412007EC13D
:100D88007CF1020EE6EC2AF0000E5D6E2F0E5D641B
:100D980001D036D05D50010D2B0EF324F66E730E84
:100DA800F420F76E0800F5CF82F15D50D8B404D076
:100DB8002F0E5D18D8A402D00F0E08D05D04D8B449
:100DC80004D02E0E5D18D8A404D01F0E0101826F26
:100DD80005D00101821F3F0E01018217820E010119
:100DE800746F010E0101756F400E0101766F000EE0
:100DF8000101786F010E776F8BEC2BF05D2AC6D757
:100E08007EC17CF1030EE6EC2AF0000E5D6E2F0E1B
:100E18005D6401D02DD05D50010D300EF326000E1B
:100E2800F4222B0EF324F66E730EF420F76E0800EE
:100E3800F5CF82F15D50D8B404D02F0E5D18D8A438
:100E480003D00101826902D00101821F820E0101D3
:100E5800746F010E0101756F400E0101766F000E6F
:100E68000101786F010E776F8BEC2BF05D2ACFD7DD
:100E78007EC17CF1040EE6EC2AF0000E5D6E2F0EAA
:100E88005D6401D012005D50010D600EF326000E66
:100E9800F4222B0EF324F66E730EF420F76E08007E
:100EA800F5CF82F15D50D8B404D02F0E5D18D8A4C8
:100EB80002D0E00E08D05D04D8B404D02E0E5D1820
:100EC800D8A404D0F00E0101826F07D00101821F5F
:100ED800F00E0101821701018289820E0101746FEF
:100EE800010E0101756F400E0101766F000E0101C0
:100EF800786F010E776F8BEC2BF05D2AC0D7060058
:100F0800FACF48F0FBCF49F0E9CF4AF0EACF4BF0EF
:100F1800E1CF4CF0E2CF4DF0D9CF4EF0DACF4FF021
:100F2800F3CF50F0F4CF51F0F6CF52F0F7CF53F0A3
:100F3800F8CF54F0F5CF55F0F0A268D0F092F1B8A0
:100F480002D0F18802D0F1B8F1980001C551D8B4A7
:100F580008D00001C705D8A459D00001F44BF52BDF
:100F680055D00001C005D8A430D00001DB05D8A4B5
:100F78000CD0F1A803D082B015D010D0F1B846D06B
:100F880082A017D082A042D009D00001DC05D8A4E5
:100F98003DD0F1A80AD082B005D012D00001E84BAC
:100FA800E92B34D082A032D004D0F1B82FD082B04F
:100FB80005D00001E807D8A0E90728D082A026D0EC
:100FC8000001FC07D8A0FD07E9D7020E0001C019EF
:100FD800D8B41CD00001C051D8A40CD00001DB0546
:100FE800D8B411D00001DC05D8A410D00001E44B1E
:100FF800E52B0CD0040E0001C019D8A407D00001BD
:10100800DB05D8A4EFD70001E24BE32BF2A478D19B
:10101800010E01015027000E5123522353230101D1
:101028005351010152110101511105E17E0E0101D7
:10103800505DD8A064D1030E00018119D8A432D024
:101048002004D8A408D0490E3E6E800E3F6E000ED4
:10105800A0EC25F0E9D02050D8A448D1010E206E8C
:101068001F50D8A408D0490E3E6E800E3F6E000E69
:101078004AEC24F03BD11F04D8A408D0490E3E6E98
:10108800800E3F6E000E49EC22F030D1020E1F1880
:10109800D8A42CD1490E3E6E800E3F6E000EF4ECA3
:1010A80022F024D1030E00019919D8A435D02004C8
:1010B800D8A408D03F0E3E6E800E3F6E010E9CEC09
:1010C8000EF0B2D02050D8A411D1010E206E00012C
:1010D8009D51D8A408D03F0E3E6E840E3F6E000E80
:1010E80021EC14F003D100019D05D8A408D03F0ECF
:1010F8003E6E860E3F6E000E21EC14F0F7D0020E05
:1011080000019D19D8A4F2D03F0E3E6E8D0E3F6EA1
:10111800000E21EC14F0EAD0030E0001A119D8A4A6
:1011280028D02004D8A408D00E0E3E6E800E3F6E44
:10113800010E9CEC0EF078D02050D8A4D7D0010E28
:10114800206E0001A551D8A408D00E0E3E6E810E67
:101158003F6E000E21EC14F0C9D00001A505D8A4FB
:10116800C5D00E0E3E6E820E3F6E000E21EC14F0BE
:10117800BDD0030E0001A919D8A435D02004D8A4E5
:1011880008D03F0E3E6E800E3F6E020E9CEC0EF0B5
:101198004BD02050D8A4AAD0010E206E0001AD512A
:1011A800D8A408D03F0E3E6E820E3F6E030E21EC8F
:1011B80014F09CD00001AD05D8A408D03F0E3E6EB7
:1011C800830E3F6E030E21EC14F090D0020E000146
:1011D800AD19D8A48BD03F0E3E6E850E3F6E030E20
:1011E80021EC14F083D0030E0001B119D8A47ED0ED
:1011F8002004D8A41CD01F50D8B404D0020E1F1845
:10120800D8A408D00E0E3E6E800E3F6E020E9CECE7
:101218000EF00AD01F04D8A407D0110E3E6E800E1F
:101228003F6E020E9CEC0EF0000E206E5FD0205038
:10123800D8A45CD0010E206E0001B551D8A41AD0F4
:101248001F50D8B404D0020E1F18D8A408D00E0E10
:101258003E6E830E3F6E030E21EC14F047D01F0440
:10126800D8A444D0110E3E6EE70E3F6E030E21EC5B
:1012780014F03CD00001B505D8A41AD01F50D8B43A
:1012880004D0020E1F18D8A408D00E0E3E6E830E8E
:101298003F6E030E21EC14F029D01F04D8A426D0E9
:1012A800110E3E6EE40E3F6E030E21EC14F01ED0BC
:1012B800020E0001B519D8A419D01F50D8B404D013
:1012C800020E1F18D8A408D00E0E3E6E830E3F6E75
:1012D800030E21EC14F00AD01F04D8A407D0110E75
:1012E8003E6EE60E3F6E030E21EC14F0000E010177
:1012F800506F000E516F000E526F000E536FF29434
:10130800F2A072D081A883AC63D083BE81A660D0DE
:10131800040E326E000E336E000E346E000E356E03
:1013280085EC2CF081A883AC53D083BE81A650D025
:1013380078EC2DF0000E316E0001C351D8A420D0F6
:10134800010E0001C36FF0EC2DF08C908C928C880C
:101358008C948C968B848C88E20E3E6E7F0E3F6E4A
:1013680085EC27F0000E0001C66F010E0001C56F65
:10137800000E0001C76F7EEC28F0F5EC26F028D0AF
:101388000001C305D8A424D0000E0001C36FEEEC01
:101398002DF0250E0201006F000E346E020E356E20
:1013A800000E366E000E386E010E376ED6EC2BF03E
:1013B8008C908C928C888C948C968B948C98000E44
:1013C8000001C56FEC0E3E6E7F0E3F6E85EC27F078
:1013D80081BA09D0010E0001DA6FF90E3E6E7F0E58
:1013E8003F6E85EC27F0F290F2A20AD0010E0001C0
:1013F800C66FF40E3E6E7F0E3F6E85EC27F0F292BC
:1014080055C0F5FF54C0F8FF53C0F7FF52C0F6FFB0
:1014180051C0F4FF50C0F3FF4FC0DAFF4EC0D9FFF0
:101428004DC0E2FF4CC0E1FF4BC0EAFF4AC0E9FFF4
:1014380049C0FBFF48C0FAFF62921100416E000EDE
:10144800426E000E406E4104D8A426D13F50D8A465
:1014580074D03EC03CF0020E42EC2CF0000E5D6EE3
:101468002F0E5D6401D019D05D50010DBB0EF32421
:10147800F66E730EF420F76E0800F5CF42F0420EB8
:10148800346E000E356E400E366E000E386E010E4C
:10149800376ED6EC2BF05D2AE3D73EC03CF0030E46
:1014A80042EC2CF0000E5D6E2F0E5D6401D01DD055
:1014B8005D50010D300EF326000EF422BB0EF3240E
:1014C800F66E730EF420F76E0800F5CF42F0420E68
:1014D800346E000E356E400E366E000E386E010EFC
:1014E800376ED6EC2BF05D2ADFD73EC03CF0040EF9
:1014F80042EC2CF0000E5D6E2F0E5D6401D01200E0
:101508005D50010D600EF326000EF422BB0EF3248D
:10151800F66E730EF420F76E0800F5CF42F0420E17
:10152800346E000E356E400E366E000E386E010EAB
:10153800376ED6EC2BF05D2ADFD7800E3F18D8A483
:1015480012003EC03CF0020E42EC2CF0000E5D6E24
:101558002F0E5D6401D02FD05D50010DBB0EF3241A
:10156800F66E730EF420F76E0800F5CF42F05D506A
:10157800D8B404D02F0E5D18D8A402D00F0E08D00E
:101588005D04D8B404D02E0E5D18D8A403D01F0E65
:10159800426E03D0421E3F0E4216420E346E000EBB
:1015A800356E400E366E000E386E010E376ED6EC74
:1015B8002BF05D2ACDD73EC03CF0030E42EC2CF058
:1015C800000E5D6E2F0E5D6401D027D05D50010DB9
:1015D800300EF326000EF422BB0EF324F66E730EC3
:1015E800F420F76E0800F5CF42F05D50D8B404D06F
:1015F8002F0E5D18D8A402D0426801D0421E420EB8
:10160800346E000E356E400E366E000E386E010ECA
:10161800376ED6EC2BF05D2AD5D73EC03CF0040ED1
:1016280042EC2CF0000E5D6E2F0E5D6401D01200AE
:101638005D50010D600EF326000EF422BB0EF3245C
:10164800F66E730EF420F76E0800F5CF42F05D5089
:10165800D8B404D02F0E5D18D8A402D0E00E08D05C
:101668005D04D8B404D02E0E5D18D8A403D0F00EB3
:10167800426E04D0421EF00E42164288420E346E6C
:10168800000E356E400E366E000E386E010E376E47
:10169800D6EC2BF05D2AC8D7020E4118D8A4120048
:1016A8003F50D8A474D03EC03CF0020E42EC2CF05F
:1016B800000E5D6E2F0E5D6401D019D05D50010DD6
:1016C8002B0EF324F66E730EF420F76E0800F5CF98
:1016D80042F0420E346E000E356E400E366E000E2D
:1016E800386E010E376ED6EC2BF05D2AE3D73EC07C
:1016F8003CF0030E42EC2CF0000E5D6E2F0E5D6484
:1017080001D01DD05D50010D300EF326000EF422DD
:101718002B0EF324F66E730EF420F76E0800F5CF47
:1017280042F0420E346E000E356E400E366E000EDC
:10173800386E010E376ED6EC2BF05D2ADFD73EC02F
:101748003CF0040E42EC2CF0000E5D6E2F0E5D6432
:1017580001D012005D50010D600EF326000EF42238
:101768002B0EF324F66E730EF420F76E0800F5CFF7
:1017780042F0420E346E000E356E400E366E000E8C
:10178800386E010E376ED6EC2BF05D2ADFD7800E4F
:101798003F18D8A412003EC03CF0020E42EC2CF0D8
:1017A800000E5D6E2F0E5D6401D02FD05D50010DCF
:1017B8002B0EF324F66E730EF420F76E0800F5CFA7
:1017C80042F05D50D8B404D02F0E5D18D8A402D0D2
:1017D8000F0E08D05D04D8B404D02E0E5D18D8A41E
:1017E80003D01F0E426E03D0421E3F0E4216420E19
:1017F800346E000E356E400E366E000E386E010ED9
:10180800376ED6EC2BF05D2ACDD73EC03CF0030EE8
:1018180042EC2CF0000E5D6E2F0E5D6401D027D0D7
:101828005D50010D300EF326000EF4222B0EF3242A
:10183800F66E730EF420F76E0800F5CF42F05D5097
:10184800D8B404D02F0E5D18D8A402D0426801D0B5
:10185800421E420E346E000E356E400E366E000E7D
:10186800386E010E376ED6EC2BF05D2AD5D73EC008
:101878003CF0040E42EC2CF0000E5D6E2F0E5D6401
:1018880001D012005D50010D600EF326000EF42207
:101898002B0EF324F66E730EF420F76E0800F5CFC6
:1018A80042F05D50D8B404D02F0E5D18D8A402D0F1
:1018B800E00E08D05D04D8B404D02E0E5D18D8A46C
:1018C80003D0F00E426E04D0421EF00E421642883B
:1018D800420E346E000E356E400E366E000E386EB7
:1018E800010E376ED6EC2BF05D2AC8D70101856F43
:1018F80013D2030E0001B119D8A40BD00001B52BE7
:10190800030E0001B519D8A41200000E0001B56F2E
:101918001200070E1918D8A402D0800E01D0000EAC
:101928000001B16F0001B1510001B219D8B4120021
:101938001F50D8B404D0020E1F18D8A409D0000E26
:1019480001017E6FB1C07FF1020E7BEC12F00BD06B
:101958001F04D8A408D0000E01017E6FB1C07FF12A
:10196800030E7BEC12F00001B551D8A422D01F5011
:10197800D8B404D0020E1F18D8A40CD00E0E010142
:101988007E6F0001B151030901017F6F030E9EECC8
:1019980010F05BD01F04D8A458D0110E01017E6F3F
:1019A8000001B151670901017F6F030E9EEC10F031
:1019B8004CD00001B505D8A422D01F50D8B404D00B
:1019C800020E1F18D8A40CD00E0E01017E6F000164
:1019D800B151030901017F6F030E9EEC10F035D061
:1019E8001F04D8A432D0110E01017E6F0001B1513D
:1019F800640901017F6F030E9EEC10F026D0020EE1
:101A08000001B519D8A421D01F50D8B404D0020EB3
:101A18001F18D8A40CD00E0E01017E6F0001B15121
:101A2800030901017F6F030E9EEC10F00ED01F0416
:101A3800D8A40BD0110E01017E6F0001B1516609C7
:101A480001017F6F030E9EEC10F0B1C0B2F01200DE
:101A5800030E0001B119D8A40AD00001B50700018E
:101A6800B529D8A41200020E0001B56F1200070EA6
:101A78001918D8A402D0800E01D0000E0001B16F51
:101A88000001B1510001B219D8B412001F50D8B4E6
:101A980004D0020E1F18D8A409D0000E01017E6FD1
:101AA800B1C07FF1020E7BEC12F00BD01F04D8A45A
:101AB80008D0000E01017E6FB1C07FF1030E7BECF0
:101AC80012F00001B551D8A422D01F50D8B404D0C8
:101AD800020E1F18D8A40CD00E0E01017E6F000153
:101AE800B151030901017F6F030E9EEC10F05BD02A
:101AF8001F04D8A458D0110E01017E6F0001B15106
:101B0800670901017F6F030E9EEC10F04CD00001B5
:101B1800B505D8A422D01F50D8B404D0020E1F187F
:101B2800D8A40CD00E0E01017E6F0001B15103093B
:101B380001017F6F030E9EEC10F035D01F04D8A46E
:101B480032D0110E01017E6F0001B151640901010B
:101B58007F6F030E9EEC10F026D0020E0001B5191F
:101B6800D8A421D01F50D8B404D0020E1F18D8A46E
:101B78000CD00E0E01017E6F0001B1510309010165
:101B88007F6F030E9EEC10F00ED01F04D8A40BD06C
:101B9800110E01017E6F0001B151660901017F6FCD
:101BA800030E9EEC10F0B1C0B2F01200800E0001DE
:101BB800B119D8A406D0030E0001B16F010E206E32
:101BC80008D0030E0001B119D8A403D0000E0001FB
:101BD800B16F0001B1510001B219D8B4120000016F
:101BE800B151D8A496D01F50D8B404D0020E1F18F3
:101BF800D8A40AD0000E01017E6F000E01017F6F8C
:101C0800020E7BEC12F00CD01F04D8A409D0000EF1
:101C180001017E6F000E01017F6F030E7BEC12F055
:101C28000001B551D8A424D01F50D8B404D0020E56
:101C38001F18D8A40AD00E0E01017E6F030E0101F1
:101C48007F6F030E9EEC10F064D01F04D8A461D0FF
:101C5800110E01017E6F0001B951670901017F6F03
:101C6800030E9EEC10F0000E0001D86F140E50D039
:101C78000001B505D8A424D01F50D8B404D0020E52
:101C88001F18D8A40AD00E0E01017E6F030E0101A1
:101C98007F6F030E9EEC10F03CD01F04D8A439D0FF
:101CA800110E01017E6F0001B951640901017F6FB6
:101CB800030E9EEC10F0000E0001D86FC80E28D05D
:101CC800020E0001B519D8A424D01F50D8B404D0EE
:101CD800020E1F18D8A40AD00E0E01017E6F030E43
:101CE80001017F6F030E9EEC10F013D01F04D8A4DF
:101CF80010D0110E01017E6F0001B9516609010172
:101D08007F6F030E9EEC10F0000E0001D86F640E7A
:101D1800D76FB1C0B2F0120001018551F10AD8B4F1
:101D2800E8D5030AD8B494D6010AD8A412003ED73D
:101D3800406E000E426E000E416E4004D8A4FBD0E7
:101D48003F50D8A474D03EC03CF0020E42EC2CF0B8
:101D5800000E5D6E120E5D6401D019D05D50010D4C
:101D68004B0EF324F66E740EF420F76E0800F5CFD0
:101D780042F0420E346E000E356E400E366E000E86
:101D8800386E010E376ED6EC2BF05D2AE3D73EC0D5
:101D98003CF0030E42EC2CF0000E5D6E120E5D64FA
:101DA80001D01DD05D50010D130EF326000EF42254
:101DB8004B0EF324F66E740EF420F76E0800F5CF80
:101DC80042F0420E346E000E356E400E366E000E36
:101DD800386E010E376ED6EC2BF05D2ADFD73EC089
:101DE8003CF0040E42EC2CF0000E5D6E120E5D64A9
:101DF80001D012005D50010D260EF326000EF422CC
:101E08004B0EF324F66E740EF420F76E0800F5CF2F
:101E180042F0420E346E000E356E400E366E000EE5
:101E2800386E010E376ED6EC2BF05D2ADFD7800EA8
:101E38003F18D8A412003EC03CF0020E42EC2CF031
:101E4800000E5D6E120E5D6401D01ED05D50010D56
:101E58004B0EF324F66E740EF420F76E0800F5CFDF
:101E680042F042C041F0421E3F0E4216420E346E0E
:101E7800000E356E400E366E000E386E010E376E4F
:101E8800D6EC2BF05D2ADED73EC03CF0030E42ECC8
:101E98002CF0000E5D6E120E5D6401D020D05D50F6
:101EA800010D130EF326000EF4224B0EF324F66EEA
:101EB800740EF420F76E0800F5CF42F042C041F0EE
:101EC800421E420E346E000E356E400E366E000E07
:101ED800386E010E376ED6EC2BF05D2ADCD73EC08B
:101EE8003CF0040E42EC2CF0000E5D6E120E5D64A8
:101EF80001D012005D50010D260EF326000EF422CB
:101F08004B0EF324F66E740EF420F76E0800F5CF2E
:101F180042F042C041F0F00E426E420E346E000EA6
:101F2800356E400E366E000E386E010E376ED6ECEA
:101F38002BF05D2ADBD7020E4018D8A412003F50C0
:101F4800D8A474D03EC03CF0050E42EC2CF0000E34
:101F58005D6E120E5D6401D019D05D50010D4B0EFF
:101F6800F324F66E740EF420F76E0800F5CF42F0F5
:101F7800420E346E000E356E400E366E000E386E10
:101F8800010E376ED6EC2BF05D2AE3D73EC03CF04D
:101F9800060E42EC2CF0000E5D6E120E5D6401D050
:101FA8001DD05D50010D130EF326000EF4224B0ECA
:101FB800F324F66E740EF420F76E0800F5CF42F0A5
:101FC800420E346E000E356E400E366E000E386EC0
:101FD800010E376ED6EC2BF05D2ADFD73EC03CF001
:101FE800070E42EC2CF0000E5D6E120E5D6401D0FF
:101FF80012005D50010D260EF326000EF4224B0E42
:10200800F324F66E740EF420F76E0800F5CF42F054
:10201800420E346E000E356E400E366E000E386E6F
:10202800010E376ED6EC2BF05D2ADFD7800E3F18F5
:10203800D8A412003EC03CF0050E42EC2CF0000E75
:102048005D6E120E5D6401D01ED05D50010D4B0E09
:10205800F324F66E740EF420F76E0800F5CF42F004
:1020680042C041F0421E3F0E4216420E346E000E30
:10207800356E400E366E000E386E010E376ED6EC99
:102088002BF05D2ADED73EC03CF0060E42EC2CF069
:10209800000E5D6E120E5D6401D020D05D50010D02
:1020A800130EF326000EF4224B0EF324F66E740E74
:1020B800F420F76E0800F5CF42F042C041F0421E0E
:1020C800420E346E000E356E400E366E000E386EBF
:1020D800010E376ED6EC2BF05D2ADCD73EC03CF003
:1020E800070E42EC2CF0000E5D6E120E5D6401D0FE
:1020F80012005D50010D260EF326000EF4224B0E41
:10210800F324F66E740EF420F76E0800F5CF42F053
:1021180042C041F0F00E426E420E346E000E356E33
:10212800400E366E000E386E010E376ED6EC2BF070
:102138005D2ADBD70101836F000E0101846F000E59
:102148000101826F41D07F0E056E7E0E3BD0460E98
:10215800056E7E0E37D09B0E056E7D0E33D0620E57
:10216800056E7D0E2FD0290E056E7D0E2BD0B70E75
:10217800056E7C0E27D0F00E056E7C0E23D07E0EE9
:10218800056E7C0E1FD0450E056E7C0E1BD00C0E06
:10219800056E7C0E17D09A0E056E7B0E13D0D30EEB
:1021A800056E7B0E0FD0280E056E7B0E0BD0610ED0
:1021B800056E7B0E07D00D0E056E7E0E03D0D40E75
:1021C800056E7D0E066E3DD001017F517F0B01012A
:1021D800806F816B01018151000AD8A432D00101BE
:1021E8008051000AD8B4AFD7010AD8B4B0D7030ACF
:1021F800D8B4B1D7010AD8B4B2D7070AD8B4B3D77C
:10220800010AD8B4B4D7030AD8B4B5D70C0AD8B4DD
:10221800B6D7070AD8B4B7D7690AD8B4B8D7010A65
:10222800D8B4B9D7030AD8B4BAD7010AD8B4BBD737
:102238000F0AD8B4BCD7010AD8B4BDD7030AD8B49A
:10224800BED701017FBFA0D07EC17CF101018351BF
:10225800020FE6EC2AF0000E5D6E120E5D6401D0EE
:1022680025D05D50010D05C080F106C081F1F35005
:1022780001018027F4500101812380C1F6FF81C14B
:10228800F7FF0800F5CF84F1840E0101746F010E89
:102298000101756F400E0101766F000E0101786F24
:1022A800010E776F8BEC2BF05D2AD7D77EC17CF1BE
:1022B80001018351030FE6EC2AF0000E5D6E120E49
:1022C8005D6401D02AD05D50010D05C080F106C0C3
:1022D80081F1F35001018027F45001018123130E8D
:1022E80001018027000E812380C1F6FF81C1F7FF1D
:1022F8000800F5CF84F1840E0101746F010E01010D
:10230800756F400E0101766F000E0101786F010EA6
:10231800776F8BEC2BF05D2AD2D77EC17CF101015F
:102328008351040FE6EC2AF0000E5D6E120E5D6418
:1023380001D012005D50010D05C080F106C081F189
:10234800F35001018027F45001018123260E010179
:102358008027000E812380C1F6FF81C1F7FF0800A6
:10236800F5CF84F1840E0101746F010E0101756FC0
:10237800400E0101766F000E0101786F010E776F34
:102388008BEC2BF05D2AD2D701017FAF12007EC102
:102398007CF101018351020FE6EC2AF0000E5D6E1C
:1023A800120E5D6401D02CD05D50010D05C080F186
:1023B80006C081F1F35001018027F4500101812307
:1023C80080C1F6FF81C1F7FF0800F5CF84F184C111
:1023D80082F10101841F3F0E01018417840E01015F
:1023E800746F010E0101756F400E0101766F000ECA
:1023F8000101786F010E776F8BEC2BF05D2AD0D737
:102408007EC17CF101018351030FE6EC2AF0000E36
:102418005D6E120E5D6401D02ED05D50010D05C0B9
:1024280080F106C081F1F35001018027F4500101C9
:102438008123130E01018027000E812380C1F6FF3E
:1024480081C1F7FF0800F5CF84F184C182F1010151
:10245800841F840E0101746F010E0101756F400E17
:102468000101766F000E0101786F010E776F8BEC1A
:102478002BF05D2ACED77EC17CF101018351040F78
:10248800E6EC2AF0000E5D6E120E5D6401D01200BB
:102498005D50010D05C080F106C081F1F3500101C6
:1024A8008027F45001018123260E01018027000EA8
:1024B800812380C1F6FF81C1F7FF0800F5CF84F1C1
:1024C80084C182F1F00E0101846F840E0101746FE2
:1024D800010E0101756F400E0101766F000E0101BA
:1024E800786F010E776F8BEC2BF05D2ACDD7010149
:1024F800836F000E0101846F000E0101826F11D0FD
:10250800980E036E7A0E0BD0080E036E7A0E07D063
:10251800780E036E790E03D0E80E036E780E046E03
:102528000ED001018351010AD8B4EAD7030AD8B4FE
:10253800EBD7010AD8B4ECD7070AD8B4EDD7010114
:102548007F510101D8A49AD07EC17CF1050EE6EC3A
:102558002AF0000E5D6E2F0E5D6401D025D05D500F
:10256800010D03C080F104C081F1F35001018027FF
:10257800F4500101812380C1F6FF81C1F7FF0800F3
:10258800F5CF84F1840E0101746F010E0101756F9E
:10259800400E0101766F000E0101786F010E776F12
:1025A8008BEC2BF05D2AD7D77EC17CF1060EE6ECCA
:1025B8002AF0000E5D6E2F0E5D6401D02AD05D50AA
:1025C800010D03C080F104C081F1F350010180279F
:1025D800F45001018123300E01018027000E812370
:1025E80080C1F6FF81C1F7FF0800F5CF84F1840EA2
:1025F8000101746F010E0101756F400E0101766FC4
:10260800000E0101786F010E776F8BEC2BF05D2ABD
:10261800D2D77EC17CF1070EE6EC2AF0000E5D6E83
:102628002F0E5D6401D012005D50010D03C080F1D2
:1026380004C081F1F35001018027F4500101812386
:10264800600E01018027000E812380C1F6FF81C141
:10265800F7FF0800F5CF84F1840E0101746F010EB5
:102668000101756F400E0101766F000E0101786F50
:10267800010E776F8BEC2BF05D2AD2D7800E01010B
:102688007F19D8A412007EC17CF1050EE6EC2AF071
:10269800000E5D6E2F0E5D6401D03ED05D50010DC1
:1026A80003C080F104C081F1F35001018027F45088
:1026B8000101812380C1F6FF81C1F7FF0800F5CF32
:1026C80084F15D50D8B404D02F0E5D18D8A402D080
:1026D8000F0E08D05D04D8B404D02E0E5D18D8A40F
:1026E80004D01F0E0101846F05D00101841F3F0E25
:1026F80001018417840E0101746F010E0101756FC9
:10270800400E0101766F000E0101786F010E776FA0
:102718008BEC2BF05D2ABED77EC17CF1060EE6EC71
:102728002AF0000E5D6E2F0E5D6401D036D05D502C
:10273800010D03C080F104C081F1F350010180272D
:10274800F45001018123300E01018027000E8123FE
:1027580080C1F6FF81C1F7FF0800F5CF84F15D5015
:10276800D8B404D02F0E5D18D8A403D00101846911
:1027780002D00101841F840E0101746F010E010152
:10278800756F400E0101766F000E0101786F010E22
:10279800776F8BEC2BF05D2AC6D77EC17CF1070ED4
:1027A800E6EC2AF0000E5D6E2F0E5D6401D012007B
:1027B8005D50010D03C080F104C081F1F3500101A7
:1027C8008027F45001018123600E01018027000E4B
:1027D800812380C1F6FF81C1F7FF0800F5CF84F19E
:1027E8005D50D8B404D02F0E5D18D8A402D0E00EE6
:1027F80008D05D04D8B404D02E0E5D18D8A404D037
:10280800F00E0101846F07D00101841FF00E010151
:10281800841701018489840E0101746F010E01017E
:10282800756F400E0101766F000E0101786F010E81
:10283800776F8BEC2BF05D2AB7D7426E000E446E93
:10284800000E436E41D07F0E056E7E0E3BD0460EC5
:10285800056E7E0E37D09B0E056E7D0E33D0620E50
:10286800056E7D0E2FD0290E056E7D0E2BD0B70E6E
:10287800056E7C0E27D0F00E056E7C0E23D07E0EE2
:10288800056E7C0E1FD0450E056E7C0E1BD00C0EFF
:10289800056E7C0E17D09A0E056E7B0E13D0D30EE4
:1028A800056E7B0E0FD0280E056E7B0E0BD0610EC9
:1028B800056E7B0E07D00D0E056E7E0E03D0D40E6E
:1028C800056E7D0E066E39D03F507F0B406E416A13
:1028D8004150000AD8A431D04050000AD8B4B3D728
:1028E800010AD8B4B4D7030AD8B4B5D7010AD8B402
:1028F800B6D7070AD8B4B7D7010AD8B4B8D7030AE5
:10290800D8B4B9D70C0AD8B4BAD7070AD8B4BBD741
:10291800690AD8B4BCD7010AD8B4BDD7030AD8B459
:10292800BED7010AD8B4BFD70F0AD8B4C0D7010A96
:10293800D8B4C1D7030AD8B4C2D73FBE89D03EC0E5
:102948003CF04250020F42EC2CF0000E5D6E120E6D
:102958005D6401D01FD05D50010D05C040F006C078
:1029680041F0F3504026F450412240C0F6FF41C0E8
:10297800F7FF0800F5CF44F0440E346E000E356EB4
:10298800400E366E000E386E010E376ED6EC2BF008
:102998005D2ADDD73EC03CF04250030F42EC2CF0DC
:1029A800000E5D6E120E5D6401D023D05D50010DE6
:1029B80005C040F006C041F0F3504026F4504122D3
:1029C800130E4026000E412240C0F6FF41C0F7FF1B
:1029D8000800F5CF44F0440E346E000E356E400EFC
:1029E800366E000E386E010E376ED6EC2BF05D2A6F
:1029F800D9D73EC03CF04250040F42EC2CF0000EF8
:102A08005D6E120E5D6401D012005D50010D05C0AF
:102A180040F006C041F0F3504026F4504122260E03
:102A28004026000E412240C0F6FF41C0F7FF0800D3
:102A3800F5CF44F0440E346E000E356E400E366EFF
:102A4800000E386E010E376ED6EC2BF05D2AD9D702
:102A58003FAE12003EC03CF04250020F42EC2CF058
:102A6800000E5D6E120E5D6401D024D05D50010D24
:102A780005C040F006C041F0F3504026F450412212
:102A880040C0F6FF41C0F7FF0800F5CF44F044C04E
:102A980043F0441E3F0E4416440E346E000E356E4D
:102AA800400E366E000E386E010E376ED6EC2BF0E7
:102AB8005D2AD8D73EC03CF04250030F42EC2CF0C0
:102AC800000E5D6E120E5D6401D026D05D50010DC2
:102AD80005C040F006C041F0F3504026F4504122B2
:102AE800130E4026000E412240C0F6FF41C0F7FFFA
:102AF8000800F5CF44F044C043F0441E440E346E41
:102B0800000E356E400E366E000E386E010E376EB2
:102B1800D6EC2BF05D2AD6D73EC03CF04250040FCD
:102B280042EC2CF0000E5D6E120E5D6401D01200B6
:102B38005D50010D05C040F006C041F0F35040263D
:102B4800F4504122260E4026000E412240C0F6FFD6
:102B580041C0F7FF0800F5CF44F044C043F0F00E41
:102B6800446E440E346E000E356E400E366E000E06
:102B7800386E010E376ED6EC2BF05D2AD5D70101E1
:102B8800856F67D1030E00018119D8A436D01F2A9A
:102B9800030E1F18D8A402D0000E1F6E470E0101A5
:102BA8007E6F81C07FF1010EF7EC1AF01F50D8A498
:102BB80009D0490E01017E6F81C07FF1010ECAEC78
:102BC80020F018D01F04D8A409D0490E01017E6F47
:102BD80081C07FF1010E4AEC1FF00CD0020E1F18C5
:102BE800D8A408D0490E01017E6F81C07FF1010E83
:102BF8000AEC20F081C082F012001904D8A402D097
:102C0800800E01D0000E0001816F0001815100018A
:102C18008219D8B41200470E01017E6F81C07FF17E
:102C2800010EF7EC1AF01F50D8A409D0490E010183
:102C38007E6F81C07FF1010ECAEC20F018D0020E21
:102C48001F18D8A409D0490E01017E6F81C07FF1F9
:102C5800010E0AEC20F00BD01F04D8A408D0490EAE
:102C680001017E6F81C07FF1010E4AEC1FF081C027
:102C780082F01200030E00018119D8A435D01F0676
:102C88001F28D8A402D0020E1F6E470E01017E6FC6
:102C980081C07FF1010EF7EC1AF01F50D8A409D0BB
:102CA800490E01017E6F81C07FF1010ECAEC20F050
:102CB80018D01F04D8A409D0490E01017E6F81C025
:102CC8007FF1010E4AEC1FF00CD0020E1F18D8A499
:102CD80008D0490E01017E6F81C07FF1010E0AEC18
:102CE80020F081C082F012001904D8A402D0800E0E
:102CF80001D0000E0001816F00018151000182198D
:102D0800D8B41200470E01017E6F81C07FF1010E19
:102D1800F7EC1AF01F50D8A409D0490E01017E6FB4
:102D280081C07FF1010ECAEC20F018D0020E1F18E6
:102D3800D8A409D0490E01017E6F81C07FF1010E30
:102D48000AEC20F00BD01F04D8A408D0490E0101CA
:102D58007E6F81C07FF1010E4AEC1FF081C082F0C6
:102D68001200800E00018119D8A406D0030E0001BC
:102D7800816F010E206E1DD0030E00018119D8A4A9
:102D880018D01F04D8A412D0000E01017E6F000EC7
:102D980001017F6F030E7BEC12F0110E01017E6FB3
:102DA800670E01017F6F030E9EEC10F0000E00010C
:102DB800816F0001815100018219D8B4120000010D
:102DC8008151D8A443D0470E01017E6F81C07FF1A5
:102DD800010EF7EC1AF01F50D8A41CD0490E0101BF
:102DE8007E6F81C07FF1010ECAEC20F0000E010158
:102DF8007E6F000E01017F6F020E7BEC12F00E0E4B
:102E080001017E6F030E01017F6F030E9EEC10F02F
:102E1800000E1AD01F04D8A40AD0490E01017E6FF3
:102E280081C07FF1010E4AEC1FF0010E0DD0020E99
:102E38001F18D8A40BD0490E01017E6F81C07FF105
:102E4800010E0AEC20F0020E0001C16F81C082F071
:102E5800120001018551F10AD8B494D6030AD8B4F6
:102E680009D7010AD8A412007CD7436E000E446E1D
:102E7800000E426E11D0980E036E7A0E0BD0080E1B
:102E8800036E7A0E07D0780E036E790E03D0E80E23
:102E9800036E780E046E0DD04350010AD8B4EBD7F8
:102EA800030AD8B4ECD7010AD8B4EDD7070AD8B4C6
:102EB800EED73F50D8A486D03EC03CF0050E42EC79
:102EC8002CF0000E5D6E2F0E5D6401D01FD05D509A
:102ED800010D03C040F004C041F0F3504026F45007
:102EE800412240C0F6FF41C0F7FF0800F5CF44F08B
:102EF800440E346E000E356E400E366E000E386E7F
:102F0800010E376ED6EC2BF05D2ADDD73EC03CF0C3
:102F1800060E42EC2CF0000E5D6E2F0E5D6401D0A3
:102F280023D05D50010D03C040F004C041F0F350C0
:102F38004026F4504122300E4026000E412240C067
:102F4800F6FF41C0F7FF0800F5CF44F0440E346E99
:102F5800000E356E400E366E000E386E010E376E5E
:102F6800D6EC2BF05D2AD9D73EC03CF0070E42ECD8
:102F78002CF0000E5D6E2F0E5D6401D012005D50C6
:102F8800010D03C040F004C041F0F3504026F45056
:102F98004122600E4026000E412240C0F6FF41C08B
:102FA800F7FF0800F5CF44F0440E346E000E356E7E
:102FB800400E366E000E386E010E376ED6EC2BF0D2
:102FC8005D2AD9D7800E3F18D8A412003EC03CF025
:102FD800050E42EC2CF0000E5D6E2F0E5D6401D0E4
:102FE80035D05D50010D03C040F004C041F0F350EE
:102FF8004026F450412240C0F6FF41C0F7FF0800C8
:10300800F5CF44F05D50D8B404D02F0E5D18D8A485
:1030180002D00F0E08D05D04D8B404D02E0E5D186F
:10302800D8A403D01F0E446E03D0441E3F0E44168E
:10303800440E346E000E356E400E366E000E386E3D
:10304800010E376ED6EC2BF05D2AC7D73EC03CF098
:10305800060E42EC2CF0000E5D6E2F0E5D6401D062
:103068002DD05D50010D03C040F004C041F0F35075
:103078004026F4504122300E4026000E412240C026
:10308800F6FF41C0F7FF0800F5CF44F05D50D8B413
:1030980004D02F0E5D18D8A402D0446801D0441E75
:1030A800440E346E000E356E400E366E000E386ECD
:1030B800010E376ED6EC2BF05D2ACFD73EC03CF020
:1030C800070E42EC2CF0000E5D6E2F0E5D6401D0F1
:1030D80012005D50010D03C040F004C041F0F350F0
:1030E8004026F4504122600E4026000E412240C086
:1030F800F6FF41C0F7FF0800F5CF44F05D50D8B4A3
:1031080004D02F0E5D18D8A402D0E00E08D05D04BC
:10311800D8B404D02E0E5D18D8A403D0F00E446E97
:1031280004D0441EF00E44164488440E346E000E3B
:10313800356E400E366E000E386E010E376ED6ECC8
:103148002BF05D2AC2D70101856F27D1030E00013C
:103158009919D8A40BD000019D2B030E00019D19CD
:10316800D8A41200000E00019D6F1200040E191859
:10317800D8A402D0800E01D0000E0001996F000182
:10318800995100019A19D8B41200310E01017E6FCD
:1031980099C07FF1010EDEEC04F000019D51D8A426
:1031A8000CD03F0E01017E6F000199510409010105
:1031B8007F6F000E9EEC10F020D000019D05D8A472
:1031C8000CD03F0E01017E6F0001995106090101E3
:1031D8007F6F000E9EEC10F010D0020E00019D19BA
:1031E800D8A40BD03F0E01017E6F000199510D0943
:1031F80001017F6F000E9EEC10F099C09AF012004A
:10320800030E00019919D8A40AD000019D070001F6
:103218009D29D8A41200020E00019D6F1200040E11
:103228001918D8A402D0800E01D0000E0001996FA1
:103238000001995100019A19D8B41200310E010108
:103248007E6F99C07FF1010EDEEC04F000019D5104
:10325800D8A40CD03F0E01017E6F000199510409DA
:1032680001017F6F000E9EEC10F020D000019D053B
:10327800D8A40CD03F0E01017E6F000199510609B8
:1032880001017F6F000E9EEC10F010D0020E0001BD
:103298009D19D8A40BD03F0E01017E6F00019951F2
:1032A8000D0901017F6F000E9EEC10F099C09AF095
:1032B8001200800E00019919D8A406D0030E00014F
:1032C800996F010E206E08D0030E00019919D8A439
:1032D80003D0000E0001996F0001995100019A195D
:1032E800D8B4120000019951D8A454D0310E01016C
:1032F8007E6F000E01017F6F010EDEEC04F000010D
:103308009D51D8A415D03F0E01017E6F000199513F
:10331800040901017F6F000E9EEC10F0040E5A6E36
:10332800040E18D0010E0001F76F9C0EF66F2FD017
:1033380000019D05D8A411D03F0E01017E6F000148
:103348009951060901017F6F000E9EEC10F0060EE0
:103358005A6E060E0001D46FE5D7020E00019D19C2
:10336800D8A418D03F0E01017E6F000199510D09B4
:1033780001017F6F000E9EEC10F00D0E5A6E0D0EBF
:103388000001D46F000E0001F76F010ECFD7010EB8
:103398000001C56F99C09AF0120001018551F10A28
:1033A800D8B4D4D6030AD8B42BD7010AD8A41200AB
:1033B80080D70101856F0BD1030E0001A919D8A48C
:1033C8000BD00001AD2B030E0001AD19D8A41200DB
:1033D800000E0001AD6F1200060E1918D8A402D015
:1033E800800E01D0000E0001A96F0001A951000153
:1033F800AA19D8B41200310E01017E6FA9C07FF15D
:10340800010E7BEC12F00001AD51D8A40CD03F0E98
:1034180001017E6F0001A951020901017F6F030EAE
:103428009EEC10F020D00001AD05D8A40CD03F0EC2
:1034380001017E6F0001A951030901017F6F030E8D
:103448009EEC10F010D0020E0001AD19D8A40BD0DC
:103458003F0E01017E6F0001A951050901017F6F2F
:10346800030E9EEC10F0A9C0AAF01200030E000192
:10347800A919D8A40AD00001AD070001AD29D8A424
:103488001200020E0001AD6F1200060E1918D8A422
:1034980002D0800E01D0000E0001A96F0001A951D1
:1034A8000001AA19D8B41200310E01017E6FA9C01B
:1034B8007FF1010E7BEC12F00001AD51D8A40CD0C5
:1034C8003F0E01017E6F0001A951020901017F6FC2
:1034D800030E9EEC10F020D00001AD05D8A40CD04E
:1034E8003F0E01017E6F0001A951030901017F6FA1
:1034F800030E9EEC10F010D0020E0001AD19D8A4F6
:103508000BD03F0E01017E6F0001A9510509010191
:103518007F6F030E9EEC10F0A9C0AAF01200800E77
:103528000001A919D8A406D0030E0001A96F010E45
:10353800206E08D0030E0001A919D8A403D0000EEC
:103548000001A96F0001A9510001AA19D8B41200FD
:103558000001A951D8A438D0310E01017E6F000EA8
:1035680001017F6F010E7BEC12F00001AD51D8A470
:103578000BD03F0E01017E6F020E01017F6F030E1B
:103588009EEC10F08C0E1ED00001AD05D8A40BD017
:103598003F0E01017E6F030E01017F6F030E9EEC4B
:1035A80010F0820E0FD0020E0001AD19D8A40CD075
:1035B8003F0E01017E6F050E01017F6F030E9EEC29
:1035C80010F0A00E0001D96FA9C0AAF012000101E5
:1035D8008551F10AD8B4F0D6030AD8B447D7010AFE
:1035E800D8A412009CD7000E0101816F000E0101C2
:1035F800806FFAD07EC17CF1000EE6EC2AF0000E56
:103608005D6E1A0E5D6401D01DD05D50010D840EF3
:10361800F324F66E740EF420F76E0800F5CF81F1EE
:10362800810E0101746F010E0101756F400E0101D9
:10363800766F000E0101786F010E776F8BEC2BF01F
:103648005D2ADFD77EC17CF1010EE6EC2AF0000E80
:103658005D6E1A0E5D6401D012005D50010D1B0EE7
:10366800F326000EF422840EF324F66E740EF42072
:10367800F76E0800F5CF81F1810E0101746F010E1C
:103688000101756F400E0101766F000E0101786F20
:10369800010E776F8BEC2BF05D2ADBD77EC17CF1B6
:1036A800000EE6EC2AF0000E5D6E1A0E5D6401D085
:1036B80046D05D50010D840EF324F66E740EF4208E
:1036C800F76E0800F5CF81F181C180F15D50D8B463
:1036D80004D01A0E5D18D8A40AD00101811F010177
:1036E8008051010181133F0E0101811716D05D043D
:1036F800D8B404D0190E5D18D8A409D00101811FCF
:1037080001018051010181130101819F06D001014E
:10371800811F0101805101018113810E0101746F24
:10372800010E0101756F400E0101766F000E010157
:10373800786F010E776F8BEC2BF05D2AB6D77EC1C0
:103748007CF1010EE6EC2AF0000E5D6E1A0E5D6447
:1037580001D012005D50010D1B0EF326000EF4225D
:10376800840EF324F66E740EF420F76E0800F5CF7D
:1037780081F181C180F15D50D8B404D01A0E5D1872
:10378800D8A40AD00101811F0101805101018113D0
:10379800FC0E0101811716D05D04D8B404D0190EAF
:1037A8005D18D8A409D00101811F010180510101D0
:1037B80081130101819106D00101811F010180510E
:1037C80001018113810E0101746F010E0101756FF2
:1037D800400E0101766F000E0101786F010E776FC0
:1037E8008BEC2BF05D2AB2D701017F51000AD8B4C7
:1037F80001D7800AD8A4120051D70101856FD9D00A
:10380800030E0001A119D8A40BD00001A52B020EAC
:103818000001A519D8A41200000E0001A56F12001E
:10382800050E1918D8A402D0800E01D0000E000190
:10383800A16F0001A1510001A219D8B41200000E15
:1038480001017E6FA1C07FF1020EDEEC04F00001E1
:10385800A551D8A40CD00E0E01017E6F0001A15114
:10386800010901017F6F000E9EEC10F00FD00001DE
:10387800A505D8A40BD00E0E01017E6F0001A15141
:10388800020901017F6F000E9EEC10F0A1C0A2F0AA
:103898001200030E0001A119D8A40AD00001A5073F
:1038A8000001A529D8A41200010E0001A56F12007D
:1038B800050E1918D8A402D0800E01D0000E000100
:1038C800A16F0001A1510001A219D8B41200000E85
:1038D80001017E6FA1C07FF1020EDEEC04F0000151
:1038E800A551D8A40CD00E0E01017E6F0001A15184
:1038F800010901017F6F000E9EEC10F00FD000014E
:10390800A505D8A40BD00E0E01017E6F0001A151B0
:10391800020901017F6F000E9EEC10F0A1C0A2F019
:103928001200800E0001A119D8A406D0030E0001D0
:10393800A16F010E206E08D0030E0001A119D8A4B2
:1039480003D0000E0001A16F0001A1510001A219CE
:10395800D8B412000001A151D8A428D0000E01014A
:103968007E6F000E01017F6F020EDEEC04F0000195
:10397800A551D8A40CD00E0E01017E6F0001A151F3
:10398800010901017F6F000E9EEC10F00FD00001BD
:10399800A505D8A40BD00E0E01017E6F0001A15120
:1039A800020901017F6F000E9EEC10F0A1C0A2F089
:1039B800120001018551F10AD8B422D7030AD8B4FC
:1039C80068D7010AD8A41200ACD7000E416E000EC9
:1039D800406ED4D03EC03CF0000E42EC2CF0000EFD
:1039E8005D6E1A0E5D6401D019D05D50010D840E14
:1039F800F324F66E740EF420F76E0800F5CF41F04C
:103A0800410E346E000E356E400E366E000E386E66
:103A1800010E376ED6EC2BF05D2AE3D73EC03CF0A2
:103A2800010E42EC2CF0000E5D6E1A0E5D6401D0A2
:103A380012005D50010D1B0EF326000EF422840EB9
:103A4800F324F66E740EF420F76E0800F5CF41F0FB
:103A5800410E346E000E356E400E366E000E386E16
:103A6800010E376ED6EC2BF05D2ADFD73EC03CF056
:103A7800000E42EC2CF0000E5D6E1A0E5D6401D053
:103A880037D05D50010D840EF324F66E740EF420C9
:103A9800F76E0800F5CF41F041C040F05D50D8B452
:103AA80004D01A0E5D18D8A406D0411E4050411209
:103AB8003F0E41160FD05D04D8B404D0190E5D181E
:103AC800D8A405D0411E40504112419E03D0411E4A
:103AD80040504112410E346E000E356E400E366E67
:103AE800000E386E010E376ED6EC2BF05D2AC5D766
:103AF8003EC03CF0010E42EC2CF0000E5D6E1A0E3A
:103B08005D6401D012005D50010D1B0EF326000EFE
:103B1800F422840EF324F66E740EF420F76E080077
:103B2800F5CF41F041C040F05D50D8B404D01A0E32
:103B38005D18D8A406D0411E40504112FC0E411613
:103B48000FD05D04D8B404D0190E5D18D8A405D0E0
:103B5800411E40504112419003D0411E4050411235
:103B6800410E346E000E356E400E366E000E386E05
:103B7800010E376ED6EC2BF05D2AC1D73F50000AF4
:103B8800D8B428D7800AD8A4120070D7000E010133
:103B9800816F000E0101806FB0D07EC17CF1000EF4
:103BA800E6EC2AF0000E5D6E160E5D6401D01DD0A5
:103BB8005D50010DBA0EF324F66E740EF420F76E04
:103BC8000800F5CF81F1810E0101746F010E01012A
:103BD800756F400E0101766F000E0101786F010EBE
:103BE800776F8BEC2BF05D2ADFD77EC17CF1010E5D
:103BF800E6EC2AF0000E5D6E160E5D6401D0120030
:103C08005D50010D170EF326000EF422BA0EF324B0
:103C1800F66E740EF420F76E0800F5CF81F1810E70
:103C28000101746F010E0101756F400E0101766F7D
:103C3800000E0101786F010E776F8BEC2BF05D2A77
:103C4800DBD77EC17CF1000EE6EC2AF0000E5D6E3B
:103C5800160E5D6401D021D05D50010DBA0EF3241B
:103C6800F66E740EF420F76E0800F5CF81F181C16D
:103C780080F10101811F810E0101746F010E0101A4
:103C8800756F400E0101766F000E0101786F010E0D
:103C9800776F8BEC2BF05D2ADBD77EC17CF1010EB0
:103CA800E6EC2AF0000E5D6E160E5D6401D012007F
:103CB8005D50010D170EF326000EF422BA0EF32400
:103CC800F66E740EF420F76E0800F5CF81F181C10D
:103CD80080F10101811F810E0101746F010E010144
:103CE800756F400E0101766F000E0101786F010EAD
:103CF800776F8BEC2BF05D2AD7D701017F51000A33
:103D0800D8B44BD7800AD8A412009BD7000E010163
:103D1800816F000E0101806FB0D07EC17CF1000E72
:103D2800E6EC2AF0000E5D6E160E5D6401D01DD023
:103D38005D50010DE80EF324F66E740EF420F76E54
:103D48000800F5CF81F1810E0101746F010E0101A8
:103D5800756F400E0101766F000E0101786F010E3C
:103D6800776F8BEC2BF05D2ADFD77EC17CF1010EDB
:103D7800E6EC2AF0000E5D6E160E5D6401D01200AE
:103D88005D50010D170EF326000EF422E80EF32401
:103D9800F66E740EF420F76E0800F5CF81F1810EEF
:103DA8000101746F010E0101756F400E0101766FFC
:103DB800000E0101786F010E776F8BEC2BF05D2AF6
:103DC800DBD77EC17CF1000EE6EC2AF0000E5D6EBA
:103DD800160E5D6401D021D05D50010DE80EF3246C
:103DE800F66E740EF420F76E0800F5CF81F181C1EC
:103DF80080F10101811F810E0101746F010E010123
:103E0800756F400E0101766F000E0101786F010E8B
:103E1800776F8BEC2BF05D2ADBD77EC17CF1010E2E
:103E2800E6EC2AF0000E5D6E160E5D6401D01200FD
:103E38005D50010D170EF326000EF422E80EF32450
:103E4800F66E740EF420F76E0800F5CF81F181C18B
:103E580080F10101811F810E0101746F010E0101C2
:103E6800756F400E0101766F000E0101786F010E2B
:103E7800776F8BEC2BF05D2AD7D701017F51000AB1
:103E8800D8B44BD7800AD8A412009BD7000E0101E2
:103E9800816F000E0101806FB0D07EC17CF1000EF1
:103EA800E6EC2AF0000E5D6E160E5D6401D01DD0A2
:103EB8005D50010D440EF324F66E750EF420F76E76
:103EC8000800F5CF81F1810E0101746F010E010127
:103ED800756F400E0101766F000E0101786F010EBB
:103EE800776F8BEC2BF05D2ADFD77EC17CF1010E5A
:103EF800E6EC2AF0000E5D6E160E5D6401D012002D
:103F08005D50010D170EF326000EF422440EF32423
:103F1800F66E750EF420F76E0800F5CF81F1810E6C
:103F28000101746F010E0101756F400E0101766F7A
:103F3800000E0101786F010E776F8BEC2BF05D2A74
:103F4800DBD77EC17CF1000EE6EC2AF0000E5D6E38
:103F5800160E5D6401D021D05D50010D440EF3248E
:103F6800F66E750EF420F76E0800F5CF81F181C169
:103F780080F10101811F810E0101746F010E0101A1
:103F8800756F400E0101766F000E0101786F010E0A
:103F9800776F8BEC2BF05D2ADBD77EC17CF1010EAD
:103FA800E6EC2AF0000E5D6E160E5D6401D012007C
:103FB8005D50010D170EF326000EF422440EF32473
:103FC800F66E750EF420F76E0800F5CF81F181C109
:103FD80080F10101811F810E0101746F010E010141
:103FE800756F400E0101766F000E0101786F010EAA
:103FF800776F8BEC2BF05D2AD7D701017F51000A30
:10400800D8B44BD7800AD8A412009BD7000E010160
:10401800816F000E0101806FB0D07EC17CF1000E6F
:10402800E6EC2AF0000E5D6E160E5D6401D01DD020
:104038005D50010D160EF324F66E750EF420F76E22
:104048000800F5CF81F1810E0101746F010E0101A5
:10405800756F400E0101766F000E0101786F010E39
:10406800776F8BEC2BF05D2ADFD77EC17CF1010ED8
:10407800E6EC2AF0000E5D6E160E5D6401D01200AB
:104088005D50010D170EF326000EF422160EF324D0
:10409800F66E750EF420F76E0800F5CF81F1810EEB
:1040A8000101746F010E0101756F400E0101766FF9
:1040B800000E0101786F010E776F8BEC2BF05D2AF3
:1040C800DBD77EC17CF1000EE6EC2AF0000E5D6EB7
:1040D800160E5D6401D021D05D50010D160EF3243B
:1040E800F66E750EF420F76E0800F5CF81F181C1E8
:1040F80080F10101811F810E0101746F010E010120
:10410800756F400E0101766F000E0101786F010E88
:10411800776F8BEC2BF05D2ADBD77EC17CF1010E2B
:10412800E6EC2AF0000E5D6E160E5D6401D01200FA
:104138005D50010D170EF326000EF422160EF3241F
:10414800F66E750EF420F76E0800F5CF81F181C187
:1041580080F10101811F810E0101746F010E0101BF
:10416800756F400E0101766F000E0101786F010E28
:10417800776F8BEC2BF05D2AD7D701017F51000AAE
:10418800D8B44BD7800AD8A412009BD7000E0101DF
:10419800816F000E0101806FB0D07EC17CF1000EEE
:1041A800E6EC2AF0000E5D6E160E5D6401D01DD09F
:1041B8005D50010D720EF324F66E750EF420F76E45
:1041C8000800F5CF81F1810E0101746F010E010124
:1041D800756F400E0101766F000E0101786F010EB8
:1041E800776F8BEC2BF05D2ADFD77EC17CF1010E57
:1041F800E6EC2AF0000E5D6E160E5D6401D012002A
:104208005D50010D170EF326000EF422720EF324F2
:10421800F66E750EF420F76E0800F5CF81F1810E69
:104228000101746F010E0101756F400E0101766F77
:10423800000E0101786F010E776F8BEC2BF05D2A71
:10424800DBD77EC17CF1000EE6EC2AF0000E5D6E35
:10425800160E5D6401D021D05D50010D720EF3245D
:10426800F66E750EF420F76E0800F5CF81F181C166
:1042780080F10101811F810E0101746F010E01019E
:10428800756F400E0101766F000E0101786F010E07
:10429800776F8BEC2BF05D2ADBD77EC17CF1010EAA
:1042A800E6EC2AF0000E5D6E160E5D6401D0120079
:1042B8005D50010D170EF326000EF422720EF32442
:1042C800F66E750EF420F76E0800F5CF81F181C106
:1042D80080F10101811F810E0101746F010E01013E
:1042E800756F400E0101766F000E0101786F010EA7
:1042F800776F8BEC2BF05D2AD7D701017F51000A2D
:10430800D8B44BD7800AD8A412009BD7000E00015E
:10431800806F000E0001836F000E0001816F81C065
:1043280082F0000E0001846F000E0001856F860E7A
:104338000001866F2B0E0001876F000E0001886F49
:10434800000E00018B6F000E0001896F89C08AF092
:10435800000E00018C6F000E00018D6F860E0001AB
:104368008E6F520E00018F6F000E0001906F000ECD
:104378000001936F000E0001916F91C092F0000E42
:104388000001946F000E0001956FD00E0001966F2A
:10439800510E0001976F000E0001986F000E00018A
:1043A8009B6F000E0001996F99C09AF0000E0001F2
:1043B8009C6F000E00019D6F4E0E00019E6F310E26
:1043C80000019F6F000E0001A06F000E0001A36F97
:1043D800000E0001A16FA1C0A2F0000E0001A46FA1
:1043E800000E0001A56F020E0001A66F380E000135
:1043F800A76F000E0001A86F000E0001AB6F000E42
:104408000001A96FA9C0AAF0000E0001AC6F000E50
:104418000001AD6FBA0E0001AE6F330E0001AF6F31
:10442800000E0001B06F000E0001B36F000E000116
:10443800B16FB1C0B2F0000E0001B46F000E000100
:10444800B56FF40E0001B66F180E0001B76F000EBD
:104458000001B86F000E0001BB6F000E0001B96FBC
:1044680081C0BAF0000E0001BC6F000E0001BD6FE4
:10447800000E0001BE6F000E0001BF6F000E196E26
:10448800000E206E000E1F6E1200000E416E000E10
:10449800406E9ED03EC03CF0000E42EC2CF0000E68
:1044A8005D6E160E5D6401D019D05D50010D440E8D
:1044B800F324F66E750EF420F76E0800F5CF41F080
:1044C800410E346E000E356E400E366E000E386E9C
:1044D800010E376ED6EC2BF05D2AE3D73EC03CF0D8
:1044E800010E42EC2CF0000E5D6E160E5D6401D0DC
:1044F80012005D50010D170EF326000EF422440E33
:10450800F324F66E750EF420F76E0800F5CF41F02F
:10451800410E346E000E356E400E366E000E386E4B
:10452800010E376ED6EC2BF05D2ADFD73EC03CF08B
:10453800000E42EC2CF0000E5D6E160E5D6401D08C
:104548001CD05D50010D440EF324F66E750EF42058
:10455800F76E0800F5CF41F041C040F0411E410E12
:10456800346E000E356E400E366E000E386E010E3B
:10457800376ED6EC2BF05D2AE0D73EC03CF0010E3A
:1045880042EC2CF0000E5D6E160E5D6401D0120038
:104598005D50010D170EF326000EF422440EF3248D
:1045A800F66E750EF420F76E0800F5CF41F041C0A5
:1045B80040F0411E410E346E000E356E400E366ED0
:1045C800000E386E010E376ED6EC2BF05D2ADCD764
:1045D8003F50000AD8B45ED7800AD8A41200A6D7E4
:1045E800000E416E000E406E9ED03EC03CF0000EA4
:1045F80042EC2CF0000E5D6E160E5D6401D019D0F1
:104608005D50010D160EF324F66E750EF420F76E4C
:104618000800F5CF41F0410E346E000E356E400EA5
:10462800366E000E386E010E376ED6EC2BF05D2A12
:10463800E3D73EC03CF0010E42EC2CF0000E5D6E5C
:10464800160E5D6401D012005D50010D170EF326A1
:10465800000EF422160EF324F66E750EF420F76E93
:104668000800F5CF41F0410E346E000E356E400E55
:10467800366E000E386E010E376ED6EC2BF05D2AC2
:10468800DFD73EC03CF0000E42EC2CF0000E5D6E11
:10469800160E5D6401D01CD05D50010D160EF3247A
:1046A800F66E750EF420F76E0800F5CF41F041C0A4
:1046B80040F0411E410E346E000E356E400E366ECF
:1046C800000E386E010E376ED6EC2BF05D2AE0D75F
:1046D8003EC03CF0010E42EC2CF0000E5D6E160E52
:1046E8005D6401D012005D50010D170EF326000E17
:1046F800F422160EF324F66E750EF420F76E0800F9
:10470800F5CF41F041C040F0411E410E346E000E1D
:10471800356E400E366E000E386E010E376ED6ECD2
:104728002BF05D2ADCD73F50000AD8B45ED7800A48
:10473800D8A41200A6D7000E416E000E406E9ED07F
:104748003EC03CF0000E42EC2CF0000E5D6E160EE2
:104758005D6401D019D05D50010DE80EF324F66EAA
:10476800740EF420F76E0800F5CF41F0410E346E58
:10477800000E356E400E366E000E386E010E376E26
:10478800D6EC2BF05D2AE3D73EC03CF0010E42EC9C
:104798002CF0000E5D6E160E5D6401D012005D50A7
:1047A800010D170EF326000EF422E80EF324F66E20
:1047B800740EF420F76E0800F5CF41F0410E346E08
:1047C800000E356E400E366E000E386E010E376ED6
:1047D800D6EC2BF05D2ADFD73EC03CF0000E42EC51
:1047E8002CF0000E5D6E160E5D6401D01CD05D507D
:1047F800010DE80EF324F66E740EF420F76E08002F
:10480800F5CF41F041C040F0411E410E346E000E1C
:10481800356E400E366E000E386E010E376ED6ECD1
:104828002BF05D2AE0D73EC03CF0010E42EC2CF0A4
:10483800000E5D6E160E5D6401D012005D50010D14
:10484800170EF326000EF422E80EF324F66E740E0B
:10485800F420F76E0800F5CF41F041C040F0411E4A
:10486800410E346E000E356E400E366E000E386EF8
:10487800010E376ED6EC2BF05D2ADCD73F50000ACC
:10488800D8B45ED7800AD8A41200A6D7000E416E0D
:10489800000E406E9ED03EC03CF0000E42EC2CF064
:1048A800000E5D6E160E5D6401D019D05D50010DCD
:1048B800720EF324F66E750EF420F76E0800F5CF2D
:1048C80041F0410E346E000E356E400E366E000E0D
:1048D800386E010E376ED6EC2BF05D2AE3D73EC05A
:1048E8003CF0010E42EC2CF0000E5D6E160E5D647D
:1048F80001D012005D50010D170EF326000EF422B0
:10490800720EF324F66E750EF420F76E0800F5CFDC
:1049180041F0410E346E000E356E400E366E000EBC
:10492800386E010E376ED6EC2BF05D2ADFD73EC00D
:104938003CF0000E42EC2CF0000E5D6E160E5D642D
:1049480001D01CD05D50010D720EF324F66E750E69
:10495800F420F76E0800F5CF41F041C040F0411E49
:10496800410E346E000E356E400E366E000E386EF7
:10497800010E376ED6EC2BF05D2AE0D73EC03CF036
:10498800010E42EC2CF0000E5D6E160E5D6401D037
:1049980012005D50010D170EF326000EF422720E60
:1049A800F324F66E750EF420F76E0800F5CF41F08B
:1049B80041C040F0411E410E346E000E356E400E6F
:1049C800366E000E386E010E376ED6EC2BF05D2A6F
:1049D800DCD73F50000AD8B45ED7800AD8A41200AA
:1049E800A6D7000E416E000E406E9ED03EC03CF031
:1049F800000E42EC2CF0000E5D6E160E5D6401D0C8
:104A080019D05D50010DBA0EF324F66E740EF42021
:104A1800F76E0800F5CF41F0410E346E000E356E8A
:104A2800400E366E000E386E010E376ED6EC2BF047
:104A38005D2AE3D73EC03CF0010E42EC2CF0000E9C
:104A48005D6E160E5D6401D012005D50010D170EEB
:104A5800F326000EF422BA0EF324F66E740EF42038
:104A6800F76E0800F5CF41F0410E346E000E356E3A
:104A7800400E366E000E386E010E376ED6EC2BF0F7
:104A88005D2ADFD73EC03CF0000E42EC2CF0000E51
:104A98005D6E160E5D6401D01CD05D50010DBA0E1E
:104AA800F324F66E740EF420F76E0800F5CF41F08B
:104AB80041C040F0411E410E346E000E356E400E6E
:104AC800366E000E386E010E376ED6EC2BF05D2A6E
:104AD800E0D73EC03CF0010E42EC2CF0000E5D6EBB
:104AE800160E5D6401D012005D50010D170EF326FD
:104AF800000EF422BA0EF324F66E740EF420F76E4C
:104B08000800F5CF41F041C040F0411E410E346E1F
:104B1800000E356E400E366E000E386E010E376E82
:104B2800D6EC2BF05D2ADCD73F50000AD8B45ED70C
:104B3800800AD8A41200A6D7000E416E000E406E5F
:104B48009ED03EC03CF0000E42EC2CF0000E5D6E94
:104B5800160E5D6401D019D05D50010DA00EF3242E
:104B6800F66E750EF420F76E0800F5CF41F0410E91
:104B7800346E000E356E400E366E000E386E010E25
:104B8800376ED6EC2BF05D2AE3D73EC03CF0010E21
:104B980042EC2CF0000E5D6E160E5D6401D0120022
:104BA8005D50010D170EF326000EF422A00EF3241B
:104BB800F66E750EF420F76E0800F5CF41F0410E41
:104BC800346E000E356E400E366E000E386E010ED5
:104BD800376ED6EC2BF05D2ADFD73EC03CF0000ED6
:104BE80042EC2CF0000E5D6E160E5D6401D01CD0F8
:104BF8005D50010DA00EF324F66E750EF420F76ECD
:104C08000800F5CF41F041C040F0411E410E346E1E
:104C1800000E356E400E366E000E386E010E376E81
:104C2800D6EC2BF05D2AE0D73EC03CF0010E42ECFA
:104C38002CF0000E5D6E160E5D6401D012005D5002
:104C4800010D170EF326000EF422A00EF324F66EC3
:104C5800750EF420F76E0800F5CF41F041C040F022
:104C6800411E410E346E000E356E400E366E000E3B
:104C7800386E010E376ED6EC2BF05D2ADCD73F502C
:104C8800000AD8B45ED7800AD8A41200A6D7810E2D
:104C98000101836F010E0101846F94D0250E01017B
:104CA8008919D8B405D001018951BFEC2DF08AD0FB
:104CB800000E0101856F7FC1F6FF80C1F7FF01017A
:104CC8007F4B802B0800F5CF89F101018951000A3B
:104CD800D8B41200640AD8B403D00D0AD8A472D08C
:104CE80083C1D9FF84C1DAFFDECF87F1DDCF88F138
:104CF800020E01018327000E8423010188AF08D02A
:104D0800030E010185130101876D881FD8B0882B18
:104D1800010E0101896F050E01018919D8B416D059
:104D280001018951020DCE0EF324F66E750EF420A2
:104D3800F76E0900F5500101875D0900F550010182
:104D48008859D8A003D00101892BE5D785C1FFF088
:104D5800030E0001FF17D8B403D02D0EBFEC2DF0C1
:104D680089C186F129D001018651020DCE0EF324A6
:104D7800F66E750EF420F76E0900F5CF76F10A008D
:104D8800F5CF77F187C174F188C175F11AEC2AF073
:104D980074C17BF175C17CF1000E01017E6F0A0EB2
:104DA8007D6F88EC2AF001017B51300F0101896F7A
:104DB80001018951BFEC2DF0010186070101862907
:104DC800D8A4D1D77FC1F6FF80C1F7FF01017F4B7F
:104DD800802B0800F5CF89F101018951D8B4120060
:104DE8005DD7FBEC2BF056EC2AF0000E456E310E29
:104DF800456401D008D0C30E336E500E326E85EC78
:104E08002DF0452AF4D7FBEC2BF0470E3E6E000E32
:104E18003F6E010EE9EC1CF0490E3E6E000E3F6E2F
:104E2800010E4AEC24F0230E3E6E000E3F6E010E7A
:104E3800E9EC1CF0250E3E6E000E3F6E010E9FEC55
:104E480023F0000E3E6E000E3F6E010EE9EC1CF0E2
:104E5800020E3E6E000E3F6E010EF5EC24F0310E90
:104E68003E6E000E3F6E010E22EC0AF03F0E3E6EC3
:104E7800040E3F6E000E21EC14F0000E3E6E000E84
:104E88003F6E020E22EC0AF00E0E3E6E010E3F6ED1
:104E9800000E21EC14F0310E3E6E000E3F6E010E36
:104EA80039EC17F03F0E3E6E020E3F6E030E21ECFA
:104EB80014F0000E3E6E000E3F6E020E39EC17F035
:104EC8000E0E3E6E030E3F6E030E21EC14F0010E23
:104ED8000001C16F010E0001F76F9C0EF66F040E02
:104EE8000001D46F010E0001D56F000E0001D66FCE
:104EF800000E0001D86F140ED76F8C0E0001D96F09
:104F08001200400E416E000E426E7DD0250E4718ED
:104F1800D8B404D04750D3EC2DF075D0000E436EB2
:104F28003EC0F6FF3FC0F7FF3E4A3F2A0800F5CFD4
:104F380047F04750000AD8B41200640AD8B403D026
:104F48000D0AD8A460D041C0D9FF42C0DAFFDECF35
:104F580045F0DDCF46F0020E4126000E422246AE55
:104F680006D0030E4312456C461ED8B0462A010EE1
:104F7800476E050E4718D8B412D04750020DCE0E12
:104F8800F324F66E750EF420F76E0900F550455CB3
:104F98000900F5504658D8A002D0472AEAD743C09E
:104FA80040F0030E4016D8B403D02D0ED3EC2DF0EC
:104FB80047C044F024D04450020DCE0EF324F66EC0
:104FC800750EF420F76E0900F5CF34F00A00F5CF1E
:104FD80035F045C032F046C033F03CEC2BF032C01F
:104FE80039F033C03AF0000E3C6E0A0E3B6E64ECAA
:104FF8002CF03950300F476E4750D3EC2DF0440653
:105008004428D8A4D8D73EC0F6FF3FC0F7FF3E4A91
:105018003F2A0800F5CF47F04750D8B4120076D79A
:10502800000E01018B6F000E8A6F83BC37D0050E0E
:105038000101746F000E756F000E766F000E776FAA
:1050480013EC2BF083AC0BD029D001018A4B8B2BAE
:10505800C30E0001FF6F500EFE6F3DEC2DF083ACC8
:10506800F4D76AEC2DF001018B5105E1650E0101C1
:105078008A5DD8A011D0010E316E870E01017F6FB5
:105088007F0E0101806F4BEC26F0040E0001C16F0A
:10509800F29AD59E000E1200F10E120083BE13D0B4
:1050A800050E0101746F000E756F000E766F000E0D
:1050B800776F13EC2BF083BE06D083AEFED76AEC75
:1050C8002DF0F20E120081B613D0050E0101746F97
:1050D800000E756F000E766F000E776F13EC2BF0D5
:1050E80081B606D081A6FED76AEC2DF0F30E120029
:1050F800000E1200210E0201006F000E346E020E27
:10510800356E000E366E000E386E010E376ED6EC18
:105118002BF0150E0201006F000E346E020E356E74
:10512800000E366E000E386E010E376ED6EC2BF080
:10513800080E0201006F000E346E020E356E000E6E
:10514800366E000E386E010E376ED6EC2BF09F0EC1
:105158000201006F000E346E020E356E000E366EC0
:10516800000E386E010E376ED6EC2BF0200E0201C1
:10517800006F000E346E020E356E000E366E000E95
:10518800386E010E376ED6EC2BF0050E0201006F5B
:10519800000E346E020E356E000E366E000E386E3E
:1051A800010E376ED6EC2BF00C0E0201006F000ECC
:1051B800346E020E356E000E366E000E386E010E1D
:1051C800376ED6EC2BF012000101826F4ED0030E21
:1051D80000019119D8B409D0030E1918D8A402D027
:1051E800800E01D0000E0001916F00019151000165
:1051F8009219D8B41200000E01017E6F91C07FF1A0
:10520800010EF7EC1AF0020E01017E6F91C07FF1DA
:10521800010ECAEC1DF091C092F01200030E0001BD
:105228009119D8B409D0030E1918D8A402D0800E49
:1052380001D0000E0001916F0001915100019219F7
:10524800D8B41200000E01017E6F91C07FF1010EEB
:10525800F7EC1AF0020E01017E6F91C07FF1010E8A
:10526800CAEC1DF091C092F0120001018251F10ABE
:10527800D8B4ADD7030AD8B4D1D7010A12000101B6
:10528800826F4ED0030E00018919D8B41200020EA5
:105298001918D8A402D0800E01D0000E0001896F21
:1052A8000001895100018A19D8B41200230E0101A6
:1052B8007E6F89C07FF1010EF7EC1AF0250E01010F
:1052C8007E6F89C07FF1010E8AEC1EF089C08AF0DA
:1052D8001200030E00018919D8B41200020E191821
:1052E800D8A402D0800E01D0000E0001896F000101
:1052F800895100018A19D8B41200230E01017E6F6A
:1053080089C07FF1010EF7EC1AF0250E01017E6FBE
:1053180089C07FF1010E8AEC1EF089C08AF0120064
:1053280001018251F10AD8B4ADD7030AD8B4D1D754
:10533800010A12000101746F000E0101756F000E61
:105348000101756F070E0101756501D028D00101B3
:105358007551080D010EF326000EF422800EF32479
:10536800D96E000EF420DA6E030EDE18D8A403D02E
:10537800000E0101746F0101752BE4D7070E19188F
:10538800D8A403D0010E196E1200192A1200195060
:10539800D8A403D0070E196E1200190612000101D5
:1053A8007451F10AD8B4EAD7030AD8B4F0D7010A7D
:1053B8001200BE0EF66E5B0EF76E000EF86E00EE73
:1053C80056F010EE0BF00900F5CFEEFFE550E15076
:1053D800FAE103EE00F011EE00F0EE6AE550E1505C
:1053E800FCE1E250FAE102EE00F011EE00F0EE6AA4
:1053F800E550E150FCE1E250FAE101EE00F0740EF4
:10540800EE6AE806FDE100EE80F07E0EEE6AE80640
:10541800FDE100EE01F0310EEE6AE806FDE1629072
:105428006292000EF86E000109EF00F0000E010113
:105438007A6F000E796F0101765101017711D8B4A6
:105448002CD0010E0101786F06D00101D890763773
:1054580077370101782B010177AFF7D70101D89091
:1054680079377A37010176510101745D010177516D
:1054780001017559D8A00AD0010176510101745F64
:10548800010177510101755B010179810101D89012
:10549800773376330101782FE1D779C174F17AC176
:1054A80075F11200000E416E080E416401D0120021
:1054B800000E3C6E415042EC2CF0000E0201006FD1
:1054C800000E406E620E406401D01CD04150620D47
:1054D800D80E3E6E750E3F6EF3503E26F4503F22B6
:1054E8004050010DF3503E24346EF4503F20356E89
:1054F800400E366E000E386E010E376ED6EC2BF06D
:10550800402AE0D7412AD0D701017D5101017E11FF
:10551800D8B426D0010E0001FE6F06D00101D89044
:105528007D377E370001FE2B01017EAFF7D70101E1
:105538007D5101017B5D01017E5101017C59D8A09B
:1055480008D001017D5101017B5F01017E510101FC
:105558007C5B0101D8907E337D330001FE2FE7D7B5
:105568007BC17BF17CC17CF11200000E01018C6FC4
:1055780014EC28F001018C6F01018C519EEC29F08C
:1055880001018C510101D8B4120001018C51C3EC06
:1055980015F001018C5143EC29F001018C51E8EC24
:1055A80028F001018C51A7EC18F001018C5101EC95
:1055B8001CF001018C51DDEC19F001018C517AECE1
:1055C8000CF0120001017D6F01017C51800F020176
:1055D800006F000E0101746F020E0101756F000E5D
:1055E8000101766F000E0101786F010E776F8BEC69
:1055F8002BF001017D51400F0201006F000E0101E7
:10560800746F020E0101756F000E0101766F000EB6
:105618000101786F010E776F8BEC2BF01200000EF2
:105628000001FF6F000EFE6F18D0000E0001FF6F23
:10563800000EFE6F880E0001FE5D130E0001FF597B
:10564800D8B005D000F00001FE4BFF2BF3D70101C5
:105658007407000E755B765B775B0101745101017D
:1056680075110101761101017711D8B41200DDD747
:10567800000E376E000E366E34503510D8B41CD07C
:10568800010E386E04D0D89034363536382A35AE07
:10569800FAD7D890363637363450325C35503358CE
:1056A800D8A005D03450325E3550335A3680D89061
:1056B80035323432382EEDD736C032F037C033F0B9
:1056C8001200C6EC2DF08D92000E0001FF6F010E46
:1056D800FE6FB1EC2BF08D82000E0001FF6F010E02
:1056E800FE6FB1EC2BF0250E0201006F000E0101D8
:1056F800746F020E0101756F000E0101766F000EC6
:105708000101786F010E776F8BEC2BF0120076C1D8
:105718007BF192EC2DF0780E1FEC2CF0F2EC2CF0D3
:1057280001017B511FEC2CF0F2EC2CF074C1F6FF58
:1057380075C1F7FFF86A050EF76403D00800F55045
:1057480005D0F6CFE9FFF7CFEAFFEF501FEC2CF0BA
:10575800F2EC2CF0CDEC2DF01200000E0101756F6B
:10576800000E746F14D0000E0101776F000E766F73
:10577800100E0101765D270E01017759D8B004D0CB
:105788000101764B772BF4D70101744B752B00017F
:10579800FE510101745D0001FF5101017559D8B036
:1057A8001200E1D736C03BF09DEC2DF0780EA4EC4A
:1057B8002CF01AEC2DF03B50A4EC2CF01AEC2DF048
:1057C80034C0F6FF35C0F7FFF86A050EF76403D05A
:1057D8000800F55005D0F6CFE9FFF7CFEAFFEF5004
:1057E800A4EC2CF01AEC2DF0D9EC2DF01200000EE0
:1057F8003F6E080E3F6401D01200000E3C6E3F5011
:1058080042EC2CF0000E0201006F000E3E6E620E9C
:105818003E6401D00ED0000E346E020E356E400E7E
:10582800366E000E386E010E376ED6EC2BF03E2A1F
:10583800EED73F2ADED70001FE6F000E0001FF6F92
:10584800070E0001FF6501D012000001FEAF02D073
:105858008B8601D08B96F2EC2DF08B88F2EC2DF034
:105868008B98070E0001FF19D8B48B860001D890D9
:10587800FE37F2EC2DF00001FF2BE2D73D6E3C50D5
:10588800800F0201006F000E346E020E356E000E9E
:10589800366E000E386E010E376ED6EC2BF03D508A
:1058A800400F0201006F000E346E020E356E000EBE
:1058B800366E000E386E010E376ED6EC2BF01200E5
:1058C8003B503C10D8B418D0010E3D6E04D0D8908F
:1058D8003B363C363D2A3CAEFAD73B50395C3C500F
:1058E8003A58D8A004D03B50395E3C503A5AD89028
:1058F8003C323B323D2EF1D739C039F03AC03AF04C
:105908001200000E376E000E366E13D0000E376E82
:10591800000E366E880E365C130E3758D8B004D099
:1059280000F0364A372AF6D73206000E335A345A70
:10593800355A3250331034103510D8B41200E6D727
:10594800326E000E336E070E336401D0120032AE91
:1059580002D08B8601D08B96F3EC2DF08B88F3EC7C
:105968002DF08B98070E3318D8B48B86D890323622
:10597800F3EC2DF0332AE7D70101745101017603C6
:10598800F3CFFEF0F4CFFFF001017451010177036A
:10599800F3500001FF270101755101017603F3500F
:1059A8000001FF27FEC074F1FFC075F11200929A42
:1059B80094949590959294829288948093849598E3
:1059C80095949596898A8C908C928C888C948C96D8
:1059D8008B848C88F198F092F08812008B86F2EC18
:1059E8002DF08B889486F2EC2DF082A602D0010E61
:1059F80001D0000E0001FE6F8B989496F2EC2DF00A
:105A08000001FE51120007D000F001017807000ED6
:105A1800795B7A5B7B5B01017851010179110101A6
:105A28007A1101017B11D8B41200EED78B86F3EC02
:105A38002DF08B889486F3EC2DF082A602D0010E0F
:105A480001D0000E326E8B989496F3EC2DF0325004
:105A580012000C0EC16E93869388958C958E938A4E
:105A680093809286F19CF292F288F286F28CF28E02
:105A78001200000ECF6E000ECE6ECD800001FE51DA
:105A8800CE5C0001FF51CF58D8A0F8D7CD901200B6
:105A9800E5EC2DF0EAEC2DF0ECEC2DF065EC2BF0BC
:105AA8008AEC21F02DEC2DF05BEC2DF01200D59A4C
:105AB800D596D584D592D580D58CF294000ED76E24
:105AC800000ED66EF29AF28ED59E12008D84010ECB
:105AD8000101746F000E756F000E766F000E776F00
