:0400000007EF00F016
:10000800628215ED07F0DCEF28F0010E0001FF6FAA
:10001800F8EC2CF0EFEC2CF093EC2CF023EC2CF01B
:10002800FFEC2CF0000E386E000E376E000E00014B
:10003800E06F000EE16F000EE26F000EE36F000E3E
:100048000001DC6F000EDD6F000EDE6F000EDF6F4B
:10005800000E066E000E026E010E1F6E9C0E1E6EC6
:10006800040E086E000E046E030E016E0450D8A430
:100078000FD0C00E03010C6F7F0E03010D6F91ECC2
:1000880025F000F000F000F0030000F000F000F0B0
:100098000650D8B4A1D081B031D08C948C96000E83
:1000A800126E000E1D6E000E1C6E020E1F6E580E94
:1000B8001E6E18D08C84200E0301066F000E076F89
:1000C800000E086F000E096F4EEC2CF08C94100E89
:1000D8000301066F000E076F000E086F000E096F10
:1000E8004EEC2CF02C0E1C5C010E1D58D8A0E2D74B
:1000F800000E126E000E1D6E000E1C6E040E081807
:10010800D8B404D0060E0818D8A404D0010E1F6E67
:100118009C0E07D00D0E0818D8A404D0000E1F6E30
:10012800010E1E6E8C948C96000E076E8C8818D06B
:100138008C86200E0301066F000E076F000E086FF5
:10014800000E096F4EEC2CF08C96100E0301066F12
:10015800000E076F000E086F000E096F4EEC2CF0B2
:100168000750D8B4E5D78C948C960D0E0818D8A4EF
:1001780003D0000E066E25D08C88000E126E000E7D
:100188001D6E000E1C6E18D08C84200E0301066FA5
:10019800000E076F000E086F000E096F4EEC2CF072
:1001A8008C94100E0301066F000E076F000E086F87
:1001B800000E096F4EEC2CF01250D8B4E5D78C9491
:1001C8008C96000E066E000E076E000E1D6E000E59
:1001D8001C6E000E126E18D30104D8A4DAD03C0E9F
:1001E80003010C6F7F0E03010D6F91EC25F002D017
:1001F800066E0AD30F04D8A443D0000E176E000E63
:10020800166E0D0E0818D8A409D08C888C84175047
:100218000EE19C0E165CD8B00AD0F9D78C848C8875
:10022800240E0301016F540E006F84EC2CF08C94A3
:100238008C969E0E03010C6F7E0E03010D6F16C087
:100248000EF317C00FF391EC25F0B80E0301066FFB
:100258000B0E076F000E086F000E096F4EEC2CF0A6
:10026800B90E03010C6F7E0E03010D6F16C00EF35D
:1002780017C00FF391EC25F004D2000E106E04D2D3
:100288001104D8A421D0000E276E000E266E8C9083
:100298008C928C808C928B8408D080A8FED7264ABA
:1002A800272A80B8FED7264A272A0D5003011B6F3C
:1002B8001C6B03011B51265C03011C512758D8A055
:1002C800ECD78C908C921CD21004D8A49DD2000E2E
:1002D800196E000E186E0D0E0818D8A405D08C885B
:1002E8008C8681A00AD0FDD78C868C88270E0301C6
:1002F800016F100E006F84EC2CF08C948C96D40E49
:1003080003010C6F7E0E03010D6F18C00EF319C0A8
:100318000FF391EC25F0B80E0301066F0B0E076F73
:10032800000E086F000E096F4EEC2CF0EF0E030163
:100338000C6F7E0E03010D6F18C00EF319C00FF37A
:1003480091EC25F081AA22D08C948C968C908C927A
:100358008C908C928C908C828B8408D080A8FED74D
:10036800264A272A80B8FED7264A272A040E265C62
:10037800010E2758D8A0F2D78C908C922AD10D0E56
:100388000818D8A431D12ED1066E30D181BA3CD20A
:1003980022D20150D8A42DD1930E03010C6F7F0EE9
:1003A80003010D6F91EC25F00F04D8A43CD0000E8A
:1003B800176E000E166E0D0E0818D8A409D08C887A
:1003C8008C8417500EE19C0E165CD8B00AD0F9D771
:1003D8008C888C84360E0301016FB00E006F84EC9C
:1003E8002CF08C948C96C30E0301016F500E006F95
:1003F80084EC2CF0C30E0301016F500E006F84ECE7
:100408002CF00A0E03010C6F7F0E03010D6F16C04E
:100418000EF317C00FF391EC25F0000E0F6E000ECF
:10042800106E010E116E1104D8B44DD06CD0000EB0
:10043800276E000E266E8C908C928C808C928B840A
:1004480008D080A8FED7264A272A80B8FED7264A91
:10045800272A275004E1920E265CD8A0F2D78C9068
:100468008C92C30E0301016F500E006F84EC2CF0C8
:10047800C30E0301016F500E006F84EC2CF0C30E05
:100488000301016F500E006F84EC2CF0C30E0301C2
:10049800016F500E006F84EC2CF0C30E0301016F46
:1004A800500E006F84EC2CF0C30E0301016F500E48
:1004B800006F84EC2CF0CD0E03010C6F7F0E03014E
:1004C8000D6F91EC25F081AAB2D7730E03010C6F62
:1004D8007F0E03010D6F91EC25F08C908C92C30E6A
:1004E8000301016F500E006F84EC2CF0C30E030162
:1004F800016F500E006F84EC2CF0000E0F6E000E92
:10050800116E010E106E1004D8A47ED1000E196E63
:10051800000E186E0D0E0818D8A405D08C888C868D
:1005280081A00AD0FDD78C888C86860E0301016FC6
:10053800A00E006F84EC2CF08C948C960BC000F30A
:100548000CC001F3010E0301036F2C0E026F08ECBF
:100558002CF0030100C306F3030101C307F30301F1
:10056800086B096B4EEC2CF0230E03010C6F7F0E09
:1005780003010D6F18C00EF319C00FF391EC25F0AD
:1005880081AA42D13A0E0301016F980E006F84ECE4
:100598002CF081AA39D18C948C968C908C928C906A
:1005A8008C928C908C828B84000E276E000E266EA7
:1005B80008D080A8FED7264A272A80B8FED7264A20
:1005C800272A275005E1780E265CD8B0D5D6F1D772
:1005D800D3D6000E0F6E000E106E000E116E000EB8
:1005E8000E6ECDD6000ED0D6010ECED6030E016EFD
:1005F8000BD1020E0118D8B407D1040E0118D8A4E3
:10060800F1D04F0E03010C6F7F0E03010D6F91ECBB
:1006180025F002D0010EECD50F04D8A438D0000E76
:10062800176E000E166E0D0E0818D8A409D08C840B
:100638008C8817500EE19C0E165CD8B00AD0F9D7FA
:100648008C848C88730E0301016F180E006F84EC84
:100658002CF08C948C960BC000F30CC001F3010EA7
:100668000301036F2C0E026F08EC2CF0030100C38A
:1006780006F3030101C307F30301086B096B4EEC92
:100688002CF0000E0F6EF9D5010E116EBDD01104BD
:10069800D8A43DD0000E276E000E266E8C908C924A
:1006A8008C808C928B8408D080A8FED7264A272A73
:1006B80080B8FED7264A272A0D5003011B6F1C6BF2
:1006C80003011B51265C03011C512758D8A0ECD705
:1006D8008C908C920BC000F30CC001F3010E030147
:1006E800036F2C0E026F08EC2CF0030100C306F315
:1006F800030101C307F30301086B096B4EEC2CF0EF
:10070800000E0F6E000E116E010E106E7DD01004DB
:10071800D8A47AD0000E196E000E186E0D0E0818A7
:10072800D8A405D08C868C8881A00AD0FDD78C8669
:100738008C88860E0301016FA00E006F84EC2CF0EC
:100748008C948C960BC000F30CC001F3010E0301CE
:10075800036F2C0E026F08EC2CF0030100C306F3A4
:10076800030101C307F30301086B096B4EEC2CF07E
:10077800520E03010C6F7F0E03010D6F91EC25F0F3
:100788000001EEB128D08C948C968C908C928C9031
:100798008C928C908C828B8408D080A8FED7264AB5
:1007A800272A80B8FED7264A272A275004E10E0EAA
:1007B800265CD8A0F2D78C908C92000E0F6E000E9B
:1007C800106E000E116E000E0E6E0D0E0818D8A4D5
:1007D80021D7000E0DD5000E106E000E116E010E01
:1007E8000F6E12D0030E0118D8A40ED0F2AA02D0B0
:1007F800D5BE02D0D58EF28AA20E03010C6F7F0EF1
:1008080003010D6F91EC25F0B10E03010C6F7F0E03
:1008180003010D6F91EC25F001EC2AF00E50D8B4CD
:1008280025D44E0E0301016F200E006F84EC2CF0CE
:1008380081BA4ED0B1EC2CF0F29AD59E0404D8A41B
:1008480047D0ED0E03010C6F7F0E03010D6F91EC85
:1008580025F00204D8A411D0420E03010C6F7F0EBC
:1008680003010D6F91EC25F0010E0E6E2BD0000EDA
:10087800106E2BD002C001F02BD00250D8A413D098
:10088800E40E03010C6F7F0E03010D6F91EC25F050
:10089800010E0F6E000E106E000E116E02C001F0F8
:1008A800000E016E15D0040E0218D8A411D0000154
:1008B800EE4BEF2B550E03010C6F7F0E03010D6FEE
:1008C80091EC25F0010E0F6ED2D7000E116ED2D723
:1008D800000E0E6E3AEF00F003010F6F000E0301D9
:1008E800106F000E03010E6F03010F05D8A44AD143
:1008F80003010D510301D8A480D00CC30AF3020EE2
:100908002EEC2AF0000E5E6E2F0E5E6401D01DD014
:100918005E50010DA10EF324F66E730EF420F76EEF
:100928000800F5CF10F3100E0301026F030E030148
:10093800036F400E0301046F000E0301066F010EE2
:10094800056FD3EC2AF05E2ADFD70CC30AF3030E37
:100958002EEC2AF0000E5E6E2F0E5E6401D021D0C0
:100968005E50010D300EF326000EF422A10EF32482
:10097800F66E730EF420F76E0800F5CF10F3100E24
:100988000301026F030E0301036F400E0301046F9E
:10099800000E0301066F010E056FD3EC2AF05E2AE4
:1009A800DBD70CC30AF3040E2EEC2AF0000E5E6EA1
:1009B8002F0E5E6401D012005E50010D600EF3260A
:1009C800000EF422A10EF324F66E730EF420F76ED7
:1009D8000800F5CF10F3100E0301026F030E030198
:1009E800036F400E0301046F000E0301066F010E32
:1009F800056FD3EC2AF05E2ADBD7800E03010D19B0
:100A0800D8A412000CC30AF3020E2EEC2AF0000E32
:100A18005E6E2F0E5E6401D036D05E50010DA10EC1
:100A2800F324F66E730EF420F76E0800F5CF10F37A
:100A38005E50D8B404D02F0E5E18D8A402D00F0E82
:100A480008D05E04D8B404D02E0E5E18D8A404D002
:100A58001F0E0301106F05D00301101F3F0E030185
:100A68001017100E0301026F030E0301036F400EEF
:100A78000301046F000E0301066F010E056FD3EC2E
:100A88002AF05E2AC6D70CC30AF3030E2EEC2AF00E
:100A9800000E5E6E2F0E5E6401D02DD05E50010DEB
:100AA800300EF326000EF422A10EF324F66E730E18
:100AB800F420F76E0800F5CF10F35E50D8B404D0D8
:100AC8002F0E5E18D8A403D00301106902D00301C9
:100AD800101F100E0301026F030E0301036F400E77
:100AE8000301046F000E0301066F010E056FD3ECBE
:100AF8002AF05E2ACFD70CC30AF3040E2EEC2AF094
:100B0800000E5E6E2F0E5E6401D012005E50010D65
:100B1800600EF326000EF422A10EF324F66E730E77
:100B2800F420F76E0800F5CF10F35E50D8B404D067
:100B38002F0E5E18D8A402D0E00E08D05E04D8B4F8
:100B480004D02E0E5E18D8A404D0F00E0301106F46
:100B580007D00301101FF00E0301101703011089BD
:100B6800100E0301026F030E0301036F400E030111
:100B7800046F000E0301066F010E056FD3EC2AF017
:100B88005E2AC0D7020E03010F19D8A41200030170
:100B98000D510301D8A480D00CC30AF3020E2EEC29
:100BA8002AF0000E5E6E2F0E5E6401D01DD05E50DE
:100BB800010D110EF324F66E730EF420F76E080083
:100BC800F5CF10F3100E0301026F030E0301036F3C
:100BD800400E0301046F000E0301066F010E056F3E
:100BE800D3EC2AF05E2ADFD70CC30AF3030E2EECEF
:100BF8002AF0000E5E6E2F0E5E6401D021D05E508A
:100C0800010D300EF326000EF422110EF324F66EB9
:100C1800730EF420F76E0800F5CF10F3100E0301E1
:100C2800026F030E0301036F400E0301046F000EF1
:100C38000301066F010E056FD3EC2AF05E2ADBD79D
:100C48000CC30AF3040E2EEC2AF0000E5E6E2F0E73
:100C58005E6401D012005E50010D600EF326000E96
:100C6800F422110EF324F66E730EF420F76E0800CA
:100C7800F5CF10F3100E0301026F030E0301036F8B
:100C8800400E0301046F000E0301066F010E056F8D
:100C9800D3EC2AF05E2ADBD7800E03010D19D8A405
:100CA80012000CC30AF3020E2EEC2AF0000E5E6E40
:100CB8002F0E5E6401D036D05E50010D110EF32464
:100CC800F66E730EF420F76E0800F5CF10F35E5041
:100CD800D8B404D02F0E5E18D8A402D00F0E08D0B6
:100CE8005E04D8B404D02E0E5E18D8A404D01F0E0B
:100CF8000301106F05D00301101F3F0E03011017E9
:100D0800100E0301026F030E0301036F400E03016F
:100D1800046F000E0301066F010E056FD3EC2AF075
:100D28005E2AC6D70CC30AF3030E2EEC2AF0000E77
:100D38005E6E2F0E5E6401D02DD05E50010D300E18
:100D4800F326000EF422110EF324F66E730EF4202F
:100D5800F76E0800F5CF10F35E50D8B404D02F0E0C
:100D68005E18D8A403D00301106902D00301101F34
:100D7800100E0301026F030E0301036F400E0301FF
:100D8800046F000E0301066F010E056FD3EC2AF005
:100D98005E2ACFD70CC30AF3040E2EEC2AF0000EFD
:100DA8005E6E2F0E5E6401D012005E50010D600E63
:100DB800F326000EF422110EF324F66E730EF420BF
:100DC800F76E0800F5CF10F35E50D8B404D02F0E9C
:100DD8005E18D8A402D0E00E08D05E04D8B404D0BF
:100DE8002E0E5E18D8A404D0F00E0301106F07D0A1
:100DF8000301101FF00E0301101703011089100ED4
:100E08000301026F030E0301036F400E0301046F19
:100E1800000E0301066F010E056FD3EC2AF05E2A5F
:100E2800C0D70600FACF50F0FBCF51F0E9CF52F00F
:100E3800EACF53F0E1CF54F0E2CF55F0D9CF56F0D6
:100E4800DACF57F0F3CF58F0F4CF59F0F6CF5AF085
:100E5800F7CF5BF0F8CF5CF0F5CF5DF0F2A47ED170
:100E6800010E0001C027000EC123C223C3230001C5
:100E7800C3510001C2110001C11105E17E0E00013C
:100E8800C05DD8A06AD1840E466E7F0E476E3BECDB
:100E980026F0030E00018119D8A432D02A04D8A460
:100EA80008D0490E466E800E476E000EE6EC24F020
:100EB800E9D02A50D8A448D1010E2A6E2950D8A4C6
:100EC80008D0490E466E800E476E000E90EC23F057
:100ED8003BD12904D8A408D0490E466E800E476E2F
:100EE800000E8FEC21F030D1020E2918D8A42CD195
:100EF800490E466E800E476E000E3AEC22F024D161
:100F0800030E00019919D8A435D02A04D8A408D012
:100F18003F0E466E800E476E010EE6EC0DF0B2D025
:100F28002A50D8A411D1010E2A6E00019D51D8A4CF
:100F380008D03F0E466E840E476E000E6BEC13F021
:100F480003D100019D05D8A408D03F0E466E860E39
:100F5800476E000E6BEC13F0F7D0020E00019D19DE
:100F6800D8A4F2D03F0E466E8D0E476E000E6BEC85
:100F780013F0EAD0030E0001A119D8A428D02A043E
:100F8800D8A408D00E0E466E800E476E010EE6EC11
:100F98000DF078D02A50D8A4D7D0010E2A6E0001BF
:100FA800A551D8A408D00E0E466E810E476E000ECD
:100FB8006BEC13F0C9D00001A505D8A4C5D00E0E5E
:100FC800466E820E476E000E6BEC13F0BDD0030E1A
:100FD8000001A919D8A435D02A04D8A408D03F0EF6
:100FE800466E800E476E020EE6EC0DF04BD02A508E
:100FF800D8A4AAD0010E2A6E0001AD51D8A408D0F9
:101008003F0E466E820E476E030E6BEC13F09CD0BB
:101018000001AD05D8A408D03F0E466E830E476E7A
:10102800030E6BEC13F090D0020E0001AD19D8A49A
:101038008BD03F0E466E850E476E030E6BEC13F099
:1010480083D0030E0001B119D8A47ED02A04D8A4F5
:101058001CD02950D8B404D0020E2918D8A408D01E
:101068000E0E466E800E476E020EE6EC0DF00AD0AC
:101078002904D8A407D0110E466E800E476E020EC2
:10108800E6EC0DF0000E2A6E5FD02A50D8A45CD092
:10109800010E2A6E0001B551D8A41AD02950D8B42F
:1010A80004D0020E2918D8A408D00E0E466E830E5E
:1010B800476E030E6BEC13F047D02904D8A444D034
:1010C800110E466EE70E476E030E6BEC13F03CD024
:1010D8000001B505D8A41AD02950D8B404D0020EFE
:1010E8002918D8A408D00E0E466E830E476E030E3C
:1010F8006BEC13F029D02904D8A426D0110E466E23
:10110800E40E476E030E6BEC13F01ED0020E0001C6
:10111800B519D8A419D02950D8B404D0020E29186A
:10112800D8A408D00E0E466E830E476E030E6BECE5
:1011380013F00AD02904D8A407D0110E466EE60E83
:10114800476E030E6BEC13F0000E0001C06F000E2B
:10115800C16F000EC26F000EC36FF294F2A061D08F
:1011680081A883AC59D083BE81A656D0040E3A6EAE
:10117800000E3B6E000E3C6E000E3D6ECDEC2BF06B
:1011880081A883AC49D083BE81A646D0BFEC2CF0A1
:10119800000E396E0450D8A41BD0010E046E36EC34
:1011A8002DF08C908C928C948C968B848C88DA0E93
:1011B800466E7F0E476E3BEC26F0000E076E010E62
:1011C800066E53EC27F0CAEC26F0F28AD58E24D0AE
:1011D8000404D8A421D0000E046E34EC2DF0250EA2
:1011E8000101006F000E3C6E010E3D6E000E3E6E5A
:1011F800000E406E010E3F6E1EEC2BF08C908C9210
:101208008C948C968B948C98000E066EF60E466E17
:101218007F0E476E3BEC26F081BA02D0010E0E6EAF
:10122800F290F2A203D0010E076EF292F0A235D02E
:10123800F1B802D0F18802D0F1B8F1980650D8B4CC
:101248000ED01C4A1D2A1E501C1826E11F501D18BE
:10125800D8A422D0010E126E8C948C961DD0010455
:10126800D8A404D00F04D8B40FD011D0020E01189E
:10127800D8B412D00150D8B4F5D7040E0118D8A4A8
:101288000BD00F04D8A403D0164A172A05D010048F
:10129800D8A402D0184A192AF0925DC0F5FF5CC0A4
:1012A800F8FF5BC0F7FF5AC0F6FF59C0F4FF58C0FB
:1012B800F3FF57C0DAFF56C0D9FF55C0E2FF54C04C
:1012C800E1FF53C0EAFF52C0E9FF51C0FBFF50C025
:1012D800FAFF62921100496E000E4A6E000E486EC7
:1012E8004904D8A426D14750D8A474D046C044F0A5
:1012F800020E8AEC2BF0000E5E6E2F0E5E6401D09B
:1013080019D05E50010DA10EF324F66E730EF42071
:10131800F76E0800F5CF4AF04A0E3C6E000E3D6E9F
:10132800400E3E6E000E406E010E3F6E1EEC2BF01E
:101338005E2AE3D746C044F0030E8AEC2BF0000E79
:101348005E6E2F0E5E6401D01DD05E50010D300E12
:10135800F326000EF422A10EF324F66E730EF42089
:10136800F76E0800F5CF4AF04A0E3C6E000E3D6E4F
:10137800400E3E6E000E406E010E3F6E1EEC2BF0CE
:101388005E2ADFD746C044F0040E8AEC2BF0000E2C
:101398005E6E2F0E5E6401D012005E50010D600E6D
:1013A800F326000EF422A10EF324F66E730EF42039
:1013B800F76E0800F5CF4AF04A0E3C6E000E3D6EFF
:1013C800400E3E6E000E406E010E3F6E1EEC2BF07E
:1013D8005E2ADFD7800E4718D8A4120046C044F012
:1013E800020E8AEC2BF0000E5E6E2F0E5E6401D0AA
:1013F8002FD05E50010DA10EF324F66E730EF4206B
:10140800F76E0800F5CF4AF05E50D8B404D02F0E1E
:101418005E18D8A402D00F0E08D05E04D8B404D049
:101428002E0E5E18D8A403D01F0E4A6E03D04A1E93
:101438003F0E4A164A0E3C6E000E3D6E400E3E6E42
:10144800000E406E010E3F6E1EEC2BF05E2ACDD7CB
:1014580046C044F0030E8AEC2BF0000E5E6E2F0E91
:101468005E6401D027D05E50010D300EF326000EC9
:10147800F422A10EF324F66E730EF420F76E080022
:10148800F5CF4AF05E50D8B404D02F0E5E18D8A419
:1014980002D04A6801D04A1E4A0E3C6E000E3D6ECC
:1014A800400E3E6E000E406E010E3F6E1EEC2BF09D
:1014B8005E2AD5D746C044F0040E8AEC2BF0000E05
:1014C8005E6E2F0E5E6401D012005E50010D600E3C
:1014D800F326000EF422A10EF324F66E730EF42008
:1014E800F76E0800F5CF4AF05E50D8B404D02F0E3E
:1014F8005E18D8A402D0E00E08D05E04D8B404D098
:101508002E0E5E18D8A403D0F00E4A6E04D04A1EE0
:10151800F00E4A164A884A0E3C6E000E3D6E400E8A
:101528003E6E000E406E010E3F6E1EEC2BF05E2AE2
:10153800C8D7020E4918D8A412004750D8A474D0AE
:1015480046C044F0020E8AEC2BF0000E5E6E2F0EA1
:101558005E6401D019D05E50010D110EF324F66EB1
:10156800730EF420F76E0800F5CF4AF04A0E3C6E71
:10157800000E3D6E400E3E6E000E406E010E3F6E38
:101588001EEC2BF05E2AE3D746C044F0030E8AEC2B
:101598002BF0000E5E6E2F0E5E6401D01DD05E50E3
:1015A800010D300EF326000EF422110EF324F66E10
:1015B800730EF420F76E0800F5CF4AF04A0E3C6E21
:1015C800000E3D6E400E3E6E000E406E010E3F6EE8
:1015D8001EEC2BF05E2ADFD746C044F0040E8AECDE
:1015E8002BF0000E5E6E2F0E5E6401D012005E506E
:1015F800010D600EF326000EF422110EF324F66E90
:10160800730EF420F76E0800F5CF4AF04A0E3C6ED0
:10161800000E3D6E400E3E6E000E406E010E3F6E97
:101628001EEC2BF05E2ADFD7800E4718D8A41200D4
:1016380046C044F0020E8AEC2BF0000E5E6E2F0EB0
:101648005E6401D02FD05E50010D110EF324F66EAA
:10165800730EF420F76E0800F5CF4AF05E50D8B448
:1016680004D02F0E5E18D8A402D00F0E08D05E0446
:10167800D8B404D02E0E5E18D8A403D01F0E4A6E1C
:1016880003D04A1E3F0E4A164A0E3C6E000E3D6EAF
:10169800400E3E6E000E406E010E3F6E1EEC2BF0AB
:1016A8005E2ACDD746C044F0030E8AEC2BF0000E1C
:1016B8005E6E2F0E5E6401D027D05E50010D300E95
:1016C800F326000EF422110EF324F66E730EF420A6
:1016D800F76E0800F5CF4AF05E50D8B404D02F0E4C
:1016E8005E18D8A402D04A6801D04A1E4A0E3C6E41
:1016F800000E3D6E400E3E6E000E406E010E3F6EB7
:101708001EEC2BF05E2AD5D746C044F0040E8AECB6
:101718002BF0000E5E6E2F0E5E6401D012005E503C
:10172800010D600EF326000EF422110EF324F66E5E
:10173800730EF420F76E0800F5CF4AF05E50D8B467
:1017480004D02F0E5E18D8A402D0E00E08D05E0494
:10175800D8B404D02E0E5E18D8A403D0F00E4A6E6A
:1017680004D04A1EF00E4A164A884A0E3C6E000EF5
:101778003D6E400E3E6E000E406E010E3F6E1EEC3A
:101788002BF05E2AC8D70301136F10D2030E000195
:10179800B119D8A40BD00001B52B030E0001B5195F
:1017A800D8A41200000E0001B56F1200070E281809
:1017B800D8A402D0800E01D0000E0001B16F000144
:1017C800B1510001B219D8B412002950D8B404D0CC
:1017D800020E2918D8A409D0000E03010C6FB1C05D
:1017E8000DF3020EC5EC11F00BD02904D8A408D0D3
:1017F800000E03010C6FB1C00DF3030EC5EC11F020
:101808000001B551D8A422D02950D8B404D0020E72
:101818002918D8A40CD00E0E03010C6F0001B15189
:10182800030903010D6F030EE8EC0FF05BD02904E8
:10183800D8A458D0110E03010C6F0001B1516709EB
:1018480003010D6F030EE8EC0FF04CD00001B50555
:10185800D8A422D02950D8B404D0020E2918D8A46C
:101868000CD00E0E03010C6F0001B15103090301E6
:101878000D6F030EE8EC0FF035D02904D8A432D050
:10188800110E03010C6F0001B151640903010D6FC2
:10189800030EE8EC0FF026D0020E0001B519D8A40B
:1018A80021D02950D8B404D0020E2918D8A40CD0BD
:1018B8000E0E03010C6F0001B151030903010D6FF6
:1018C800030EE8EC0FF00ED02904D8A40BD0110EAB
:1018D80003010C6F0001B151660903010D6F030E7E
:1018E800E8EC0FF0B1C0B2F01200030E0001B1191C
:1018F800D8A40AD00001B5070001B529D8A4120060
:10190800020E0001B56F1200070E2818D8A402D0E5
:10191800800E01D0000E0001B16F0001B15100012D
:10192800B219D8B412002950D8B404D0020E29181C
:10193800D8A409D0000E03010C6FB1C00DF3020E3C
:10194800C5EC11F00BD02904D8A408D0000E03016F
:101958000C6FB1C00DF3030EC5EC11F00001B551C9
:10196800D8A422D02950D8B404D0020E2918D8A45B
:101978000CD00E0E03010C6F0001B15103090301D5
:101988000D6F030EE8EC0FF05BD02904D8A458D0F3
:10199800110E03010C6F0001B151670903010D6FAE
:1019A800030EE8EC0FF04CD00001B505D8A422D006
:1019B8002950D8B404D0020E2918D8A40CD00E0E81
:1019C80003010C6F0001B151030903010D6F030EF0
:1019D800E8EC0FF035D02904D8A432D0110E030159
:1019E8000C6F0001B151640903010D6F030EE8EC9F
:1019F8000FF026D0020E0001B519D8A421D0295025
:101A0800D8B404D0020E2918D8A40CD00E0E0301A5
:101A18000C6F0001B151030903010D6F030EE8ECCF
:101A28000FF00ED02904D8A40BD0110E03010C6FAF
:101A38000001B151660903010D6F030EE8EC0FF0C8
:101A4800B1C0B2F01200800E0001B119D8A406D0BE
:101A5800030E0001B16F010E2A6E08D0030E0001BB
:101A6800B119D8A403D0000E0001B16F0001B15123
:101A78000001B219D8B412000001B151D8A493D012
:101A88002950D8B404D0020E2918D8A40AD0000EC0
:101A980003010C6F000E03010D6F020EC5EC11F06F
:101AA8000CD02904D8A409D0000E03010C6F000E35
:101AB80003010D6F030EC5EC11F00001B551D8A458
:101AC80023D02950D8B404D0020E2918D8A40AD09B
:101AD8000E0E03010C6F030E03010D6F030EE8ECED
:101AE8000FF061D02904D8A45ED0110E03010C6F49
:101AF8000001B951670903010D6F030EE8EC0FF0FF
:101B0800000E0C6E140E4ED00001B505D8A423D0DB
:101B18002950D8B404D0020E2918D8A40AD00E0E21
:101B280003010C6F030E03010D6F030EE8EC0FF0B9
:101B38003AD02904D8A437D0110E03010C6F000144
:101B4800B951640903010D6F030EE8EC0FF0000EA4
:101B58000C6EC80E27D0020E0001B519D8A423D0E8
:101B68002950D8B404D0020E2918D8A40AD00E0ED1
:101B780003010C6F030E03010D6F030EE8EC0FF069
:101B880012D02904D8A40FD0110E03010C6F000144
:101B9800B951660903010D6F030EE8EC0FF0000E52
:101BA8000C6E640E0B6EB1C0B2F01200030113513B
:101BB800F10AD8B4EBD5030AD8B497D6010AD8A449
:101BC800120041D7486E000E4A6E000E496E480456
:101BD800D8A4FBD04750D8A474D046C044F0020E15
:101BE8008AEC2BF0000E5E6E120E5E6401D019D0E6
:101BF8005E50010D310EF324F66E740EF420F76E6C
:101C08000800F5CF4AF04A0E3C6E000E3D6E400EBD
:101C18003E6E000E406E010E3F6E1EEC2BF05E2AEB
:101C2800E3D746C044F0030E8AEC2BF0000E5E6E3C
:101C3800120E5E6401D01DD05E50010D130EF32606
:101C4800000EF422310EF324F66E740EF420F76EB3
:101C58000800F5CF4AF04A0E3C6E000E3D6E400E6D
:101C68003E6E000E406E010E3F6E1EEC2BF05E2A9B
:101C7800DFD746C044F0040E8AEC2BF0000E5E6EEF
:101C8800120E5E6401D012005E50010D260EF3267E
:101C9800000EF422310EF324F66E740EF420F76E63
:101CA8000800F5CF4AF04A0E3C6E000E3D6E400E1D
:101CB8003E6E000E406E010E3F6E1EEC2BF05E2A4B
:101CC800DFD7800E4718D8A4120046C044F0020E91
:101CD8008AEC2BF0000E5E6E120E5E6401D01ED0F0
:101CE8005E50010D310EF324F66E740EF420F76E7B
:101CF8000800F5CF4AF04AC049F04A1E3F0E4A167E
:101D08004A0E3C6E000E3D6E400E3E6E000E406E5A
:101D1800010E3F6E1EEC2BF05E2ADED746C044F063
:101D2800030E8AEC2BF0000E5E6E120E5E6401D07C
:101D380020D05E50010D130EF326000EF422310E52
:101D4800F324F66E740EF420F76E0800F5CF4AF00F
:101D58004AC049F04A1E4A0E3C6E000E3D6E400EC7
:101D68003E6E000E406E010E3F6E1EEC2BF05E2A9A
:101D7800DCD746C044F0040E8AEC2BF0000E5E6EF1
:101D8800120E5E6401D012005E50010D260EF3267D
:101D9800000EF422310EF324F66E740EF420F76E62
:101DA8000800F5CF4AF04AC049F0F00E4A6E4A0ED4
:101DB8003C6E000E3D6E400E3E6E000E406E010EF3
:101DC8003F6E1EEC2BF05E2ADBD7020E4818D8A413
:101DD80012004750D8A474D046C044F0050E8AECCF
:101DE8002BF0000E5E6E120E5E6401D019D05E50AC
:101DF800010D310EF324F66E740EF420F76E080010
:101E0800F5CF4AF04A0E3C6E000E3D6E400E3E6E17
:101E1800000E406E010E3F6E1EEC2BF05E2AE3D7DB
:101E280046C044F0060E8AEC2BF0000E5E6E120ED1
:101E38005E6401D01DD05E50010D130EF326000E16
:101E4800F422310EF324F66E740EF420F76E0800B7
:101E5800F5CF4AF04A0E3C6E000E3D6E400E3E6EC7
:101E6800000E406E010E3F6E1EEC2BF05E2ADFD78F
:101E780046C044F0070E8AEC2BF0000E5E6E120E80
:101E88005E6401D012005E50010D260EF326000E8E
:101E9800F422310EF324F66E740EF420F76E080067
:101EA800F5CF4AF04A0E3C6E000E3D6E400E3E6E77
:101EB800000E406E010E3F6E1EEC2BF05E2ADFD73F
:101EC800800E4718D8A4120046C044F0050E8AECCC
:101ED8002BF0000E5E6E120E5E6401D01ED05E50B6
:101EE800010D310EF324F66E740EF420F76E08001F
:101EF800F5CF4AF04AC049F04A1E3F0E4A164A0E2C
:101F08003C6E000E3D6E400E3E6E000E406E010EA1
:101F18003F6E1EEC2BF05E2ADED746C044F0060E5C
:101F28008AEC2BF0000E5E6E120E5E6401D020D09B
:101F38005E50010D130EF326000EF422310EF32429
:101F4800F66E740EF420F76E0800F5CF4AF04AC01A
:101F580049F04A1E4A0E3C6E000E3D6E400E3E6E23
:101F6800000E406E010E3F6E1EEC2BF05E2ADCD791
:101F780046C044F0070E8AEC2BF0000E5E6E120E7F
:101F88005E6401D012005E50010D260EF326000E8D
:101F9800F422310EF324F66E740EF420F76E080066
:101FA800F5CF4AF04AC049F0F00E4A6E4A0E3C6E30
:101FB800000E3D6E400E3E6E000E406E010E3F6EEE
:101FC8001EEC2BF05E2ADBD70301116F000E030114
:101FD800126F000E0301106F41D0650E246E7E0E45
:101FE8003BD02C0E246E7E0E37D0810E246E7D0ED3
:101FF80033D0480E246E7D0E2FD00F0E246E7D0E2A
:102008002BD09D0E246E7C0E27D0D60E246E7C0E0F
:1020180023D0640E246E7C0E1FD02B0E246E7C0EF3
:102028001BD0F20E246E7B0E17D0800E246E7B0E12
:1020380013D0B90E246E7B0E0FD00E0E246E7B0EBD
:102048000BD0470E246E7B0E07D0F30E246E7D0E48
:1020580003D0BA0E246E7D0E256E3DD003010D51BE
:102068007F0B03010E6F0F6B03010F51000AD8A4F9
:1020780032D003010E51000AD8B4AFD7010AD8B440
:10208800B0D7030AD8B4B1D7010AD8B4B2D7070A6F
:10209800D8B4B3D7010AD8B4B4D7030AD8B4B5D7DB
:1020A8000C0AD8B4B6D7070AD8B4B7D7690AD8B4CF
:1020B800B8D7010AD8B4B9D7030AD8B4BAD7010A2D
:1020C800D8B4BBD70F0AD8B4BCD7010AD8B4BDD787
:1020D800030AD8B4BED703010DBFA0D00CC30AF3BE
:1020E80003011151020F2EEC2AF0000E5E6E120E43
:1020F8005E6401D025D05E50010D24C00EF325C0CA
:102108000FF3F35003010E27F45003010F230EC3FE
:10211800F6FF0FC3F7FF0800F5CF12F3120E030105
:10212800026F030E0301036F400E0301046F000EDC
:102138000301066F010E056FD3EC2AF05E2AD7D78C
:102148000CC30AF303011151030F2EEC2AF0000E01
:102158005E6E120E5E6401D02AD05E50010D24C05E
:102168000EF325C00FF3F35003010E27F4500301BB
:102178000F23130E03010E27000E0F230EC3F6FFC5
:102188000FC3F7FF0800F5CF12F3120E0301026F19
:10219800030E0301036F400E0301046F000E0301D9
:1021A800066F010E056FD3EC2AF05E2AD2D70CC356
:1021B8000AF303011151040F2EEC2AF0000E5E6E93
:1021C800120E5E6401D012005E50010D24C00EF3A1
:1021D80025C00FF3F35003010E27F45003010F231A
:1021E800260E03010E27000E0F230EC3F6FF0FC3A2
:1021F800F7FF0800F5CF12F3120E0301026F030E6A
:102208000301036F400E0301046F000E0301066F04
:10221800010E056FD3EC2AF05E2AD2D703010DAF69
:1022280012000CC30AF303011151020F2EEC2AF01D
:10223800000E5E6E120E5E6401D02CD05E50010D51
:1022480024C00EF325C00FF3F35003010E27F450FA
:1022580003010F230EC3F6FF0FC3F7FF0800F5CFE6
:1022680012F312C310F30301121F3F0E03011217DA
:10227800120E0301026F030E0301036F400E0301E8
:10228800046F000E0301066F010E056FD3EC2AF0F0
:102298005E2AD0D70CC30AF303011151030F2EECA9
:1022A8002AF0000E5E6E120E5E6401D02ED05E50D3
:1022B800010D24C00EF325C00FF3F35003010E27C0
:1022C800F45003010F23130E03010E27000E0F23F2
:1022D8000EC3F6FF0FC3F7FF0800F5CF12F312C3C2
:1022E80010F30301121F120E0301026F030E030104
:1022F800036F400E0301046F000E0301066F010E09
:10230800056FD3EC2AF05E2ACED70CC30AF303017B
:102318001151040F2EEC2AF0000E5E6E120E5E6450
:1023280001D012005E50010D24C00EF325C00FF33A
:10233800F35003010E27F45003010F23260E030167
:102348000E27000E0F230EC3F6FF0FC3F7FF08007A
:10235800F5CF12F312C310F3F00E0301126F120E31
:102368000301026F030E0301036F400E0301046FA4
:10237800000E0301066F010E056FD3EC2AF05E2AEA
:10238800CDD70301116F000E0301126F000E030178
:10239800106F11D07E0E226E7A0E0BD0EE0E226ECA
:1023A800790E07D05E0E226E790E03D0CE0E226E05
:1023B800780E236E0ED003011151010AD8B4EAD762
:1023C800030AD8B4EBD7010AD8B4ECD7070AD8B4B3
:1023D800EDD703010D510301D8A49AD00CC30AF319
:1023E800050E2EEC2AF0000E5E6E2F0E5E6401D0F4
:1023F80025D05E50010D22C00EF323C00FF3F35019
:1024080003010E27F45003010F230EC3F6FF0FC379
:10241800F7FF0800F5CF12F3120E0301026F030E47
:102428000301036F400E0301046F000E0301066FE2
:10243800010E056FD3EC2AF05E2AD7D70CC30AF336
:10244800060E2EEC2AF0000E5E6E2F0E5E6401D092
:102458002AD05E50010D22C00EF323C00FF3F350B3
:1024680003010E27F45003010F23300E03010E273A
:10247800000E0F230EC3F6FF0FC3F7FF0800F5CFBA
:1024880012F3120E0301026F030E0301036F400ED5
:102498000301046F000E0301066F010E056FD3ECF4
:1024A8002AF05E2AD2D70CC30AF3070E2EEC2AF0C4
:1024B800000E5E6E2F0E5E6401D012005E50010D9C
:1024C80022C00EF323C00FF3F35003010E27F4507C
:1024D80003010F23600E03010E27000E0F230EC306
:1024E800F6FF0FC3F7FF0800F5CF12F3120E030132
:1024F800026F030E0301036F400E0301046F000E09
:102508000301066F010E056FD3EC2AF05E2AD2D7BD
:10251800800E03010D19D8A412000CC30AF3050E8E
:102528002EEC2AF0000E5E6E2F0E5E6401D03ED0B7
:102538005E50010D22C00EF323C00FF3F3500301C8
:102548000E27F45003010F230EC3F6FF0FC3F7FF46
:102558000800F5CF12F35E50D8B404D02F0E5E18E1
:10256800D8A402D00F0E08D05E04D8B404D02E0E22
:102578005E18D8A404D01F0E0301126F05D0030102
:10258800121F3F0E03011217120E0301026F030EF2
:102598000301036F400E0301046F000E0301066F71
:1025A800010E056FD3EC2AF05E2ABED70CC30AF3DE
:1025B800060E2EEC2AF0000E5E6E2F0E5E6401D021
:1025C80036D05E50010D22C00EF323C00FF3F35036
:1025D80003010E27F45003010F23300E03010E27C9
:1025E800000E0F230EC3F6FF0FC3F7FF0800F5CF49
:1025F80012F35E50D8B404D02F0E5E18D8A403D0BE
:102608000301126902D00301121F120E0301026FA7
:10261800030E0301036F400E0301046F000E030154
:10262800066F010E056FD3EC2AF05E2AC6D70CC3DD
:102638000AF3070E2EEC2AF0000E5E6E2F0E5E6473
:1026480001D012005E50010D22C00EF323C00FF31B
:10265800F35003010E27F45003010F23600E03010A
:102668000E27000E0F230EC3F6FF0FC3F7FF080057
:10267800F5CF12F35E50D8B404D02F0E5E18D8A44C
:1026880002D0E00E08D05E04D8B404D02E0E5E1836
:10269800D8A404D0F00E0301126F07D00301121F53
:1026A800F00E0301121703011289120E0301026FC3
:1026B800030E0301036F400E0301046F000E0301B4
:1026C800066F010E056FD3EC2AF05E2AB7D74A6E63
:1026D800000E4C6E000E4B6E41D0650E246E7E0EC1
:1026E8003BD02C0E246E7E0E37D0810E246E7D0ECC
:1026F80033D0480E246E7D0E2FD00F0E246E7D0E23
:102708002BD09D0E246E7C0E27D0D60E246E7C0E08
:1027180023D0640E246E7C0E1FD02B0E246E7C0EEC
:102728001BD0F20E246E7B0E17D0800E246E7B0E0B
:1027380013D0B90E246E7B0E0FD00E0E246E7B0EB6
:102748000BD0470E246E7B0E07D0F30E246E7D0E41
:1027580003D0BA0E246E7D0E256E39D047507F0BFC
:10276800486E496A4950000AD8A431D04850000A36
:10277800D8B4B3D7010AD8B4B4D7030AD8B4B5D7F4
:10278800010AD8B4B6D7070AD8B4B7D7010AD8B45B
:10279800B8D7030AD8B4B9D70C0AD8B4BAD7070A35
:1027A800D8B4BBD7690AD8B4BCD7010AD8B4BDD746
:1027B800030AD8B4BED7010AD8B4BFD70F0AD8B411
:1027C800C0D7010AD8B4C1D7030AD8B4C2D747BE04
:1027D80089D046C044F04A50020F8AEC2BF0000E14
:1027E8005E6E120E5E6401D01FD05E50010D24C0D3
:1027F80048F025C049F0F3504826F450492248C013
:10280800F6FF49C0F7FF0800F5CF4CF04C0E3C6EC0
:10281800000E3D6E400E3E6E000E406E010E3F6E85
:102828001EEC2BF05E2ADDD746C044F04A50030F59
:102838008AEC2BF0000E5E6E120E5E6401D023D07F
:102848005E50010D24C048F025C049F0F3504826D9
:10285800F4504922130E4826000E492248C0F6FFBC
:1028680049C0F7FF0800F5CF4CF04C0E3C6E000E47
:102878003D6E400E3E6E000E406E010E3F6E1EEC29
:102888002BF05E2AD9D746C044F04A50040F8AEC90
:102898002BF0000E5E6E120E5E6401D012005E50C8
:1028A800010D24C048F025C049F0F3504826F450E3
:1028B8004922260E4826000E492248C0F6FF49C084
:1028C800F7FF0800F5CF4CF04C0E3C6E000E3D6E45
:1028D800400E3E6E000E406E010E3F6E1EEC2BF059
:1028E8005E2AD9D747AE120046C044F04A50020FBC
:1028F8008AEC2BF0000E5E6E120E5E6401D024D0BE
:102908005E50010D24C048F025C049F0F350482618
:10291800F450492248C0F6FF49C0F7FF0800F5CF38
:102928004CF04CC04BF04C1E3F0E4C164C0E3C6EFF
:10293800000E3D6E400E3E6E000E406E010E3F6E64
:102948001EEC2BF05E2AD8D746C044F04A50030F3D
:102958008AEC2BF0000E5E6E120E5E6401D026D05B
:102968005E50010D24C048F025C049F0F3504826B8
:10297800F4504922130E4826000E492248C0F6FF9B
:1029880049C0F7FF0800F5CF4CF04CC04BF04C1E87
:102998004C0E3C6E000E3D6E400E3E6E000E406EBC
:1029A800010E3F6E1EEC2BF05E2AD6D746C044F0CF
:1029B8004A50040F8AEC2BF0000E5E6E120E5E6415
:1029C80001D012005E50010D24C048F025C049F026
:1029D800F3504826F4504922260E4826000E492274
:1029E80048C0F6FF49C0F7FF0800F5CF4CF04CC0CF
:1029F8004BF0F00E4C6E4C0E3C6E000E3D6E400ED1
:102A08003E6E000E406E010E3F6E1EEC2BF05E2AED
:102A1800D5D70301136F66D1030E00018119D8A41D
:102A280036D0292A030E2918D8A402D0000E296E00
:102A3800470E03010C6F81C00DF3010E3DEC1AF037
:102A48002950D8A409D0490E03010C6F81C00DF399
:102A5800010E10EC20F018D02904D8A409D0490E92
:102A680003010C6F81C00DF3010E90EC1EF00CD029
:102A7800020E2918D8A408D0490E03010C6F81C092
:102A88000DF3010E50EC1FF081C082F012002804F3
:102A9800D8A402D0800E01D0000E0001816F000181
:102AA800815100018219D8B41200470E03010C6F3E
:102AB80081C00DF3010E3DEC1AF02950D8A409D0BD
:102AC800490E03010C6F81C00DF3010E10EC20F0CC
:102AD80018D0020E2918D8A409D0490E03010C6F8A
:102AE80081C00DF3010E50EC1FF00BD02904D8A4BF
:102AF80008D0490E03010C6F81C00DF3010E90EC54
:102B08001EF081C082F01200030E00018119D8A4C2
:102B180035D029062928D8A402D0020E296E470EDE
:102B280003010C6F81C00DF3010E3DEC1AF0295022
:102B3800D8A409D0490E03010C6F81C00DF3010E12
:102B480010EC20F018D02904D8A409D0490E0301AC
:102B58000C6F81C00DF3010E90EC1EF00CD0020E2C
:102B68002918D8A408D0490E03010C6F81C00DF3B1
:102B7800010E50EC1FF081C082F012002804D8A486
:102B880002D0800E01D0000E0001816F000181513A
:102B980000018219D8B41200470E03010C6F81C0DE
:102BA8000DF3010E3DEC1AF02950D8A409D0490EB6
:102BB80003010C6F81C00DF3010E10EC20F018D04A
:102BC800020E2918D8A409D0490E03010C6F81C040
:102BD8000DF3010E50EC1FF00BD02904D8A408D037
:102BE800490E03010C6F81C00DF3010E90EC1EF02D
:102BF80081C082F01200800E00018119D8A406D08D
:102C0800030E0001816F010E2A6E1DD0030E000114
:102C18008119D8A418D02904D8A412D0000E030111
:102C28000C6F000E03010D6F030EC5EC11F0110EB1
:102C380003010C6F670E03010D6F030EE8EC0FF034
:102C4800000E0001816F0001815100018219D8B482
:102C5800120000018151D8A442D0470E03010C6F25
:102C680081C00DF3010E3DEC1AF02950D8A41CD0F8
:102C7800490E03010C6F81C00DF3010E10EC20F01A
:102C8800000E03010C6F000E03010D6F020EC5EC60
:102C980011F00E0E03010C6F030E03010D6F030EEE
:102CA800E8EC0FF0000E1AD02904D8A40AD0490E77
:102CB80003010C6F81C00DF3010E90EC1EF0010EA4
:102CC8000DD0020E2918D8A40AD0490E03010C6FA2
:102CD80081C00DF3010E50EC1FF0020E026E81C090
:102CE80082F0120003011351F10AD8B495D6030AF1
:102CF800D8B40AD7010AD8A412007DD74B6E000EAB
:102D08004C6E000E4A6E11D07E0E226E7A0E0BD0DB
:102D1800EE0E226E790E07D05E0E226E790E03D06B
:102D2800CE0E226E780E236E0DD04B50010AD8B409
:102D3800EBD7030AD8B4ECD7010AD8B4EDD7070A01
:102D4800D8B4EED74750D8A486D046C044F0050E74
:102D58008AEC2BF0000E5E6E2F0E5E6401D01FD041
:102D68005E50010D22C048F023C049F0F3504826B8
:102D7800F450492248C0F6FF49C0F7FF0800F5CFD4
:102D88004CF04C0E3C6E000E3D6E400E3E6E000E3A
:102D9800406E010E3F6E1EEC2BF05E2ADDD746C05A
:102DA80044F0060E8AEC2BF0000E5E6E2F0E5E6469
:102DB80001D023D05E50010D22C048F023C049F055
:102DC800F3504826F4504922300E4826000E492276
:102DD80048C0F6FF49C0F7FF0800F5CF4CF04C0E8D
:102DE8003C6E000E3D6E400E3E6E000E406E010EB3
:102DF8003F6E1EEC2BF05E2AD9D746C044F0070E72
:102E08008AEC2BF0000E5E6E2F0E5E6401D012006D
:102E18005E50010D22C048F023C049F0F350482607
:102E2800F4504922600E4826000E492248C0F6FF99
:102E380049C0F7FF0800F5CF4CF04C0E3C6E000E71
:102E48003D6E400E3E6E000E406E010E3F6E1EEC53
:102E58002BF05E2AD9D7800E4718D8A4120046C096
:102E680044F0050E8AEC2BF0000E5E6E2F0E5E64A9
:102E780001D035D05E50010D22C048F023C049F082
:102E8800F3504826F450492248C0F6FF49C0F7FFDE
:102E98000800F5CF4CF05E50D8B404D02F0E5E1861
:102EA800D8A402D00F0E08D05E04D8B404D02E0ED9
:102EB8005E18D8A403D01F0E4C6E03D04C1E3F0ED4
:102EC8004C164C0E3C6E000E3D6E400E3E6E000ED3
:102ED800406E010E3F6E1EEC2BF05E2AC7D746C02F
:102EE80044F0060E8AEC2BF0000E5E6E2F0E5E6428
:102EF80001D02DD05E50010D22C048F023C049F00A
:102F0800F3504826F4504922300E4826000E492234
:102F180048C0F6FF49C0F7FF0800F5CF4CF05E50F7
:102F2800D8B404D02F0E5E18D8A402D04C6801D0B3
:102F38004C1E4C0E3C6E000E3D6E400E3E6E000E5A
:102F4800406E010E3F6E1EEC2BF05E2ACFD746C0B6
:102F580044F0070E8AEC2BF0000E5E6E2F0E5E64B6
:102F680001D012005E50010D22C048F023C049F084
:102F7800F3504826F4504922600E4826000E492294
:102F880048C0F6FF49C0F7FF0800F5CF4CF05E5087
:102F9800D8B404D02F0E5E18D8A402D0E00E08D002
:102FA8005E04D8B404D02E0E5E18D8A403D0F00E58
:102FB8004C6E04D04C1EF00E4C164C884C0E3C6ED9
:102FC800000E3D6E400E3E6E000E406E010E3F6ECE
:102FD8001EEC2BF05E2AC2D70301136F25D1030E16
:102FE80000019919D8A40BD000019D2B030E0001F4
:102FF8009D19D8A41200000E00019D6F1200040E46
:103008002818D8A402D0800E01D0000E0001996FB4
:103018000001995100019A19D8B41200310E030128
:103028000C6F99C00DF3010E70EC04F000019D5176
:10303800D8A40CD03F0E03010C6F0001995104096C
:1030480003010D6F000EE8EC0FF020D000019D0584
:10305800D8A40CD03F0E03010C6F0001995106094A
:1030680003010D6F000EE8EC0FF010D0020E000106
:103078009D19D8A40BD03F0E03010C6F0001995184
:103088000D0903010D6F000EE8EC0FF099C09AF0DE
:103098001200030E00019919D8A40AD000019D0757
:1030A80000019D29D8A41200020E00019D6F120094
:1030B800040E2818D8A402D0800E01D0000E0001FA
:1030C800996F0001995100019A19D8B41200310E74
:1030D80003010C6F99C00DF3010E70EC04F00001B0
:1030E8009D51D8A40CD03F0E03010C6F00019951DB
:1030F800040903010D6F000EE8EC0FF020D0000169
:103108009D05D8A40CD03F0E03010C6F0001995106
:10311800060903010D6F000EE8EC0FF010D0020E47
:1031280000019D19D8A40BD03F0E03010C6F0001BC
:1031380099510D0903010D6F000EE8EC0FF099C0CD
:103148009AF01200800E00019919D8A406D0030E37
:103158000001996F010E2A6E08D0030E000199191B
:10316800D8A403D0000E0001996F00019951000105
:103178009A19D8B4120000019951D8A452D0310E2E
:1031880003010C6F000E03010D6F010E70EC04F0CB
:1031980000019D51D8A415D03F0E03010C6F00010A
:1031A8009951040903010D6F000EE8EC0FF0040EAD
:1031B8000001FD6F040E18D0010E1F6E9C0E1E6ECE
:1031C8002ED000019D05D8A411D03F0E03010C6F2D
:1031D80000019951060903010D6F000EE8EC0FF08C
:1031E800060E0001FD6F060E086EE6D7020E0001FE
:1031F8009D19D8A416D03F0E03010C6F00019951F8
:103208000D0903010D6F000EE8EC0FF00D0E000123
:10321800FD6F0D0E086E000E1F6E010ED0D7010E49
:10322800066E99C09AF0120003011351F10AD8B43E
:10323800D6D6030AD8B42DD7010AD8A4120082D74B
:103248000301136F0AD1030E0001A919D8A40BD0EA
:103258000001AD2B030E0001AD19D8A41200000E19
:103268000001AD6F1200060E2818D8A402D0800EF7
:1032780001D0000E0001A96F0001A9510001AA198F
:10328800D8B41200310E03010C6FA9C00DF3010E62
:10329800C5EC11F00001AD51D8A40CD03F0E0301CC
:1032A8000C6F0001A951020903010D6F030EE8EC30
:1032B8000FF020D00001AD05D8A40CD03F0E0301BB
:1032C8000C6F0001A951030903010D6F030EE8EC0F
:1032D8000FF010D0020E0001AD19D8A40BD03F0E8C
:1032E80003010C6F0001A951050903010D6F030EBD
:1032F800E8EC0FF0A9C0AAF01200030E0001A9190A
:10330800D8A40AD00001AD070001AD29D8A4120045
:10331800020E0001AD6F1200060E2818D8A402D0C4
:10332800800E01D0000E0001A96F0001A951000113
:10333800AA19D8B41200310E03010C6FA9C00DF3FD
:10334800010EC5EC11F00001AD51D8A40CD03F0E10
:1033580003010C6F0001A951020903010D6F030E4F
:10336800E8EC0FF020D00001AD05D8A40CD03F0E3A
:1033780003010C6F0001A951030903010D6F030E2E
:10338800E8EC0FF010D0020E0001AD19D8A40BD054
:103398003F0E03010C6F0001A951050903010D6FD0
:1033A800030EE8EC0FF0A9C0AAF01200800E00018D
:1033B800A919D8A406D0030E0001A96F010E2A6E20
:1033C80008D0030E0001A919D8A403D0000E0001EB
:1033D800A96F0001A9510001AA19D8B4120000016F
:1033E800A951D8A437D0310E03010C6F000E030188
:1033F8000D6F010EC5EC11F00001AD51D8A40BD032
:103408003F0E03010C6F020E03010D6F030EE8EC73
:103418000FF08C0E1ED00001AD05D8A40BD03F0EC6
:1034280003010C6F030E03010D6F030EE8EC0FF0A0
:10343800820E0FD0020E0001AD19D8A40BD03F0E9A
:1034480003010C6F050E03010D6F030EE8EC0FF07E
:10345800A00E0D6EA9C0AAF0120003011351F10AC3
:10346800D8B4F1D6030AD8B448D7010AD8A41200B0
:103478009DD7000E03010F6F000E03010E6FFAD0E7
:103488000CC30AF3000E2EEC2AF0000E5E6E1A0E24
:103498005E6401D01DD05E50010D6A0EF324F66EF5
:1034A800740EF420F76E0800F5CF0FF30F0E03012A
:1034B800026F030E0301036F400E0301046F000E39
:1034C8000301066F010E056FD3EC2AF05E2ADFD7E1
:1034D8000CC30AF3010E2EEC2AF0000E5E6E1A0ED3
:1034E8005E6401D012005E50010D1B0EF326000E23
:1034F800F4226A0EF324F66E740EF420F76E0800B8
:10350800F5CF0FF30F0E0301026F030E0301036FD4
:10351800400E0301046F000E0301066F010E056FD4
:10352800D3EC2AF05E2ADBD70CC30AF3000E2EEC8C
:103538002AF0000E5E6E1A0E5E6401D046D05E5010
:10354800010D6A0EF324F66E740EF420F76E08006F
:10355800F5CF0FF30FC30EF35E50D8B404D01A0E94
:103568005E18D8A40AD003010F1F03010E510301EE
:103578000F133F0E03010F1716D05E04D8B404D002
:10358800190E5E18D8A409D003010F1F03010E51AC
:1035980003010F1303010F9F06D003010F1F03013F
:1035A8000E5103010F130F0E0301026F030E0301E7
:1035B800036F400E0301046F000E0301066F010E36
:1035C800056FD3EC2AF05E2AB6D70CC30AF3010EB6
:1035D8002EEC2AF0000E5E6E1A0E5E6401D0120008
:1035E8005E50010D1B0EF326000EF4226A0EF32422
:1035F800F66E740EF420F76E0800F5CF0FF30FC3C4
:103608000EF35E50D8B404D01A0E5E18D8A40AD0AF
:1036180003010F1F03010E5103010F13FC0E0301D9
:103628000F1716D05E04D8B404D0190E5E18D8A4AB
:1036380009D003010F1F03010E5103010F130301EA
:103648000F9106D003010F1F03010E5103010F1341
:103658000F0E0301026F030E0301036F400E0301F7
:10366800046F000E0301066F010E056FD3EC2AF0FC
:103678005E2AB2D703010D51000AD8B401D7800AD7
:10368800D8A4120051D70301136FD9D0030E00013B
:10369800A119D8A40BD00001A52B020E0001A51971
:1036A800D8A41200000E0001A56F1200050E2818FC
:1036B800D8A402D0800E01D0000E0001A16F000135
:1036C800A1510001A219D8B41200000E03010C6F19
:1036D800A1C00DF3020E70EC04F00001A551D8A4AE
:1036E8000CD00E0E03010C6F0001A151010903015A
:1036F8000D6F000EE8EC0FF00FD00001A505D8A45F
:103708000BD00E0E03010C6F0001A1510209030139
:103718000D6F000EE8EC0FF0A1C0A2F01200030E2E
:103728000001A119D8A40AD00001A5070001A52904
:10373800D8A41200010E0001A56F1200050E28186A
:10374800D8A402D0800E01D0000E0001A16F0001A4
:10375800A1510001A219D8B41200000E03010C6F88
:10376800A1C00DF3020E70EC04F00001A551D8A41D
:103778000CD00E0E03010C6F0001A15101090301C9
:103788000D6F000EE8EC0FF00FD00001A505D8A4CE
:103798000BD00E0E03010C6F0001A15102090301A9
:1037A8000D6F000EE8EC0FF0A1C0A2F01200800E21
:1037B8000001A119D8A406D0030E0001A16F010EC3
:1037C8002A6E08D0030E0001A119D8A403D0000E58
:1037D8000001A16F0001A1510001A219D8B4120083
:1037E8000001A151D8A428D0000E03010C6F000ECF
:1037F80003010D6F020E70EC04F00001A551D8A46E
:103808000CD00E0E03010C6F0001A1510109030138
:103818000D6F000EE8EC0FF00FD00001A505D8A43D
:103828000BD00E0E03010C6F0001A1510209030118
:103838000D6F000EE8EC0FF0A1C0A2F0120003011A
:103848001351F10AD8B422D7030AD8B468D7010AA9
:10385800D8A41200ACD7000E496E000E486ED4D022
:1038680046C044F0000E8AEC2BF0000E5E6E1A0E75
:103878005E6401D019D05E50010D6A0EF324F66E15
:10388800740EF420F76E0800F5CF49F0490E3C6E2F
:10389800000E3D6E400E3E6E000E406E010E3F6EF5
:1038A8001EEC2BF05E2AE3D746C044F0010E8AECEA
:1038B8002BF0000E5E6E1A0E5E6401D012005E5090
:1038C800010D1B0EF326000EF4226A0EF324F66E89
:1038D800740EF420F76E0800F5CF49F0490E3C6EDF
:1038E800000E3D6E400E3E6E000E406E010E3F6EA5
:1038F8001EEC2BF05E2ADFD746C044F0000E8AEC9F
:103908002BF0000E5E6E1A0E5E6401D037D05E504A
:10391800010D6A0EF324F66E740EF420F76E08009B
:10392800F5CF49F049C048F05E50D8B404D01A0E1B
:103938005E18D8A406D0491E485049123F0E4916B1
:103948000FD05E04D8B404D0190E5E18D8A405D0E0
:10395800491E48504912499E03D0491E48504912F1
:10396800490E3C6E000E3D6E400E3E6E000E406EDF
:10397800010E3F6E1EEC2BF05E2AC5D746C044F000
:10398800010E8AEC2BF0000E5E6E1A0E5E6401D0FA
:1039980012005E50010D1B0EF326000EF4226A0E73
:1039A800F324F66E740EF420F76E0800F5CF49F094
:1039B80049C048F05E50D8B404D01A0E5E18D8A496
:1039C80006D0491E48504912FC0E49160FD05E0415
:1039D800D8B404D0190E5E18D8A405D0491E485092
:1039E8004912499003D0491E48504912490E3C6E6D
:1039F800000E3D6E400E3E6E000E406E010E3F6E94
:103A08001EEC2BF05E2AC1D74750000AD8B428D73D
:103A1800800AD8A4120070D7000E03010F6F000EA1
:103A280003010E6FB0D00CC30AF3000E2EEC2AF07F
:103A3800000E5E6E160E5E6401D01DD05E50010D44
:103A4800A00EF324F66E740EF420F76E0800F5CF7E
:103A58000FF30F0E0301026F030E0301036F400EF5
:103A68000301046F000E0301066F010E056FD3EC0E
:103A78002AF05E2ADFD70CC30AF3010E2EEC2AF0D7
:103A8800000E5E6E160E5E6401D012005E50010DCF
:103A9800170EF326000EF422A00EF324F66E740E11
:103AA800F420F76E0800F5CF0FF30F0E0301026F35
:103AB800030E0301036F400E0301046F000E0301A0
:103AC800066F010E056FD3EC2AF05E2ADBD70CC314
:103AD8000AF3000E2EEC2AF0000E5E6E160E5E64DF
:103AE80001D021D05E50010DA00EF324F66E740EA5
:103AF800F420F76E0800F5CF0FF30FC30EF30301A0
:103B08000F1F0F0E0301026F030E0301036F400E18
:103B18000301046F000E0301066F010E056FD3EC5D
:103B28002AF05E2ADBD70CC30AF3010E2EEC2AF02A
:103B3800000E5E6E160E5E6401D012005E50010D1E
:103B4800170EF326000EF422A00EF324F66E740E60
:103B5800F420F76E0800F5CF0FF30FC30EF303013F
:103B68000F1F0F0E0301026F030E0301036F400EB8
:103B78000301046F000E0301066F010E056FD3ECFD
:103B88002AF05E2AD7D703010D51000AD8B44BD7C3
:103B9800800AD8A412009BD7000E03010F6F000EF5
:103BA80003010E6FB0D00CC30AF3000E2EEC2AF0FE
:103BB800000E5E6E160E5E6401D01DD05E50010DC3
:103BC800CE0EF324F66E740EF420F76E0800F5CFCF
:103BD8000FF30F0E0301026F030E0301036F400E74
:103BE8000301046F000E0301066F010E056FD3EC8D
:103BF8002AF05E2ADFD70CC30AF3010E2EEC2AF056
:103C0800000E5E6E160E5E6401D012005E50010D4D
:103C1800170EF326000EF422CE0EF324F66E740E61
:103C2800F420F76E0800F5CF0FF30F0E0301026FB3
:103C3800030E0301036F400E0301046F000E03011E
:103C4800066F010E056FD3EC2AF05E2ADBD70CC392
:103C58000AF3000E2EEC2AF0000E5E6E160E5E645D
:103C680001D021D05E50010DCE0EF324F66E740EF5
:103C7800F420F76E0800F5CF0FF30FC30EF303011E
:103C88000F1F0F0E0301026F030E0301036F400E97
:103C98000301046F000E0301066F010E056FD3ECDC
:103CA8002AF05E2ADBD70CC30AF3010E2EEC2AF0A9
:103CB800000E5E6E160E5E6401D012005E50010D9D
:103CC800170EF326000EF422CE0EF324F66E740EB1
:103CD800F420F76E0800F5CF0FF30FC30EF30301BE
:103CE8000F1F0F0E0301026F030E0301036F400E37
:103CF8000301046F000E0301066F010E056FD3EC7C
:103D08002AF05E2AD7D703010D51000AD8B44BD741
:103D1800800AD8A412009BD7000E03010F6F000E73
:103D280003010E6FB0D00CC30AF3000E2EEC2AF07C
:103D3800000E5E6E160E5E6401D01DD05E50010D41
:103D48002A0EF324F66E750EF420F76E0800F5CFF0
:103D58000FF30F0E0301026F030E0301036F400EF2
:103D68000301046F000E0301066F010E056FD3EC0B
:103D78002AF05E2ADFD70CC30AF3010E2EEC2AF0D4
:103D8800000E5E6E160E5E6401D012005E50010DCC
:103D9800170EF326000EF4222A0EF324F66E750E83
:103DA800F420F76E0800F5CF0FF30F0E0301026F32
:103DB800030E0301036F400E0301046F000E03019D
:103DC800066F010E056FD3EC2AF05E2ADBD70CC311
:103DD8000AF3000E2EEC2AF0000E5E6E160E5E64DC
:103DE80001D021D05E50010D2A0EF324F66E750E17
:103DF800F420F76E0800F5CF0FF30FC30EF303019D
:103E08000F1F0F0E0301026F030E0301036F400E15
:103E18000301046F000E0301066F010E056FD3EC5A
:103E28002AF05E2ADBD70CC30AF3010E2EEC2AF027
:103E3800000E5E6E160E5E6401D012005E50010D1B
:103E4800170EF326000EF4222A0EF324F66E750ED2
:103E5800F420F76E0800F5CF0FF30FC30EF303013C
:103E68000F1F0F0E0301026F030E0301036F400EB5
:103E78000301046F000E0301066F010E056FD3ECFA
:103E88002AF05E2AD7D703010D51000AD8B44BD7C0
:103E9800800AD8A412009BD7000E03010F6F000EF2
:103EA80003010E6FB0D00CC30AF3000E2EEC2AF0FB
:103EB800000E5E6E160E5E6401D01DD05E50010DC0
:103EC800FC0EF324F66E740EF420F76E0800F5CF9E
:103ED8000FF30F0E0301026F030E0301036F400E71
:103EE8000301046F000E0301066F010E056FD3EC8A
:103EF8002AF05E2ADFD70CC30AF3010E2EEC2AF053
:103F0800000E5E6E160E5E6401D012005E50010D4A
:103F1800170EF326000EF422FC0EF324F66E740E30
:103F2800F420F76E0800F5CF0FF30F0E0301026FB0
:103F3800030E0301036F400E0301046F000E03011B
:103F4800066F010E056FD3EC2AF05E2ADBD70CC38F
:103F58000AF3000E2EEC2AF0000E5E6E160E5E645A
:103F680001D021D05E50010DFC0EF324F66E740EC4
:103F7800F420F76E0800F5CF0FF30FC30EF303011B
:103F88000F1F0F0E0301026F030E0301036F400E94
:103F98000301046F000E0301066F010E056FD3ECD9
:103FA8002AF05E2ADBD70CC30AF3010E2EEC2AF0A6
:103FB800000E5E6E160E5E6401D012005E50010D9A
:103FC800170EF326000EF422FC0EF324F66E740E80
:103FD800F420F76E0800F5CF0FF30FC30EF30301BB
:103FE8000F1F0F0E0301026F030E0301036F400E34
:103FF8000301046F000E0301066F010E056FD3EC79
:104008002AF05E2AD7D703010D51000AD8B44BD73E
:10401800800AD8A412009BD7000E03010F6F000E70
:1040280003010E6FB0D00CC30AF3000E2EEC2AF079
:10403800000E5E6E160E5E6401D01DD05E50010D3E
:10404800580EF324F66E750EF420F76E0800F5CFBF
:104058000FF30F0E0301026F030E0301036F400EEF
:104068000301046F000E0301066F010E056FD3EC08
:104078002AF05E2ADFD70CC30AF3010E2EEC2AF0D1
:10408800000E5E6E160E5E6401D012005E50010DC9
:10409800170EF326000EF422580EF324F66E750E52
:1040A800F420F76E0800F5CF0FF30F0E0301026F2F
:1040B800030E0301036F400E0301046F000E03019A
:1040C800066F010E056FD3EC2AF05E2ADBD70CC30E
:1040D8000AF3000E2EEC2AF0000E5E6E160E5E64D9
:1040E80001D021D05E50010D580EF324F66E750EE6
:1040F800F420F76E0800F5CF0FF30FC30EF303019A
:104108000F1F0F0E0301026F030E0301036F400E12
:104118000301046F000E0301066F010E056FD3EC57
:104128002AF05E2ADBD70CC30AF3010E2EEC2AF024
:10413800000E5E6E160E5E6401D012005E50010D18
:10414800170EF326000EF422580EF324F66E750EA1
:10415800F420F76E0800F5CF0FF30FC30EF3030139
:104168000F1F0F0E0301026F030E0301036F400EB2
:104178000301046F000E0301066F010E056FD3ECF7
:104188002AF05E2AD7D703010D51000AD8B44BD7BD
:10419800800AD8A412009BD7000E0001806F000E81
:1041A8000001836F000E0001816F81C082F0000E54
:1041B8000001846F000E0001856F1A0E0001866FE2
:1041C8002A0E0001876F000E0001886F000E0001A3
:1041D8008B6F000E0001896F89C08AF0000E000104
:1041E8008C6F000E00018D6F020E00018E6F510E54
:1041F80000018F6F000E0001906F000E0001936F99
:10420800000E0001916F91C092F0000E0001946FB2
:10421800000E0001956F4C0E0001966F500E0001C4
:10422800976F000E0001986F000E00019B6F000E43
:104238000001996F99C09AF0000E00019C6F000E62
:1042480000019D6FE00E00019E6F2F0E00019F6F11
:10425800000E0001A06F000E0001A36F000E000108
:10426800A16FA1C0A2F0000E0001A46F000E000112
:10427800A56F8E0E0001A66F360E0001A76F000E07
:104288000001A86F000E0001AB6F000E0001A96FBE
:10429800A9C0AAF0000E0001AC6F000E0001AD6FBE
:1042A800480E0001AE6F320E0001AF6F000E000124
:1042B800B06F000E0001B36F000E0001B16FB1C006
:1042C800B2F0000E0001B46F000E0001B56F8E0E43
:1042D8000001B66F170E0001B76F000E0001B86F2E
:1042E800000E0001BB6F000E0001B96F81C0BAF06B
:1042F800000E0001BC6F000E0001BD6F000E000132
:10430800BE6F000E0001BF6F000E286E000E2A6EF1
:10431800000E296E1200000E496E000E486E9ED0E7
:1043280046C044F0000E8AEC2BF0000E5E6E160EAE
:104338005E6401D019D05E50010D2A0EF324F66E8A
:10434800750EF420F76E0800F5CF49F0490E3C6E63
:10435800000E3D6E400E3E6E000E406E010E3F6E2A
:104368001EEC2BF05E2AE3D746C044F0010E8AEC1F
:104378002BF0000E5E6E160E5E6401D012005E50C9
:10438800010D170EF326000EF4222A0EF324F66E02
:10439800750EF420F76E0800F5CF49F0490E3C6E13
:1043A800000E3D6E400E3E6E000E406E010E3F6EDA
:1043B8001EEC2BF05E2ADFD746C044F0000E8AECD4
:1043C8002BF0000E5E6E160E5E6401D01CD05E509F
:1043D800010D2A0EF324F66E750EF420F76E080010
:1043E800F5CF49F049C048F0491E490E3C6E000E11
:1043F8003D6E400E3E6E000E406E010E3F6E1EEC8E
:104408002BF05E2AE0D746C044F0010E8AEC2BF070
:10441800000E5E6E160E5E6401D012005E50010D35
:10442800170EF326000EF4222A0EF324F66E750EEC
:10443800F420F76E0800F5CF49F049C048F0491E4E
:10444800490E3C6E000E3D6E400E3E6E000E406EF4
:10445800010E3F6E1EEC2BF05E2ADCD74750000A97
:10446800D8B45ED7800AD8A41200A6D7000E496E29
:10447800000E486E9ED046C044F0000E8AEC2BF029
:10448800000E5E6E160E5E6401D019D05E50010DEE
:10449800FC0EF324F66E740EF420F76E0800F5CFC8
:1044A80049F0490E3C6E000E3D6E400E3E6E000E09
:1044B800406E010E3F6E1EEC2BF05E2AE3D746C01D
:1044C80044F0010E8AEC2BF0000E5E6E160E5E6450
:1044D80001D012005E50010D170EF326000EF422D3
:1044E800FC0EF324F66E740EF420F76E0800F5CF78
:1044F80049F0490E3C6E000E3D6E400E3E6E000EB9
:10450800406E010E3F6E1EEC2BF05E2ADFD746C0D0
:1045180044F0000E8AEC2BF0000E5E6E160E5E6400
:1045280001D01CD05E50010DFC0EF324F66E740E03
:10453800F420F76E0800F5CF49F049C048F0491E4D
:10454800490E3C6E000E3D6E400E3E6E000E406EF3
:10455800010E3F6E1EEC2BF05E2AE0D746C044F0F9
:10456800010E8AEC2BF0000E5E6E160E5E6401D012
:1045780012005E50010D170EF326000EF422FC0EF9
:10458800F324F66E740EF420F76E0800F5CF49F0A8
:1045980049C048F0491E490E3C6E000E3D6E400E63
:1045A8003E6E000E406E010E3F6E1EEC2BF05E2A32
:1045B800DCD74750000AD8B45ED7800AD8A41200C6
:1045C800A6D7000E496E000E486E9ED046C044F035
:1045D800000E8AEC2BF0000E5E6E160E5E6401D0A3
:1045E80019D05E50010DCE0EF324F66E740EF42031
:1045F800F76E0800F5CF49F0490E3C6E000E3D6E8F
:10460800400E3E6E000E406E010E3F6E1EEC2BF00B
:104618005E2AE3D746C044F0010E8AEC2BF0000E68
:104628005E6E160E5E6401D012005E50010D170E0C
:10463800F326000EF422CE0EF324F66E740EF42048
:10464800F76E0800F5CF49F0490E3C6E000E3D6E3E
:10465800400E3E6E000E406E010E3F6E1EEC2BF0BB
:104668005E2ADFD746C044F0000E8AEC2BF0000E1D
:104678005E6E160E5E6401D01CD05E50010DCE0E2B
:10468800F324F66E740EF420F76E0800F5CF49F0A7
:1046980049C048F0491E490E3C6E000E3D6E400E62
:1046A8003E6E000E406E010E3F6E1EEC2BF05E2A31
:1046B800E0D746C044F0010E8AEC2BF0000E5E6E87
:1046C800160E5E6401D012005E50010D170EF3261F
:1046D800000EF422CE0EF324F66E740EF420F76E5C
:1046E8000800F5CF49F049C048F0491E490E3C6E14
:1046F800000E3D6E400E3E6E000E406E010E3F6E87
:104708001EEC2BF05E2ADCD74750000AD8B45ED7DF
:10471800800AD8A41200A6D7000E496E000E486E73
:104728009ED046C044F0000E8AEC2BF0000E5E6E60
:10473800160E5E6401D019D05E50010D580EF32498
:10474800F66E750EF420F76E0800F5CF49F0490EA5
:104758003C6E000E3D6E400E3E6E000E406E010E29
:104768003F6E1EEC2BF05E2AE3D746C044F0010EE4
:104778008AEC2BF0000E5E6E160E5E6401D01200FD
:104788005E50010D170EF326000EF422580EF32486
:10479800F66E750EF420F76E0800F5CF49F0490E55
:1047A8003C6E000E3D6E400E3E6E000E406E010ED9
:1047B8003F6E1EEC2BF05E2ADFD746C044F0000E99
:1047C8008AEC2BF0000E5E6E160E5E6401D01CD0D3
:1047D8005E50010D580EF324F66E750EF420F76E38
:1047E8000800F5CF49F049C048F0491E490E3C6E13
:1047F800000E3D6E400E3E6E000E406E010E3F6E86
:104808001EEC2BF05E2AE0D746C044F0010E8AEC7D
:104818002BF0000E5E6E160E5E6401D012005E5024
:10482800010D170EF326000EF422580EF324F66E2F
:10483800750EF420F76E0800F5CF49F049C048F02E
:10484800491E490E3C6E000E3D6E400E3E6E000E37
:10485800406E010E3F6E1EEC2BF05E2ADCD74750EF
:10486800000AD8B45ED7800AD8A41200A6D7000ED2
:10487800496E000E486E9ED046C044F0000E8AEC89
:104888002BF0000E5E6E160E5E6401D019D05E50DD
:10489800010DA00EF324F66E740EF420F76E0800D6
:1048A800F5CF49F0490E3C6E000E3D6E400E3E6E4F
:1048B800000E406E010E3F6E1EEC2BF05E2AE3D711
:1048C80046C044F0010E8AEC2BF0000E5E6E160E08
:1048D8005E6401D012005E50010D170EF326000E23
:1048E800F422A00EF324F66E740EF420F76E08007E
:1048F800F5CF49F0490E3C6E000E3D6E400E3E6EFF
:10490800000E406E010E3F6E1EEC2BF05E2ADFD7C4
:1049180046C044F0000E8AEC2BF0000E5E6E160EB8
:104928005E6401D01CD05E50010DA00EF324F66E1B
:10493800740EF420F76E0800F5CF49F049C048F02E
:10494800491E490E3C6E000E3D6E400E3E6E000E36
:10495800406E010E3F6E1EEC2BF05E2AE0D746C07B
:1049680044F0010E8AEC2BF0000E5E6E160E5E64AB
:1049780001D012005E50010D170EF326000EF4222E
:10498800A00EF324F66E740EF420F76E0800F5CF2F
:1049980049F049C048F0491E490E3C6E000E3D6E74
:1049A800400E3E6E000E406E010E3F6E1EEC2BF068
:1049B8005E2ADCD74750000AD8B45ED7800AD8A44C
:1049C8001200A6D7000E496E000E486E9ED046C053
:1049D80044F0000E8AEC2BF0000E5E6E160E5E643C
:1049E80001D019D05E50010D860EF324F66E750EB7
:1049F800F420F76E0800F5CF49F0490E3C6E000E22
:104A08003D6E400E3E6E000E406E010E3F6E1EEC77
:104A18002BF05E2AE3D746C044F0010E8AEC2BF057
:104A2800000E5E6E160E5E6401D012005E50010D1F
:104A3800170EF326000EF422860EF324F66E750E7A
:104A4800F420F76E0800F5CF49F0490E3C6E000ED1
:104A58003D6E400E3E6E000E406E010E3F6E1EEC27
:104A68002BF05E2ADFD746C044F0000E8AEC2BF00C
:104A7800000E5E6E160E5E6401D01CD05E50010DF5
:104A8800860EF324F66E750EF420F76E0800F5CF47
:104A980049F049C048F0491E490E3C6E000E3D6E73
:104AA800400E3E6E000E406E010E3F6E1EEC2BF067
:104AB8005E2AE0D746C044F0010E8AEC2BF0000EC7
:104AC8005E6E160E5E6401D012005E50010D170E68
:104AD800F326000EF422860EF324F66E750EF420EB
:104AE800F76E0800F5CF49F049C048F0491E490E55
:104AF8003C6E000E3D6E400E3E6E000E406E010E86
:104B08003F6E1EEC2BF05E2ADCD74750000AD8B463
:104B18005ED7800AD8A41200A6D70E0E0301116F23
:104B2800030E0301126F94D0250E03011719D8B490
:104B380005D00301175106EC2DF08AD0000E0301B1
:104B4800136F0CC3F6FF0DC3F7FF03010C4B0D2BBE
:104B58000800F5CF17F303011751000AD8B4120063
:104B6800640AD8B403D00D0AD8A472D011C3D9FFEF
:104B780012C3DAFFDECF15F3DDCF16F3020E030101
:104B88001127000E1223030116AF08D0030E0301EC
:104B980013130301156D161FD8B0162B010E030150
:104BA800176F050E03011719D8B416D00301175152
:104BB800020DB40EF324F66E750EF420F76E09009C
:104BC800F5500301155D0900F55003011659D8A0E9
:104BD80003D00301172BE5D713C310F3030E03010A
:104BE8001017D8B403D02D0E06EC2DF017C314F30C
:104BF80029D003011451020DB40EF324F66E750E7C
:104C0800F420F76E0900F5CF02F30A00F5CF03F39D
:104C180015C300F316C301F362EC29F000C307F3D0
:104C280001C308F3000E03010A6F0A0E096FD0ECE6
:104C380029F003010751300F0301176F03011751C2
:104C480006EC2DF00301140703011429D8A4D1D7C9
:104C58000CC3F6FF0DC3F7FF03010C4B0D2B080027
:104C6800F5CF17F303011751D8B412005DD7480EDA
:104C7800496E000E4A6E7DD0250E4F18D8B404D068
:104C88004F501AEC2DF075D0000E4B6E46C0F6FF53
:104C980047C0F7FF464A472A0800F5CF4FF04F5064
:104CA800000AD8B41200640AD8B403D00D0AD8A4F4
:104CB80060D049C0D9FF4AC0DAFFDECF4DF0DDCF62
:104CC8004EF0020E4926000E4A224EAE06D0030EC2
:104CD8004B124D6C4E1ED8B04E2A010E4F6E050E6B
:104CE8004F18D8B412D04F50020DB40EF324F66EFC
:104CF800750EF420F76E0900F5504D5C0900F5506B
:104D08004E58D8A002D04F2AEAD74BC048F0030E1D
:104D18004816D8B403D02D0E1AEC2DF04FC04CF025
:104D280024D04C50020DB40EF324F66E750EF42008
:104D3800F76E0900F5CF3CF00A00F5CF3DF04DC005
:104D48003AF04EC03BF084EC2AF03AC041F03BC048
:104D580042F0000E446E0A0E436EACEC2BF041504C
:104D6800300F4F6E4F501AEC2DF04C064C28D8A43B
:104D7800D8D746C0F6FF47C0F7FF464A472A08007B
:104D8800F5CF4FF04F50D8B4120076D743EC2BF044
:104D98009EEC29F0000E4D6E310E4D6401D008D006
:104DA800C30E3B6E500E3A6ECCEC2CF04D2AF4D765
:104DB80043EC2BF0470E466E000E476E010E2FECAB
:104DC8001CF0490E466E000E476E010E90EC23F063
:104DD800230E466E000E476E010E2FEC1CF0250EBA
:104DE800466E000E476E010EE5EC22F0000E466E90
:104DF800000E476E010E2FEC1CF0020E466E000EE0
:104E0800476E010E3BEC24F0310E466E000E476EE5
:104E1800010E6FEC09F03F0E466E040E476E000E51
:104E28006BEC13F0000E466E000E476E020E6FEC30
:104E380009F00E0E466E010E476E000E6BEC13F075
:104E4800310E466E000E476E010E82EC16F03F0ED4
:104E5800466E020E476E030E6BEC13F0000E466EA4
:104E6800000E476E020E82EC16F00E0E466E030E12
:104E7800476E030E6BEC13F0010E026E010E1F6EEF
:104E88009C0E1E6E040E086E010E096E000E0A6E50
:104E9800000E0C6E140E0B6E8C0E0D6E1200210E91
:104EA8000101006F000E3C6E010E3D6E000E3E6E5D
:104EB800000E406E010E3F6E1EEC2BF0150E010128
:104EC800006F000E3C6E010E3D6E000E3E6E000E31
:104ED800406E010E3F6E1EEC2BF0080E0101006FB4
:104EE800000E3C6E010E3D6E000E3E6E000E406ED2
:104EF800010E3F6E1EEC2BF09F0E0101006F000E9D
:104F08003C6E010E3D6E000E3E6E000E406E010EB0
:104F18003F6E1EEC2BF0200E0101006F000E3C6E60
:104F2800010E3D6E000E3E6E000E406E010E3F6E8D
:104F38001EEC2BF0050E0101006F000E3C6E010EF9
:104F48003D6E000E3E6E000E406E010E3F6E1EEC72
:104F58002BF00C0E0101006F000E3C6E010E3D6E31
:104F6800000E3E6E000E406E010E3F6E1EEC2BF0E2
:104F78001200000E0301196F000E186F83BC36D0A3
:104F8800050E0301006F000E016F000E026F000E88
:104F9800036F5BEC2AF083AC0BD028D00301184BCD
:104FA800192BC30E0301016F500E006F84EC2CF017
:104FB80083ACF4D7B1EC2CF00301195105E1650E6F
:104FC8000301185DD8A010D0010E396E610E0301DF
:104FD8000C6F7F0E03010D6F91EC25F0040E026E2D
:104FE800F29AD59E000E1200F10E120083BE13D065
:104FF800050E0301006F000E016F000E026F000E18
:10500800036F5BEC2AF083BE06D083AEFED7B1EC0B
:105018002CF0F20E120081B613D0050E0301006FBA
:10502800000E016F000E026F000E036F5BEC2AF09A
:1050380081B606D081A6FED7B1EC2CF0F30E120093
:10504800000E12000301106F4ED0030E00019119DB
:10505800D8B409D0030E2818D8A402D0800E01D0E5
:10506800000E0001916F0001915100019219D8B40E
:105078001200000E03010C6F91C00DF3010E3DEC00
:105088001AF0020E03010C6F91C00DF3010E10EC23
:105098001DF091C092F01200030E00019119D8B4CE
:1050A80009D0030E2818D8A402D0800E01D0000E13
:1050B8000001916F0001915100019219D8B41200BA
:1050C800000E03010C6F91C00DF3010E3DEC1AF0B8
:1050D800020E03010C6F91C00DF3010E10EC1DF0D0
:1050E80091C092F0120003011051F10AD8B4ADD763
:1050F800030AD8B4D1D7010A12000301106F4ED0A9
:10510800030E00018919D8B41200020E2818D8A479
:1051180002D0800E01D0000E0001896F0001895174
:1051280000018A19D8B41200230E03010C6F89C03C
:105138000DF3010E3DEC1AF0250E03010C6F89C02A
:105148000DF3010ED0EC1DF089C08AF01200030E99
:1051580000018919D8B41200020E2818D8A402D068
:10516800800E01D0000E0001896F000189510001F5
:105178008A19D8B41200230E03010C6F89C00DF3ED
:10518800010E3DEC1AF0250E03010C6F89C00DF3DA
:10519800010ED0EC1DF089C08AF0120003011051F5
:1051A800F10AD8B4ADD7030AD8B4D1D7010A12008E
:1051B800560EF66E5A0EF76E000EF86E00EEF9F007
:1051C80010EE06F00900F5CFEEFFE550E150FAE1E8
:1051D8005C0EF66E5A0EF76E000EF86E00EE5EF07C
:1051E80010EE04F00900F5CFEEFFE550E150FAE1CA
:1051F80002EE00F011EE00F0EE6AE550E150FCE13D
:10520800E250FAE101EE00F011EE00F0EE6AE5502E
:10521800E150FCE1E250FAE100EE80F0790EEE6A2E
:10522800E806FDE100EE01F0390EEE6AE806FDE160
:1052380062906292000EF86E000109EF00F003011F
:10524800016F000E0301026F000E0301026F070ECB
:105258000301026501D028D003010251080D010E97
:10526800F326000EF422800EF324D96E000EF420EB
:10527800DA6E030EDE18D8A403D0000E0301016F06
:105288000301022BE4D7070E2818D8A403D0010E77
:10529800286E1200282A12002850D8A403D0070E1E
:1052A800286E12002806120003010151F10AD8B431
:1052B800EAD7030AD8B4F0D7010A1200000E030196
:1052C800066F000E056F0301025103010311D8B4E4
:1052D8002CD0010E0301046F06D00301D8900237C9
:1052E80003370301042B030103AFF7D70301D89059
:1052F80005370637030102510301005D030103511D
:1053080003010159D8A00AD0030102510301005F2B
:10531800030103510301015B030105810301D890D7
:10532800033302330301042FE1D705C300F306C397
:1053380001F31200000E496E080E496401D01200F4
:10534800000E446E49508AEC2BF0000E0101006FEC
:10535800000E486E620E486401D01CD04950620DA0
:10536800BE0E466E750E476EF3504626F450472221
:105378004850010DF35046243C6EF45047203D6ED2
:10538800400E3E6E000E406E010E3F6E1EEC2BF07E
:10539800482AE0D7492AD0D70301095103010A1145
:1053A800D8B426D0010E03010B6F06D00301D890A4
:1053B80009370A3703010B2B03010AAFF7D703019B
:1053C80009510301075D03010A5103010859D8A0D7
:1053D80008D0030109510301075F03010A510301C2
:1053E800085B0301D8900A33093303010B2FE7D771
:1053F80007C307F308C308F31200000E03011A6F6E
:10540800BDEC27F003011A6F03011A5123EC29F0B0
:1054180003011A510301D8B4120003011A510DEC0B
:1054280015F003011A5181EC28F003011A5126ECFA
:1054380028F003011A51F0EC17F003011A5147EC58
:105448001BF003011A5124EC19F003011A51C7EC9F
:105458000BF0120003010B6F03010A51800F0101C9
:10546800006F000E0301026F010E0301036F000EAF
:105478000301046F000E0301066F010E056FD3ECE4
:105488002AF003010B51400F0101006F000E0301C8
:10549800026F010E0301036F000E0301046F000E7B
:1054A8000301066F010E056FD3EC2AF01200000EFF
:1054B8000301056F000E046F18D0000E0301056F7D
:1054C800000E046F880E0301045D130E03010559D5
:1054D800D8B005D000F00301044B052BF3D7030126
:1054E8000007000E015B025B035B0301005103012F
:1054F80001110301021103010311D8B41200DDD711
:10550800000E3F6E000E3E6E3C503D10D8B41CD0CD
:10551800010E406E04D0D8903C363D36402A3DAE50
:10552800FAD7D8903E363F363C503A5C3D503B580F
:10553800D8A005D03C503A5E3D503B5A3E80D890AA
:105548003D323C32402EEDD73EC03AF03FC03BF0F2
:1055580012000DEC2DF08D92000E0301016F010E6B
:10556800006FF9EC2AF08D82000E0301016F010E25
:10557800006FF9EC2AF0250E0101006F000E0301FF
:10558800026F010E0301036F000E0301046F000E8A
:105598000301066F010E056FD3EC2AF0120004C355
:1055A80009F3D9EC2CF0780E67EC2BF039EC2CF0E1
:1055B8000301095167EC2BF039EC2CF002C3F6FF1C
:1055C80003C3F7FFF86A050EF76403D00800F55027
:1055D80005D0F6CFE9FFF7CFEAFFEF5067EC2BF0E5
:1055E80039EC2CF014EC2DF01200000E0301036FBF
:1055F800000E026F14D0000E0301056F000E046F39
:10560800100E0301045D270E03010559D8B004D01C
:105618000301044B052BF4D70301024B032B0301B1
:1056280000510301025D0301015103010359D8B080
:105638001200E1D73EC043F0E4EC2CF0780EECEC1D
:105648002BF061EC2CF04350ECEC2BF061EC2CF0DF
:105658003CC0F6FF3DC0F7FFF86A050EF76403D0BB
:105668000800F55005D0F6CFE9FFF7CFEAFFEF5075
:10567800ECEC2BF061EC2CF020EC2DF01200000E7D
:10568800476E080E476401D01200000E446E475062
:105698008AEC2BF0000E0101006F000E466E620EC0
:1056A800466401D00ED0000E3C6E010E3D6E400ED9
:1056B8003E6E000E406E010E3F6E1EEC2BF0462A29
:1056C800EED7472ADED70301006F000E0301016FF2
:1056D800070E0301016501D01200030100AF02D0DB
:1056E8008B8601D08B9638EC2DF08B8838EC2DF01A
:1056F8008B98070E03010119D8B48B860301D89043
:10570800003738EC2DF00301012BE2D7456E4450E9
:10571800800F0101006F000E3C6E010E3D6E000E01
:105728003E6E000E406E010E3F6E1EEC2BF0455093
:10573800400F0101006F000E3C6E010E3D6E000E21
:105748003E6E000E406E010E3F6E1EEC2BF01200F6
:1057580043504410D8B418D0010E456E04D0D890E8
:1057680043364436452A44AEFAD74350415C445048
:105778004258D8A004D04350415E4450425AD89071
:1057880044324332452EF1D741C041F042C042F085
:105798001200000E3F6E000E3E6E13D0000E3F6EDC
:1057A800000E3E6E880E3E5C130E3F58D8B004D0F3
:1057B80000F03E4A3F2AF6D73A06000E3B5A3C5ABA
:1057C8003D5A3A503B103C103D10D8B41200E6D771
:1057D8003A6E000E3B6E070E3B6401D012003AAEE3
:1057E80002D08B8601D08B9639EC2DF08B8839EC62
:1057F8002DF08B98070E3B18D8B48B86D8903A3684
:1058080039EC2DF03B2AE7D70301005103010203CD
:10581800F3CF04F3F4CF05F30301005103010303AD
:10582800F350030105270301015103010203F3505B
:105838000301052704C300F305C301F31200929A7C
:105848009494959095929482928894809384959854
:1058580095949596898A8C908C928C948C968B844E
:105868008C88F198F092F08812008B8638EC2DF035
:105878008B88948638EC2DF082A602D0010E01D0D8
:10588800000E0301006F8B98949638EC2DF00301FD
:105898000051120007D000F003010607000E075B55
:1058A800085B095B03010651030107110301081195
:1058B80003010911D8B41200EED78B8639EC2DF00C
:1058C8008B88948639EC2DF082A602D0010E01D087
:1058D800000E3A6E8B98949639EC2DF03A501200DF
:1058E8000C0EC16E93869388958C958E938A9380BF
:1058F8009286F19CF292F288F286F28CF28E120075
:10590800000ECF6E000ECE6ECD8003010051CE5C2E
:1059180003010151CF58D8A0F8D7CD90120026EC3A
:105928002DF030EC2DF032EC2DF0ADEC2AF0D0EC6F
:1059380020F074EC2CF0A2EC2CF01200D59AD5963D
:10594800D584D592D580D58CF294000ED76E000EF2
:10595800D66EF28AF28ED58E12008D84010E030166
:10596800006F000E016F000E026F000E036F5BECFC
:105978002AF08D9412008D84010E3A6E000E3B6E53
:10598800000E3C6E000E3D6ECDEC2BF08D94120097
:10599800000ECF6E000ECE6ECD803A50CE5C3B50DE
:1059A800CF58D8A0FAD7CD9012008B868B8838ECC8
:1059B8002DF08B9638EC2DF08B9838EC2DF01200EA
:1059C8008B868B8839EC2DF08B9639EC2DF08B98E3
:1059D80039EC2DF01200928092829284C050C70B4D
:1059E8002009C06EC2801200948E949C190EAF6E6E
:1059F800AB8EAC8A1200CD50CF0B2009CD6ECD8E68
:105A0800CD9012000301006F00C3ADFFACB21200CD
:105A1800FDD794968B9694988B9896928D921200B7
:105A28008B968B8838EC2DF08B8612003A6E3AC034
:105A3800ADFFACB21200FDD78B968B8839EC2DF0F8
:105A48008B86120096948D94959A8C8A12000A007F
:105A58000A00040166010101969012008D9012005F
:0C5A68008D9012008D80120012001200C0
:10731000000F1020202020202020202020202020AE
:10732000202020202020202020202020202020205D
:1073300020202020202020202020202F2723211043
:107340000FFF001F0804081F001F0804081F00008B
:10735000000000000000000000000000000000002D
:10736000000406070770888888FF000000000000FE
:10737000FFC020101010101010101010101010105E
