:0400000007EF00F016
:100008006A8232ED14F048EF22F00101346F000EDD
:100018000101356F000E0101336F01013405D8A4C9
:100028004AD1010132510101D8A480D031C1FFF079
:10003800020E8EEC24F0000E696E2F0E696401D05A
:100048001DD06950010D150EF324F66E740EF420C0
:10005800F76E0800F5CF35F1350E0101286F010E56
:100068000101296F400E01012A6F000E01012C6F5A
:10007800010E2B6F88EC25F0692ADFD731C1FFF01C
:10008800030E8EEC24F0000E696E2F0E696401D009
:1000980021D06950010D300EF326000EF422150E02
:1000A800F324F66E740EF420F76E0800F5CF35F1E0
:1000B800350E0101286F010E0101296F400E010163
:1000C8002A6F000E01012C6F010E2B6F88EC25F0B2
:1000D800692ADBD731C1FFF0040E8EEC24F0000E44
:1000E800696E2F0E696401D012006950010D600E0F
:1000F800F326000EF422150EF324F66E740EF42087
:10010800F76E0800F5CF35F1350E0101286F010EA5
:100118000101296F400E01012A6F000E01012C6FA9
:10012800010E2B6F88EC25F0692ADBD7800E0101C0
:100138003219D8A4120031C1FFF0020E8EEC24F05F
:10014800000E696E2F0E696401D036D06950010D1A
:10015800150EF324F66E740EF420F76E0800F5CF32
:1001680035F16950D8B404D02F0E6918D8A402D03C
:100178000F0E08D06904D8B404D02E0E6918D8A47C
:1001880004D01F0E0101356F05D00101351F3F0E48
:1001980001013517350E0101286F010E0101296F84
:1001A800400E01012A6F000E01012C6F010E2B6F0A
:1001B80088EC25F0692AC6D731C1FFF0030E8EEC12
:1001C80024F0000E696E2F0E696401D02DD069509D
:1001D800010D300EF326000EF422150EF324F66EF0
:1001E800740EF420F76E0800F5CF35F16950D8B4D5
:1001F80004D02F0E6918D8A403D00101356902D0A4
:100208000101351F350E0101286F010E0101296F0B
:10021800400E01012A6F000E01012C6F010E2B6F99
:1002280088EC25F0692ACFD731C1FFF0040E8EEC97
:1002380024F0000E696E2F0E696401D01200695017
:10024800010D600EF326000EF422150EF324F66E4F
:10025800740EF420F76E0800F5CF35F16950D8B464
:1002680004D02F0E6918D8A402D0E00E08D0690473
:10027800D8B404D02E0E6918D8A404D0F00E010109
:10028800356F07D00101351FF00E01013517010147
:100298003589350E0101286F010E0101296F400EC5
:1002A80001012A6F000E01012C6F010E2B6F88ECE3
:1002B80025F0692AC0D7020E01013419D8A412000A
:1002C800010132510101D8A480D031C1FFF0020EE2
:1002D8008EEC24F0000E696E2F0E696401D01DD0DB
:1002E8006950010D850EF324F66E730EF420F76E37
:1002F8000800F5CF35F1350E0101286F010E010117
:10030800296F400E01012A6F000E01012C6F010EAA
:100318002B6F88EC25F0692ADFD731C1FFF0030E77
:100328008EEC24F0000E696E2F0E696401D021D086
:100338006950010D300EF326000EF422850EF324C9
:10034800F66E730EF420F76E0800F5CF35F1350E12
:100358000101286F010E0101296F400E01012A6F6A
:10036800000E01012C6F010E2B6F88EC25F0692A15
:10037800DBD731C1FFF0040E8EEC24F0000E696E5D
:100388002F0E696401D012006950010D600EF3262A
:10039800000EF422850EF324F66E730EF420F76E29
:1003A8000800F5CF35F1350E0101286F010E010166
:1003B800296F400E01012A6F000E01012C6F010EFA
:1003C8002B6F88EC25F0692ADBD7800E01013219E2
:1003D800D8A4120031C1FFF0020E8EEC24F0000EFA
:1003E800696E2F0E696401D036D06950010D850EF3
:1003F800F324F66E730EF420F76E0800F5CF35F18E
:100408006950D8B404D02F0E6918D8A402D00F0EA2
:1004180008D06904D8B404D02E0E6918D8A404D022
:100428001F0E0101356F05D00101351F3F0E010177
:100438003517350E0101286F010E0101296F400E95
:1004480001012A6F000E01012C6F010E2B6F88EC41
:1004580025F0692AC6D731C1FFF0030E8EEC24F0CF
:10046800000E696E2F0E696401D02DD06950010D00
:10047800300EF326000EF422850EF324F66E730E6A
:10048800F420F76E0800F5CF35F16950D8B404D0E0
:100498002F0E6918D8A403D00101356902D00101D3
:1004A800351F350E0101286F010E0101296F400E1D
:1004B80001012A6F000E01012C6F010E2B6F88ECD1
:1004C80025F0692ACFD731C1FFF0040E8EEC24F055
:1004D800000E696E2F0E696401D012006950010D7B
:1004E800600EF326000EF422850EF324F66E730ECA
:1004F800F420F76E0800F5CF35F16950D8B404D070
:100508002F0E6918D8A402D0E00E08D06904D8B418
:1005180004D02E0E6918D8A404D0F00E0101356F4E
:1005280007D00101351FF00E01013517010135898A
:10053800350E0101286F010E0101296F400E0101DE
:100548002A6F000E01012C6F010E2B6F88EC25F02D
:10055800692AC0D70101336F000E0101356F000E03
:100568000101346F01013305D8A41AD101013251B8
:100578000101D8A480D031C1FFF0020E8EEC24F026
:10058800000E696E120E696401D01DD06950010D0C
:10059800A50EF324F66E740EF420F76E0800F5CF5E
:1005A80035F1350E0101286F010E0101296F400E4A
:1005B80001012A6F000E01012C6F010E2B6F88ECD0
:1005C80025F0692ADFD731C1FFF0030E8EEC24F045
:1005D800000E696E120E696401D021D06950010DB8
:1005E800130EF326000EF422A50EF324F66E740EF5
:1005F800F420F76E0800F5CF35F1350E0101286FAC
:10060800010E0101296F400E01012A6F000E010140
:100618002C6F010E2B6F88EC25F0692ADBD731C1CE
:10062800FFF0040E8EEC24F0000E696E120E696461
:1006380001D012006950010D260EF326000EF42297
:10064800A50EF324F66E740EF420F76E0800F5CFAD
:1006580035F1350E0101286F010E0101296F400E99
:1006680001012A6F000E01012C6F010E2B6F88EC1F
:1006780025F0692ADBD7800E01013219D8A41200AF
:1006880031C1FFF0020E8EEC24F0000E696E120EDE
:10069800696401D024D06950010DA50EF324F66ECB
:1006A800740EF420F76E0800F5CF35F135C134F13A
:1006B8000101351F3F0E01013517350E0101286F65
:1006C800010E0101296F400E01012A6F000E010180
:1006D8002C6F010E2B6F88EC25F0692AD8D731C111
:1006E800FFF0030E8EEC24F0000E696E120E6964A2
:1006F80001D025D06950010D130EF326000EF42207
:10070800A50EF324F66E740EF420F76E0800F5CFEC
:1007180035F135C134F10101351F350E0101286F5E
:10072800010E0101296F400E01012A6F000E01011F
:100738002C6F010E2B6F88EC25F0692AD7D731C1B1
:10074800FFF0040E8EEC24F0000E696E120E696440
:1007580001D012006950010D260EF326000EF42276
:10076800A50EF324F66E740EF420F76E0800F5CF8C
:1007780035F135C134F1F00E0101356F350E010147
:10078800286F010E0101296F400E01012A6F000E2A
:1007980001012C6F010E2B6F88EC25F0692AD6D742
:1007A800020E01013319D8A41200010132510101CE
:1007B800D8A480D031C1FFF0050E8EEC24F0000ED5
:1007C800696E120E696401D01DD06950010DA50E25
:1007D800F324F66E740EF420F76E0800F5CF35F1A9
:1007E800350E0101286F010E0101296F400E01012C
:1007F8002A6F000E01012C6F010E2B6F88EC25F07B
:10080800692ADFD731C1FFF0060E8EEC24F0000E06
:10081800696E120E696401D021D06950010D130E62
:10082800F326000EF422A50EF324F66E740EF420BF
:10083800F76E0800F5CF35F1350E0101286F010E6E
:100848000101296F400E01012A6F000E01012C6F72
:10085800010E2B6F88EC25F0692ADBD731C1FFF038
:10086800070E8EEC24F0000E696E120E696401D03A
:1008780012006950010D260EF326000EF422A50E73
:10088800F324F66E740EF420F76E0800F5CF35F1F8
:10089800350E0101286F010E0101296F400E01017B
:1008A8002A6F000E01012C6F010E2B6F88EC25F0CA
:1008B800692ADBD7800E01013219D8A4120031C190
:1008C800FFF0050E8EEC24F0000E696E120E6964BE
:1008D80001D024D06950010DA50EF324F66E740ED4
:1008E800F420F76E0800F5CF35F135C134F1010178
:1008F800351F3F0E01013517350E0101286F010E16
:100908000101296F400E01012A6F000E01012C6FB1
:10091800010E2B6F88EC25F0692AD8D731C1FFF07A
:10092800060E8EEC24F0000E696E120E696401D07A
:1009380025D06950010D130EF326000EF422A50EE2
:10094800F324F66E740EF420F76E0800F5CF35F137
:1009580035C134F10101351F350E0101286F010E33
:100968000101296F400E01012A6F000E01012C6F51
:10097800010E2B6F88EC25F0692AD7D731C1FFF01B
:10098800070E8EEC24F0000E696E120E696401D019
:1009980012006950010D260EF326000EF422A50E52
:1009A800F324F66E740EF420F76E0800F5CF35F1D7
:1009B80035C134F1F00E0101356F350E0101286F94
:1009C800010E0101296F400E01012A6F000E01017D
:1009D8002C6F010E2B6F88EC25F0692AD6D7010100
:1009E800386FEED1030E3218D8A408D0362A030E79
:1009F8003618D8A41200000E366E1200070E4F18D3
:100A0800D8A402D0800E01D0000E326E32503318B6
:100A1800D8B412004D50D8B404D0020E4D18D8A442
:100A280009D0000E0101316F32C032F1020ECDEC57
:100A380008F00BD04D04D8A408D0000E0101316F86
:100A480032C032F1030ECDEC08F03650D8A420D0D5
:100A58004D50D8B404D0020E4D18D8A40BD00E0EA9
:100A68000101316F325003090101326F030EF0ECBE
:100A780006F054D04D04D8A451D0110E0101316FA5
:100A8800325067090101326F030EF0EC06F046D0D0
:100A98003604D8A420D04D50D8B404D0020E4D1836
:100AA800D8A40BD00E0E0101316F32500309010199
:100AB800326F030EF0EC06F031D04D04D8A42ED0DE
:100AC800110E0101316F325066090101326F030EB8
:100AD800F0EC06F023D0020E3618D8A41FD04D50E3
:100AE800D8B404D0020E4D18D8A40BD00E0E0101B4
:100AF800316F325003090101326F030EF0EC06F03A
:100B08000DD04D04D8A40AD0110E0101316F325016
:100B180065090101326F030EF0EC06F032C033F0C4
:100B28001200030E3218D8A407D036063628D8A4E7
:100B38001200020E366E1200070E4F18D8A402D00B
:100B4800800E01D0000E326E32503318D8B4120025
:100B58004D50D8B404D0020E4D18D8A409D0000EB8
:100B68000101316F32C032F1020ECDEC08F00BD02A
:100B78004D04D8A408D0000E0101316F32C032F103
:100B8800030ECDEC08F03650D8A420D04D50D8B480
:100B980004D0020E4D18D8A40BD00E0E0101316FEF
:100BA800325003090101326F030EF0EC06F054D005
:100BB8004D04D8A451D0110E0101316F325067098C
:100BC8000101326F030EF0EC06F046D03604D8A4CB
:100BD80020D04D50D8B404D0020E4D18D8A40BD054
:100BE8000E0E0101316F325003090101326F030EFD
:100BF800F0EC06F031D04D04D8A42ED0110E01012E
:100C0800316F325066090101326F030EF0EC06F0C5
:100C180023D0020E3618D8A41FD04D50D8B404D013
:100C2800020E4D18D8A40BD00E0E0101316F3250B0
:100C380003090101326F030EF0EC06F00DD04D04EC
:100C4800D8A40AD0110E0101316F32506509010193
:100C5800326F030EF0EC06F032C033F01200800E53
:100C68003218D8A405D0030E326E010E4E6E06D08F
:100C7800030E3218D8A402D0000E326E3250331848
:100C8800D8B412003250D8A498D04D50D8B404D05B
:100C9800020E4D18D8A40AD0000E0101316F000EC3
:100CA8000101326F020ECDEC08F00CD04D04D8A42F
:100CB80009D0000E0101316F000E0101326F030EE1
:100CC800CDEC08F03650D8A425D04D50D8B404D077
:100CD800020E4D18D8A40AD00E0E0101316F030E72
:100CE8000101326F030EF0EC06F050D04D04D8A489
:100CF80064D0110E0101316F3A5067090101326F5A
:100D0800030EF0EC06F0670E356E070E00019C6FBF
:100D1800D00E52D03604D8A425D04D50D8B404D023
:100D2800020E4D18D8A40AD00E0E0101316F030E21
:100D38000101326F030EF0EC06F028D04D04D8A460
:100D48003CD0110E0101316F3A5066090101326F32
:100D5800030EF0EC06F0660E356E0B0E00019C6F6C
:100D6800B80E2AD0020E3618D8A427D04D50D8B4C1
:100D780004D0020E4D18D8A40CD00E0E0101316F0C
:100D8800030E0101326F030EF0EC06F0030E356E10
:100D980014D04D04D8A411D0110E0101316F3A506E
:100DA80065090101326F030EF0EC06F0650E356E31
:100DB8000F0E00019C6FA00E9B6F32C033F0120023
:100DC80001013851F10AD8B40DD6030AD8B4A9D60E
:100DD800010AD8A4120043D70101366F000E0101A1
:100DE800376F000E0101356F41D0A30E4B6E7E0E9A
:100DF8003BD06A0E4B6E7E0E37D0BF0E4B6E7D0E0B
:100E080033D0860E4B6E7D0E2FD04D0E4B6E7D0E61
:100E18002BD0DB0E4B6E7C0E27D0140E4B6E7D0E46
:100E280023D0A20E4B6E7C0E1FD0690E4B6E7C0E2B
:100E38001BD0300E4B6E7C0E17D0BE0E4B6E7B0E49
:100E480013D0F70E4B6E7B0E0FD04C0E4B6E7B0EF5
:100E58000BD0850E4B6E7B0E07D0310E4B6E7E0E7F
:100E680003D0F80E4B6E7D0E4C6E3DD00101325111
:100E78007F0B0101336F346B01013451000AD8A490
:100E880032D001013351000AD8B4AFD7010AD8B41F
:100E9800B0D7030AD8B4B1D7010AD8B4B2D7070A71
:100EA800D8B4B3D7010AD8B4B4D7030AD8B4B5D7DD
:100EB8000C0AD8B4B6D7070AD8B4B7D7690AD8B4D1
:100EC800B8D7010AD8B4B9D7030AD8B4BAD7010A2F
:100ED800D8B4BBD70F0AD8B4BCD7010AD8B4BDD789
:100EE800030AD8B4BED7010132BFA0D031C1FFF088
:100EF80001013651020F8EEC24F0000E696E120EBD
:100F0800696401D025D06950010D4BC033F14CC044
:100F180034F1F35001013327F4500101342333C174
:100F2800F6FF34C1F7FF0800F5CF37F1370E01019E
:100F3800286F010E0101296F400E01012A6F000E72
:100F480001012C6F010E2B6F88EC25F0692AD7D789
:100F580031C1FFF001013651030F8EEC24F0000E71
:100F6800696E120E696401D02AD06950010D4BC018
:100F780033F14CC034F1F35001013327F45001012F
:100F88003423130E01013327000E342333C1F6FF37
:100F980034C1F7FF0800F5CF37F1370E0101286F8C
:100FA800010E0101296F400E01012A6F000E010197
:100FB8002C6F010E2B6F88EC25F0692AD2D731C12E
:100FC800FFF001013651040F8EEC24F0000E696E1B
:100FD800120E696401D012006950010D4BC033F143
:100FE8004CC034F1F35001013327F450010134238C
:100FF800260E01013327000E342333C1F6FF34C116
:10100800F7FF0800F5CF37F1370E0101286F010E01
:101018000101296F400E01012A6F000E01012C6F9A
:10102800010E2B6F88EC25F0692AD2D7010132AF67
:10103800120031C1FFF001013651020F8EEC24F08D
:10104800000E696E120E696401D02CD06950010D32
:101058004BC033F14CC034F1F35001013327F45045
:101068000101342333C1F6FF34C1F7FF0800F5CF7F
:1010780037F137C135F10101371F3F0E010137172D
:10108800370E0101286F010E0101296F400E010181
:101098002A6F000E01012C6F010E2B6F88EC25F0D2
:1010A800692AD0D731C1FFF001013651030F8EEC08
:1010B80024F0000E696E120E696401D02ED06950BA
:1010C800010D4BC033F14CC034F1F350010133270B
:1010D800F45001013423130E01013327000E342389
:1010E80033C1F6FF34C1F7FF0800F5CF37F137C138
:1010F80035F10101371F370E0101286F010E01017B
:10110800296F400E01012A6F000E01012C6F010E9C
:101118002B6F88EC25F0692ACED731C1FFF0010189
:101128003651040F8EEC24F0000E696E120E6964BD
:1011380001D012006950010D4BC033F14CC034F19D
:10114800F35001013327F45001013423260E010125
:101158003327000E342333C1F6FF34C1F7FF0800EC
:10116800F5CF37F137C135F1F00E0101376F370E82
:101178000101286F010E0101296F400E01012A6F3C
:10118800000E01012C6F010E2B6F88EC25F0692AE7
:10119800CDD70101366F000E0101376F000E010136
:1011A800356F11D0BC0E456E7A0E0BD02C0E456EE5
:1011B8007A0E07D09C0E456E790E03D00C0E456E44
:1011C800790E466E0ED001013651010AD8B4EAD71D
:1011D800030AD8B4EBD7010AD8B4ECD7070AD8B4B5
:1011E800EDD7010132510101D8A49AD031C1FFF0E5
:1011F800050E8EEC24F0000E696E2F0E696401D086
:1012080025D06950010D45C033F146C034F1F35083
:1012180001013327F4500101342333C1F6FF34C1EF
:10122800F7FF0800F5CF37F1370E0101286F010EDF
:101238000101296F400E01012A6F000E01012C6F78
:10124800010E2B6F88EC25F0692AD7D731C1FFF042
:10125800060E8EEC24F0000E696E2F0E696401D024
:101268002AD06950010D45C033F146C034F1F3501E
:1012780001013327F45001013423300E01013327D3
:10128800000E342333C1F6FF34C1F7FF0800F5CF51
:1012980037F1370E0101286F010E0101296F400E49
:1012A80001012A6F000E01012C6F010E2B6F88ECD3
:1012B80025F0692AD2D731C1FFF0070E8EEC24F051
:1012C800000E696E2F0E696401D012006950010D7D
:1012D80045C033F146C034F1F35001013327F450CF
:1012E80001013423600E01013327000E342333C17A
:1012F800F6FF34C1F7FF0800F5CF37F1370E0101CB
:10130800286F010E0101296F400E01012A6F000E9E
:1013180001012C6F010E2B6F88EC25F0692AD2D7BA
:10132800800E01013219D8A4120031C1FFF0050E58
:101338008EEC24F0000E696E2F0E696401D03ED049
:101348006950010D45C033F146C034F1F350010135
:101358003327F4500101342333C1F6FF34C1F7FFBA
:101368000800F5CF37F16950D8B404D02F0E6918AA
:10137800D8A402D00F0E08D06904D8B404D02E0E19
:101388006918D8A404D01F0E0101376F05D00101D8
:10139800371F3F0E01013717370E0101286F010E65
:1013A8000101296F400E01012A6F000E01012C6F07
:1013B800010E2B6F88EC25F0692ABED731C1FFF0EA
:1013C800060E8EEC24F0000E696E2F0E696401D0B3
:1013D80036D06950010D45C033F146C034F1F350A1
:1013E80001013327F45001013423300E0101332762
:1013F800000E342333C1F6FF34C1F7FF0800F5CFE0
:1014080037F16950D8B404D02F0E6918D8A403D086
:101418000101376902D00101371F370E0101286F1A
:10142800010E0101296F400E01012A6F000E010112
:101438002C6F010E2B6F88EC25F0692AC6D731C1B5
:10144800FFF0070E8EEC24F0000E696E2F0E696413
:1014580001D012006950010D45C033F146C034F186
:10146800F35001013327F45001013423600E0101C8
:101478003327000E342333C1F6FF34C1F7FF0800C9
:10148800F5CF37F16950D8B404D02F0E6918D8A415
:1014980002D0E00E08D06904D8B404D02E0E691822
:1014A800D8A404D0F00E0101376F07D00101371F0F
:1014B800F00E0101371701013789370E0101286F36
:1014C800010E0101296F400E01012A6F000E010172
:1014D8002C6F010E2B6F88EC25F0692AB7D7000E08
:1014E80001012F6F000E2E6F00019F05D8A48FD029
:1014F8000D0E00019719D8A443D0000E0001A66F65
:10150800000EA56F8C848C968C88000198050001CC
:101518009911D8A409D00001A65124E1EC0E0001CC
:10152800A55DD8B01FD0F7D7020E000198190001A9
:101538009911D8A409D0450E0001A55D010E00013E
:10154800A659D8B00FD0F7D70001985100019911CA
:10155800D8A408D00001A65105E1940E0001A55DAC
:10156800D8A0F8D78C948C868C883A0E0001FE6F30
:10157800980EFD6FE0EC26F08C888C948C963DD00C
:101588008C888C948C968C888C968C840001980519
:1015980000019911D8A40CD00001AEBFFDD70001FD
:1015A800AE5117E1EC0E0001AD5DD8B012D0F4D702
:1015B8000001985100019911D8A40BD00001AEBFC9
:1015C800FDD70001AE5105E1940E0001AD5DD8A034
:1015D800F5D78C948C868C883A0E0001FE6F980E95
:1015E800FD6FE0EC26F08C888C948C96750E0001CB
:1015F800FE6F300EFD6FE0EC26F0000E00019F6FCD
:10160800000E0001A06F010E0001A16F1200000181
:10161800A105D8A47ED0000E00018B6F000E8A6F42
:10162800F28AD58E8C808C928B840ED080A8FED7BF
:1016380000018A4B8B2B80B8FED700018A4B8B2B7D
:1016480000018E05D8B40FD000019D5101012C6F07
:101658002D6B01012C5100018A5D01012D51000102
:101668008B59D8A0E3D78B848C908C92F29AF29401
:10167800D59E00018E05D8A442D0000E00019F6FB0
:10168800000E0001A16F000E0001A06F2CD0FEEC2F
:1016980026F0C30E0001FE6F500EFD6FE0EC26F041
:1016A800C30E0001FE6F500EFD6FE0EC26F0C30E76
:1016B8000001FE6F500EFD6FE0EC26F0C30E000136
:1016C800FE6F500EFD6FE0EC26F0C30E0001FE6FBA
:1016D800500EFD6FE0EC26F0C30E0001FE6F500EB9
:1016E800FD6FE0EC26F081AAD2D7000E00018E6FC4
:1016F800010E0001856F030E0001806F1200000EBD
:1017080000019F6F000E0001A16F010E0001A06F84
:1017180012000001A005D8A412000D0E00019719AF
:10172800D8A412D08C948C868C8881B0FED78C84F7
:101738008C968C882E0E0001FE6FE00EFD6FE0EC9B
:1017480026F019D08C9419D08C888C948C86000142
:10175800AEBF07D00001AE51FAE10001AD05D8B027
:10176800F6D78C848C968C883A0E0001FE6F980E02
:10177800FD6FE0EC26F08C88E5D78C969BC0FDF0D9
:101788009CC0FEF0E0EC26F081AA39D08C888C94BD
:101798008C968B848C908C928C908C828B840AD0C3
:1017A80080A8FED701012E4B2F2B80B8FED7010150
:1017B8002E4B2F2B040E01012E5D010E01012F5916
:1017C800D8A0EED78B848C908C92000E00019F6F6E
:1017D800000E0001A06F000E0001A16F000E0001B5
:1017E8009E6F0D0E00019719D8A402D0000E01D0EB
:1017F800010E0001856F030E0001806F120081BA8F
:101808001200000E0001A06F000E0001A16F010E72
:1018180000019F6F1200030E0218D8A43CD04E049A
:10182800D8A40CD0490E0101316F800E0101326F2E
:10183800000ED5EC1CF0000E4E6E12004E50D8A4CF
:101848001200010E4E6E4D50D8A40AD0490E010167
:10185800316F800E0101326F000E15EC1FF012007F
:101868004D04D8A40AD0490E0101316F800E010140
:10187800326F000E95EC1DF01200020E4D18D8A420
:101888001200490E0101316F800E0101326F000E06
:1018980055EC1EF01200030E1A18D8A43CD04E04C2
:1018A800D8A40CD03F0E0101316F800E0101326FB8
:1018B800010EAEEC02F0000E4E6E12004E50D8A48F
:1018C8001200010E4E6E1E50D8A40AD03F0E010120
:1018D800316F840E0101326F000EF0EC06F0120039
:1018E8001E04D8A40AD03F0E0101316F860E0101F3
:1018F800326F000EF0EC06F01200020E1E18D8A48B
:1019080012003F0E0101316F8D0E0101326F000E82
:10191800F0EC06F01200030E2218D8A43CD04E04B6
:10192800D8A40CD00E0E0101316F800E0101326F68
:10193800010EAEEC02F0000E4E6E12004E50D8A40E
:101948001200010E4E6E2650D8A40AD00E0E0101C8
:10195800316F810E0101326F000EF0EC06F01200BB
:101968002604D8A40AD00E0E0101316F820E01019F
:10197800326F000EF0EC06F01200020E2618D8A402
:1019880012000E0E0101316F800E0101326F000E40
:10199800F0EC06F01200030E2A18D8A43CD04E042E
:1019A800D8A40CD03F0E0101316F800E0101326FB7
:1019B800020EAEEC02F0000E4E6E12004E50D8A48D
:1019C8001200010E4E6E2E50D8A40AD03F0E01010F
:1019D800316F810E0101326F030EF0EC06F0120038
:1019E8002E04D8A40AD03F0E0101316FEA0E01017E
:1019F800326F030EF0EC06F01200020E2E18D8A477
:101A080012003F0E0101316F850E0101326F030E86
:101A1800F0EC06F01200030E3218D8A412004E049F
:101A2800D8A420D04D50D8B404D0020E4D18D8A454
:101A38000AD00E0E0101316F800E0101326F020EC5
:101A4800AEEC02F00CD04D04D8A409D0110E01015F
:101A5800316F800E0101326F020EAEEC02F0000E03
:101A68004E6E12004E50D8A41200010E4E6E365023
:101A7800D8A41ED04D50D8B404D0020E4D18D8A406
:101A88000AD00E0E0101316F830E0101326F030E71
:101A9800F0EC06F012004D04D8A41200110E01015A
:101AA800316FE70E0101326F030EF0EC06F0120001
:101AB8003604D8A41ED04D50D8B404D0020E4D1808
:101AC800D8A40AD00E0E0101316F830E0101326FC6
:101AD800030EF0EC06F012004D04D8A41200110E0B
:101AE8000101316FE60E0101326F030EF0EC06F0D2
:101AF8001200020E3618D8A412004D50D8B404D0E3
:101B0800020E4D18D8A40AD00E0E0101316F830EB3
:101B18000101326F030EF0EC06F012004D04D8A458
:101B28001200110E0101316FE50E0101326F030E33
:101B3800F0EC06F012000250D8B44DD0010E412648
:101B4800000E422243224422445008E1410E415CE7
:101B58000D0E4258030E4358D8A01200470E01013B
:101B6800316F000E0101326F010E5DEC16F0055069
:101B7800D8A40AD0490E0101316F000E0101326F5D
:101B8800010E15EC1FF01AD0020E0518D8A40AD0C1
:101B9800490E0101316F000E0101326F010E55EC43
:101BA8001EF00CD00504D8A409D0490E0101316FEC
:101BB800000E0101326F010E95EC1DF0000E026E51
:101BC800000E416E000E426E000E436E000E446E13
:101BD80005C04DF012000A50D8B403D0000E0A6EAA
:101BE80012001250D8B403D0000E126E12001A5010
:101BF800D8B43ED0010E4126000E42224322442290
:101C0800445008E1410E415C0D0E4258030E435802
:101C1800D8A01200310E0101316F000E0101326FA0
:101C2800010E09EC00F03F0E0101316F1DC032F1C9
:101C3800000EF0EC06F0040E1D18D8A402D0000E19
:101C48000BD0060E1D18D8A402D0010E05D00D0E1B
:101C58001D18D8A402D0020E1E6E000E1A6E000EB9
:101C6800416E000E426E000E436E000E446E12006E
:101C78002250D8B43CD0010E4126000E4222432205
:101C88004422445008E1410E415C0D0E4258030EB7
:101C98004358D8A01200000E0101316F000E010157
:101CA800326F020E09EC00F00E0E0101316F25C0F3
:101CB80032F1000EF0EC06F02504D8A402D0000E94
:101CC8000AD0020E2518D8A402D0010E04D025503F
:101CD800D8A402D0020E266E000E226E000E416EAF
:101CE800000E426E000E436E000E446E12002A5023
:101CF800D8B43DD0010E4126000E42224322442290
:101D0800445008E1410E415C0D0E4258030E435801
:101D1800D8A01200310E0101316F000E0101326F9F
:101D2800010ECDEC08F03F0E0101316F2DC032F1EC
:101D3800030EF0EC06F02D04D8A402D0000E0BD050
:101D48006A0E2D18D8A402D0010E05D0050E2D1844
:101D5800D8A402D0020E2E6E000E2A6E000E416E1E
:101D6800000E426E000E436E000E446E120032509A
:101D7800D8B465D0010E4126000E422243224422E7
:101D8800445008E1410E415C0D0E4258030E435881
:101D9800D8A0120000018151D8A412D0000E010170
:101DA800316F000E0101326F020ECDEC08F00E0EFD
:101DB8000101316F35C032F1030EF0EC06F034D07A
:101DC80000018105D8A41DD0000E0101316F000E5D
:101DD8000101326F030ECDEC08F0110E0101316FD5
:101DE80035C032F1030EF0EC06F0670E3518D8A4B2
:101DF80002D0000E18D0660E3518D8A40FD0010EE8
:101E080012D0020E00018119D8A40ED0670E351821
:101E1800D8B4EFD7660E3518D8B4F1D7650E351893
:101E2800D8A402D0020E366E000E326E000E416E3D
:101E3800000E426E000E436E000E446E1200000E3D
:101E4800416E000E426E000E436E000E446E12008C
:101E58000101386F6FD1030E0218D8A436D04D2A6D
:101E6800030E4D18D8A402D0000E4D6E470E010186
:101E7800316F02C032F1010E5DEC16F04D50D8A45E
:101E880009D0490E0101316F02C032F1010E15EC83
:101E98001FF018D04D04D8A409D0490E0101316FA4
:101EA80002C032F1010E95EC1DF00CD0020E4D1857
:101EB800D8A408D0490E0101316F02C032F1010ED9
:101EC80055EC1EF002C003F012004F04D8A402D053
:101ED800800E01D0000E026E02500318D8B4120012
:101EE800470E0101316F02C032F1010E5DEC16F0B0
:101EF8004D50D8A409D0490E0101316F02C032F10A
:101F0800010E15EC1FF018D0020E4D18D8A409D0F8
:101F1800490E0101316F02C032F1010E55EC1EF07D
:101F28000BD04D04D8A408D0490E0101316F02C06E
:101F380032F1010E95EC1DF002C003F01200030E01
:101F48000218D8A435D04D064D28D8A402D0020EC8
:101F58004D6E470E0101316F02C032F1010E5DEC8A
:101F680016F04D50D8A409D0490E0101316F02C0B6
:101F780032F1010E15EC1FF018D04D04D8A409D089
:101F8800490E0101316F02C032F1010E95EC1DF0CE
:101F98000CD0020E4D18D8A408D0490E0101316F9B
:101FA80002C032F1010E55EC1EF002C003F012001F
:101FB8004F04D8A402D0800E01D0000E026E025049
:101FC8000318D8B41200470E0101316F02C032F174
:101FD800010E5DEC16F04D50D8A409D0490E010150
:101FE800316F02C032F1010E15EC1FF018D0020E4D
:101FF8004D18D8A409D0490E0101316F02C032F141
:10200800010E55EC1EF00BD04D04D8A408D0490E93
:102018000101316F02C032F1010E95EC1DF002C0D2
:1020280003F01200800E0218D8A405D0030E026E29
:10203800010E4E6E30D0030E0218D8A42CD04D04D9
:10204800D8A41CD0000E0101316F000E0101326FBF
:10205800030ECDEC08F0110E0101316F670E01017E
:10206800326F030EF0EC06F0670E356E010E056E4A
:10207800070E00019C6FD00E9B6F0BD0020E4D18FF
:10208800D8A402D0020E04D04D50D8A402D0000E1D
:10209800056E000E026E02500318D8B412000250EA
:1020A800D8A445D0470E0101316F02C032F1010EAC
:1020B8005DEC16F04D50D8A41ED0490E0101316FC9
:1020C80002C032F1010E15EC1FF0000E0101316F54
:1020D800000E0101326F020ECDEC08F00E0E010168
:1020E800316F030E0101326F030EF0EC06F0030EA0
:1020F800356E000E1AD04D04D8A40AD0490E01013D
:10210800316F02C032F1010E95EC1DF0010E0DD0B9
:10211800020E4D18D8A40BD0490E0101316F02C030
:1021280032F1010E55EC1EF0020E0001816F02C063
:1021380003F0120001013851F10AD8B48CD6030A11
:10214800D8B4FDD6010AD8A412006CD7000E01013C
:10215800366F000E0101356FD7EC22F0FDC047F055
:10216800FEC048F0DB0E475C020E4858D8A004D0E9
:10217800DC0E496E7E0E49D0D10E475C020E4858DF
:10218800D8A00AD0DB0E475C020E4858D8B004D05D
:102198000A0E496E7F0E39D0C70E475C020E4858AA
:1021A800D8A00AD0D10E475C020E4858D8B004D047
:1021B800380E496E7F0E29D0BD0E475C020E485876
:1021C800D8A00AD0C70E475C020E4858D8B004D031
:1021D800660E496E7F0E19D0B30E475C020E485842
:1021E800D8A00AD0BD0E475C020E4858D8B004D01B
:1021F800940E496E7F0E09D0B30E475C020E485804
:10220800D8B0D7D0C20E496E7F0E4A6ED2D031C137
:10221800FFF0000E8EEC24F0000E696E160E696455
:1022280001D025D06950010D49C033F14AC034F1BD
:10223800F35001013327F4500101342333C1F6FF71
:1022480034C1F7FF0800F5CF36F1360E0101286FCB
:10225800010E0101296F400E01012A6F000E0101D4
:102268002C6F010E2B6F88EC25F0692AD7D731C166
:10227800FFF0010E8EEC24F0000E696E160E6964F4
:1022880001D012006950010D49C033F14AC034F140
:10229800F35001013327F45001013423170E0101D3
:1022A8003327000E342333C1F6FF34C1F7FF08008B
:1022B800F5CF36F1360E0101286F010E0101296FA5
:1022C800400E01012A6F000E01012C6F010E2B6FC9
:1022D80088EC25F0692AD2D731C1FFF0000E8EECC8
:1022E80024F0000E696E160E696401D029D0695079
:1022F800010D49C033F14AC034F1F35001013327CD
:10230800F4500101342333C1F6FF34C1F7FF08004C
:10231800F5CF36F136C135F10101361F360E010110
:10232800286F010E0101296F400E01012A6F000E6E
:1023380001012C6F010E2B6F88EC25F0692AD3D789
:1023480031C1FFF0010E8EEC24F0000E696E160EFE
:10235800696401D012006950010D49C033F14AC0C7
:1023680034F1F35001013327F45001013423170EDF
:1023780001013327000E342333C1F6FF34C1F7FFC0
:102388000800F5CF36F136C135F10101361F360E9A
:102398000101286F010E0101296F400E01012A6F0A
:1023A800000E01012C6F010E2B6F88EC25F0692AB5
:1023B800CED701013251000AD8B429D7800AD8A44F
:1023C80012008AD7000E0101336F000E326F000130
:1023D8009F05D8A44DD0000E0001A66F000EA56F72
:1023E8000D0E00019719D8A40BD08C848C8800019D
:1023F800A6511BE1BB0E0001A55DD8B016D0F7D7DA
:102408008C848C880AD081A4FED70001A54BA62B0A
:1024180081B4FED70001A54BA62B0001A65105E10A
:10242800140E0001A55DD8A0EED78C888C948C96EC
:102438009BC028F19CC029F1010E01012B6F2C0EC5
:102448002A6F3EEC26F0010128C12CF1010129C1B7
:102458002DF101012E6B2F6B73EC26F0000E00019D
:102468009F6F000E0001A06F010E0001A16F120006
:102478000001A105D8A445D0000E0101336F000E5C
:10248800326F8C808C928B840AD080A8FED7010191
:10249800324B332B80B8FED70101324B332B00016E
:1024A8009D510101306F316B010130510101325DE5
:1024B8000101315101013359D8A0E7D78B848C90A1
:1024C8008C929BC028F19CC029F1010E01012B6F51
:1024D8002C0E2A6F3EEC26F0010128C12CF10101D7
:1024E80029C12DF101012E6B2F6B73EC26F0000E24
:1024F80000019F6F000E0001A16F010E0001A06F87
:1025080012000001A005D8A41200000E0001A86F57
:10251800000EA76F0D0E00019719D8A405D08C8660
:102528008C8881A016D0FDD78C868C880AD081A48F
:10253800FED70001A74BA82B81B4FED70001A74BFB
:10254800A82B0001A85105E1140E0001A75DD8A031
:10255800EED78C888C948C969BC028F19CC029F16E
:10256800010E01012B6F2C0E2A6F3EEC26F00101A3
:1025780028C12CF1010129C12DF101012E6B2F6B0E
:1025880073EC26F0F00E0001FE6F7F0E0001FF6F66
:1025980059EC26F00001D1B138D08C888C948C96F7
:1025A8008B848C908C928C908C828B840AD080A89F
:1025B800FED70101324B332B80B8FED70101324BD5
:1025C800332B0101335105E10E0E0101325DD8A014
:1025D800EED78B848C908C92000E00019F6F000EBA
:1025E8000001A06F000E0001A16F000E00019E6F98
:1025F8000D0E00019719D8A404D0000E0001856FB4
:102608001200010E0001856F1200000E0001A06F7C
:10261800000E0001A16F010E00019F6F1200010161
:10262800386F10D1030E2218D8A408D0262A030E1A
:102638002618D8A41200000E266E1200050E4F1898
:10264800D8A402D0800E01D0000E226E225023188A
:10265800D8B41200000E0101316F22C032F1020E0F
:1026680009EC00F02650D8A40BD00E0E0101316FF2
:10267800225001090101326F000EF0EC06F01AD069
:102688002604D8A40BD00E0E0101316F2250020986
:102698000101326F000EF0EC06F00CD0020E261885
:1026A800D8A408D00E0E0101316F22C032F1000EFD
:1026B800F0EC06F022C023F01200030E2218D8A472
:1026C80007D026062628D8A41200010E266E12006E
:1026D800050E4F18D8A402D0800E01D0000E226E2D
:1026E80022502318D8B41200000E0101316F22C005
:1026F80032F1020E09EC00F02650D8A40BD00E0ED1
:102708000101316F225001090101326F000EF0EC16
:1027180006F01AD02604D8A40BD00E0E0101316F92
:10272800225002090101326F000EF0EC06F00CD0C5
:10273800020E2618D8A408D00E0E0101316F22C04F
:1027480032F1000EF0EC06F022C023F01200800EE9
:102758002218D8A405D0030E226E010E4E6E06D0A4
:10276800030E2218D8A402D0000E226E225023187D
:10277800D8B412002250D8A462D0000E0101316FE3
:10278800000E0101326F020E09EC00F02650D8A4A9
:102798001BD00E0E0101316F225001090101326F69
:1027A800000EF0EC06F0010E256E000E0001B46F6D
:1027B800EC0EB36F000E0001AE6F000EAD6F000E91
:1027C8000001996F010E3AD02604D8A41BD00E0E32
:1027D8000101316F225002090101326F000EF0EC45
:1027E80006F0020E256E010E0001B46F450EB36FA0
:1027F800000E0001AE6F000EAD6F000E0001996F64
:10280800020E1CD0020E2618D8A419D00E0E0101F3
:10281800316F22C032F1000EF0EC06F0000E256E8A
:10282800000E0001B46F940EB36F000E0001AE6F7E
:10283800000EAD6F000E0001996F000E986F22C058
:1028480023F0120001013851F10AD8B4EBD6030A7B
:10285800D8B433D7010AD8A4120079D70600FACF22
:102868005AF0FBCF5BF0E9CF5CF0EACF5DF0E1CF47
:102878005EF0E2CF5FF0D9CF60F0DACF61F0F3CF4E
:1028880062F0F4CF63F0F6CF64F0F7CF65F0F8CFDD
:1028980066F0F5CF67F0F0A282D0F092F1B802D0DE
:1028A800F18802D0F1B8F19800018551D8B41AD056
:1028B80000019005D8A473D0F1A805D082A00ED04D
:1028C80082A06DD004D0F1B86AD082B005D00001E2
:1028D800B507D8A0B60763D082A061D00001B54B78
:1028E800B62B5DD000018005D8A438D000019F0523
:1028F800D8A41AD0F1A805D082A012D082A04FD0B7
:1029080004D0F1B84CD082B009D00001AD07D8A0EE
:10291800AE070001A507D8A0A60741D082A03FD0E6
:102928000001AD4BAE2B38D00001A005D8A437D09C
:10293800F1A805D082A00ED082A031D004D0F1B881
:102948002ED082B005D00001AD07D8A0AE0727D0A1
:1029580082A025D00001AD4BAE2B21D0020E000184
:102968008019D8B41CD000018051D8A40CD0000123
:102978009F05D8B411D00001A005D8A410D000013B
:10298800A74BA82B0CD0040E00018019D8A407D09F
:1029980000019F05D8A4EFD70001A54BA62BF2A4F0
:1029A80039D00001DC2B0001C74BC82B0001A10561
:1029B800D8A416D032EC24F051C0CDF052C0CEF0DD
:1029C800590E0001CD5D020E0001CE59D8A008D0E5
:1029D800000E00018D6F000E8C6F010E00018E6FCE
:1029E8000001C85105E17E0E0001C75DD8A008D0DE
:1029F800010E0001876F000E0001C86F000EC76F3F
:102A08007D0E0001DC6505D0010E506E000E000140
:102A1800DC6FF294F2A014D000018351D8A403D043
:102A2800010E0001916F00018305D8A403D0010EA7
:102A38000001926F81BA03D0010E00019E6FF290DF
:102A4800F2A204D0010E0001866FF29267C0F5FF72
:102A580066C0F8FF65C0F7FF64C0F6FF63C0F4FF07
:102A680062C0F3FF61C0DAFF60C0D9FF5FC0E2FF58
:102A78005EC0E1FF5DC0EAFF5CC0E9FF5BC0FBFF31
:102A88005AC0FAFF6A9211000101386F06D1030E8D
:102A98001A18D8A408D01E2A030E1E18D8A412008B
:102AA800000E1E6E1200040E4F18D8A402D0800E1D
:102AB80001D0000E1A6E1A501B18D8B41200310E2D
:102AC8000101316F1AC032F1010E09EC00F01E50FD
:102AD800D8A40BD03F0E0101316F1A50040901012F
:102AE800326F000EF0EC06F01CD01E04D8A40BD0F8
:102AF8003F0E0101316F1A5006090101326F000EB5
:102B0800F0EC06F00ED0020E1E18D8A40AD03F0E24
:102B18000101316F1A500D090101326F000EF0ECFE
:102B280006F01AC01BF01200030E1A18D8A407D01A
:102B38001E061E28D8A41200020E1E6E1200040ED5
:102B48004F18D8A402D0800E01D0000E1A6E1A5069
:102B58001B18D8B41200310E0101316F1AC032F1BE
:102B6800010E09EC00F01E50D8A40BD03F0E010155
:102B7800316F1A5004090101326F000EF0EC06F0B3
:102B88001CD01E04D8A40BD03F0E0101316F1A507F
:102B980006090101326F000EF0EC06F00ED0020EAD
:102BA8001E18D8A40AD03F0E0101316F1A500D0922
:102BB8000101326F000EF0EC06F01AC01BF0120093
:102BC800800E1A18D8A405D0030E1A6E010E4E6E88
:102BD80006D0030E1A18D8A402D0000E1A6E1A5086
:102BE8001B18D8B412001A50D8A454D0310E0101C1
:102BF800316F000E0101326F010E09EC00F01E501A
:102C0800D8A418D03F0E0101316F1A5004090101F0
:102C1800326F000EF0EC06F0040E1D6E040E00017B
:102C2800976F030E0001B86F150E32D0010E000128
:102C3800856F30D01E04D8A414D03F0E0101316F27
:102C48001A5006090101326F000EF0EC06F0060E6C
:102C58001D6E060E0001976F020E0001B86F660E1A
:102C680017D0020E1E18D8A415D03F0E0101316FDF
:102C78001A500D090101326F000EF0EC06F00D0E2E
:102C88001D6E0D0E0001976F000E0001B86F010E4A
:102C9800B76FCCD71AC01BF0120001013851F10AE6
:102CA800D8B4F5D6030AD8B43FD7010AD8A412007D
:102CB80087D7000E0101346F000E0101336FFAD07F
:102CC80031C1FFF0000E8EEC24F0000E696E1A0E72
:102CD800696401D01DD06950010DDE0EF324F66E33
:102CE800740EF420F76E0800F5CF34F1340E0101AC
:102CF800286F010E0101296F400E01012A6F000E95
:102D080001012C6F010E2B6F88EC25F0692ADFD7A3
:102D180031C1FFF0010E8EEC24F0000E696E1A0E20
:102D2800696401D012006950010D1B0EF326000ED4
:102D3800F422DE0EF324F66E740EF420F76E08000B
:102D4800F5CF34F1340E0101286F010E0101296F0E
:102D5800400E01012A6F000E01012C6F010E2B6F2E
:102D680088EC25F0692ADBD731C1FFF0000E8EEC24
:102D780024F0000E696E1A0E696401D046D06950BD
:102D8800010DDE0EF324F66E740EF420F76E0800C3
:102D9800F5CF34F134C133F16950D8B404D01A0EE8
:102DA8006918D8A40AD00101341F01013351010167
:102DB80034133F0E0101341716D06904D8B404D077
:102DC800190E6918D8A409D00101341F0101335123
:102DD800010134130101349F06D00101341F0101A0
:102DE800335101013413340E0101286F010E010122
:102DF800296F400E01012A6F000E01012C6F010E90
:102E08002B6F88EC25F0692AB6D731C1FFF0010E87
:102E18008EEC24F0000E696E1A0E696401D012005F
:102E28006950010D1B0EF326000EF422DE0EF3246A
:102E3800F66E740EF420F76E0800F5CF34F134C145
:102E480033F16950D8B404D01A0E6918D8A40AD03E
:102E58000101341F0101335101013413FC0E01013A
:102E6800341716D06904D8B404D0190E6918D8A438
:102E780009D00101341F010133510101341301014B
:102E8800349106D00101341F01013351010134137B
:102E9800340E0101286F010E0101296F400E010156
:102EA8002A6F000E01012C6F010E2B6F88EC25F0A4
:102EB800692AB2D701013251000AD8B401D7800A71
:102EC800D8A4120051D7000E0101316F000E306FE7
:102ED80000019F05D8A438D0000E0001A66F000E8F
:102EE800A56F0D0E00019719D8A40BD08C888C847F
:102EF8000001A6510FE1BB0E0001A55DD8B00AD0B4
:102F0800F7D78C888C84360E0001FE6FB00EFD6FEB
:102F1800E0EC26F08C888C948C96C30E0001FE6F32
:102F2800500EFD6FE0EC26F0C30E0001FE6F500E50
:102F3800FD6FE0EC26F0000E00019F6F000E00010F
:102F4800A06F010E0001A16F0001A105D8B426D021
:102F58003AD0000E0101316F000E306F8C808C92D8
:102F68008B840AD080A8FED70101304B312B80B862
:102F7800FED70101304B312B0101315105E1920E91
:102F88000101305DD8A0EED78B848C908C92C30E53
:102F98000001FE6F500EFD6FE0EC26F081AAD9D734
:102FA8008B848C908C92C30E0001FE6F500EFD6FC7
:102FB800E0EC26F0000E00019F6F000E0001A16FEB
:102FC800010E0001A06F0001A005D8A41200000E98
:102FD8000001A86F000EA76F0D0E00019719D8A465
:102FE80005D08C888C8681A00AD0FDD78C888C86E9
:102FF800270E0001FE6F100EFD6FE0EC26F08C88A6
:103008008C948C969BC028F19CC029F1010E01017B
:103018002B6F2C0E2A6F3EEC26F0010128C12CF1F3
:10302800010129C12DF101012E6B2F6B73EC26F0E4
:1030380081AA12003A0E0001FE6F980EFD6FE0ECB7
:1030480026F081AA12008C888C948C968B848C90A4
:103058008C928C908C828B84000E0101316F000E53
:10306800306F0AD080A8FED70101304B312B80B8D1
:10307800FED70101304B312B0101315105E1780EAA
:103088000101305DD8A0EED78B848C908C92000E15
:1030980000019F6F000E0001A06F000E0001A16FDC
:1030A800000E00019E6F0D0E00019719D8A402D0E2
:1030B800000E01D0010E0001856F030E0001806F24
:1030C80012000101386FEBD0030E2A18D8A408D0DB
:1030D8002E2A030E2E18D8A41200000E2E6E1200EF
:1030E800060E4F18D8A402D0800E01D0000E2A6E0A
:1030F8002A502B18D8B41200310E0101316F2AC0A2
:1031080032F1010ECDEC08F02E50D8A40BD03F0EB2
:103118000101316F2A5001090101326F030EF0ECF1
:1031280006F01CD02E04D8A40BD03F0E0101316F3D
:103138002A506A090101326F030EF0EC06F00ED036
:10314800020E2E18D8A40AD03F0E0101316F2A5062
:1031580005090101326F030EF0EC06F02AC02BF0CE
:103168001200030E2A18D8A407D02E062E28D8A499
:103178001200020E2E6E1200060E4F18D8A402D0AE
:10318800800E01D0000E2A6E2A502B18D8B41200D7
:10319800310E0101316F2AC032F1010ECDEC08F079
:1031A8002E50D8A40BD03F0E0101316F2A500109CF
:1031B8000101326F030EF0EC06F01CD02E04D8A4E7
:1031C8000BD03F0E0101316F2A506A090101326F9D
:1031D800030EF0EC06F00ED0020E2E18D8A40AD07A
:1031E8003F0E0101316F2A5005090101326F030EAC
:1031F800F0EC06F02AC02BF01200800E2A18D8A492
:1032080005D0030E2A6E010E4E6E06D0030E2A1844
:10321800D8A402D0000E2A6E2A502B18D8B4120057
:103228002A50D8A439D0310E0101316F000E0101A6
:10323800326F010ECDEC08F02E50D8A40FD03F0EFF
:103248000101316F010E0101326F030EF0EC06F03F
:10325800010E20D0700E00019D6F1ED02E04D8A440
:103268000BD03F0E0101316F6A0E0101326F030E60
:10327800F0EC06F06A0E0ED0020E2E18D8A40CD070
:103288003F0E0101316F050E0101326F030EF0ECA4
:1032980006F0050E2D6EDED72AC02BF012000101B4
:1032A8003851F10AD8B410D7030AD8B45AD7010A4A
:1032B800D8A41200A2D781A005D00D0E000197193D
:1032C800D8A45AD0000E0001A26F000E0001B66FFC
:1032D800000EB56F020E0001B86F580EB76F010EE1
:1032E8000001906F8C848C968C882CD08C84000E76
:1032F8000001FE6F0A0EFD6FE0EC26F0000E0001E3
:10330800FE6F0A0EFD6FE0EC26F0000E0001FE6F66
:103318000A0EFD6FE0EC26F0000E0001FE6F0A0EAB
:10332800FD6FE0EC26F0000E0001FE6F0A0EFD6F47
:10333800E0EC26F08C94000E0001FE6F0A0EFD6F83
:10334800E0EC26F00001B65105E1C80E0001B55DBC
:10335800D8A0CCD78C888C948C96C30E0001FE6FB5
:10336800500EFD6FE0EC26F0000E0001A26F000E7B
:103378000001B66F000EB56F040E00019719D8A4AE
:1033880005D0030E0001B86F150E13D0060E00010C
:103398009719D8A405D0020E0001B86F660E09D09F
:1033A8000D0E00019719D8A405D0000E0001B86FC2
:1033B800010EB76F000E0001866F8C888C9410D0B8
:1033C8008C86040E0001FE6F380EFD6FE0EC26F0CF
:1033D8008C96030E0001FE6F980EFD6FE0EC26F050
:1033E80000018651D8B4ECD78C848C968C883A0E20
:1033F8000001FE6F980EFD6FE0EC26F08C888C942F
:103408008C960D0E00019719D8A404D0000E000167
:10341800856F12008C888C96000E0001A26F000E3A
:103428000001B66F000EB56F010E0001906F10D04D
:103438008C84020E0001FE6F580EFD6FE0EC26F042
:103448008C94050E0001FE6F780EFD6FE0EC26F0FF
:103458000001B7510001B55D0001B8510001B6592E
:10346800D8A0E6D78C948C868C883A0E0001FE6F23
:10347800980EFD6FE0EC26F08C888C948C96000EEC
:103488000001856F000E0001906F000E0001866F2D
:10349800000E0001B66F000EB56F000E0001A26F9E
:1034A800F28AD58E1200000E0101366F000E01015E
:1034B800356FC20E496E7F0E4A6ED2D031C1FFF011
:1034C800000E8EEC24F0000E696E160E696401D0B1
:1034D80025D06950010D49C033F14AC034F1F35089
:1034E80001013327F4500101342333C1F6FF34C1FD
:1034F800F7FF0800F5CF36F1360E0101286F010EEF
:103508000101296F400E01012A6F000E01012C6F85
:10351800010E2B6F88EC25F0692AD7D731C1FFF04F
:10352800010E8EEC24F0000E696E160E696401D04F
:1035380012006950010D49C033F14AC034F1F3500B
:1035480001013327F45001013423170E01013327F9
:10355800000E342333C1F6FF34C1F7FF0800F5CF5E
:1035680036F1360E0101286F010E0101296F400E58
:1035780001012A6F000E01012C6F010E2B6F88ECE0
:1035880025F0692AD2D731C1FFF0000E8EEC24F065
:10359800000E696E160E696401D029D06950010DBC
:1035A80049C033F14AC034F1F35001013327F450D4
:1035B8000101342333C1F6FF34C1F7FF0800F5CF0A
:1035C80036F136C135F10101361F360E0101286F7B
:1035D800010E0101296F400E01012A6F000E010141
:1035E8002C6F010E2B6F88EC25F0692AD3D731C1D7
:1035F800FFF0010E8EEC24F0000E696E160E696461
:1036080001D012006950010D49C033F14AC034F1AC
:10361800F35001013327F45001013423170E01013F
:103628003327000E342333C1F6FF34C1F7FF0800F7
:10363800F5CF36F136C135F10101361F360E0101DD
:10364800286F010E0101296F400E01012A6F000E3B
:1036580001012C6F010E2B6F88EC25F0692ACED75B
:1036680001013251000AD8B429D7800AD8A412001F
:103678008AD702EC24F091EC22F0000E0101386F99
:10368800310E0101386501D00AD0C30E0001FE6F6A
:10369800500EFD6FE0EC26F00101382BF1D702EC5B
:1036A80024F0470E0101316F000E0101326F010E47
:1036B8005DEC16F0490E0101316F000E0101326F09
:1036C800010E15EC1FF0000E026E000E056E230EA3
:1036D8000101316F000E0101326F010E5DEC16F031
:1036E800250E0101316F000E0101326F010E15EC3C
:1036F8001CF0000E0A6E580E0D6E000E0101316F9F
:10370800000E0101326F010E5DEC16F0020E010190
:10371800316F000E0101326F010EAAEC10F0000E9D
:10372800126E590E156E310E0101316F000E010136
:10373800326F010E09EC00F03F0E0101316F040EEB
:103748000101326F000EF0EC06F0000E1A6E040E46
:103758001D6E000E0101316F000E0101326F020E65
:1037680009EC00F00E0E0101316F010E0101326FFC
:10377800000EF0EC06F0000E226E010E256E310EE2
:103788000101316F000E0101326F010ECDEC08F01E
:103798003F0E0101316F010E0101326F030EF0EC93
:1037A80006F0000E2A6E010E2D6E000E0101316F1B
:1037B800000E0101326F020ECDEC08F00E0E010171
:1037C800316F030E0101326F030EF0EC06F0000EAC
:1037D800326E030E356E000E0001816F030E00017C
:1037E800B86F150EB76F040E0001976F000E000139
:1037F800996F010E986F000E00019A6F070E000175
:103808009C6FD00E9B6F700E00019D6F000E000123
:10381800AE6F000EAD6F000E0001B46FEC0EB36F0B
:103828001200000E0101346F000E0101336FB0D099
:1038380031C1FFF0000E8EEC24F0000E696E160EFA
:10384800696401D01DD06950010D140EF324F66E81
:10385800750EF420F76E0800F5CF34F1340E01012F
:10386800286F010E0101296F400E01012A6F000E19
:1038780001012C6F010E2B6F88EC25F0692ADFD728
:1038880031C1FFF0010E8EEC24F0000E696E160EA9
:10389800696401D012006950010D170EF326000E5D
:1038A800F422140EF324F66E750EF420F76E080059
:1038B800F5CF34F1340E0101286F010E0101296F93
:1038C800400E01012A6F000E01012C6F010E2B6FB3
:1038D80088EC25F0692ADBD731C1FFF0000E8EECA9
:1038E80024F0000E696E160E696401D021D069506B
:1038F800010D140EF324F66E750EF420F76E080011
:10390800F5CF34F134C133F10101341F340E010114
:10391800286F010E0101296F400E01012A6F000E68
:1039280001012C6F010E2B6F88EC25F0692ADBD77B
:1039380031C1FFF0010E8EEC24F0000E696E160EF8
:10394800696401D012006950010D170EF326000EAC
:10395800F422140EF324F66E750EF420F76E0800A8
:10396800F5CF34F134C133F10101341F340E0101B4
:10397800286F010E0101296F400E01012A6F000E08
:1039880001012C6F010E2B6F88EC25F0692AD7D71F
:1039980001013251000AD8B44BD7800AD8A41200CA
:1039A8009BD7000E0101346F000E0101336FB0D0B8
:1039B80031C1FFF0000E8EEC24F0000E696E160E79
:1039C800696401D01DD06950010DCC0EF324F66E48
:1039D800750EF420F76E0800F5CF34F1340E0101AE
:1039E800286F010E0101296F400E01012A6F000E98
:1039F80001012C6F010E2B6F88EC25F0692ADFD7A7
:103A080031C1FFF0010E8EEC24F0000E696E160E27
:103A1800696401D012006950010D170EF326000EDB
:103A2800F422CC0EF324F66E750EF420F76E08001F
:103A3800F5CF34F1340E0101286F010E0101296F11
:103A4800400E01012A6F000E01012C6F010E2B6F31
:103A580088EC25F0692ADBD731C1FFF0000E8EEC27
:103A680024F0000E696E160E696401D021D06950E9
:103A7800010DCC0EF324F66E750EF420F76E0800D7
:103A8800F5CF34F134C133F10101341F340E010193
:103A9800286F010E0101296F400E01012A6F000EE7
:103AA80001012C6F010E2B6F88EC25F0692ADBD7FA
:103AB80031C1FFF0010E8EEC24F0000E696E160E77
:103AC800696401D012006950010D170EF326000E2B
:103AD800F422CC0EF324F66E750EF420F76E08006F
:103AE800F5CF34F134C133F10101341F340E010133
:103AF800286F010E0101296F400E01012A6F000E87
:103B080001012C6F010E2B6F88EC25F0692AD7D79D
:103B180001013251000AD8B44BD7800AD8A4120048
:103B28009BD7000E0101346F000E0101336FB0D036
:103B380031C1FFF0000E8EEC24F0000E696E160EF7
:103B4800696401D01DD06950010D700EF324F66E22
:103B5800750EF420F76E0800F5CF34F1340E01012C
:103B6800286F010E0101296F400E01012A6F000E16
:103B780001012C6F010E2B6F88EC25F0692ADFD725
:103B880031C1FFF0010E8EEC24F0000E696E160EA6
:103B9800696401D012006950010D170EF326000E5A
:103BA800F422700EF324F66E750EF420F76E0800FA
:103BB800F5CF34F1340E0101286F010E0101296F90
:103BC800400E01012A6F000E01012C6F010E2B6FB0
:103BD80088EC25F0692ADBD731C1FFF0000E8EECA6
:103BE80024F0000E696E160E696401D021D0695068
:103BF800010D700EF324F66E750EF420F76E0800B2
:103C0800F5CF34F134C133F10101341F340E010111
:103C1800286F010E0101296F400E01012A6F000E65
:103C280001012C6F010E2B6F88EC25F0692ADBD778
:103C380031C1FFF0010E8EEC24F0000E696E160EF5
:103C4800696401D012006950010D170EF326000EA9
:103C5800F422700EF324F66E750EF420F76E080049
:103C6800F5CF34F134C133F10101341F340E0101B1
:103C7800286F010E0101296F400E01012A6F000E05
:103C880001012C6F010E2B6F88EC25F0692AD7D71C
:103C980001013251000AD8B44BD7800AD8A41200C7
:103CA8009BD7000E0101346F000E0101336FB0D0B5
:103CB80031C1FFF0000E8EEC24F0000E696E160E76
:103CC800696401D01DD06950010D420EF324F66ECF
:103CD800750EF420F76E0800F5CF34F1340E0101AB
:103CE800286F010E0101296F400E01012A6F000E95
:103CF80001012C6F010E2B6F88EC25F0692ADFD7A4
:103D080031C1FFF0010E8EEC24F0000E696E160E24
:103D1800696401D012006950010D170EF326000ED8
:103D2800F422420EF324F66E750EF420F76E0800A6
:103D3800F5CF34F1340E0101286F010E0101296F0E
:103D4800400E01012A6F000E01012C6F010E2B6F2E
:103D580088EC25F0692ADBD731C1FFF0000E8EEC24
:103D680024F0000E696E160E696401D021D06950E6
:103D7800010D420EF324F66E750EF420F76E08005E
:103D8800F5CF34F134C133F10101341F340E010190
:103D9800286F010E0101296F400E01012A6F000EE4
:103DA80001012C6F010E2B6F88EC25F0692ADBD7F7
:103DB80031C1FFF0010E8EEC24F0000E696E160E74
:103DC800696401D012006950010D170EF326000E28
:103DD800F422420EF324F66E750EF420F76E0800F6
:103DE800F5CF34F134C133F10101341F340E010130
:103DF800286F010E0101296F400E01012A6F000E84
:103E080001012C6F010E2B6F88EC25F0692AD7D79A
:103E180001013251000AD8B44BD7800AD8A4120045
:103E28009BD7000E0101346F000E0101336FB0D033
:103E380031C1FFF0000E8EEC24F0000E696E160EF4
:103E4800696401D01DD06950010D9E0EF324F66EF1
:103E5800750EF420F76E0800F5CF34F1340E010129
:103E6800286F010E0101296F400E01012A6F000E13
:103E780001012C6F010E2B6F88EC25F0692ADFD722
:103E880031C1FFF0010E8EEC24F0000E696E160EA3
:103E9800696401D012006950010D170EF326000E57
:103EA800F4229E0EF324F66E750EF420F76E0800C9
:103EB800F5CF34F1340E0101286F010E0101296F8D
:103EC800400E01012A6F000E01012C6F010E2B6FAD
:103ED80088EC25F0692ADBD731C1FFF0000E8EECA3
:103EE80024F0000E696E160E696401D021D0695065
:103EF800010D9E0EF324F66E750EF420F76E080081
:103F0800F5CF34F134C133F10101341F340E01010E
:103F1800286F010E0101296F400E01012A6F000E62
:103F280001012C6F010E2B6F88EC25F0692ADBD775
:103F380031C1FFF0010E8EEC24F0000E696E160EF2
:103F4800696401D012006950010D170EF326000EA6
:103F5800F4229E0EF324F66E750EF420F76E080018
:103F6800F5CF34F134C133F10101341F340E0101AE
:103F7800286F010E0101296F400E01012A6F000E02
:103F880001012C6F010E2B6F88EC25F0692AD7D719
:103F980001013251000AD8B44BD7800AD8A41200C4
:103FA8009BD7000E016E000E046E000E026E02C05A
:103FB80003F0000E056E000E066E580E076E1E0EFC
:103FC800086E000E096E000E0C6E000E0A6E0AC016
:103FD8000BF0000E0D6E000E0E6E200E0F6E4A0EC8
:103FE800106E000E116E000E146E000E126E12C0CE
:103FF80013F0000E156E000E166ECE0E176E490EDB
:10400800186E000E196E000E1C6E000E1A6E1AC085
:104018001BF0000E1D6E000E1E6E900E1F6E2A0EF7
:10402800206E000E216E000E246E000E226E22C03D
:1040380023F0000E256E000E266E260E276E260E25
:10404800286E000E296E000E2C6E000E2A6E2AC0F5
:104058002BF0000E2D6E000E2E6ECA0E2F6E300E37
:10406800306E000E316E000E346E000E326E32C0AD
:1040780033F0000E356E000E366EE60E376E090E02
:10408800386E000E396E000E3C6E000E3A6E02C09D
:104098003BF0000E3D6E000E3E6E000E3F6E000EB1
:1040A800406E000E4F6E000E4E6E000E4D6E1200EA
:1040B800210E0201006F000E0101286F020E01019E
:1040C800296F000E01012A6F000E01012C6F010EED
:1040D8002B6F88EC25F0150E0201006F000E010110
:1040E800286F020E0101296F000E01012A6F000ED0
:1040F80001012C6F010E2B6F88EC25F0080E0201D0
:10410800006F000E0101286F020E0101296F000ED9
:1041180001012A6F000E01012C6F010E2B6F88EC34
:1041280025F09F0E0201006F000E0101286F020E9C
:104138000101296F000E01012A6F000E01012C6F89
:10414800010E2B6F88EC25F0200E0201006F000E87
:104158000101286F020E0101296F000E01012A6F6B
:10416800000E01012C6F010E2B6F88EC25F0050E57
:104178000201006F000E0101286F020E0101296F74
:10418800000E01012A6F000E01012C6F010E2B6F2A
:1041980088EC25F00C0E0201006F000E0101286F5B
:1041A800020E0101296F000E01012A6F000E0101A4
:1041B8002C6F010E2B6F88EC25F01200000E010108
:1041C8002D6F000E2C6F83BC30D0050E0101286FB7
:1041D800000E296F000E2A6F000E2B6F39EC25F0A8
:1041E80083AC0BD022D001012C4B2D2BC30E000128
:1041F800FE6F500EFD6FE0EC26F083ACF4D7FEECBA
:1042080026F001012D5105E1650E01012C5DD8A0B4
:104218000AD0010E0001F26F040E0001816FF29ABC
:10422800D59E000E1200F10E120083BE13D0050EAB
:104238000101286F000E296F000E2A6F000E2B6FE8
:1042480039EC25F083BE06D083AEFED7FEEC26F00F
:10425800F20E120081B613D0050E0101286F000E70
:10426800296F000E2A6F000E2B6F39EC25F081B6EE
:1042780006D081A6FED7FEEC26F0F30E1200000E43
:10428800120000019105D8A4120081A883AC53D074
:1042980083BE81A650D0040E0101286F000E296F3D
:1042A800000E2A6F000E2B6F39EC25F081A883AC25
:1042B80042D083BE81A63FD0FEEC26F0000E00015E
:1042C800F26F00018351D8A436D0010E0001836F2C
:1042D80054EC27F08B848C908C928C888C948C96E0
:1042E8008B848C88000E0001866F010E0001856F9B
:1042F800000E0001906F040E0001976F000E000180
:10430800996F010E986F000E066E000E0E6E000E6D
:10431800166E000E1E6E000E266E000E2E6E000E1D
:10432800366E000E4F6E000E4D6E5CEC20F03DECCC
:104338001BF0F088F092000E0001916F1200000E41
:104348000001F16F000E0001F06F000E0001C16F57
:10435800000EC26F000EC36F000EC46F000E000186
:10436800BD6F000EBE6F000EBF6F000EC06FA4ECD5
:1043780026F0BBEC24F0FDEC21F000018551D8B407
:1043880003D05FEC19F0F7D700018005D8A403D05B
:1043980073EC0AF027D000018051D8A403D067EC51
:1043A80017F020D0020E00018019D8B41BD0040EDB
:1043B80000018019D8A403D0E6EC11F013D0030E45
:1043C80000018019D8A40ED0F2BAD5AE01D002D01F
:1043D800F28AD58E61EC24F0F8EC25F09FEC0DF014
:1043E80056EC23F0CCEC23F020EC27F091EC23F0F2
:1043F800C2D7000E0101396F00018351D8A4120001
:104408000D0E00019719D8A41DD08C848C968C8829
:10441800000E0101396F08D081A4FED70101392BA4
:1044280081B4FED70101392BC70E01013965F4D7D4
:104438008C888C948C96C30E0001FE6F500EFD6F15
:10444800E0EC26F08B848C908C928C888C948C96E3
:104458008B948C98040E0001976FF098F09200F0FE
:1044680000F000F000F00BD000F000F000F000F0D9
:10447800030000F000F000F000F045EC21F000012E
:104488008351D8A41200F0D7940EF66E4E0EF76E34
:10449800000EF86E00EEF3F010EE0AF00900F5CF0A
:1044A800EEFFE550E150FAE1B40EF66E4E0EF76EEF
:1044B800000EF86E0900F5CF68F00900F5CF69F035
:1044C80003EE00F011EE00F0EE6AE550E150FCE179
:1044D800E250FAE102EE00F011EE00F0EE6AE5506B
:1044E800E150FCE1E250FAE101EE00F0280EEE6A3C
:1044F800E806FDE100EE80F0730EEE6AE806FDE1E5
:1045080000EE01F0500EEE6AE806FDE16A906A924C
:10451800000EF86E0001A3EF21F0000E0101346FC8
:10452800080E0101346501D01200000E0001FF6F72
:10453800010134518EEC24F0000E0201006F000ED0
:104548000101336F620E0101336501D029D00101E9
:104558003451620DFC0E0101316F750E0101326F8D
:10456800F35001013127F450010132230101335185
:10457800010DF350010131250101286FF4500101AB
:1045880032210101296F400E01012A6F000E01013D
:104598002C6F010E2B6F88EC25F00101332BD2D73D
:1045A8000101342BBDD7000E01012E6F000E010151
:1045B8002F6F000E01012B6F000E01012D6F000EF1
:1045C8002C6FC294C296C298C29AC282C2B2FED757
:1045D800C4CF2EF1C3CF2FF101012F512EC128F1E5
:1045E8000101296B28C129F10101286B0101281358
:1045F800000E2913060E01012A6F0101D8902933F4
:10460800283301012A2FF9D7FF0E010128150101CE
:104618002C6F030E0101291501012D6F2CC1FDF02E
:104628002DC1FEF012000001FE6F000E0001FF6FA9
:10463800000E0001FF6F070E0001FF6501D028D0B2
:104648000001FF51080D010EF326000EF422010EA1
:10465800F324D96E000EF420DA6E030EDE18D8A407
:1046680003D0000E0001FE6F0001FF2BE4D7070EF8
:104678004F18D8A403D0010E4F6E12004F2A120013
:104688004F50D8A403D0070E4F6E12004F061200E9
:104698000001FE51F10AD8B4EAD7030AD8B4F0D71A
:1046A800010A120000019205D8A4120081A883AC67
:1046B80030D083BE81A62DD0040E0101286F000ED4
:1046C800296F000E2A6F000E2B6F39EC25F081A898
:1046D80083AC1FD083BE81A61CD0FEEC26F0000E52
:1046E8000001F26F00018305D8A413D0800E0101E8
:1046F8002C6F1A0E2D6F060E2E6F000E2F6F73EC97
:1047080026F081A883AC05D083BE81A602D0AEEC8A
:1047180025F0000E0001926F1200030E00018019AF
:10472800D8A42CD0010E00019327000E94239523C2
:104738009623010E0101286F000E296F000E2A6FC3
:10474800000E2B6F39EC25F0000196510BE1A10EFC
:104758000001935D860E00019459010E00019559E0
:10476800D8A01200000E0001936F000E946F000E87
:10477800956F000E966FAEEC25F01200000E00014A
:10478800936F000E946F000E956F000E966F1200D7
:1047980000019E51D8B412004E0E0001FE6F200E8B
:1047A800FD6FE0EC26F081BA23D0F29AF294D59E00
:1047B800FEEC26F000018105D8A404D00FD081C0FA
:1047C80080F018D000018151D8B408D0040E00013F
:1047D8008119D8A40FD00001D14BD22B010E0001B2
:1047E8009F6F000E0001A06F000E0001A16FE7D7B8
:1047F800F28AD58E000E00019E6F1200000E010194
:10480800326F080E0101326501D01200000E00015E
:10481800FF6F010132518EEC24F0000E0201006F8F
:10482800000E0101316F620E0101316501D013D014
:10483800000E0101286F020E0101296F400E0101CF
:104848002A6F000E01012C6F010E2B6F88EC25F0EA
:104858000101312BE8D70101322BD3D7000E586E56
:10486800000E596E000E576E000E566EC250C30BE6
:104878000409C26EC282C2B2FED7C4CF58F0C3CFF9
:1048880059F0595058C053F0546A53C054F0536A01
:104898005312000E5412060E556ED89054325332ED
:1048A800552EFBD7FF0E5314566E030E5414576E35
:1048B80056C051F057C052F01200000E0101396F76
:1048C800E2EC20F00101396F0101395117EC23F0B6
:1048D800010139510101D8B41200010139512CEC00
:1048E8000FF00101395110EC25F001013951E7ECC5
:1048F80024F00101395148EC15F00101395113EC4C
:1049080013F00101395165EC18F001013951F3EC4C
:1049180004F012000101306F0001FF51800F020105
:10492800006F000E0101286F020E0101296F000EB1
:1049380001012A6F000E01012C6F010E2B6F88EC0C
:1049480025F001013051400F0201006F000E0101F6
:10495800286F020E0101296F000E01012A6F000E57
:1049680001012C6F010E2B6F88EC25F01200000E50
:104978000001856F000E0001816F030E0001B86F02
:10498800150EB76F040E0001976F000E0001836FBC
:10499800030E0001806F000E0001866F000E0001FB
:1049A800AA6F000EA96F000E0001AE6F000EAD6F6A
:1049B800000E0001B46FEC0EB36F000E0001996F8A
:1049C800010E986F12000001FD6F1CD0030E121823
:1049D800D8B41200030E4F18D8A403D0800E126E5C
:1049E8001200000E126E1200030E1218D8B4120034
:1049F800030E4F18D8A403D0800E126E1200000EBA
:104A0800126E12000001FD51F10AD8B4DFD7030A73
:104A1800D8B4EAD7010A12000001FD6F1CD0030EBA
:104A28000A18D8B41200020E4F18D8A403D0800E6A
:104A38000A6E1200000E0A6E1200030E0A18D8B48D
:104A48001200020E4F18D8A403D0800E0A6E12006E
:104A5800000E0A6E12000001FD51F10AD8B4DFD72A
:104A6800030AD8B4EAD7010A1200000E0001FE6F4B
:104A7800000EFD6F18D0000E0001FE6F000EFD6FD6
:104A8800880E0001FD5D130E0001FE59D8B005D057
:104A980000F00001FD4BFE2BF3D701012807000EA3
:104AA800295B2A5B2B5B01012851010129110101B6
:104AB8002A1101012B11D8B41200DDD73DEC27F0E3
:104AC8008D92000E0001FE6F010EFD6FD3EC25F0F4
:104AD8008D82000E0001FE6F010EFD6FD3EC25F0F4
:104AE800250E0201006F000E0101286F020E010160
:104AF800296F000E01012A6F000E01012C6F010EB3
:104B08002B6F88EC25F012002AC12FF10CEC27F04E
:104B1800780E1BEC26F0BBEC26F001012F511BECA4
:104B280026F0BBEC26F028C1F6FF29C1F7FFF86A8A
:104B3800050EF76403D00800F55005D0F6CFE9FF5D
:104B4800F7CFEAFFEF501BEC26F0BBEC26F044EC65
:104B580027F01200000E0001836F58EC27F0250E95
:104B68000201006F000E0101286F020E0101296F7A
:104B7800000E01012A6F000E01012C6F010E2B6F30
:104B880088EC25F08B848C908C928C888C948C96F5
:104B9800030E0001806F000E0001856F1200000EE9
:104BA8000101296F000E286F14D0000E01012B6F30
:104BB800000E2A6F100E01012A5D270E01012B59E4
:104BC800D8B004D001012A4B2B2BF4D70101284B74
:104BD800292B0001FD510101285D0001FE51010151
:104BE8002959D8B01200E1D700018705D8A41200CE
:104BF8006850D8B40BD0020E0101316F000E0101CC
:104C0800326F010EAAEC10F0000E0CD080B609D05D
:104C1800020E0101316F000E0101326F010E57ECD7
:104C28001AF0010E686E000E0001876F1200000175
:104C3800FD6F000E0001FE6F070E0001FE6501D03A
:104C480012000001FDAF02D08B8801D08B985BEC7D
:104C580027F08B865BEC27F08B96070E0001FE1978
:104C6800D8B48B880001D890FD375BEC27F00001A1
:104C7800FE2BE2D70101285101012A03F3CFFDF0F1
:104C8800F4CFFEF00101285101012B03F35000017C
:104C9800FE270101295101012A03F3500001FE27D3
:104CA800FDC028F1FEC029F11200000E0101286F95
:104CB800010E0101296F04D001012A5128EC27F0C7
:104CC800FEC0F6FFFFC0F7FF0001FE4BFF2B0800F8
:104CD800F5CF2AF101012A51D8B41200EDD70DD031
:104CE80000F000F000F000F000F000F000F001012A
:104CF8002C07000E2D5B2E5B2F5B01012C5101014F
:104D08002D1101012E1101012F11D8B41200E8D77D
:104D1800929A949495909592948292889480938490
:104D2800959895949596898A8B848C908C928C888A
:104D38008C948C968B848C88F198F092F098120061
:104D48002FEC27F017EC27F08CEC26F036EC27F048
:104D58004FEC27F056EC27F058EC27F062EC25F0E2
:104D6800D5EC1FF0D0EC26F0EFEC26F012008B8883
:104D78005BEC27F08B8694885BEC27F082A802D046
:104D8800010E01D0000E0001FD6F8B9694985BEC2C
:104D980027F00001FD5112000C0EC16E9386938816
:104DA800958C958E938A93809286F19CF292F288E4
:104DB800F286F28CF28E1200000ECF6E000ECE6ECE
:104DC800CD800001FD51CE5C0001FE51CF58D8A026
:104DD800F8D7CD901200D59AD596D584D592D5809E
:104DE800D58CF294000ED76E000ED66EF29AD59E30
:104DF800F28E12008D84010E0101286F000E296FBA
:104E0800000E2A6F000E2B6F39EC25F08D941200DE
:104E18008B888B865BEC27F08B985BEC27F08B9666
:104E28005BEC27F01200928092829284C050C70BEC
:104E38002009C06EC28012005050D8B412000FEC86
:104E48000CF0000E506E12000001FD6FFDC0ADFFAA
:104E5800ACB21200FDD7948E949C0C0EAF6EAB8E44
:104E6800AC8A1200CD50CF0B2009CD6ECD8ECD90DF
:104E7800120094968B9694988B9896928D92120025
:104E88008B988B865BEC27F08B8812000A000A004F
:104E98000401FF01010196948D94959A8C8A120061
:104EA8008D801200969012008D90120001661200FB
:10738400000F10202020202020202020202020203A
:1073940020202020202020202020202020202020E9
:1073A40020202020202020202020202F27232110CF
:1073B4000FFF001F0804081F001F0804081F000017
:1073C40000000000000000000000000000000000B9
:1073D400000406070770888888FF0000000000008A
:1073E400FFC02010101010101010101010101010EA
:1073F4001010101010101010101010101010101089
:10740400101010109010101010D010101010102028
:10741400C00F1020202020202020202020202020E9
:107424002020202020202020202020202020202058
:1074340020202020202020202021232F272321103A
:107444000FFF001F0804081F001F0804081F000086
:107454000000000000000000000000000000000028
:107464000000000102040810E0E0E0C08000000019
:10747400FFC0201010101010101010101010101059
:1074840010101010101010101010101010101010F8
:1074940010101010101010101010101010101020D8
:1074A400C020202020202020202020202020202038
:1074B4002020202000000000000000000000000048
:1074C4000000000000000010101010101010101028
:1074D400101010101010101010103F408080808089
:1074E4008080808080808080808080808080808098
:1074F400808080403FFC0201010101010101010182
:10750400010101010101010101010101010102FC6B
:107514009F9F909F9F909F9F809D95959F8E80BFDA
:10752400BF908890BFBF800101010101517D3D01E1
:10753400517D3D01397D457D390101010101808085
:1075440080808080808183869DBD9D8683818080AC
:10755400808080808001010101010101F1F9CDB534
:10756400B5B56DF9F10101010101010180838FBFFE
:107574008F83808080838FBF8F83808080838FBF41
:107584008F8380F1F9FDFDFDF9F101F1F9FDFDFDB8
:10759400F9F101F1F9FDFDFDF9F180808080808031
:1075A40080808098B8B0B0B0B89F8F808080808091
:1075B40080010101010101010101191D0D0D0D1DC4
:1075C400F9F10101010101018080808080808080C7
:1075D4008080808080808080808080808080800126
:1075E4000101010101010101010101010101010187
:1075F40001010101010196000000000000000000EB
:107604000000000000000000000000000000000076
:107614000000000000000000000000000000000066
:107624000000000000000000000000000000000056
:107634000000000000000000000000000000000046
:107644000000000000000000000000000000000036
:107654000000000000000000000000000000000026
:1076640080C0E0F0F0F0F0F0F0F0F0F0F0F0F0F0C6
:10767400F0F0F0FFFFFFFF000000FFFFFF7F3F0F70
:1076840007010000000000000000000000000000EE
:107694000000000001070F3F7FFFFFFF0000008094
:1076A400C0E0F0F0F0F0F0F0F0F0F0F0F0F0F0F016
:1076B400F0F0FFFFFFFF00000000000000000000EA
:1076C40000000000000000000000000000000000B6
:1076D4000000000000FFFFFFFF000000FFFFFFFFAE
:1076E400E0E0F0F8FC3E1F0703010000000000008A
:1076F4000103070F3EFCF8F0E0E0FFFFFFFF00008E
:107704000000000000000000000000000000000075
:1077140000000000FFFFFFFF000000000000000069
:10772400000000000000000000000000000F0F0F28
:107734000F0F0F0F0F0F0FFFFFFFFF000000FFFFE2
:10774400FFFF00000000000000C0E0F0783C0E3EA7
:107754007CF8F0E0C000000000000000FFFFFFFF25
:107764000000000000000000000000000F0F0F0FD9
:107774000F0F0F0F0F0FFFFFFFFF000000000000AF
:107784000000000000000000000000000000008075
:10779400808080808080808080FFFFFFFF00000069
:1077A400FFFFFFFF000000000000000000000000D9
:1077B4000000000000000000000000000000FFFFC7
:1077C400FFFF0000000000000000000000000000B7
:1077D4000000000000000000FFFFFFFF00000000A9
:1077E4000000000000000000000000000000000095
:1077F4000000000000000000000000FFFFFFFF0089
:107804000000FFFFFFFF0000000000000000000078
:107814000000000000000000000000000000000064
:10782400FFFFFFFF00000000000000000000000058
:1078340000000000000000000000FFFFFFFF000048
:107844000000000000000000000000000103070F1A
:107854000F0F0F0F0F0F0F0F0F0F0F0F0FFFFFFF64
:10786400FF000000FFFFFFFF000000000000000019
:107874000000000000000000000000000000000004
:107884000000FFFFFFFF0000000103070F0F0F0FB1
:107894000F0F0F0F0F0F0F0F0F0F0F0FFFFFFFFF34
:1078A40000000000000000000000000000000000D4
:1078B40000000000000000000000000000000000C4
:1078C40000000000000000000000000000000000B4
:1078D40000000000000000000000000000000000A4
:1078E4000000000000000000000000000000000094
:1078F4000000000000000000000000000000000084
:1079040000000000000000000F1020202020202094
:107914002020202020202020202020202020202063
:107924002020202020202020202020202427242440
:10793400242424272420100FFF00000000132424F3
:1079440024190000000000000000000000000000F6
:1079540000000000000000000000000000078BD3BE
:10796400E3D38B07000000FFC0201010101090908C
:107974009010101010101010101010101010101083
:1079840010101010101010101010101090909090F3
:1079940090909090901020C00F102025252720272C
:1079A40025272024242720202020202020202020B8
:1079B40020202020202020202020202020202026BD
:1079C400262626262727100FFF0010D15151101507
:1079D40010D7125152D71000000000000000000020
:1079E4000000000000000000000000000000000093
:1079F40060606060FFFF00FFC02010D010D010D086
:107A040010D0101010D010101010101010101010F2
:107A14001010101010101010101010101010101062
:107A240010101010909020C00F102020202F202F15
:107A34002422242F20202020202020202020202029
:107A44002020202020202020202020202028292F12
:107A54002F2928202123100FFF0023A2A3A02BA04D
:107A64002F2426A42F0000000000000000000000C6
:107A7400000000000000000000007AF9C0C0E0F03F
:107A8400F0E0C0C0E0F000FFC02090109010901013
:107A940090101010901010101010101010101010E2
:107AA4001010101010101010101090101010101052
:107AB40010101010101020C00F10202020202020A3
:107AC40020202020202020202020202020202020B2
:107AD400202020202020202020202020202020259D
:107AE40022212A242220100FFF00000001011F0080
:107AF4001F0804081F000000000000000000000030
:107B040000000000000000000000021C2444881053
:107B140020408040000000FFC02010101010101002
:107B24001010101010101010101010101010101051
:107B34001010101010101010101010101010101041
:107B440010101010101020C02327262723202626CB
:107B54002627272023272626272320FEFF03FFFE90
:107B6400003E7F63E3C30083C363331F0F00101021
:107B74001010101010101010101010101010101001
:107B840010232726272320232726272320232726BD
:107B940026272320FEFF03FFFE00FEFF03FFFE0057
:107BA400DEFF636307060010101010101010101091
:107BB4001010101010101010101023272627232047
:107BC40026262627272020272723202020FEFF03E0
:107BD400FFFE003E7F63E3C30003FFFF03000000DA
:107BE4001010101010101010101010101010101091
:107BF400101010232726272320232726272320237A
:107C0400272626272320FEFF03FFFE00FEFF03FF97
:107C1400FE0083C363331F0F0010101010101010E8
:107C240010101010101010101010101023272627F9
:107C3400232023272627232020272723202020FE34
:107C4400FF03FFFE00FEFF03FFFE0003FFFF030030
:107C54000000101010101010101010101010101040
:107C64001010101010202020202020232726262743
:107C74002320202027272320000000000000DEFF0F
:107C840063630706000003FFFF03001010101010C9
:107C940010101010101010101010101010102020C0
:107CA400202020202023272626272320202727239F
:107CB4002000000000000000FEFF0303FFFE00039D
:107CC400FFFF0300101010101010101010101010EF
:107CD40010101010101010202020202020262626FE
:107CE4002626272720202020202000000000000036
:107CF4003E7F636363E3E3000000000000101010A4
:107D0400101010101010101010101010101010106F
:107D14002020202020202327262626272320202039
:107D24002020200000000000003E7F636363FFFE0C
:107D3400000000000000101010101010101010109F
:107D440010101010101010101020202020202027B8
:107D5400272020202727202020202020000000008A
:107D64000000FFFF606060E0E00000000000001021
:107D740010101010101010101010101010101010FF
:107D840010102020202020202023272626272320EF
:107D9400202020202000000000000000DEFF63639C
:107DA4000706000000000000101010101010101042
:107DB400101010101010101010101020202020206F
:107DC40020202327262627232020202020200000CF
:107DD400000000000083C363331F0F000000000095
:107DE400001010101010101010101010101010109F
:107DF400101010102626262727202020202327268F
:107E0400262723202020203E7F63E3C300060600AC
:107E140083C363331F0F00000000101010101010F4
:107E2400101010101010101010101010102626260C
:107E3400272720202020202727232020202020201F
:107E44003E7F63E3C30006060003FFFF0300000058
:107E5400000000101010101010101010101010104E
:107E64001010101010102020202020202020272760
:107E740023202020202020202000000000000000DB
:107E840003FFFF03000000000000000010101010AA
:107E940010101010101010101010101010101020CE
:107EA40020202020202327262626272320202020A8
:107EB4002020000000000000FEFF030303FFFE007B
:107EC40000000000001010101010101010101010FE
:107ED4001010101010101010808080808080808F0F
:107EE4008FBFBFBFBFBF8F8F8080808080808001A5
:107EF400010101010101FDFDFDFDFDFDFDFDFD0192
:107F0400010101010101808080808080808F8FBF0A
:107F1400A7A7A7BF8F8F8080808080808001010108
:107F240001010101FDFDFDFDFDFDFDFDFD01010161
:107F340001010101808080808080808F89B9A1A1A6
:107F4400A1B9898F80808080808080010101010136
:107F54000101FDFDFDFDFDFDFDFDFD010101010131
:107F64000101808080808080808F88B8A0A0A0B824
:107F7400888F80808080808080010101010101015F
:107F8400FD7D7D7D7D7D7D7DFD0101010101010181
:107F9400808080808080808F88B8A0A0A0B8888FDF
:107FA4008080808080808001010101010101FD1D2C
