:0400000007EF00F016
:10000800578235ED06F010EF32F0010E566E52ECC5
:1000180036F049EC36F0E0EC35F080EC35F059EC90
:1000280036F0000E4E6E000E4D6E000E0101746F1C
:10003800000E756F000E766F000E776F000E0101CF
:10004800706F000E716F000E726F000E736F000EEE
:100058000101056F000E0101016F010E0101336FEF
:100068009C0E326F040E0101146F000E0101036F24
:10007800030E0101006F000E0101096F500E086F99
:10008800000E01010B6F640E0A6F000E01012D6F47
:100098002B0E2C6F000E01012F6F2B0E2E6F0101FE
:1000A8000351D8A40FD0AE0E0101786F7F0E010165
:1000B800796F71EC2CF000F000F000F0030000F014
:1000C80000F000F001010551D8B419D181B039D040
:1000D8008C888C948C96000E01011E6F000E010115
:1000E800316F000E306F020E0101336F580E326F00
:1000F80018D08C84200E0001EE6F000EEF6F000EFA
:10010800F06F000EF16F97EC35F08C94100E000133
:10011800EE6F000EEF6F000EF06F000EF16F97ECB0
:1001280035F02C0E0101305D010E01013159D8A0C6
:10013800E0D7000E01011E6F000E0101316F000EA5
:10014800306F040E01011419D8A405D0020E010164
:10015800336F580E13D0060E01011419D8A405D018
:10016800010E0101336F9C0E09D00D0E0101141907
:10017800D8A405D0000E0101336F010E326F8C88B0
:100188008C948C96000E0101066F8C8818D08C8692
:10019800200E0001EE6F000EEF6F000EF06F000EE4
:1001A800F16F97EC35F08C96100E0001EE6F000E93
:1001B800EF6F000EF06F000EF16F97EC35F0010154
:1001C8000651D8B4E4D78C888C948C960D0E010116
:1001D8001419D8A404D0000E0101056F2CD08C8806
:1001E800000E01011E6F000E0101316F000E306F0D
:1001F800010E0101076F18D08C84200E0001EE6FEC
:10020800000EEF6F000EF06F000EF16F97EC35F0F7
:100218008C94100E0001EE6F000EEF6F000EF06F61
:10022800000EF16F97EC35F001011E51D8B4E4D7F8
:100238008C888C948C96230E0101786F7F0E0101B7
:10024800796F30C17AF131C17BF171EC2CF0C30EBA
:100258002A6E500E296E0CEC36F0C30E2A6E500E24
:10026800296E0CEC36F0C30E2A6E500E296E0CEC7B
:1002780036F0C30E2A6E500E296E0CEC36F0C30E03
:100288002A6E500E296E0CEC36F0C30E2A6E500EF4
:10029800296E0CEC36F0C30E2A6E500E296E0CEC4B
:1002A80036F0C30E2A6E500E296E0CEC36F0C30ED3
:1002B8002A6E500E296E0CEC36F0C30E2A6E500EC4
:1002C800296E0CEC36F0370E0101786F7F0E0101B4
:1002D800796F30C17AF131C17BF171EC2CF0000EED
:1002E8000101056F000E0101066F000E0101316F5B
:1002F800000E306F000E01011E6FC8EF05F00101FE
:100308000005D8B405D0BFD10101056FC8EF05F0CD
:1003180001011B05D8A4AAD0000E0101236F000E0D
:10032800226F0D0E01011419D8A40BD08C888C846F
:10033800010123516FE19C0E0101225DD8B06AD002
:10034800F7D7CC0E296E000E2A6E61EC2FF0CC0E7A
:10035800296E000E2A6EA5EC17F0000E0001EA6F58
:10036800000E0001EB6F000E0001EC6FDEC0EDF037
:10037800DFC0EEF0E0C0EFF09FEC30F00001D8B045
:1003880003D08C848C9602D08C948C868C88000E3A
:100398000001EA6FC60E0001EB6F420E0001EC6F20
:1003A800D8C0EDF0D9C0EEF0DAC0EFF09FEC30F035
:1003B8000001D8B0CCD7D8C0EAF0D9C0EBF0DAC089
:1003C800ECF0000E0001ED6FCA0E0001EE6F420E58
:1003D8000001EF6F9FEC30F00001D8B0B8D78C88DF
:1003E8008C948C96800E0101786F7F0E0101796FD5
:1003F800D8C0EAF0D9C0EBF0DAC0ECF01AEC2DF076
:10040800EAC07AF1EBC07BF1ECC07CF1EDC07DF184
:1004180071EC2CF08C888C948C96A00E0101786F6E
:100428007E0E0101796F22C17AF123C17BF171EC53
:100438002CF04E0E2A6E200E296E0CEC36F04E0E65
:100448002A6E200E296E0CEC36F0BB0E0101786F77
:100458007E0E0101796F22C17AF123C17BF171EC23
:100468002CF0ADD2000E01011C6FADD201011D05AB
:10047800D8A422D0000E306E000E2F6E8C908C9275
:100488008C808C928B8408D080A8FED72F4A302A83
:1004980080B8FED72F4A302A0101195101019C6FFB
:1004A8009D6B01019C512F5C01019D513058D8A0D2
:1004B800EBD78C908C92C6D201011C05D8A464D3CA
:1004C800000E0101256F000E246F0D0E0101141995
:1004D800D8A405D08C888C8681A06AD0FDD7CC0E94
:1004E800296E000E2A6E61EC2FF0CC0E296E000EDC
:1004F8002A6EA5EC17F0000E0001EA6F000E00014D
:10050800EB6F000E0001EC6FDEC0EDF0DFC0EEF027
:10051800E0C0EFF09FEC30F00001D8B003D08C942D
:100528008C8602D08C848C968C88000E0001EA6F31
:10053800C60E0001EB6F420E0001EC6FD8C0EDF063
:10054800D9C0EEF0DAC0EFF09FEC30F00001D8B07F
:10055800CCD7D8C0EAF0D9C0EBF0DAC0ECF0000E86
:100568000001ED6FCA0E0001EE6F420E0001EF6F41
:100578009FEC30F00001D8B0B8D78C888C948C965A
:10058800800E0101786F7F0E0101796FD8C0EAF003
:10059800D9C0EBF0DAC0ECF01AEC2DF0EAC07AF131
:1005A800EBC07BF1ECC07CF1EDC07DF171EC2CF07F
:1005B8008C888C948C96D60E0101786F7E0E010182
:1005C800796F24C17AF125C17BF171EC2CF04E0EC4
:1005D8002A6E200E296E0CEC36F04E0E2A6E200E76
:1005E800296E0CEC36F07C0E0101786F7E0E01014D
:1005F800796F24C17AF125C17BF171EC2CF081AAC5
:100608003FD08C888C948C968C908C928C908C9209
:100618008C908C828B8408D080A8FED72F4A302AF1
:1006280080B8FED72F4A302A040E2F5C010E3058AE
:10063800D8A0F2D78C908C92000E01011B6F000E8F
:1006480001011C6F000E01011D6F000E01011A6FE0
:100658000D0E01011419D8A402D0000E01D0010E0C
:100668000101056F030E0101006F000E0101296FE2
:10067800000E286F000E01012B6F000E2A6F84D226
:1006880081BA82D263D201010051D8A43CD1910E23
:100698000101786F7F0E0101796F71EC2CF0010177
:1006A8001B05D8A441D0000E0101236F000E226F54
:1006B8000D0E01011419D8A40BD08C888C8401016B
:1006C80023510EE19C0E0101225DD8B009D0F7D765
:1006D8008C888C84360E2A6EB00E296E0CEC36F09F
:1006E8008C888C948C96C30E2A6E500E296E0CEC56
:1006F80036F0C30E2A6E500E296E0CEC36F0F10E51
:100708000101786F7E0E0101796F22C17AF123C150
:100718007BF171EC2CF0000E01011B6F000E010142
:100728001C6F010E01011D6F01011D05D8B447D0D2
:1007380067D0000E306E000E2F6E8C908C928C80DD
:100748008C928B8408D080A8FED72F4A302A80B894
:10075800FED72F4A302A305004E1920E2F5CD8A0E1
:10076800F2D78C908C92C30E2A6E500E296E0CEC28
:1007780036F0C30E2A6E500E296E0CEC36F0C30EFE
:100788002A6E500E296E0CEC36F0C30E2A6E500EEF
:10079800296E0CEC36F0C30E2A6E500E296E0CEC46
:1007A80036F0C30E2A6E500E296E0CEC36F0C80EC9
:1007B8000101786F7F0E0101796F71EC2CF081AA2D
:1007C800B8D76F0E0101786F7F0E0101796F71EC58
:1007D8002CF08C908C92C30E2A6E500E296E0CEC65
:1007E80036F0C30E2A6E500E296E0CEC36F0000E51
:1007F80001011B6F000E01011D6F010E01011C6F2D
:1008080001011C05D8A4C0D1000E0101256F000EFE
:10081800246F0D0E01011419D8A405D08C888C867C
:1008280081A009D0FDD78C888C86860E2A6EA00EF2
:10083800296E0CEC36F08C888C948C9617C1EAF0F3
:1008480018C1EBF0010E0001ED6F2C0EEC6F4FECB0
:1008580035F00001EAC0EEF00001EBC0EFF0000156
:10086800F06BF16B97EC35F00A0E0101786F7F0E93
:100878000101796F24C17AF125C17BF171EC2CF06B
:1008880081AA82D13A0E2A6E980E296E0CEC36F0A7
:1008980081AA7AD18C888C948C968C908C928C902E
:1008A8008C928C908C828B84000E306E000E2F6E92
:1008B80008D080A8FED72F4A302A80B8FED72F4A02
:1008C800302A305004E1780E2F5CD8A0F2D78C90F3
:1008D8008C92000E01011B6F000E01011C6F000EAF
:1008E80001011D6F000E01011A6F0D0E010114198F
:1008F800D8A402D0000E01D0010E0101056F030E2D
:100908000101006F41D1020E01010019D8B43CD198
:10091800040E01010019D8A423D14B0E0101786FF0
:100928007F0E0101796F71EC2CF002D0010EECD42E
:1009380001011B05D8A44BD0000E0101236F000E46
:10094800226F0D0E01011419D8A40BD08C848C8849
:10095800010123511BE19C0E0101225DD8B016D084
:10096800F7D78C848C880AD081A4FED70101224B4A
:10097800232B81B4FED70101224B232B01012351E4
:1009880005E1140E0101225DD8A0EED78C888C9465
:100998008C9617C1EAF018C1EBF0010E0001ED6F5B
:1009A8002C0EEC6F4FEC35F00001EAC0EEF00001C0
:1009B800EBC0EFF00001F06BF16B97EC35F0000E37
:1009C80001011B6F4FD5010E01011D6FDDD0010123
:1009D8001D05D8A441D0000E306E000E2F6E8C90ED
:1009E8008C928C808C928B8408D080A8FED72F4A5A
:1009F800302A80B8FED72F4A302A01011951010147
:100A08009C6F9D6B01019C512F5C01019D513058D9
:100A1800D8A0EBD78C908C9217C1EAF018C1EBF0F4
:100A2800010E0001ED6F2C0EEC6F4FEC35F000015C
:100A3800EAC0EEF00001EBC0EFF00001F06BF16BE3
:100A480097EC35F0000E01011B6F000E01011D6FC0
:100A5800010E01011C6F98D001011C05D8A494D087
:100A6800000E0101256F000E246F0D0E01011419EF
:100A7800D8A405D08C868C8881A016D0FDD78C860A
:100A88008C880AD081A4FED70101244B252B81B480
:100A9800FED70101244B252B0101255105E1140E38
:100AA8000101245DD8A0EED78C888C948C9617C150
:100AB800EAF018C1EBF0010E0001ED6F2C0EEC6F9F
:100AC8004FEC35F00001EAC0EEF00001EBC0EFF0AA
:100AD8000001F06BF16B97EC35F04E0E0101786F69
:100AE8007F0E0101796F71EC2CF033B02FD08C8818
:100AF8008C948C968C908C928C908C928C908C820E
:100B08008B8408D080A8FED72F4A302A80B8FED719
:100B18002F4A302A305004E10E0E2F5CD8A0F2D7AD
:100B28008C908C92000E01011B6F000E01011C6F4E
:100B3800000E01011D6F000E01011A6F0D0E01015B
:100B48001419D8A4F3D6000E88EF01F0000E0101A5
:100B58001C6F000E01011D6F010E01011B6F14D0E7
:100B6800030E01010019D8A407D0F2AA02D0D5BEFD
:100B78000BD0D58EF28A08D0A00E0101786F7F0EB7
:100B88000101796F71EC2CF038EC33F001011A5146
:100B9800D8B453EF00F04E0E2A6E200E296E0CECDE
:100BA80036F081BA59D0FEEC35F0F29AD59E0101A3
:100BB8000305D8A451D0E80E0101786F7F0E01011A
:100BC800796F71EC2CF001010105D8A413D0BB0E8C
:100BD8000101786F7F0E0101796F71EC2CF0010E25
:100BE80001011A6F31D0000E01011C6F31D001C113
:100BF80000F132D001010151D8A417D0DF0E010154
:100C0800786F7F0E0101796F71EC2CF0010E0101F4
:100C18001B6F000E01011C6F000E01011D6F01C149
:100C280000F1000E0101006F17D0040E0101011937
:100C3800D8A412D0334A342A510E0101786F7F0E9E
:100C48000101796F71EC2CF0010E01011B6FCBD7FC
:100C5800000E01011D6FCBD7000E01011A6F53EF73
:100C680000F00600FACF1BF0FBCF1CF0E9CF1DF017
:100C7800EACF1EF0E1CF1FF0E2CF20F0D9CF21F06C
:100C8800DACF22F0F3CF23F0F4CF24F0F6CF25F01B
:100C9800F7CF26F0F8CF27F0F5CF28F0F0A2EDD067
:100CA800F1B802D0F18802D0F1B8F19801010551EC
:100CB800D8B419D001010705D8A403D00101304BDD
:100CC800312B010132510101301905E10101335184
:100CD80001013119D8A4D0D0010E01011E6F8C88F2
:100CE8008C948C96C9D001010005D8A4A4D0010128
:100CF8001B05D8A448D0F1A822D082B00FD0D8C004
:100D080009F0D9C00AF0DAC00BF0000E0C6E800EA4
:100D18000D6E3F0E0E6E6BEC22F06FD082A0ACD041
:100D2800D8C015F0D9C016F0DAC017F0000E186E4A
:100D3800800E196E3F0E1A6ED8EC34F075D0F1B8EB
:100D48009BD082B00FD0D8C015F0D9C016F0DAC049
:100D580017F0000E186E800E196E3F0E1A6ED8EC42
:100D680034F062D082A088D0D8C009F0D9C00AF087
:100D7800DAC00BF0000E0C6E800E0D6E3F0E0E6E7C
:100D88006BEC22F03AD001011C05D8A475D0F1A86B
:100D980022D082B00FD0D8C015F0D9C016F0DAC072
:100DA80017F0000E186E800E196E3F0E1A6ED8ECF2
:100DB80034F03AD082A060D0D8C009F0D9C00AF087
:100DC800DAC00BF0000E0C6E800E0D6E3F0E0E6E2C
:100DD8006BEC22F012D0F1B84FD082B015D0D8C049
:100DE80009F0D9C00AF0DAC00BF0000E0C6E800EC4
:100DF8000D6E3F0E0E6E6BEC22F009C0D8F00AC0E3
:100E0800D9F00BC0DAF038D082A036D0D8C015F0AF
:100E1800D9C016F0DAC017F0000E186E800E196EE1
:100E28003F0E1A6ED8EC34F015C0D8F016C0D9F0C1
:100E380017C0DAF021D0020E01010019D8B41CD075
:100E480001010051D8A40CD001011B05D8B411D060
:100E580001011C05D8A410D00101244B252B0CD06E
:100E6800040E01010019D8A407D001011B05D8A45C
:100E7800EFD70101224B232BF092F2A478D1010E77
:100E880001015427000E55235623572301015751BA
:100E9800010156110101551105E17E0E0101545D54
:100EA800D8A064D1030E00018119D8A432D03E0421
:100EB800D8A408D0490E0D6E800E0E6E000EC6EC3A
:100EC8002BF0E9D03E50D8A448D1010E3E6E3D50DB
:100ED800D8A408D0490E0D6E800E0E6E000E70EC70
:100EE8002AF03BD13D04D8A408D0490E0D6E800EDF
:100EF8000E6E000E6FEC28F030D1020E3D18D8A40B
:100F08002CD1490E0D6E800E0E6E000E1AEC29F0D3
:100F180024D1030E00019919D8A435D03E04D8A4D1
:100F280008D03F0E0D6E800E0E6E010E7EEC10F096
:100F3800B2D03E50D8A411D1010E3E6E00019D5191
:100F4800D8A408D03F0E0D6E840E0E6E000E03EC72
:100F580016F003D100019D05D8A408D03F0E0D6EF0
:100F6800860E0E6E000E03EC16F0F7D0020E00018E
:100F78009D19D8A4F2D03F0E0D6E8D0E0E6E000E88
:100F880003EC16F0EAD0030E0001A119D8A428D06A
:100F98003E04D8A408D00E0E0D6E800E0E6E010E03
:100FA8007EEC10F078D03E50D8A4D7D0010E3E6E1B
:100FB8000001A551D8A408D00E0E0D6E810E0E6E3C
:100FC800000E03EC16F0C9D00001A505D8A4C5D0C1
:100FD8000E0E0D6E820E0E6E000E03EC16F0BDD0D6
:100FE800030E0001A919D8A435D03E04D8A408D00E
:100FF8003F0E0D6E800E0E6E020E7EEC10F04BD082
:101008003E50D8A4AAD0010E3E6E0001AD51D8A41E
:1010180008D03F0E0D6E820E0E6E030E03EC16F016
:101028009CD00001AD05D8A408D03F0E0D6E830EEC
:101038000E6E030E03EC16F090D0020E0001AD19EF
:10104800D8A48BD03F0E0D6E850E0E6E030E03ECEA
:1010580016F083D0030E0001B119D8A47ED03E0447
:10106800D8A41CD03D50D8B404D0020E3D18D8A442
:1010780008D00E0E0D6E800E0E6E020E7EEC10F075
:101088000AD03D04D8A407D0110E0D6E800E0E6E46
:10109800020E7EEC10F0000E3E6E5FD03E50D8A4DB
:1010A8005CD0010E3E6E0001B551D8A41AD03D5057
:1010B800D8B404D0020E3D18D8A408D00E0E0D6E78
:1010C800830E0E6E030E03EC16F047D03D04D8A431
:1010D80044D0110E0D6EE70E0E6E030E03EC16F0E3
:1010E8003CD00001B505D8A41AD03D50D8B404D0DE
:1010F800020E3D18D8A408D00E0E0D6E830E0E6E8B
:10110800030E03EC16F029D03D04D8A426D0110E06
:101118000D6EE40E0E6E030E03EC16F01ED0020EDA
:101128000001B519D8A419D03D50D8B404D0020E86
:101138003D18D8A408D00E0E0D6E830E0E6E030E49
:1011480003EC16F00AD03D04D8A407D0110E0D6E9A
:10115800E60E0E6E030E03EC16F0000E0101546F3E
:10116800000E556F000E566F000E576FF294F2A0E6
:1011780078D081A883AC6FD083BE81A66CD0040ED2
:10118800016E000E026E000E036E000E046EF8EC87
:1011980034F081A883AC5FD083BE81A65CD019EC03
:1011A80036F0000E4F6E01010351D8A42CD0010E69
:1011B8000101036F8FEC36F08C908C928C888C94A4
:1011C8008C968B848C88D50E0D6E7F0E0E6E4CEC33
:1011D8002EF0000E0101066F010E0101056F000ED1
:1011E8000101076F000E0101296F000E286F000E24
:1011F80001012B6F000E2A6FCCEC2FF0BCEC2DF008
:10120800F28AD58E28D001010305D8A424D0000E77
:101218000101036F8DEC36F0250E0201006F000E00
:10122800036E020E046E000E056E000E076E010EB0
:10123800066EE1EC33F08C908C928C888C948C96B2
:101248008B948C98000E0101056FF10E0D6E7F0EC8
:101258000E6E4CEC2EF081BA03D0010E01011A6F0C
:10126800F290F2A20AD0010E0101066FF90E0D6E7E
:101278007F0E0E6E4CEC2EF0F29228C0F5FF27C0C0
:10128800F8FF26C0F7FF25C0F6FF24C0F4FF23C0EF
:10129800F3FF22C0DAFF21C0D9FF20C0E2FF1FC040
:1012A800E1FF1EC0EAFF1DC0E9FF1CC0FBFF1BC019
:1012B800FAFF579211000001F76F000E0001F86F56
:1012C800000E0001F66F0001F705D8A44AD100010D
:1012D800F5510001D8A480D0F4C0F2F0020E65ECFC
:1012E80033F0000E526E2F0E526401D01DD05250B2
:1012F800010D7F0EF324F66E730EF420F76E0800CE
:10130800F5CFF8F0F80E0001EA6F000E0001EB6F60
:10131800400E0001EC6F000E0001EE6F010EED6F44
:10132800BBEC33F0522ADFD7F4C0F2F0030E65ECC1
:1013380033F0000E526E2F0E526401D021D052505D
:10134800010D300EF326000EF4227F0EF324F66E04
:10135800730EF420F76E0800F5CFF8F0F80E0001D0
:10136800EA6F000E0001EB6F400E0001EC6F000EFB
:101378000001EE6F010EED6FBBEC33F0522ADBD7A4
:10138800F4C0F2F0040E65EC33F0000E526E2F0E2E
:10139800526401D012005250010D600EF326000E67
:1013A800F4227F0EF324F66E730EF420F76E080015
:1013B800F5CFF8F0F80E0001EA6F000E0001EB6FB0
:1013C800400E0001EC6F000E0001EE6F010EED6F94
:1013D800BBEC33F0522ADBD7800E0001F519D8A4F4
:1013E8001200F4C0F2F0020E65EC33F0000E526EFB
:1013F8002F0E526401D036D05250010D7F0EF324C7
:10140800F66E730EF420F76E0800F5CFF8F0525020
:10141800D8B404D02F0E5218D8A402D00F0E08D07A
:101428005204D8B404D02E0E5218D8A404D01F0EDB
:101438000001F86F05D00001F81F3F0E0001F817F2
:10144800F80E0001EA6F000E0001EB6F400E00017C
:10145800EC6F000E0001EE6F010EED6FBBEC33F088
:10146800522AC6D7F4C0F2F0030E65EC33F0000E32
:10147800526E2F0E526401D02DD05250010D300EF5
:10148800F326000EF4227F0EF324F66E730EF4207A
:10149800F76E0800F5CFF8F05250D8B404D02F0EEC
:1014A8005218D8A403D00001F86902D00001F81F2F
:1014B800F80E0001EA6F000E0001EB6F400E00010C
:1014C800EC6F000E0001EE6F010EED6FBBEC33F018
:1014D800522ACFD7F4C0F2F0040E65EC33F0000EB8
:1014E800526E2F0E526401D012005250010D600E40
:1014F800F326000EF4227F0EF324F66E730EF4200A
:10150800F76E0800F5CFF8F05250D8B404D02F0E7B
:101518005218D8A402D0E00E08D05204D8B404D08F
:101528002E0E5218D8A404D0F00E0001F86F07D080
:101538000001F81FF00E0001F8170001F889F80EF5
:101548000001EA6F000E0001EB6F400E0001EC6F26
:10155800000E0001EE6F010EED6FBBEC33F0522A66
:10156800C0D7020E0001F719D8A412000001F551E6
:101578000001D8A480D0F4C0F2F0020E65EC33F07C
:10158800000E526E2F0E526401D01DD05250010D24
:10159800EF0EF324F66E720EF420F76E0800F5CF06
:1015A800F8F0F80E0001EA6F000E0001EB6F400E34
:1015B8000001EC6F000E0001EE6F010EED6FBBEC49
:1015C80033F0522ADFD7F4C0F2F0030E65EC33F0A3
:1015D800000E526E2F0E526401D021D05250010DD0
:1015E800300EF326000EF422EF0EF324F66E720E80
:1015F800F420F76E0800F5CFF8F0F80E0001EA6F56
:10160800000E0001EB6F400E0001EC6F000E0001B0
:10161800EE6F010EED6FBBEC33F0522ADBD7F4C04E
:10162800F2F0040E65EC33F0000E526E2F0E526489
:1016380001D012005250010D600EF326000EF42264
:10164800EF0EF324F66E720EF420F76E0800F5CF55
:10165800F8F0F80E0001EA6F000E0001EB6F400E83
:101668000001EC6F000E0001EE6F010EED6FBBEC98
:1016780033F0522ADBD7800E0001F519D8A41200E6
:10168800F4C0F2F0020E65EC33F0000E526E2F0E2D
:10169800526401D036D05250010DEF0EF324F66E8D
:1016A800720EF420F76E0800F5CFF8F05250D8B457
:1016B80004D02F0E5218D8A402D00F0E08D052040E
:1016C800D8B404D02E0E5218D8A404D01F0E00018E
:1016D800F86F05D00001F81F3F0E0001F817F80E4B
:1016E8000001EA6F000E0001EB6F400E0001EC6F85
:1016F800000E0001EE6F010EED6FBBEC33F0522AC5
:10170800C6D7F4C0F2F0030E65EC33F0000E526E4B
:101718002F0E526401D02DD05250010D300EF326F9
:10172800000EF422EF0EF324F66E720EF420F76E1C
:101738000800F5CFF8F05250D8B404D02F0E521844
:10174800D8A403D00001F86902D00001F81FF80EF0
:101758000001EA6F000E0001EB6F400E0001EC6F14
:10176800000E0001EE6F010EED6FBBEC33F0522A54
:10177800CFD7F4C0F2F0040E65EC33F0000E526ED1
:101788002F0E526401D012005250010D600EF32644
:10179800000EF422EF0EF324F66E720EF420F76EAC
:1017A8000800F5CFF8F05250D8B404D02F0E5218D4
:1017B800D8A402D0E00E08D05204D8B404D02E0E1B
:1017C8005218D8A404D0F00E0001F86F07D0000119
:1017D800F81FF00E0001F8170001F889F80E000153
:1017E800EA6F000E0001EB6F400E0001EC6F000E77
:1017F8000001EE6F010EED6FBBEC33F0522AC0D73B
:10180800106E000E116E000E0F6E1004D8A426D1B3
:101818000E50D8A474D00DC00BF0020E95EC34F025
:10182800000E526E2F0E526401D019D05250010D85
:101838007F0EF324F66E730EF420F76E0800F5CFD2
:1018480011F0110E036E000E046E400E056E000EB0
:10185800076E010E066EE1EC33F0522AE3D70DC095
:101868000BF0030E95EC34F0000E526E2F0E5264FE
:1018780001D01DD05250010D300EF326000EF42277
:101888007F0EF324F66E730EF420F76E0800F5CF82
:1018980011F0110E036E000E046E400E056E000E60
:1018A800076E010E066EE1EC33F0522ADFD70DC049
:1018B8000BF0040E95EC34F0000E526E2F0E5264AD
:1018C80001D012005250010D600EF326000EF422D2
:1018D8007F0EF324F66E730EF420F76E0800F5CF32
:1018E80011F0110E036E000E046E400E056E000E10
:1018F800076E010E066EE1EC33F0522ADFD7800E38
:101908000E18D8A412000DC00BF0020E95EC34F09E
:10191800000E526E2F0E526401D02FD05250010D7E
:101928007F0EF324F66E730EF420F76E0800F5CFE1
:1019380011F05250D8B404D02F0E5218D8A402D0A7
:101948000F0E08D05204D8B404D02E0E5218D8A4C2
:1019580003D01F0E116E03D0111E3F0E1116110E6B
:10196800036E000E046E400E056E000E076E010E2B
:10197800066EE1EC33F0522ACDD70DC00BF0030E02
:1019880095EC34F0000E526E2F0E526401D027D021
:101998005250010D300EF326000EF4227F0EF32470
:1019A800F66E730EF420F76E0800F5CF11F0525062
:1019B800D8B404D02F0E5218D8A402D0116801D080
:1019C800111E110E036E000E046E400E056E000E01
:1019D800076E010E066EE1EC33F0522AD5D70DC022
:1019E8000BF0040E95EC34F0000E526E2F0E52647C
:1019F80001D012005250010D600EF326000EF422A1
:101A08007F0EF324F66E730EF420F76E0800F5CF00
:101A180011F05250D8B404D02F0E5218D8A402D0C6
:101A2800E00E08D05204D8B404D02E0E5218D8A410
:101A380003D0F00E116E04D0111EF00E111611888D
:101A4800110E036E000E046E400E056E000E076E3A
:101A5800010E066EE1EC33F0522AC8D7020E1018B8
:101A6800D8A412000E50D8A474D00DC00BF0020EEA
:101A780095EC34F0000E526E2F0E526401D019D03E
:101A88005250010DEF0EF324F66E720EF420F76E2D
:101A98000800F5CF11F0110E036E000E046E400E13
:101AA800056E000E076E010E066EE1EC33F0522A49
:101AB800E3D70DC00BF0030E95EC34F0000E526E18
:101AC8002F0E526401D01DD05250010D300EF32656
:101AD800000EF422EF0EF324F66E720EF420F76E69
:101AE8000800F5CF11F0110E036E000E046E400EC3
:101AF800056E000E076E010E066EE1EC33F0522AF9
:101B0800DFD70DC00BF0040E95EC34F0000E526ECA
:101B18002F0E526401D012005250010D600EF326B0
:101B2800000EF422EF0EF324F66E720EF420F76E18
:101B38000800F5CF11F0110E036E000E046E400E72
:101B4800056E000E076E010E066EE1EC33F0522AA8
:101B5800DFD7800E0E18D8A412000DC00BF0020EAD
:101B680095EC34F0000E526E2F0E526401D02FD037
:101B78005250010DEF0EF324F66E720EF420F76E3C
:101B88000800F5CF11F05250D8B404D02F0E5218D7
:101B9800D8A402D00F0E08D05204D8B404D02E0E08
:101BA8005218D8A403D01F0E116E03D0111E3F0E79
:101BB8001116110E036E000E046E400E056E000E17
:101BC800076E010E066EE1EC33F0522ACDD70DC038
:101BD8000BF0030E95EC34F0000E526E2F0E52648B
:101BE80001D027D05250010D300EF326000EF422FA
:101BF800EF0EF324F66E720EF420F76E0800F5CFA0
:101C080011F05250D8B404D02F0E5218D8A402D0D4
:101C1800116801D0111E110E036E000E046E400EE5
:101C2800056E000E076E010E066EE1EC33F0522AC7
:101C3800D5D70DC00BF0040E95EC34F0000E526EA3
:101C48002F0E526401D012005250010D600EF3267F
:101C5800000EF422EF0EF324F66E720EF420F76EE7
:101C68000800F5CF11F05250D8B404D02F0E5218F6
:101C7800D8A402D0E00E08D05204D8B404D02E0E56
:101C88005218D8A403D0F00E116E04D0111EF00E15
:101C980011161188110E036E000E046E400E056EAB
:101CA800000E076E010E066EE1EC33F0522AC8D71B
:101CB8000001FB6F13D2030E0001B119D8A40BD099
:101CC8000001B52B030E0001B519D8A41200000EAF
:101CD8000001B56F1200070E3718D8A402D0800E85
:101CE80001D0000E0001B16F0001B1510001B2191D
:101CF800D8B412003D50D8B404D0020E3D18D8A470
:101D080009D0000E0001F46FB1C0F5F0020E5DECD1
:101D180014F00BD03D04D8A408D0000E0001F46FD5
:101D2800B1C0F5F0030E5DEC14F00001B551D8A474
:101D380022D03D50D8B404D0020E3D18D8A40CD0FF
:101D48000E0E0001F46F0001B15103090001F56F97
:101D5800030E80EC12F05BD03D04D8A458D0110ECD
:101D68000001F46F0001B15167090001F56F030E1E
:101D780080EC12F04CD00001B505D8A422D03D501B
:101D8800D8B404D0020E3D18D8A40CD00E0E000111
:101D9800F46F0001B15103090001F56F030E80ECE7
:101DA80012F035D03D04D8A432D0110E0001F46FE2
:101DB8000001B15164090001F56F030E80EC12F0C7
:101DC80026D0020E0001B519D8A421D03D50D8B4B0
:101DD80004D0020E3D18D8A40CD00E0E0001F46FEA
:101DE8000001B15103090001F56F030E80EC12F0F8
:101DF8000ED03D04D8A40BD0110E0001F46F0001E1
:101E0800B15166090001F56F030E80EC12F0B1C004
:101E1800B2F01200030E0001B119D8A40AD00001D3
:101E2800B5070001B529D8A41200020E0001B56F4C
:101E38001200070E3718D8A402D0800E01D0000E69
:101E48000001B16F0001B1510001B219D8B41200FC
:101E58003D50D8B404D0020E3D18D8A409D0000EC5
:101E68000001F46FB1C0F5F0020E5DEC14F00BD078
:101E78003D04D8A408D0000E0001F46FB1C0F5F0FD
:101E8800030E5DEC14F00001B551D8A422D03D50EA
:101E9800D8B404D0020E3D18D8A40CD00E0E000100
:101EA800F46F0001B15103090001F56F030E80ECD6
:101EB80012F05BD03D04D8A458D0110E0001F46F85
:101EC8000001B15167090001F56F030E80EC12F0B3
:101ED8004CD00001B505D8A422D03D50D8B404D0C8
:101EE800020E3D18D8A40CD00E0E0001F46F0001AC
:101EF800B15103090001F56F030E80EC12F035D0E3
:101F08003D04D8A432D0110E0001F46F0001B15184
:101F180064090001F56F030E80EC12F026D0020E62
:101F28000001B519D8A421D03D50D8B404D0020E70
:101F38003D18D8A40CD00E0E0001F46F0001B15169
:101F480003090001F56F030E80EC12F00ED03D047A
:101F5800D8A40BD0110E0001F46F0001B15166092D
:101F68000001F56F030E80EC12F0B1C0B2F0120060
:101F7800800E0001B119D8A406D0030E0001B16F7C
:101F8800010E3E6E08D0030E0001B119D8A403D08B
:101F9800000E0001B16F0001B1510001B219D8B4AF
:101FA80012000001B151D8A496D03D50D8B404D045
:101FB800020E3D18D8A40AD0000E0001F46F000EDE
:101FC8000001F56F020E5DEC14F00CD03D04D8A4AE
:101FD80009D0000E0001F46F000E0001F56F030E2A
:101FE8005DEC14F00001B551D8A424D03D50D8B40C
:101FF80004D0020E3D18D8A40AD00E0E0001F46FCA
:10200800030E0001F56F030E80EC12F064D03D045E
:10201800D8A461D0110E0001F46F0001B95167090D
:102028000001F56F030E80EC12F0000E0101186F2D
:10203800140E50D00001B505D8A424D03D50D8B412
:1020480004D0020E3D18D8A40AD00E0E0001F46F79
:10205800030E0001F56F030E80EC12F03CD03D0436
:10206800D8A439D0110E0001F46F0001B9516409E8
:102078000001F56F030E80EC12F0000E0101186FDD
:10208800C80E28D0020E0001B519D8A424D03D509E
:10209800D8B404D0020E3D18D8A40AD00E0E000100
:1020A800F46F030E0001F56F030E80EC12F013D0ED
:1020B8003D04D8A410D0110E0001F46F0001B951ED
:1020C80066090001F56F030E80EC12F0000E0101A5
:1020D800186F640E176FB1C0B2F012000001FB5107
:1020E800F10AD8B4E8D5030AD8B494D6010AD8A41A
:1020F80012003ED70F6E000E116E000E106E0F0408
:10210800D8A4FBD00E50D8A474D00DC00BF0020E8A
:1021180095EC34F0000E526E120E526401D019D0B4
:102128005250010D0F0EF324F66E740EF420F76E64
:102138000800F5CF11F0110E036E000E046E400E6C
:10214800056E000E076E010E066EE1EC33F0522AA2
:10215800E3D70DC00BF0030E95EC34F0000E526E71
:10216800120E526401D01DD05250010D130EF326E9
:10217800000EF4220F0EF324F66E740EF420F76EA0
:102188000800F5CF11F0110E036E000E046E400E1C
:10219800056E000E076E010E066EE1EC33F0522A52
:1021A800DFD70DC00BF0040E95EC34F0000E526E24
:1021B800120E526401D012005250010D260EF32661
:1021C800000EF4220F0EF324F66E740EF420F76E50
:1021D8000800F5CF11F0110E036E000E046E400ECC
:1021E800056E000E076E010E066EE1EC33F0522A02
:1021F800DFD7800E0E18D8A412000DC00BF0020E07
:1022080095EC34F0000E526E120E526401D01ED0BE
:102218005250010D0F0EF324F66E740EF420F76E73
:102228000800F5CF11F011C010F0111E3F0E111665
:10223800110E036E000E046E400E056E000E076E42
:10224800010E066EE1EC33F0522ADED70DC00BF01A
:10225800030E95EC34F0000E526E120E526401D04B
:1022680020D05250010D130EF326000EF4220F0E4B
:10227800F324F66E740EF420F76E0800F5CF11F013
:1022880011C010F0111E110E036E000E046E400EE8
:10229800056E000E076E010E066EE1EC33F0522A51
:1022A800DCD70DC00BF0040E95EC34F0000E526E26
:1022B800120E526401D012005250010D260EF32660
:1022C800000EF4220F0EF324F66E740EF420F76E4F
:1022D8000800F5CF11F011C010F0F00E116E110EBC
:1022E800036E000E046E400E056E000E076E010EA2
:1022F800066EE1EC33F0522ADBD7020E0F18D8A491
:1023080012000E50D8A474D00DC00BF0050E95EC39
:1023180034F0000E526E120E526401D019D0525091
:10232800010D0F0EF324F66E740EF420F76E0800FC
:10233800F5CF11F0110E036E000E046E400E056EFF
:10234800000E076E010E066EE1EC33F0522AE3D759
:102358000DC00BF0060E95EC34F0000E526E120E06
:10236800526401D01DD05250010D130EF326000EF9
:10237800F4220F0EF324F66E740EF420F76E0800A4
:10238800F5CF11F0110E036E000E046E400E056EAF
:10239800000E076E010E066EE1EC33F0522ADFD70D
:1023A8000DC00BF0070E95EC34F0000E526E120EB5
:1023B800526401D012005250010D260EF326000E71
:1023C800F4220F0EF324F66E740EF420F76E080054
:1023D800F5CF11F0110E036E000E046E400E056E5F
:1023E800000E076E010E066EE1EC33F0522ADFD7BD
:1023F800800E0E18D8A412000DC00BF0050E95EC37
:1024080034F0000E526E120E526401D01ED052509B
:10241800010D0F0EF324F66E740EF420F76E08000B
:10242800F5CF11F011C010F0111E3F0E1116110E4C
:10243800036E000E046E400E056E000E076E010E50
:10244800066EE1EC33F0522ADED70DC00BF0060E13
:1024580095EC34F0000E526E120E526401D020D06A
:102468005250010D130EF326000EF4220F0EF32422
:10247800F66E740EF420F76E0800F5CF11F011C057
:1024880010F0111E110E036E000E046E400E056E44
:10249800000E076E010E066EE1EC33F0522ADCD70F
:1024A8000DC00BF0070E95EC34F0000E526E120EB4
:1024B800526401D012005250010D260EF326000E70
:1024C800F4220F0EF324F66E740EF420F76E080053
:1024D800F5CF11F011C010F0F00E116E110E036E51
:1024E800000E046E400E056E000E076E010E066E9D
:1024F800E1EC33F0522ADBD70001F96F000E00013E
:10250800FA6F000E0001F86F41D0430E2D6E7E0E5B
:102518003BD00A0E2D6E7E0E37D05F0E2D6E7D0ECF
:1025280033D0260E2D6E7D0E2FD0ED0E2D6E7C0E27
:102538002BD07B0E2D6E7C0E27D0B40E2D6E7C0E0C
:1025480023D0420E2D6E7C0E1FD0090E2D6E7C0EF0
:102558001BD0D00E2D6E7B0E17D05E0E2D6E7B0E0F
:1025680013D0970E2D6E7B0E0FD0EC0E2D6E7A0EBB
:102578000BD0250E2D6E7B0E07D0D10E2D6E7D0E45
:1025880003D0980E2D6E7D0E2E6E3DD00001F551B4
:102598007F0B0001F66FF76B0001F751000AD8A412
:1025A80032D00001F651000AD8B4AFD7010AD8B426
:1025B800B0D7030AD8B4B1D7010AD8B4B2D7070A3A
:1025C800D8B4B3D7010AD8B4B4D7030AD8B4B5D7A6
:1025D8000C0AD8B4B6D7070AD8B4B7D7690AD8B49A
:1025E800B8D7010AD8B4B9D7030AD8B4BAD7010AF8
:1025F800D8B4BBD70F0AD8B4BCD7010AD8B4BDD752
:10260800030AD8B4BED70001F5BFA0D0F4C0F2F0D9
:102618000001F951020F65EC33F0000E526E120EF4
:10262800526401D025D05250010D2DC0F6F02EC0B5
:10263800F7F0F3500001F627F4500001F723F6C035
:10264800F6FFF7C0F7FF0800F5CFFAF0FA0E000121
:10265800EA6F000E0001EB6F400E0001EC6F000EF8
:102668000001EE6F010EED6FBBEC33F0522AD7D7A5
:10267800F4C0F2F00001F951030F65EC33F0000EDD
:10268800526E120E526401D02AD05250010D2DC044
:10269800F6F02EC0F7F0F3500001F627F4500001D1
:1026A800F723130E0001F627000EF723F6C0F6FFF6
:1026B800F7C0F7FF0800F5CFFAF0FA0E0001EA6F4D
:1026C800000E0001EB6F400E0001EC6F000E0001E0
:1026D800EE6F010EED6FBBEC33F0522AD2D7F4C087
:1026E800F2F00001F951040F65EC33F0000E526E60
:1026F800120E526401D012005250010D2DC0F6F096
:102708002EC0F7F0F3500001F627F4500001F7232C
:10271800260E0001F627000EF723F6C0F6FFF7C0D5
:10272800F7FF0800F5CFFAF0FA0E0001EA6F000E85
:102738000001EB6F400E0001EC6F000E0001EE6F20
:10274800010EED6FBBEC33F0522AD2D70001F5AF82
:102758001200F4C0F2F00001F951020F65EC33F0F9
:10276800000E526E120E526401D02CD05250010D40
:102778002DC0F6F02EC0F7F0F3500001F627F45004
:102788000001F723F6C0F6FFF7C0F7FF0800F5CF02
:10279800FAF0FAC0F8F00001FA1F3F0E0001FA172C
:1027A800FA0E0001EA6F000E0001EB6F400E000107
:1027B800EC6F000E0001EE6F010EED6FBBEC33F015
:1027C800522AD0D7F4C0F2F00001F951030F65EC9A
:1027D80033F0000E526E120E526401D02ED05250B9
:1027E800010D2DC0F6F02EC0F7F0F3500001F627CA
:1027F800F4500001F723130E0001F627000EF7230B
:10280800F6C0F6FFF7C0F7FF0800F5CFFAF0FAC0F8
:10281800F8F00001FA1FFA0E0001EA6F000E00013D
:10282800EB6F400E0001EC6F000E0001EE6F010E21
:10283800ED6FBBEC33F0522ACED7F4C0F2F00001B2
:10284800F951040F65EC33F0000E526E120E52640B
:1028580001D012005250010D2DC0F6F02EC0F7F035
:10286800F3500001F627F4500001F723260E00016B
:10287800F627000EF723F6C0F6FFF7C0F7FF0800AB
:10288800F5CFFAF0FAC0F8F0F00E0001FA6FFA0E80
:102898000001EA6F000E0001EB6F400E0001EC6FC3
:1028A800000E0001EE6F010EED6FBBEC33F0522A03
:1028B800CDD70001F96F000E0001FA6F000E00017C
:1028C800F86F11D05C0E2B6E7A0E0BD0CC0E2B6EDF
:1028D800790E07D03C0E2B6E790E03D0AC0E2B6E02
:1028E800780E2C6E0ED00001F951010AD8B4EAD73F
:1028F800030AD8B4EBD7010AD8B4ECD7070AD8B47E
:10290800EDD70001F5510001D8A49AD0F4C0F2F037
:10291800050E65EC33F0000E526E2F0E526401D096
:1029280025D05250010D2BC0F6F02CC0F7F0F35013
:102938000001F627F4500001F723F6C0F6FFF7C0B0
:10294800F7FF0800F5CFFAF0FA0E0001EA6F000E63
:102958000001EB6F400E0001EC6F000E0001EE6FFE
:10296800010EED6FBBEC33F0522AD7D7F4C0F2F06A
:10297800060E65EC33F0000E526E2F0E526401D035
:102988002AD05250010D2BC0F6F02CC0F7F0F350AE
:102998000001F627F4500001F723300E0001F62756
:1029A800000EF723F6C0F6FFF7C0F7FF0800F5CFD3
:1029B800FAF0FA0E0001EA6F000E0001EB6F400E0C
:1029C8000001EC6F000E0001EE6F010EED6FBBEC25
:1029D80033F0522AD2D7F4C0F2F0070E65EC33F088
:1029E800000E526E2F0E526401D012005250010D8B
:1029F8002BC0F6F02CC0F7F0F3500001F627F45086
:102A08000001F723600E0001F627000EF723F6C039
:102A1800F6FFF7C0F7FF0800F5CFFAF0FA0E00014D
:102A2800EA6F000E0001EB6F400E0001EC6F000E24
:102A38000001EE6F010EED6FBBEC33F0522AD2D7D6
:102A4800800E0001F519D8A41200F4C0F2F0050EAA
:102A580065EC33F0000E526E2F0E526401D03ED05A
:102A68005250010D2BC0F6F02CC0F7F0F3500001C6
:102A7800F627F4500001F723F6C0F6FFF7C0F7FF7A
:102A88000800F5CFFAF05250D8B404D02F0E5218DF
:102A9800D8A402D00F0E08D05204D8B404D02E0EF9
:102AA8005218D8A404D01F0E0001FA6F05D00001F7
:102AB800FA1F3F0E0001FA17FA0E0001EA6F000E26
:102AC8000001EB6F400E0001EC6F000E0001EE6F8D
:102AD800010EED6FBBEC33F0522ABED7F4C0F2F012
:102AE800060E65EC33F0000E526E2F0E526401D0C4
:102AF80036D05250010D2BC0F6F02CC0F7F0F35031
:102B08000001F627F4500001F723300E0001F627E4
:102B1800000EF723F6C0F6FFF7C0F7FF0800F5CF61
:102B2800FAF05250D8B404D02F0E5218D8A403D0BB
:102B38000001FA6902D00001FA1FFA0E0001EA6FDB
:102B4800000E0001EB6F400E0001EC6F000E00015B
:102B5800EE6F010EED6FBBEC33F0522AC6D7F4C00E
:102B6800F2F0070E65EC33F0000E526E2F0E526431
:102B780001D012005250010D2BC0F6F02CC0F7F016
:102B8800F3500001F627F4500001F723600E00010E
:102B9800F627000EF723F6C0F6FFF7C0F7FF080088
:102BA800F5CFFAF05250D8B404D02F0E5218D8A44A
:102BB80002D0E00E08D05204D8B404D02E0E521819
:102BC800D8A404D0F00E0001FA6F07D00001FA1F54
:102BD800F00E0001FA170001FA89FA0E0001EA6FF7
:102BE800000E0001EB6F400E0001EC6F000E0001BB
:102BF800EE6F010EED6FBBEC33F0522AB7D7116EB2
:102C0800000E136E000E126E41D0430E2D6E7E0E16
:102C18003BD00A0E2D6E7E0E37D05F0E2D6E7D0EC8
:102C280033D0260E2D6E7D0E2FD0ED0E2D6E7C0E20
:102C38002BD07B0E2D6E7C0E27D0B40E2D6E7C0E05
:102C480023D0420E2D6E7C0E1FD0090E2D6E7C0EE9
:102C58001BD0D00E2D6E7B0E17D05E0E2D6E7B0E08
:102C680013D0970E2D6E7B0E0FD0EC0E2D6E7A0EB4
:102C78000BD0250E2D6E7B0E07D0D10E2D6E7D0E3E
:102C880003D0980E2D6E7D0E2E6E39D00E507F0B10
:102C98000F6E106A1050000AD8A431D00F50000AE5
:102CA800D8B4B3D7010AD8B4B4D7030AD8B4B5D7BF
:102CB800010AD8B4B6D7070AD8B4B7D7010AD8B426
:102CC800B8D7030AD8B4B9D70C0AD8B4BAD7070A00
:102CD800D8B4BBD7690AD8B4BCD7010AD8B4BDD711
:102CE800030AD8B4BED7010AD8B4BFD70F0AD8B4DC
:102CF800C0D7010AD8B4C1D7030AD8B4C2D70EBE08
:102D080089D00DC00BF01150020F95EC34F0000E75
:102D1800526E120E526401D01FD05250010D2DC0B8
:102D28000FF02EC010F0F3500F26F45010220FC0F1
:102D3800F6FF10C0F7FF0800F5CF13F0130E036E6F
:102D4800000E046E400E056E000E076E010E066E34
:102D5800E1EC33F0522ADDD70DC00BF01150030F10
:102D680095EC34F0000E526E120E526401D023D04E
:102D78005250010D2DC00FF02EC010F0F3500F2649
:102D8800F4501022130E0F26000E10220FC0F6FF6B
:102D980010C0F7FF0800F5CF13F0130E036E000EF6
:102DA800046E400E056E000E076E010E066EE1EC15
:102DB80033F0522AD9D70DC00BF01150040F95ECFF
:102DC80034F0000E526E120E526401D012005250AE
:102DD800010D2DC00FF02EC010F0F3500F26F45047
:102DE8001022260E0F26000E10220FC0F6FF10C06C
:102DF800F7FF0800F5CF13F0130E036E000E046EF4
:102E0800400E056E000E076E010E066EE1EC33F003
:102E1800522AD9D70EAE12000DC00BF01150020F76
:102E280095EC34F0000E526E120E526401D024D08C
:102E38005250010D2DC00FF02EC010F0F3500F2688
:102E4800F45010220FC0F6FF10C0F7FF0800F5CFAE
:102E580013F013C012F0131E3F0E1316130E036E59
:102E6800000E046E400E056E000E076E010E066E13
:102E7800E1EC33F0522AD8D70DC00BF01150030FF4
:102E880095EC34F0000E526E120E526401D026D02A
:102E98005250010D2DC00FF02EC010F0F3500F2628
:102EA800F4501022130E0F26000E10220FC0F6FF4A
:102EB80010C0F7FF0800F5CF13F013C012F0131E6F
:102EC800130E036E000E046E400E056E000E076EA4
:102ED800010E066EE1EC33F0522AD6D70DC00BF086
:102EE8001150040F95EC34F0000E526E120E52641D
:102EF80001D012005250010D2DC00FF02EC010F05D
:102F0800F3500F26F4501022260E0F26000E102222
:102F18000FC0F6FF10C0F7FF0800F5CF13F013C07D
:102F280012F0F00E136E130E036E000E046E400EB8
:102F3800056E000E076E010E066EE1EC33F0522AA4
:102F4800D5D720EE0CF02950D9262A50DA22DECF28
:102F580096F1DECF97F1DDCF98F196C17EF197C15A
:102F68007FF198C180F168EC35F07EC181F17FC1B5
:102F780082F180C183F120EE0FF02950D9262A5022
:102F8800DA22DECF84F1DECF85F1DDCF86F14AEC9F
:102F98001DF081C193F182C194F183C195F120EEB6
:102FA80009F02950D9262A50DA22DECF7EF1DECF69
:102FB8007FF1DDCF80F168EC35F07EC181F17FC112
:102FC80082F180C183F196C184F197C185F198C1DE
:102FD80086F14AEC1DF081C18DF182C18EF183C169
:102FE8008FF120EE15F02950D9262A50DA22DECFAB
:102FF80081F1DECF82F1DDCF83F193C1F5F094C189
:10300800F6F095C1F7F020EE03F02950D9262A50A2
:10301800DA22DECFF2F0DECFF3F0DDCFF4F0C0EC51
:1030280027F0F2C084F1F3C085F1F4C086F14AECD0
:103038001DF020EE15F02950D9262A50DA2281C138
:10304800DEFF82C1DEFF83C1DEFF20EE18F02950CB
:10305800D9262A50DA22DECFEAF0DECFEBF0DDCF38
:10306800ECF020EE15F02950D9262A50DA22DECFCE
:10307800EDF0DECFEEF0DDCFEFF09FEC30F00001A9
:10308800D8B003D020EE18F01FD020EE15F029504C
:10309800D9262A50DA22DECFEAF0DECFEBF0DDCFF8
:1030A800ECF020EE1BF02950D9262A50DA22DECF88
:1030B800EDF0DECFEEF0DDCFEFF09FEC30F0000169
:1030C800D8B012D020EE1BF02950D9262A50DA2287
:1030D80010EE15F02950E1262A50E222DECFE6FF55
:1030E800DECFE6FFDECFE6FF29C0D9FF2AC0DAFF30
:1030F800DECFF2F0DECFF3F0DDCFF4F093C1F5F0E0
:1031080094C1F6F095C1F7F0C0EC27F0F2C099F140
:10311800F3C09AF1F4C09BF120EE15F02950D9269E
:103128002A50DA22DECF84F1DECF85F1DDCF86F1B9
:103138008DC1F5F08EC1F6F08FC1F7F020EE06F0E4
:103148002950D9262A50DA22DECFF2F0DECFF3F06A
:10315800DDCFF4F0C0EC27F0F2C07EF1F3C07FF1D0
:10316800F4C080F168EC35F07EC181F17FC182F155
:1031780080C183F14AEC1DF081C190F182C191F1C7
:1031880083C192F199C181F19AC182F19BC183F106
:1031980090C184F191C185F192C186F14AEC1DF08C
:1031A80081C199F182C19AF183C19BF120EE18F097
:1031B8002950D9262A50DA22DECFEAF0DECFEBF00A
:1031C800DDCFECF099C1EDF09AC1EEF09BC1EFF0C4
:1031D8009FEC30F00001D8B003D020EE18F019D0E1
:1031E80099C1EAF09AC1EBF09BC1ECF020EE1BF01C
:1031F8002950D9262A50DA22DECFEDF0DECFEEF0C4
:10320800DDCFEFF09FEC30F00001D8B00CD020EE0D
:103218001BF02950D9262A50DA22DECF99F1DECFC9
:103228009AF1DDCF9BF120EE12F02950D9262A50D1
:10323800DA2299C1DEFF9AC1DEFF9BC1DEFF20EED4
:1032480009F02950D9262A50DA2296C1DEFF97C103
:10325800DEFF98C1DEFF12000001FB6F67D1030E8D
:1032680000018119D8A436D03D2A030E3D18D8A4F0
:1032780002D0000E3D6E470E0001F46F81C0F5F0DC
:10328800010E98EC1FF03D50D8A409D0490E00015A
:10329800F46F81C0F5F0010E41EC26F018D03D0422
:1032A800D8A409D0490E0001F46F81C0F5F0010ED1
:1032B800C1EC24F00CD0020E3D18D8A408D0490E59
:1032C8000001F46F81C0F5F0010E81EC25F081C09A
:1032D80082F012003704D8A402D0800E01D0000E6C
:1032E8000001816F0001815100018219D8B41200D8
:1032F800470E0001F46F81C0F5F0010E98EC1FF045
:103308003D50D8A409D0490E0001F46F81C0F5F0F2
:10331800010E41EC26F018D0020E3D18D8A409D0B1
:10332800490E0001F46F81C0F5F0010E81EC25F023
:103338000BD03D04D8A408D0490E0001F46F81C019
:10334800F5F0010EC1EC24F081C082F01200030EEA
:1033580000018119D8A435D03D063D28D8A402D053
:10336800020E3D6E470E0001F46F81C0F5F0010EAC
:1033780098EC1FF03D50D8A409D0490E0001F46F15
:1033880081C0F5F0010E41EC26F018D03D04D8A418
:1033980009D0490E0001F46F81C0F5F0010EC1ECAF
:1033A80024F00CD0020E3D18D8A408D0490E000114
:1033B800F46F81C0F5F0010E81EC25F081C082F038
:1033C80012003704D8A402D0800E01D0000E0001EC
:1033D800816F0001815100018219D8B41200470E93
:1033E8000001F46F81C0F5F0010E98EC1FF03D501C
:1033F800D8A409D0490E0001F46F81C0F5F0010E80
:1034080041EC26F018D0020E3D18D8A409D0490E78
:103418000001F46F81C0F5F0010E81EC25F00BD0AE
:103428003D04D8A408D0490E0001F46F81C0F5F01E
:10343800010EC1EC24F081C082F01200800E000160
:103448008119D8A406D0030E0001816F010E3E6ECB
:103458001DD0030E00018119D8A418D03D04D8A4AA
:1034680012D0000E0001F46F000E0001F56F030E7C
:103478005DEC14F0110E0001F46F670E0001F56F9A
:10348800030E80EC12F0000E0001816F00018151E3
:1034980000018219D8B4120000018151D8A443D088
:1034A800470E0001F46F81C0F5F0010E98EC1FF093
:1034B8003D50D8A41CD0490E0001F46F81C0F5F02E
:1034C800010E41EC26F0000E0001F46F000E000121
:1034D800F56F020E5DEC14F00E0E0001F46F030E92
:1034E8000001F56F030E80EC12F0000E1AD03D04B7
:1034F800D8A40AD0490E0001F46F81C0F5F0010E7E
:10350800C1EC24F0010E0DD0020E3D18D8A40BD04A
:10351800490E0001F46F81C0F5F0010E81EC25F031
:10352800020E0101016F81C082F012000001FB51FF
:10353800F10AD8B494D6030AD8B409D7010AD8A492
:1035480012007CD7126E000E136E000E116E11D091
:103558005C0E2B6E7A0E0BD0CC0E2B6E790E07D02C
:103568003C0E2B6E790E03D0AC0E2B6E780E2C6EA3
:103578000DD01250010AD8B4EBD7030AD8B4ECD74F
:10358800010AD8B4EDD7070AD8B4EED70E50D8A49C
:1035980086D00DC00BF0050E95EC34F0000E526E7F
:1035A8002F0E526401D01FD05250010D2BC00FF0C6
:1035B8002CC010F0F3500F26F45010220FC0F6FF65
:1035C80010C0F7FF0800F5CF13F0130E036E000EBE
:1035D800046E400E056E000E076E010E066EE1ECDD
:1035E80033F0522ADDD70DC00BF0060E95EC34F0FF
:1035F800000E526E2F0E526401D023D05250010D8E
:103608002BC00FF02CC010F0F3500F26F4501022EE
:10361800300E0F26000E10220FC0F6FF10C0F7FF65
:103628000800F5CF13F0130E036E000E046E400E63
:10363800056E000E076E010E066EE1EC33F0522A9D
:10364800D9D70DC00BF0070E95EC34F0000E526E72
:103658002F0E526401D012005250010D2BC00FF0F2
:103668002CC010F0F3500F26F4501022600E0F26D5
:10367800000E10220FC0F6FF10C0F7FF0800F5CFAC
:1036880013F0130E036E000E046E400E056E000E4E
:10369800076E010E066EE1EC33F0522AD9D7800E80
:1036A8000E18D8A412000DC00BF0050E95EC34F0DE
:1036B800000E526E2F0E526401D035D05250010DBB
:1036C8002BC00FF02CC010F0F3500F26F45010222E
:1036D8000FC0F6FF10C0F7FF0800F5CF13F05250E7
:1036E800D8B404D02F0E5218D8A402D00F0E08D088
:1036F8005204D8B404D02E0E5218D8A403D01F0EEA
:10370800136E03D0131E3F0E1316130E036E000E16
:10371800046E400E056E000E076E010E066EE1EC9B
:1037280033F0522AC7D70DC00BF0060E95EC34F0D3
:10373800000E526E2F0E526401D02DD05250010D42
:103748002BC00FF02CC010F0F3500F26F4501022AD
:10375800300E0F26000E10220FC0F6FF10C0F7FF24
:103768000800F5CF13F05250D8B404D02F0E5218D9
:10377800D8A402D0136801D0131E130E036E000ED6
:10378800046E400E056E000E076E010E066EE1EC2B
:1037980033F0522ACFD70DC00BF0070E95EC34F05A
:1037A800000E526E2F0E526401D012005250010DBD
:1037B8002BC00FF02CC010F0F3500F26F45010223D
:1037C800600E0F26000E10220FC0F6FF10C0F7FF84
:1037D8000800F5CF13F05250D8B404D02F0E521869
:1037E800D8A402D0E00E08D05204D8B404D02E0ECB
:1037F8005218D8A403D0F00E136E04D0131EF00E86
:1038080013161388130E036E000E046E400E056E19
:10381800000E076E010E066EE1EC33F0522AC2D795
:103828000001FB6F27D1030E00019919D8A40BD012
:1038380000019D2B030E00019D19D8A41200000E53
:1038480000019D6F1200040E3718D8A402D0800E14
:1038580001D0000E0001996F0001995100019A19D9
:10386800D8B41200310E0001F46F99C0F5F0010EC2
:103878005FEC09F000019D51D8A40CD03F0E000167
:10388800F46F0001995104090001F56F000E80ECF6
:1038980012F020D000019D05D8A40CD03F0E0001E5
:1038A800F46F0001995106090001F56F000E80ECD4
:1038B80012F010D0020E00019D19D8A40BD03F0EB3
:1038C8000001F46F000199510D090001F56F000E18
:1038D80080EC12F099C09AF01200030E00019919B9
:1038E800D8A40AD000019D0700019D29D8A4120080
:1038F800020E00019D6F1200040E3718D8A402D0E2
:10390800800E01D0000E0001996F0001995100014D
:103918009A19D8B41200310E0001F46F99C0F5F06D
:10392800010E5FEC09F000019D51D8A40CD03F0EA8
:103938000001F46F0001995104090001F56F000EB0
:1039480080EC12F020D000019D05D8A40CD03F0EC9
:103958000001F46F0001995106090001F56F000E8E
:1039680080EC12F010D0020E00019D19D8A40BD0E3
:103978003F0E0001F46F000199510D090001F56F28
:10398800000E80EC12F099C09AF01200800E00012F
:103998009919D8A406D0030E0001996F010E3E6E46
:1039A80008D0030E00019919D8A403D0000E000115
:1039B800996F0001995100019A19D8B412000001B9
:1039C8009951D8A454D0310E0001F46F000E0001B3
:1039D800F56F010E5FEC09F000019D51D8A415D0D8
:1039E8003F0E0001F46F0001995104090001F56FC1
:1039F800000E80EC12F0040E506E040E18D0010E6A
:103A08000101336F9C0E326F2FD000019D05D8A4A1
:103A180011D03F0E0001F46F000199510609000111
:103A2800F56F000E80EC12F0060E506E060E0101C6
:103A3800146FE5D7020E00019D19D8A418D03F0EC7
:103A48000001F46F000199510D090001F56F000E96
:103A580080EC12F00D0E506E0D0E0101146F000E69
:103A68000101336F010ECFD7010E0101056F99C017
:103A78009AF012000001FB51F10AD8B4D4D6030A17
:103A8800D8B42BD7010AD8A4120080D783C187F1F4
:103A98000101886B896B010182350101873701E3D8
:103AA80088810101875101018C6F86C187F101016D
:103AB800886B896B010185350101873701E38881AE
:103AC8000101875101018B6F01018C510101D8B4AB
:103AD80011D001018B5101018C5DD8B012D00101C8
:103AE8008C51000801018B250101876F180E010117
:103AF800876507D084C181F185C182F186C183F1D0
:103B0800120001018B510101D8B411D001018C516F
:103B180001018B5DD8B012D001018B510008010161
:103B28008C250101876F180E0101876507D081C1B7
:103B380081F182C182F183C183F11200060E010175
:103B48008A6F010183AF02D001018A8F010186AF1C
:103B580002D001018A8D0101828FFF0E01018117B8
:103B6800FF0E01018217000E010183170101858FE5
:103B7800FF0E01018417FF0E01018517000E0101D8
:103B8800861701018B5101018C5DD8B025D0010148
:103B9800D89084378537863701018B0701018C510E
:103BA80001018B19D8B411D001018A078AC187F1A4
:103BB800070E01018717D8B408D0E9D70101D890BA
:103BC80083338233813301018C2B01018B51010135
:103BD8008C19D8B42BD0F2D701018C5101018B5D1F
:103BE800D8B024D00101D8908137823783370101BA
:103BF8008C0701018C5101018B19D8B411D0010136
:103C08008A078AC187F1070E01018717D8B408D03F
:103C1800E9D70101D89086338533843301018B2B92
:103C280001018B5101018C19D8A4F3D701018AAF86
:103C380012D0FF0E0101811BFF0E0101821BFF0E36
:103C48000101831B010E01018127000E010182235E
:103C5800000E0101832301018AAD12D0FF0E01017C
:103C6800841BFF0E0101851BFF0E0101861B010E3F
:103C780001018427000E01018523000E010186231E
:103C8800000E01018A6F01018151010184270101A0
:103C9800825101018523010183510101862301011C
:103CA80086AF15D0FF0E0101841BFF0E0101851B95
:103CB800FF0E0101861B010E01018427000E010180
:103CC8008523000E01018623010E01018A6F84C13C
:103CD800EAF085C1EBF086C1ECF08CC1EDF08AC149
:103CE800EEF0DBEC2EF0EAC081F1EBC082F1ECC023
:103CF80083F112000001FB6F0BD1030E0001A9191B
:103D0800D8A40BD00001AD2B030E0001AD19D8A427
:103D18001200000E0001AD6F1200060E3718D8A46D
:103D280002D0800E01D0000E0001A96F0001A95138
:103D38000001AA19D8B41200310E0001F46FA9C00D
:103D4800F5F0010E5DEC14F00001AD51D8A40CD0D3
:103D58003F0E0001F46F0001A95102090001F56F3F
:103D6800030E80EC12F020D00001AD05D8A40CD0D1
:103D78003F0E0001F46F0001A95103090001F56F1E
:103D8800030E80EC12F010D0020E0001AD19D8A479
:103D98000BD03F0E0001F46F0001A9510509000185
:103DA800F56F030E80EC12F0A9C0AAF01200030E02
:103DB8000001A919D8A40AD00001AD070001AD2956
:103DC800D8A41200020E0001AD6F1200060E3718BB
:103DD800D8A402D0800E01D0000E0001A96F000106
:103DE800A9510001AA19D8B41200310E0001F46FCC
:103DF800A9C0F5F0010E5DEC14F00001AD51D8A496
:103E08000CD03F0E0001F46F0001A9510209000116
:103E1800F56F030E80EC12F020D00001AD05D8A498
:103E28000CD03F0E0001F46F0001A95103090001F5
:103E3800F56F030E80EC12F010D0020E0001AD19E0
:103E4800D8A40BD03F0E0001F46F0001A951050959
:103E58000001F56F030E80EC12F0A9C0AAF0120061
:103E6800800E0001A919D8A406D0030E0001A96F7D
:103E7800010E3E6E08D0030E0001A919D8A403D084
:103E8800000E0001A96F0001A9510001AA19D8B4B8
:103E980012000001A951D8A438D0310E0001F46FE6
:103EA800000E0001F56F010E5DEC14F00001AD513C
:103EB800D8A40BD03F0E0001F46F020E0001F56F7D
:103EC800030E80EC12F08C0E1ED00001AD05D8A4B4
:103ED8000BD03F0E0001F46F030E0001F56F030EC7
:103EE80080EC12F0820E0FD0020E0001AD19D8A49A
:103EF8000CD03F0E0001F46F050E0001F56F030EA4
:103F080080EC12F0A00E0101196FA9C0AAF01200EE
:103F18000001FB51F10AD8B4F0D6030AD8B447D748
:103F2800010AD8A412009CD7000E0001F76F000EFA
:103F38000001F66FFAD0F4C0F2F0000E65EC33F031
:103F4800000E526E1A0E526401D01DD05250010D4F
:103F5800480EF324F66E740EF420F76E0800F5CFC1
:103F6800F7F0F70E0001EA6F000E0001EB6F400E4C
:103F78000001EC6F000E0001EE6F010EED6FBBEC5F
:103F880033F0522ADFD7F4C0F2F0010E65EC33F0BB
:103F9800000E526E1A0E526401D012005250010DDA
:103FA8001B0EF326000EF422480EF324F66E740E50
:103FB800F420F76E0800F5CFF7F0F70E0001EA6F6E
:103FC800000E0001EB6F400E0001EC6F000E0001C7
:103FD800EE6F010EED6FBBEC33F0522ADBD7F4C065
:103FE800F2F0000E65EC33F0000E526E1A0E5264B9
:103FF80001D046D05250010D480EF324F66E740ECF
:10400800F420F76E0800F5CFF7F0F7C0F6F052503D
:10401800D8B404D01A0E5218D8A40AD00001F71F39
:104028000001F6510001F7133F0E0001F71716D0F3
:104038005204D8B404D0190E5218D8A409D00001DB
:10404800F71F0001F6510001F7130001F79F06D092
:104058000001F71F0001F6510001F713F70E0001E8
:10406800EA6F000E0001EB6F400E0001EC6F000ECE
:104078000001EE6F010EED6FBBEC33F0522AB6D79C
:10408800F4C0F2F0010E65EC33F0000E526E1A0E19
:10409800526401D012005250010D1B0EF326000E7F
:1040A800F422480EF324F66E740EF420F76E08001E
:1040B800F5CFF7F0F7C0F6F05250D8B404D01A0E86
:1040C8005218D8A40AD00001F71F0001F6510001C8
:1040D800F713FC0E0001F71716D05204D8B404D019
:1040E800190E5218D8A409D00001F71F0001F65183
:1040F8000001F7130001F79106D00001F71F000136
:10410800F6510001F713F70E0001EA6F000E0001E7
:10411800EB6F400E0001EC6F000E0001EE6F010E18
:10412800ED6FBBEC33F0522AB2D70001F551000A0B
:10413800D8B401D7800AD8A4120051D70001FB6F68
:10414800D9D0030E0001A119D8A40BD00001A52BCA
:10415800020E0001A519D8A41200000E0001A56FD7
:104168001200050E3718D8A402D0800E01D0000E18
:104178000001A16F0001A1510001A219D8B41200D9
:10418800000E0001F46FA1C0F5F0020E5FEC09F01B
:104198000001A551D8A40CD00E0E0001F46F000147
:1041A800A15101090001F56F000E80EC12F00FD04B
:1041B8000001A505D8A40BD00E0E0001F46F000174
:1041C800A15102090001F56F000E80EC12F0A1C0A8
:1041D800A2F01200030E0001A119D8A40AD0000110
:1041E800A5070001A529D8A41200010E0001A56F9A
:1041F8001200050E3718D8A402D0800E01D0000E88
:104208000001A16F0001A1510001A219D8B4120048
:10421800000E0001F46FA1C0F5F0020E5FEC09F08A
:104228000001A551D8A40CD00E0E0001F46F0001B6
:10423800A15101090001F56F000E80EC12F00FD0BA
:104248000001A505D8A40BD00E0E0001F46F0001E3
:10425800A15102090001F56F000E80EC12F0A1C017
:10426800A2F01200800E0001A119D8A406D0030EF6
:104278000001A16F010E3E6E08D0030E0001A119C6
:10428800D8A403D0000E0001A16F0001A1510001C4
:10429800A219D8B412000001A151D8A428D0000E48
:1042A8000001F46F000E0001F56F020E5FEC09F0DB
:1042B8000001A551D8A40CD00E0E0001F46F000126
:1042C800A15101090001F56F000E80EC12F00FD02A
:1042D8000001A505D8A40BD00E0E0001F46F000153
:1042E800A15102090001F56F000E80EC12F0A1C087
:1042F800A2F012000001FB51F10AD8B422D7030A38
:10430800D8B468D7010AD8A41200ACD7000E106E32
:10431800000E0F6ED4D00DC00BF0000E95EC34F0EB
:10432800000E526E1A0E526401D019D05250010D6F
:10433800480EF324F66E740EF420F76E0800F5CFDD
:1043480010F0100E036E000E046E400E056E000E87
:10435800076E010E066EE1EC33F0522AE3D70DC06A
:104368000BF0010E95EC34F0000E526E1A0E5264EA
:1043780001D012005250010D1B0EF326000EF4223C
:10438800480EF324F66E740EF420F76E0800F5CF8D
:1043980010F0100E036E000E046E400E056E000E37
:1043A800076E010E066EE1EC33F0522ADFD70DC01E
:1043B8000BF0000E95EC34F0000E526E1A0E52649B
:1043C80001D037D05250010D480EF324F66E740E0A
:1043D800F420F76E0800F5CF10F010C00FF052501F
:1043E800D8B404D01A0E5218D8A406D0101E0F50F4
:1043F80010123F0E10160FD05204D8B404D0190E64
:104408005218D8A405D0101E0F501012109E03D0B9
:10441800101E0F501012100E036E000E046E400E88
:10442800056E000E076E010E066EE1EC33F0522A9F
:10443800C5D70DC00BF0010E95EC34F0000E526E8E
:104448001A0E526401D012005250010D1B0EF326B1
:10445800000EF422480EF324F66E740EF420F76E64
:104468000800F5CF10F010C00FF05250D8B404D0A7
:104478001A0E5218D8A406D0101E0F501012FC0E97
:1044880010160FD05204D8B404D0190E5218D8A45C
:1044980005D0101E0F501012109003D0101E0F5090
:1044A8001012100E036E000E046E400E056E000E04
:1044B800076E010E066EE1EC33F0522AC1D70E509A
:1044C800000AD8B428D7800AD8A4120070D70BC025
:1044D8000FF0106A116A0A340F3601E310800F508A
:1044E800146E0EC00FF0106A116A0D340F3601E316
:1044F80010800F50136E1450D8B40BD01350145CA6
:10450800D8B00ED01450000813240F6E180E0F6484
:1045180007D00CC009F00DC00AF00EC00BF0120055
:104528001350D8B40BD01450135CD8B00ED013501D
:10453800000814240F6E180E0F6407D009C009F084
:104548000AC00AF00BC00BF01200060E126E0BBE6A
:10455800128E0EBE128C0A8EFF0E0916FF0E0A1658
:10456800000E0B160D8EFF0E0C16FF0E0D16000E0C
:104578000E161350145CD8B01BD0D8900C360D36DC
:104588000E36130614501318D8B40DD0120612C0E4
:104598000FF0070E0F16D8B406D0EFD7D8900B320D
:1045A8000A320932142A13501418D8B41FD0F6D777
:1045B8001450135CD8B01AD0D89009360A360B3686
:1045C800140614501318D8B40DD0120612C00FF0E8
:1045D800070E0F16D8B406D0EFD7D8900E320D328A
:1045E8000C32132A13501418D8A4F7D712AE0CD0D3
:1045F800FF0E091AFF0E0A1AFF0E0B1A010E0926E2
:10460800000E0A22000E0B2212AC0CD0FF0E0C1A60
:10461800FF0E0D1AFF0E0E1A010E0C26000E0D22AB
:10462800000E0E22000E126E09500C260A500D22A2
:104638000B500E220EAE0ED0FF0E0C1AFF0E0D1AE6
:10464800FF0E0E1A010E0C26000E0D22000E0E2271
:10465800010E126E0CC001F00DC002F00EC003F086
:1046680014C004F012C005F0B9EC31F001C009F033
:1046780002C00AF003C00BF01200000E0001F76F31
:10468800000E0001F66FB0D0F4C0F2F0000E65EC39
:1046980033F0000E526E160E526401D01DD05250E7
:1046A800010D7E0EF324F66E740EF420F76E0800EA
:1046B800F5CFF7F0F70E0001EA6F000E0001EB6F7F
:1046C800400E0001EC6F000E0001EE6F010EED6F61
:1046D800BBEC33F0522ADFD7F4C0F2F0010E65ECE0
:1046E80033F0000E526E160E526401D01200525072
:1046F800010D170EF326000EF4227E0EF324F66E3B
:10470800740EF420F76E0800F5CFF7F0F70E0001ED
:10471800EA6F000E0001EB6F400E0001EC6F000E17
:104728000001EE6F010EED6FBBEC33F0522ADBD7C0
:10473800F4C0F2F0000E65EC33F0000E526E160E67
:10474800526401D021D05250010D7E0EF324F66E32
:10475800740EF420F76E0800F5CFF7F0F7C0F6F006
:104768000001F71FF70E0001EA6F000E0001EB6F62
:10477800400E0001EC6F000E0001EE6F010EED6FB0
:10478800BBEC33F0522ADBD7F4C0F2F0010E65EC33
:1047980033F0000E526E160E526401D012005250C1
:1047A800010D170EF326000EF4227E0EF324F66E8A
:1047B800740EF420F76E0800F5CFF7F0F7C0F6F0A6
:1047C8000001F71FF70E0001EA6F000E0001EB6F02
:1047D800400E0001EC6F000E0001EE6F010EED6F50
:1047E800BBEC33F0522AD7D70001F551000AD8B4F0
:1047F8004BD7800AD8A412009BD7000E0001F76F90
:10480800000E0001F66FB0D0F4C0F2F0000E65ECB7
:1048180033F0000E526E160E526401D01DD0525065
:10482800010DAC0EF324F66E740EF420F76E08003A
:10483800F5CFF7F0F70E0001EA6F000E0001EB6FFD
:10484800400E0001EC6F000E0001EE6F010EED6FDF
:10485800BBEC33F0522ADFD7F4C0F2F0010E65EC5E
:1048680033F0000E526E160E526401D012005250F0
:10487800010D170EF326000EF422AC0EF324F66E8B
:10488800740EF420F76E0800F5CFF7F0F70E00016C
:10489800EA6F000E0001EB6F400E0001EC6F000E96
:1048A8000001EE6F010EED6FBBEC33F0522ADBD73F
:1048B800F4C0F2F0000E65EC33F0000E526E160EE6
:1048C800526401D021D05250010DAC0EF324F66E83
:1048D800740EF420F76E0800F5CFF7F0F7C0F6F085
:1048E8000001F71FF70E0001EA6F000E0001EB6FE1
:1048F800400E0001EC6F000E0001EE6F010EED6F2F
:10490800BBEC33F0522ADBD7F4C0F2F0010E65ECB1
:1049180033F0000E526E160E526401D0120052503F
:10492800010D170EF326000EF422AC0EF324F66EDA
:10493800740EF420F76E0800F5CFF7F0F7C0F6F024
:104948000001F71FF70E0001EA6F000E0001EB6F80
:10495800400E0001EC6F000E0001EE6F010EED6FCE
:10496800BBEC33F0522AD7D70001F551000AD8B46E
:104978004BD7800AD8A412009BD7000E0001F76F0E
:10498800000E0001F66FB0D0F4C0F2F0000E65EC36
:1049980033F0000E526E160E526401D01DD05250E4
:1049A800010D080EF324F66E750EF420F76E08005C
:1049B800F5CFF7F0F70E0001EA6F000E0001EB6F7C
:1049C800400E0001EC6F000E0001EE6F010EED6F5E
:1049D800BBEC33F0522ADFD7F4C0F2F0010E65ECDD
:1049E80033F0000E526E160E526401D0120052506F
:1049F800010D170EF326000EF422080EF324F66EAE
:104A0800750EF420F76E0800F5CFF7F0F70E0001E9
:104A1800EA6F000E0001EB6F400E0001EC6F000E14
:104A28000001EE6F010EED6FBBEC33F0522ADBD7BD
:104A3800F4C0F2F0000E65EC33F0000E526E160E64
:104A4800526401D021D05250010D080EF324F66EA5
:104A5800750EF420F76E0800F5CFF7F0F7C0F6F002
:104A68000001F71FF70E0001EA6F000E0001EB6F5F
:104A7800400E0001EC6F000E0001EE6F010EED6FAD
:104A8800BBEC33F0522ADBD7F4C0F2F0010E65EC30
:104A980033F0000E526E160E526401D012005250BE
:104AA800010D170EF326000EF422080EF324F66EFD
:104AB800750EF420F76E0800F5CFF7F0F7C0F6F0A2
:104AC8000001F71FF70E0001EA6F000E0001EB6FFF
:104AD800400E0001EC6F000E0001EE6F010EED6F4D
:104AE800BBEC33F0522AD7D70001F551000AD8B4ED
:104AF8004BD7800AD8A412009BD7000E0001F76F8D
:104B0800000E0001F66FB0D0F4C0F2F0000E65ECB4
:104B180033F0000E526E160E526401D01DD0525062
:104B2800010DDA0EF324F66E740EF420F76E080009
:104B3800F5CFF7F0F70E0001EA6F000E0001EB6FFA
:104B4800400E0001EC6F000E0001EE6F010EED6FDC
:104B5800BBEC33F0522ADFD7F4C0F2F0010E65EC5B
:104B680033F0000E526E160E526401D012005250ED
:104B7800010D170EF326000EF422DA0EF324F66E5A
:104B8800740EF420F76E0800F5CFF7F0F70E000169
:104B9800EA6F000E0001EB6F400E0001EC6F000E93
:104BA8000001EE6F010EED6FBBEC33F0522ADBD73C
:104BB800F4C0F2F0000E65EC33F0000E526E160EE3
:104BC800526401D021D05250010DDA0EF324F66E52
:104BD800740EF420F76E0800F5CFF7F0F7C0F6F082
:104BE8000001F71FF70E0001EA6F000E0001EB6FDE
:104BF800400E0001EC6F000E0001EE6F010EED6F2C
:104C0800BBEC33F0522ADBD7F4C0F2F0010E65ECAE
:104C180033F0000E526E160E526401D0120052503C
:104C2800010D170EF326000EF422DA0EF324F66EA9
:104C3800740EF420F76E0800F5CFF7F0F7C0F6F021
:104C48000001F71FF70E0001EA6F000E0001EB6F7D
:104C5800400E0001EC6F000E0001EE6F010EED6FCB
:104C6800BBEC33F0522AD7D70001F551000AD8B46B
:104C78004BD7800AD8A412009BD7000E0001F76F0B
:104C8800000E0001F66FB0D0F4C0F2F0000E65EC33
:104C980033F0000E526E160E526401D01DD05250E1
:104CA800010D360EF324F66E750EF420F76E08002B
:104CB800F5CFF7F0F70E0001EA6F000E0001EB6F79
:104CC800400E0001EC6F000E0001EE6F010EED6F5B
:104CD800BBEC33F0522ADFD7F4C0F2F0010E65ECDA
:104CE80033F0000E526E160E526401D0120052506C
:104CF800010D170EF326000EF422360EF324F66E7D
:104D0800750EF420F76E0800F5CFF7F0F70E0001E6
:104D1800EA6F000E0001EB6F400E0001EC6F000E11
:104D28000001EE6F010EED6FBBEC33F0522ADBD7BA
:104D3800F4C0F2F0000E65EC33F0000E526E160E61
:104D4800526401D021D05250010D360EF324F66E74
:104D5800750EF420F76E0800F5CFF7F0F7C0F6F0FF
:104D68000001F71FF70E0001EA6F000E0001EB6F5C
:104D7800400E0001EC6F000E0001EE6F010EED6FAA
:104D8800BBEC33F0522ADBD7F4C0F2F0010E65EC2D
:104D980033F0000E526E160E526401D012005250BB
:104DA800010D170EF326000EF422360EF324F66ECC
:104DB800750EF420F76E0800F5CFF7F0F7C0F6F09F
:104DC8000001F71FF70E0001EA6F000E0001EB6FFC
:104DD800400E0001EC6F000E0001EE6F010EED6F4A
:104DE800BBEC33F0522AD7D70001F551000AD8B4EA
:104DF8004BD7800AD8A412009BD7000E0001806F01
:104E0800000E0001836F000E0001816F81C082F0E7
:104E1800000E0001846F000E0001856F600E000116
:104E2800866F320E0001876F000E0001886F000E3A
:104E380000018B6F000E0001896F89C08AF0000E97
:104E480000018C6F000E00018D6FBC0E00018E6F8B
:104E5800620E00018F6F000E0001906F000E0001BE
:104E6800936F000E0001916F91C092F0000E000147
:104E7800946F000E0001956F060E0001966F620E8A
:104E88000001976F000E0001986F000E00019B6FE4
:104E9800000E0001996F99C09AF0000E00019C6FF6
:104EA800000E00019D6F280E00019E6F380E000154
:104EB8009F6F000E0001A06F000E0001A36F000E8F
:104EC8000001A16FA1C0A2F0000E0001A46F000EA6
:104ED8000001A56F440E0001A66F410E0001A76FE7
:104EE800000E0001A86F000E0001AB6F000E00015C
:104EF800A96FA9C0AAF0000E0001AC6F000E000156
:104F0800AD6FFC0E0001AE6F3C0E0001AF6F000EDE
:104F18000001B06F000E0001B36F000E0001B16F09
:104F2800B1C0B2F0000E0001B46F000E0001B56F01
:104F3800B80E0001B66F1C0E0001B76F000E00011D
:104F4800B86F000E0001BB6F000E0001B96F81C081
:104F5800BAF0000E0001BC6F000E0001BD6F000E1C
:104F68000001BE6F000E0001BF6F000E376E000E0D
:104F78003E6E000E3D6E1200F4C0F8F00001F96BB1
:104F8800FA6B0001F3350001F83701E3F9810001FC
:104F9800F8510101786F01017851D8A40AD0000EA8
:104FA8000001F26F000E0001F36F000E0001F46FB4
:104FB8001200F7C0F8F00001F96BFA6B0001F63542
:104FC8000001F83701E3F9810001F85101017D6F13
:104FD80001017D51D8A40AD0000E0001F26F000E25
:104FE8000001F36F000E0001F46F120001017D5102
:104FF8007B0F01017827F4C07DF10001F751010111
:105008007D1B800E01017D170001F38F0001F68FD3
:10501800FF0E0001F517FF0E0001F617000E000144
:10502800F717000E0101796F000E01017A6F000E6B
:1050380001017B6F070E01017C6F0001F2A10CD00A
:105048000001F551010179270001F65101017A2388
:105058000001F75101017B230001D890F433F333A9
:10506800F2330001D890F537F637F73701017C2F76
:10507800E4D7090E01017C6F0001F2A10CD00001F8
:10508800F551010179270001F65101017A23000148
:10509800F75101017B230001D890F433F333F23345
:1050A8000101D8907B337A33793301017C2FE4D71F
:1050B80079C1EAF07AC1EBF07BC1ECF078C1EDF090
:1050C8007DC1EEF0DBEC2EF0EAC0F2F0EBC0F3F0BD
:1050D800ECC0F4F01200000E106E000E0F6E9ED0A1
:1050E8000DC00BF0000E95EC34F0000E526E160E4B
:1050F800526401D019D05250010D080EF324F66EF7
:10510800750EF420F76E0800F5CF10F0100E036E40
:10511800000E046E400E056E000E076E010E066E40
:10512800E1EC33F0522AE3D70DC00BF0010E95ECF9
:1051380034F0000E526E160E526401D01200525016
:10514800010D170EF326000EF422080EF324F66E56
:10515800750EF420F76E0800F5CF10F0100E036EF0
:10516800000E046E400E056E000E076E010E066EF0
:10517800E1EC33F0522ADFD70DC00BF0000E95ECAE
:1051880034F0000E526E160E526401D01CD05250EC
:10519800010D080EF324F66E750EF420F76E080064
:1051A800F5CF10F010C00FF0101E100E036E000E99
:1051B800046E400E056E000E076E010E066EE1ECE1
:1051C80033F0522AE0D70DC00BF0010E95EC34F005
:1051D800000E526E160E526401D012005250010D8C
:1051E800170EF326000EF422080EF324F66E750E41
:1051F800F420F76E0800F5CF10F010C00FF0101E65
:10520800100E036E000E046E400E056E000E076E43
:10521800010E066EE1EC33F0522ADCD70E50000A7C
:10522800D8B45ED7800AD8A41200A6D7000E106E94
:10523800000E0F6E9ED00DC00BF0000E95EC34F0F2
:10524800000E526E160E526401D019D05250010D44
:10525800DA0EF324F66E740EF420F76E0800F5CF1C
:1052680010F0100E036E000E046E400E056E000E58
:10527800076E010E066EE1EC33F0522AE3D70DC03B
:105288000BF0010E95EC34F0000E526E160E5264BF
:1052980001D012005250010D170EF326000EF42211
:1052A800DA0EF324F66E740EF420F76E0800F5CFCC
:1052B80010F0100E036E000E046E400E056E000E08
:1052C800076E010E066EE1EC33F0522ADFD70DC0EF
:1052D8000BF0000E95EC34F0000E526E160E526470
:1052E80001D01CD05250010DDA0EF324F66E740E64
:1052F800F420F76E0800F5CF10F010C00FF0101E64
:10530800100E036E000E046E400E056E000E076E42
:10531800010E066EE1EC33F0522AE0D70DC00BF017
:10532800010E95EC34F0000E526E160E526401D048
:1053380012005250010D170EF326000EF422DA0E59
:10534800F324F66E740EF420F76E0800F5CF10F013
:1053580010C00FF0101E100E036E000E046E400EEB
:10536800056E000E076E010E066EE1EC33F0522A50
:10537800DCD70E50000AD8B45ED7800AD8A4120031
:10538800A6D7000E106E000E0F6E9ED00DC00BF04B
:10539800000E95EC34F0000E526E160E526401D0D9
:1053A80019D05250010DAC0EF324F66E740EF42091
:1053B800F76E0800F5CF10F0100E036E000E046EA5
:1053C800400E056E000E076E010E066EE1EC33F01E
:1053D800522AE3D70DC00BF0010E95EC34F0000E05
:1053E800526E160E526401D012005250010D170E63
:1053F800F326000EF422AC0EF324F66E740EF4209D
:10540800F76E0800F5CF10F0100E036E000E046E54
:10541800400E056E000E076E010E066EE1EC33F0CD
:10542800522ADFD70DC00BF0000E95EC34F0000EB9
:10543800526E160E526401D01CD05250010DAC0EA3
:10544800F324F66E740EF420F76E0800F5CF10F012
:1054580010C00FF0101E100E036E000E046E400EEA
:10546800056E000E076E010E066EE1EC33F0522A4F
:10547800E0D70DC00BF0010E95EC34F0000E526E23
:10548800160E526401D012005250010D170EF32669
:10549800000EF422AC0EF324F66E740EF420F76EB0
:1054A8000800F5CF10F010C00FF0101E100E036E9C
:1054B800000E046E400E056E000E076E010E066E9D
:1054C800E1EC33F0522ADCD70E50000AD8B45ED78C
:1054D800800AD8A41200A6D7000E106E000E0F6E18
:1054E8009ED00DC00BF0000E95EC34F0000E526EFD
:1054F800160E526401D019D05250010D360EF32405
:10550800F66E750EF420F76E0800F5CF10F0100E49
:10551800036E000E046E400E056E000E076E010E3F
:10552800066EE1EC33F0522AE3D70DC00BF0010E02
:1055380095EC34F0000E526E160E526401D0120033
:105548005250010D170EF326000EF422360EF324E6
:10555800F66E750EF420F76E0800F5CF10F0100EF9
:10556800036E000E046E400E056E000E076E010EEF
:10557800066EE1EC33F0522ADFD70DC00BF0000EB7
:1055880095EC34F0000E526E160E526401D01CD009
:105598005250010D360EF324F66E750EF420F76E98
:1055A8000800F5CF10F010C00FF0101E100E036E9B
:1055B800000E046E400E056E000E076E010E066E9C
:1055C800E1EC33F0522AE0D70DC00BF0010E95EC58
:1055D80034F0000E526E160E526401D01200525072
:1055E800010D170EF326000EF422360EF324F66E84
:1055F800750EF420F76E0800F5CF10F010C00FF00C
:10560800101E100E036E000E046E400E056E000E86
:10561800076E010E066EE1EC33F0522ADCD70E500D
:10562800000AD8B45ED7800AD8A41200A6D7000E04
:10563800106E000E0F6E9ED00DC00BF0000E95EC94
:1056480034F0000E526E160E526401D019D052502A
:10565800010D7E0EF324F66E740EF420F76E08002A
:10566800F5CF10F0100E036E000E046E400E056E9E
:10567800000E076E010E066EE1EC33F0522AE3D7F6
:105688000DC00BF0010E95EC34F0000E526E160EA4
:10569800526401D012005250010D170EF326000E6D
:1056A800F4227E0EF324F66E740EF420F76E0800D2
:1056B800F5CF10F0100E036E000E046E400E056E4E
:1056C800000E076E010E066EE1EC33F0522ADFD7AA
:1056D8000DC00BF0000E95EC34F0000E526E160E55
:1056E800526401D01CD05250010D7E0EF324F66E88
:1056F800740EF420F76E0800F5CF10F010C00FF00C
:10570800101E100E036E000E046E400E056E000E85
:10571800076E010E066EE1EC33F0522AE0D70DC099
:105728000BF0010E95EC34F0000E526E160E52641A
:1057380001D012005250010D170EF326000EF4226C
:105748007E0EF324F66E740EF420F76E0800F5CF83
:1057580010F010C00FF0101E100E036E000E046E35
:10576800400E056E000E076E010E066EE1EC33F07A
:10577800522ADCD70E50000AD8B45ED7800AD8A4C3
:105788001200A6D7000E106E000E0F6E9ED00DC030
:105798000BF0000E95EC34F0000E526E160E5264AB
:1057A80001D019D05250010D640EF324F66E750E17
:1057B800F420F76E0800F5CF10F0100E036E000EFF
:1057C800046E400E056E000E076E010E066EE1ECCB
:1057D80033F0522AE3D70DC00BF0010E95EC34F0EC
:1057E800000E526E160E526401D012005250010D76
:1057F800170EF326000EF422640EF324F66E750ECF
:10580800F420F76E0800F5CF10F0100E036E000EAE
:10581800046E400E056E000E076E010E066EE1EC7A
:1058280033F0522ADFD70DC00BF0000E95EC34F0A0
:10583800000E526E160E526401D01CD05250010D4B
:10584800640EF324F66E750EF420F76E0800F5CF9B
:1058580010F010C00FF0101E100E036E000E046E34
:10586800400E056E000E076E010E066EE1EC33F079
:10587800522AE0D70DC00BF0010E95EC34F0000E63
:10588800526E160E526401D012005250010D170EBE
:10589800F326000EF422640EF324F66E750EF4203F
:1058A800F76E0800F5CF10F010C00FF0101E100EA4
:1058B800036E000E046E400E056E000E076E010E9C
:1058C800066EE1EC33F0522ADCD70E50000AD8B449
:1058D8005ED7800AD8A41200A6D77A0E01017E6F7F
:1058E800010E01017F6F93D0250E01018419D8B4F0
:1058F80005D00101845167EC36F089D0000E010112
:10590800806F78C1F6FF79C1F7FF0101784B792BD9
:105918000800F5CF84F101018451000AD8B41200BF
:10592800640AD8B403D00D0AD8A471D07EC1D9FFB7
:105938007FC1DAFFDECF82F1DDCF83F1020E0101F4
:105948007E27000E7F23010183AF08D0030E0101DB
:1059580080130101826D831FD8B0832B010E0101D2
:10596800846F050E01018419D8B416D00101845141
:10597800020D920EF324F66E750EF420F76E0900F0
:10598800F5500101825D0900F55001018359D8A045
:1059980003D00101842BE5D780C12AF0030E2A1613
:1059A800D8B403D02D0E67EC36F084C181F129D02C
:1059B80001018151020D920EF324F66E750EF4204A
:1059C800F76E0900F5CFECF00A00F5CFEDF082C1D3
:1059D800EAF083C1EBF09CEC32F0EAC0F1F0EBC0E6
:1059E800F2F0000E0001F46F0A0EF36F0AEC33F0C8
:1059F8000001F151300F0101846F0101845167ECFE
:105A080036F00101810701018129D8A4D1D778C1D5
:105A1800F6FF79C1F7FF0101784B792B0800F5CF24
:105A280084F101018451D8B412005ED7ECC0EEF0C5
:105A38000001EF6BF06B0001EB350001EE3701E37D
:105A4800EF810001EE510001F86F0001F851D8A470
:105A58000AD0000E0001EA6F000EEB6F000EEC6F2B
:105A6800000EED6F1200170E0001EE6FEAC0EFF0A6
:105A7800EBC0F0F0ECC0F1F00001EE290001F26F8C
:105A880005D00001D890F133F033EF330001F22F45
:105A9800F8D70001EF510001F36F0001EB8FFF0E03
:105AA8000001EA17FF0E0001EB17000E0001EC17CA
:105AB8000001EA510001F46F0001EB510001F56F9C
:105AC8000001EC510001F66F0001F76B8E0E00012A
:105AD800F85F0001F8AF1AD00001F851800A8F0F63
