:0400000007EF00F016
:100008006382D9ED14F094EF2BF001015A6F000EC2
:1000180001015B6F000E0101596F01015A05D8A457
:100028004AD1010158510101D8A480D057C1FAF032
:10003800020E77EC2EF0000E5F6E2F0E5F6401D07B
:100048001DD05F50010D7D0EF324F66E730EF42063
:10005800F76E0800F5CF5BF15B0E0001F26F010E41
:100068000001F36F400E0001F46F000E0001F66FFF
:10007800010EF56F1CEC2FF05F2ADFD757C1FAF09D
:10008800030E77EC2EF0000E5F6E2F0E5F6401D02A
:1000980021D05F50010D300EF326000EF4227D0EA4
:1000A800F324F66E730EF420F76E0800F5CF5BF1BB
:1000B8005B0E0001F26F010E0001F36F400E0001AC
:1000C800F46F000E0001F66F010EF56F1CEC2FF0B7
:1000D8005F2ADBD757C1FAF0040E77EC2EF0000E3A
:1000E8005F6E2F0E5F6401D012005F50010D600E2D
:1000F800F326000EF4227D0EF324F66E730EF42020
:10010800F76E0800F5CF5BF15B0E0001F26F010E90
:100118000001F36F400E0001F46F000E0001F66F4E
:10012800010EF56F1CEC2FF05F2ADBD7800E010162
:100138005819D8A4120057C1FAF0020E77EC2EF025
:10014800000E5F6E2F0E5F6401D036D05F50010D38
:100158007D0EF324F66E730EF420F76E0800F5CFCB
:100168005BF15F50D8B404D02F0E5F18D8A402D02A
:100178000F0E08D05F04D8B404D02E0E5F18D8A490
:1001880004D01F0E01015B6F05D001015B1F3F0EFC
:1001980001015B175B0E0001F26F010E0001F36FA6
:1001A800400E0001F46F000E0001F66F010EF56FAE
:1001B8001CEC2FF05F2AC6D757C1FAF0030E77EC74
:1001C8002EF0000E5F6E2F0E5F6401D02DD05F50B1
:1001D800010D300EF326000EF4227D0EF324F66E88
:1001E800730EF420F76E0800F5CF5BF15F50D8B4BA
:1001F80004D02F0E5F18D8A403D001015B6902D088
:1002080001015B1F5B0E0001F26F010E0001F36F2D
:10021800400E0001F46F000E0001F66F010EF56F3D
:100228001CEC2FF05F2ACFD757C1FAF0040E77ECF9
:100238002EF0000E5F6E2F0E5F6401D012005F502B
:10024800010D600EF326000EF4227D0EF324F66EE7
:10025800730EF420F76E0800F5CF5BF15F50D8B449
:1002680004D02F0E5F18D8A402D0E00E08D05F0487
:10027800D8B404D02E0E5F18D8A404D0F00E010113
:100288005B6F07D001015B1FF00E01015B170101D5
:100298005B895B0E0001F26F010E0001F36F400EE7
:1002A8000001F46F000E0001F66F010EF56F1CECF3
:1002B8002FF05F2AC0D7020E01015A19D8A41200E4
:1002C800010158510101D8A480D057C1FAF0020E9B
:1002D80077EC2EF0000E5F6E2F0E5F6401D01DD0FC
:1002E8005F50010DED0EF324F66E720EF420F76EDA
:1002F8000800F5CF5BF15B0E0001F26F010E000103
:10030800F36F400E0001F46F000E0001F66F010E4E
:10031800F56F1CEC2FF05F2ADFD757C1FAF0030EF8
:1003280077EC2EF0000E5F6E2F0E5F6401D021D0A7
:100338005F50010D300EF326000EF422ED0EF3246B
:10034800F66E720EF420F76E0800F5CF5BF15B0EC7
:100358000001F26F010E0001F36F400E0001F46F0F
:10036800000E0001F66F010EF56F1CEC2FF05F2AEE
:10037800DBD757C1FAF0040E77EC2EF0000E5F6E53
:100388002F0E5F6401D012005F50010D600EF3263E
:10039800000EF422ED0EF324F66E720EF420F76EC2
:1003A8000800F5CF5BF15B0E0001F26F010E000152
:1003B800F36F400E0001F46F000E0001F66F010E9E
:1003C800F56F1CEC2FF05F2ADBD7800E010158195E
:1003D800D8A4120057C1FAF0020E77EC2EF0000EE6
:1003E8005F6E2F0E5F6401D036D05F50010DED0EA9
:1003F800F324F66E720EF420F76E0800F5CF5BF169
:100408005F50D8B404D02F0E5F18D8A402D00F0EB6
:1004180008D05F04D8B404D02E0E5F18D8A404D036
:100428001F0E01015B6F05D001015B1F3F0E01012B
:100438005B175B0E0001F26F010E0001F36F400EB7
:100448000001F46F000E0001F66F010EF56F1CEC51
:100458002FF05F2AC6D757C1FAF0030E77EC2EF0BB
:10046800000E5F6E2F0E5F6401D02DD05F50010D1E
:10047800300EF326000EF422ED0EF324F66E720E03
:10048800F420F76E0800F5CF5BF15F50D8B404D0C4
:100498002F0E5F18D8A403D001015B6902D00101B7
:1004A8005B1F5B0E0001F26F010E0001F36F400E3F
:1004B8000001F46F000E0001F66F010EF56F1CECE1
:1004C8002FF05F2ACFD757C1FAF0040E77EC2EF041
:1004D800000E5F6E2F0E5F6401D012005F50010D99
:1004E800600EF326000EF422ED0EF324F66E720E63
:1004F800F420F76E0800F5CF5BF15F50D8B404D054
:100508002F0E5F18D8A402D0E00E08D05F04D8B42C
:1005180004D02E0E5F18D8A404D0F00E01015B6F32
:1005280007D001015B1FF00E01015B1701015B8918
:100538005B0E0001F26F010E0001F36F400E000127
:10054800F46F000E0001F66F010EF56F1CEC2FF032
:100558005F2AC0D7466E000E476E000E456E4604F1
:10056800D8A426D14450D8A474D043C041F0020E78
:10057800F6EC2FF0000E5F6E2F0E5F6401D019D0DD
:100588005F50010D7D0EF324F66E730EF420F76EA6
:100598000800F5CF47F0470E396E000E3A6E400E50
:1005A8003B6E000E3D6E010E3C6E67EC2FF05F2A2D
:1005B800E3D743C041F0030EF6EC2FF0000E5F6E58
:1005C8002F0E5F6401D01DD05F50010D300EF32651
:1005D800000EF4227D0EF324F66E730EF420F76EEF
:1005E8000800F5CF47F0470E396E000E3A6E400E00
:1005F8003B6E000E3D6E010E3C6E67EC2FF05F2ADD
:10060800DFD743C041F0040EF6EC2FF0000E5F6E0A
:100618002F0E5F6401D012005F50010D600EF326AB
:10062800000EF4227D0EF324F66E730EF420F76E9E
:100638000800F5CF47F0470E396E000E3A6E400EAF
:100648003B6E000E3D6E010E3C6E67EC2FF05F2A8C
:10065800DFD7800E4418D8A4120043C041F0020E20
:10066800F6EC2FF0000E5F6E2F0E5F6401D02FD0D6
:100678005F50010D7D0EF324F66E730EF420F76EB5
:100688000800F5CF47F05F50D8B404D02F0E5F189C
:10069800D8A402D00F0E08D05F04D8B404D02E0E10
:1006A8005F18D8A403D01F0E476E03D0471E3F0E15
:1006B8004716470E396E000E3A6E400E3B6E000E1E
:1006C8003D6E010E3C6E67EC2FF05F2ACDD743C01C
:1006D80041F0030EF6EC2FF0000E5F6E2F0E5F64F4
:1006E80001D027D05F50010D300EF326000EF42202
:1006F8007D0EF324F66E730EF420F76E0800F5CF26
:1007080047F05F50D8B404D02F0E5F18D8A402D099
:10071800476801D0471E470E396E000E3A6E400EEC
:100728003B6E000E3D6E010E3C6E67EC2FF05F2AAB
:10073800D5D743C041F0040EF6EC2FF0000E5F6EE3
:100748002F0E5F6401D012005F50010D600EF3267A
:10075800000EF4227D0EF324F66E730EF420F76E6D
:100768000800F5CF47F05F50D8B404D02F0E5F18BB
:10077800D8A402D0E00E08D05F04D8B404D02E0E5E
:100788005F18D8A403D0F00E476E04D0471EF00EB1
:1007980047164788470E396E000E3A6E400E3B6E7C
:1007A800000E3D6E010E3C6E67EC2FF05F2AC8D735
:1007B800020E4618D8A412004450D8A474D043C0DE
:1007C80041F0020EF6EC2FF0000E5F6E2F0E5F6404
:1007D80001D019D05F50010DED0EF324F66E720EA4
:1007E800F420F76E0800F5CF47F0470E396E000E7B
:1007F8003A6E400E3B6E000E3D6E010E3C6E67EC8D
:100808002FF05F2AE3D743C041F0030EF6EC2FF038
:10081800000E5F6E2F0E5F6401D01DD05F50010D7A
:10082800300EF326000EF422ED0EF324F66E720E4F
:10083800F420F76E0800F5CF47F0470E396E000E2A
:100848003A6E400E3B6E000E3D6E010E3C6E67EC3C
:100858002FF05F2ADFD743C041F0040EF6EC2FF0EB
:10086800000E5F6E2F0E5F6401D012005F50010D05
:10087800600EF326000EF422ED0EF324F66E720ECF
:10088800F420F76E0800F5CF47F0470E396E000EDA
:100898003A6E400E3B6E000E3D6E010E3C6E67ECEC
:1008A8002FF05F2ADFD7800E4418D8A4120043C067
:1008B80041F0020EF6EC2FF0000E5F6E2F0E5F6413
:1008C80001D02FD05F50010DED0EF324F66E720E9D
:1008D800F420F76E0800F5CF47F05F50D8B404D085
:1008E8002F0E5F18D8A402D00F0E08D05F04D8B41A
:1008F80004D02E0E5F18D8A403D01F0E476E03D065
:10090800471E3F0E4716470E396E000E3A6E400ED0
:100918003B6E000E3D6E010E3C6E67EC2FF05F2AB9
:10092800CDD743C041F0030EF6EC2FF0000E5F6EFA
:100938002F0E5F6401D027D05F50010D300EF326D3
:10094800000EF422ED0EF324F66E720EF420F76E0C
:100958000800F5CF47F05F50D8B404D02F0E5F18C9
:10096800D8A402D0476801D0471E470E396E000E42
:100978003A6E400E3B6E000E3D6E010E3C6E67EC0B
:100988002FF05F2AD5D743C041F0040EF6EC2FF0C4
:10099800000E5F6E2F0E5F6401D012005F50010DD4
:1009A800600EF326000EF422ED0EF324F66E720E9E
:1009B800F420F76E0800F5CF47F05F50D8B404D0A4
:1009C8002F0E5F18D8A402D0E00E08D05F04D8B468
:1009D80004D02E0E5F18D8A403D0F00E476E04D0B2
:1009E800471EF00E47164788470E396E000E3A6EBE
:1009F800400E3B6E000E3D6E010E3C6E67EC2FF014
:100A08005F2AC8D70101596F000E01015B6F000E04
:100A180001015A6F01015905D8A41AD10101585191
:100A28000101D8A480D057C1FAF0020E77EC2EF05D
:100A3800000E5F6E120E5F6401D01DD05F50010D75
:100A48000D0EF324F66E740EF420F76E0800F5CF41
:100A58005BF15B0E0001F26F010E0001F36F400EB7
:100A68000001F46F000E0001F66F010EF56F1CEC2B
:100A78002FF05F2ADFD757C1FAF0030E77EC2EF07C
:100A8800000E5F6E120E5F6401D021D05F50010D21
:100A9800130EF326000EF4220D0EF324F66E740ED8
:100AA800F420F76E0800F5CF5BF15B0E0001F26FE2
:100AB800010E0001F36F400E0001F46F000E0001FB
:100AC800F66F010EF56F1CEC2FF05F2ADBD757C1CC
:100AD800FAF0040E77EC2EF0000E5F6E120E5F64D3
:100AE80001D012005F50010D260EF326000EF422ED
:100AF8000D0EF324F66E740EF420F76E0800F5CF91
:100B08005BF15B0E0001F26F010E0001F36F400E06
:100B18000001F46F000E0001F66F010EF56F1CEC7A
:100B28002FF05F2ADBD7800E01015819D8A41200D4
:100B380057C1FAF0020E77EC2EF0000E5F6E120E1F
:100B48005F6401D024D05F50010D0D0EF324F66EC2
:100B5800740EF420F76E0800F5CF5BF15BC15AF113
:100B680001015B1F3F0E01015B175B0E0001F26F75
:100B7800010E0001F36F400E0001F46F000E00013A
:100B8800F66F010EF56F1CEC2FF05F2AD8D757C10E
:100B9800FAF0030E77EC2EF0000E5F6E120E5F6413
:100BA80001D025D05F50010D130EF326000EF4225C
:100BB8000D0EF324F66E740EF420F76E0800F5CFD0
:100BC8005BF15BC15AF101015B1F5B0E0001F26F23
:100BD800010E0001F36F400E0001F46F000E0001DA
:100BE800F66F010EF56F1CEC2FF05F2AD7D757C1AF
:100BF800FAF0040E77EC2EF0000E5F6E120E5F64B2
:100C080001D012005F50010D260EF326000EF422CB
:100C18000D0EF324F66E740EF420F76E0800F5CF6F
:100C28005BF15BC15AF1F00E01015B6F5B0E0001D5
:100C3800F26F010E0001F36F400E0001F46F000E19
:100C48000001F66F010EF56F1CEC2FF05F2AD6D766
:100C5800020E01015919D8A41200010158510101CD
:100C6800D8A480D057C1FAF0050E77EC2EF0000E0C
:100C78005F6E120E5F6401D01DD05F50010D0D0E26
:100C8800F324F66E740EF420F76E0800F5CF5BF1CE
:100C98005B0E0001F26F010E0001F36F400E0001C0
:100CA800F46F000E0001F66F010EF56F1CEC2FF0CB
:100CB8005F2ADFD757C1FAF0060E77EC2EF0000E48
:100CC8005F6E120E5F6401D021D05F50010D130ECC
:100CD800F326000EF4220D0EF324F66E740EF420A3
:100CE800F76E0800F5CF5BF15B0E0001F26F010EA5
:100CF8000001F36F400E0001F46F000E0001F66F63
:100D0800010EF56F1CEC2FF05F2ADBD757C1FAF004
:100D1800070E77EC2EF0000E5F6E120E5F6401D0A6
:100D280012005F50010D260EF326000EF4220D0E60
:100D3800F324F66E740EF420F76E0800F5CF5BF11D
:100D48005B0E0001F26F010E0001F36F400E00010F
:100D5800F46F000E0001F66F010EF56F1CEC2FF01A
:100D68005F2ADBD7800E01015819D8A4120057C199
:100D7800FAF0050E77EC2EF0000E5F6E120E5F642F
:100D880001D024D05F50010D0D0EF324F66E740EC1
:100D9800F420F76E0800F5CF5BF15BC15AF1010151
:100DA8005B1F3F0E01015B175B0E0001F26F010E26
:100DB8000001F36F400E0001F46F000E0001F66FA2
:100DC800010EF56F1CEC2FF05F2AD8D757C1FAF047
:100DD800060E77EC2EF0000E5F6E120E5F6401D0E7
:100DE80025D05F50010D130EF326000EF4220D0ED0
:100DF800F324F66E740EF420F76E0800F5CF5BF15D
:100E08005BC15AF101015B1F5B0E0001F26F010E1D
:100E18000001F36F400E0001F46F000E0001F66F41
:100E2800010EF56F1CEC2FF05F2AD7D757C1FAF0E7
:100E3800070E77EC2EF0000E5F6E120E5F6401D085
:100E480012005F50010D260EF326000EF4220D0E3F
:100E5800F324F66E740EF420F76E0800F5CF5BF1FC
:100E68005BC15AF1F00E01015B6F5B0E0001F26F7E
:100E7800010E0001F36F400E0001F46F000E000137
:100E8800F66F010EF56F1CEC2FF05F2AD6D7010123
:100E98005E6F1FD2030E0001B119D8A40BD0000158
:100EA800B52B030E0001B519D8A41200000E0001DD
:100EB800B56F1200070E1D18D8A402D0800E01D0FD
:100EC800000E0001B16F0001B1510001B219D8B490
:100ED80012001B50D8B404D0020E1B18D8A409D095
:100EE800000E0101576FB1C058F1020E00EC0DF071
:100EF8000BD01B04D8A408D0000E0101576FB1C055
:100F080058F1030E00EC0DF00001B551D8A422D021
:100F18001B50D8B404D0020E1B18D8A40CD00E0E47
:100F28000101576F0001B15103090101586F030E08
:100F380079EC09F05BD01B04D8A458D0110E01013C
:100F4800576F0001B15168090101586F030E79EC20
:100F580009F04CD00001B505D8A422D01B50D8B454
:100F680004D0020E1B18D8A40CD00E0E0101576F26
:100F78000001B15103090101586F030E79EC09F022
:100F880035D01B04D8A432D0110E0101576F0001CF
:100F9800B15166090101586F030E79EC09F026D0AA
:100FA800020E0001B519D8A421D01B50D8B404D022
:100FB800020E1B18D8A40CD00E0E0101576F0001A9
:100FC800B15103090101586F030E79EC09F00ED0F5
:100FD8001B04D8A40BD0110E0101576F0001B151A9
:100FE80065090101586F030E79EC09F0B1C0B2F040
:100FF8001200030E0001B119D8A40AD00001B507E8
:101008000001B529D8A41200020E0001B56F120024
:10101800070E1D18D8A402D0800E01D0000E0001C2
:10102800B16F0001B1510001B219D8B412001B50C0
:10103800D8B404D0020E1B18D8A409D0000E0101A0
:10104800576FB1C058F1020E00EC0DF00BD01B0425
:10105800D8A408D0000E0101576FB1C058F1030E93
:1010680000EC0DF00001B551D8A422D01B50D8B423
:1010780004D0020E1B18D8A40CD00E0E0101576F15
:101088000001B15103090101586F030E79EC09F011
:101098005BD01B04D8A458D0110E0101576F000172
:1010A800B15168090101586F030E79EC09F04CD071
:1010B8000001B505D8A422D01B50D8B404D0020E24
:1010C8001B18D8A40CD00E0E0101576F0001B151A6
:1010D80003090101586F030E79EC09F035D01B04A0
:1010E800D8A432D0110E0101576F0001B151660921
:1010F8000101586F030E79EC09F026D0020E0001A9
:10110800B519D8A421D01B50D8B404D0020E1B188E
:10111800D8A40CD00E0E0101576F0001B15103097C
:101128000101586F030E79EC09F00ED01B04D8A406
:101138000BD0110E0101576F0001B1516509010172
:10114800586F030E79EC09F0B1C0B2F01200800EAE
:101158000001B119D8A406D0030E0001B16F010E29
:101168001C6E08D0030E0001B119D8A403D0000EDC
:101178000001B16F0001B1510001B219D8B41200D9
:101188000001B151D8A4A2D01B50D8B404D0020E8B
:101198001B18D8A40AD0000E0101576F000E0101D8
:1011A800586F020E00EC0DF00CD01B04D8A409D027
:1011B800000E0101576F000E0101586F030E00EC7D
:1011C8000DF00001B551D8A427D01B50D8B404D0D5
:1011D800020E1B18D8A40AD00E0E0101576F030E79
:1011E8000101586F030E79EC09F056D01B04D8A4FE
:1011F8006DD0110E0101576F0001B9516809010145
:10120800586F030E79EC09F0680E0001B46F030EF5
:101218000101216FE80E59D00001B505D8A427D0E7
:101228001B50D8B404D0020E1B18D8A40AD00E0E36
:101238000101576F030E0101586F030E79EC09F095
:101248002BD01B04D8A442D0110E0101576F000106
:10125800B95166090101586F030E79EC09F0660E61
:101268000001B46F0B0E0101216FB80E2ED0020ED3
:101278000001B519D8A42AD01B50D8B404D0020E46
:101288001B18D8A40DD00E0E0101576F030E0101D3
:10129800586F030E79EC09F0030E0001B46F16D0F5
:1012A8001B04D8A413D0110E0101576F0001B951C6
:1012B80065090101586F030E79EC09F0650E00010C
:1012C800B46F0F0E0101216FA00E206FB1C0B2F0F4
:1012D800120001015E51F10AD8B4DCD5030AD8B472
:1012E80088D6010AD8A4120032D701015C6F000E1B
:1012F80001015D6F000E01015B6F41D0130E0F6E8F
:101308007E0E3BD0DA0E0F6E7D0E37D02F0E0F6E8D
:101318007D0E33D0F60E0F6E7C0E2FD0BD0E0F6EE5
:101328007C0E2BD04B0E0F6E7C0E27D0840E0F6ECA
:101338007C0E23D0120E0F6E7C0E1FD0D90E0F6EAE
:101348007B0E1BD0A00E0F6E7B0E17D02E0E0F6ECD
:101358007B0E13D0670E0F6E7B0E0FD0BC0E0F6E78
:101368007A0E0BD0F50E0F6E7A0E07D0A10E0F6E07
:101378007D0E03D0680E0F6E7D0E106E3DD00101FC
:1013880058517F0B0101596F5A6B01015A51000ADC
:10139800D8A432D001015951000AD8B4AFD7010AF4
:1013A800D8B4B0D7030AD8B4B1D7010AD8B4B2D7E1
:1013B800070AD8B4B3D7010AD8B4B4D7030AD8B443
:1013C800B5D70C0AD8B4B6D7070AD8B4B7D7690ABC
:1013D800D8B4B8D7010AD8B4B9D7030AD8B4BAD799
:1013E800010AD8B4BBD70F0AD8B4BCD7010AD8B4FD
:1013F800BDD7030AD8B4BED7010158BFA0D057C182
:10140800FAF001015C51020F77EC2EF0000E5F6ECE
:10141800120E5F6401D025D05F50010D0FC059F145
:1014280010C05AF1F35001015927F45001015A2311
:1014380059C1F6FF5AC1F7FF0800F5CF5DF15D0EFF
:101448000001F26F010E0001F36F400E0001F46F0E
:10145800000E0001F66F010EF56F1CEC2FF05F2AED
:10146800D7D757C1FAF001015C51030F77EC2EF082
:10147800000E5F6E120E5F6401D02AD05F50010D1E
:101488000FC059F110C05AF1F35001015927F45017
:1014980001015A23130E01015927000E5A2359C17D
:1014A800F6FF5AC1F7FF0800F5CF5DF15D0E0001A8
:1014B800F26F010E0001F36F400E0001F46F000E91
:1014C8000001F66F010EF56F1CEC2FF05F2AD2D7E2
:1014D80057C1FAF001015C51040F77EC2EF0000EB1
:1014E8005F6E120E5F6401D012005F50010D0FC0D5
:1014F80059F110C05AF1F35001015927F450010174
:101508005A23260E01015927000E5A2359C1F6FF06
:101518005AC1F7FF0800F5CF5DF15D0E0001F26FCB
:10152800010E0001F36F400E0001F46F000E000180
:10153800F66F010EF56F1CEC2FF05F2AD2D7010170
:1015480058AF120057C1FAF001015C51020F77EC55
:101558002EF0000E5F6E120E5F6401D02CD05F502B
:10156800010D0FC059F110C05AF1F350010159276C
:10157800F45001015A2359C1F6FF5AC1F7FF080078
:10158800F5CF5DF15DC15BF101015D1F3F0E01010A
:101598005D175D0E0001F26F010E0001F36F400E42
:1015A8000001F46F000E0001F66F010EF56F1CECE0
:1015B8002FF05F2AD0D757C1FAF001015C51030F11
:1015C80077EC2EF0000E5F6E120E5F6401D02ED005
:1015D8005F50010D0FC059F110C05AF1F3500101CD
:1015E8005927F45001015A23130E01015927000EFF
:1015F8005A2359C1F6FF5AC1F7FF0800F5CF5DF12C
:101608005DC15BF101015D1F5D0E0001F26F010E0E
:101618000001F36F400E0001F46F000E0001F66F39
:10162800010EF56F1CEC2FF05F2ACED757C1FAF0E8
:1016380001015C51040F77EC2EF0000E5F6E120E64
:101648005F6401D012005F50010D0FC059F110C046
:101658005AF1F35001015927F45001015A23260E7B
:1016680001015927000E5A2359C1F6FF5AC1F7FF45
:101678000800F5CF5DF15DC15BF1F00E01015D6F12
:101688005D0E0001F26F010E0001F36F400E0001C4
:10169800F46F000E0001F66F010EF56F1CEC2FF0D1
:1016A8005F2ACDD700018151D8B451D0010E01264F
:1016B800000E022203220422045008E1410E015CBC
:1016C8000D0E0258030E0358D8A01200470E010150
:1016D800576F000E0101586F010EB3EC1EF00001A8
:1016E8008451D8A40AD0490E0101576F000E010198
:1016F800586F010EA5EC25F01CD0020E00018419CC
:10170800D8A40AD0490E0101576F000E0101586F85
:10171800010EE5EC24F00DD000018405D8A409D011
:10172800490E0101576F000E0101586F010E25EC9B
:1017380024F0000E0001816F000E016E000E026E93
:10174800000E036E000E046E84C01BF01200000130
:101758008951D8B404D0000E0001896F120000012D
:101768009151D8B404D0000E0001916F120000010D
:101778009951D8B443D0010E0126000E022203224B
:101788000422045008E1410E015C0D0E0258030EBC
:101798000358D8A01200310E0101576F000E010145
:1017A800586F010E09EC00F03F0E0101576F9CC005
:1017B80058F1000E79EC09F0040E00019C19D8A428
:1017C80002D0000E0DD0060E00019C19D8A402D03C
:1017D800010E06D00D0E00019C19D8A403D0020EEC
:1017E80000019D6F000E0001996F000E016E000E42
:1017F800026E000E036E000E046E12000001A1516D
:10180800D8B43BD0010E0126000E02220322042286
:10181800045008E1410E015C0D0E0258030E0358F6
:10182800D8A01200000E0101576F000E0101586F79
:10183800020E09EC00F00E0E0101576FA4C058F11A
:10184800000E79EC09F00001A405D8A402D0000E1E
:1018580006D0020E0001A419D8A403D0010E00017D
:10186800A56F000E0001A16F000E016E000E026E42
:10187800000E036E000E046E12000001A951D8B4C8
:1018880042D0010E0126000E022203220422045037
:1018980008E1410E015C0D0E0258030E0358D8A052
:1018A8001200310E0101576F000E0101586F010E31
:1018B80000EC0DF03F0E0101576FACC058F1030E5C
:1018C80079EC09F00001AC05D8A402D0000E0DD0C7
:1018D8006A0E0001AC19D8A402D0010E06D0050E7C
:1018E8000001AC19D8A403D0020E0001AD6F000EA0
:1018F8000001A96F000E016E000E026E000E036E4D
:10190800000E046E12000001B151D8B46CD0010E63
:101918000126000E022203220422045008E1410E8F
:10192800015C0D0E0258030E0358D8A012000101E5
:101938000151D8A412D0000E0101576F000E010109
:10194800586F020E00EC0DF00E0E0101576FB4C077
:1019580058F1030E79EC09F03AD001010105D8A439
:101968001FD0000E0101576F000E0101586F030EC2
:1019780000EC0DF0110E0101576FB4C058F1030EC1
:1019880079EC09F0680E0001B419D8A402D0000E51
:101998001CD0660E0001B419D8A411D0010E15D0C0
:1019A800020E01010119D8A412D0680E0001B41961
:1019B800D8B4EDD7660E0001B419D8B4EFD7650EC8
:1019C8000001B419D8A403D0020E0001B56F000EAF
:1019D8000001B16F000E016E000E026E000E036E64
:1019E800000E046E1200000E016E000E026E000E54
:1019F800036E000E046E120001015C6F000E0101FF
:101A08005D6F000E01015B6F11D02C0E096E7A0E0E
:101A18000BD09C0E096E790E07D00C0E096E790E4C
:101A280003D07C0E096E780E0A6E0ED001015C514F
:101A3800010AD8B4EAD7030AD8B4EBD7010AD8B454
:101A4800ECD7070AD8B4EDD7010158510101D8A441
:101A58009AD057C1FAF0050E77EC2EF0000E5F6EA3
:101A68002F0E5F6401D025D05F50010D09C059F1D8
:101A78000AC05AF1F35001015927F45001015A23C1
:101A880059C1F6FF5AC1F7FF0800F5CF5DF15D0EA9
:101A98000001F26F010E0001F36F400E0001F46FB8
:101AA800000E0001F66F010EF56F1CEC2FF05F2A97
:101AB800D7D757C1FAF0060E77EC2EF0000E5F6EFE
:101AC8002F0E5F6401D02AD05F50010D09C059F173
:101AD8000AC05AF1F35001015927F45001015A2361
:101AE800300E01015927000E5A2359C1F6FF5AC179
:101AF800F7FF0800F5CF5DF15D0E0001F26F010EF2
:101B08000001F36F400E0001F46F000E0001F66F44
:101B1800010EF56F1CEC2FF05F2AD2D757C1FAF0EF
:101B2800070E77EC2EF0000E5F6E2F0E5F6401D06B
:101B380012005F50010D09C059F10AC05AF1F35063
:101B480001015927F45001015A23600E0101592758
:101B5800000E5A2359C1F6FF5AC1F7FF0800F5CF06
:101B68005DF15D0E0001F26F010E0001F36F400E92
:101B78000001F46F000E0001F66F010EF56F1CEC0A
:101B88002FF05F2AD2D7800E01015819D8A412006D
:101B980057C1FAF0050E77EC2EF0000E5F6E2F0E8F
:101BA8005F6401D03ED05F50010D09C059F10AC0F1
:101BB8005AF1F35001015927F45001015A2359C130
:101BC800F6FF5AC1F7FF0800F5CF5DF15F50D8B4B2
:101BD80004D02F0E5F18D8A402D00F0E08D05F04CF
:101BE800D8B404D02E0E5F18D8A404D01F0E01015B
:101BF8005D6F05D001015D1F3F0E01015D175D0E90
:101C08000001F26F010E0001F36F400E0001F46F46
:101C1800000E0001F66F010EF56F1CEC2FF05F2A25
:101C2800BED757C1FAF0060E77EC2EF0000E5F6EA5
:101C38002F0E5F6401D036D05F50010D09C059F1F5
:101C48000AC05AF1F35001015927F45001015A23EF
:101C5800300E01015927000E5A2359C1F6FF5AC107
:101C6800F7FF0800F5CF5DF15F50D8B404D02F0E10
:101C78005F18D8A403D001015D6902D001015D1F7E
:101C88005D0E0001F26F010E0001F36F400E0001BE
:101C9800F46F000E0001F66F010EF56F1CEC2FF0CB
:101CA8005F2AC6D757C1FAF0070E77EC2EF0000E60
:101CB8005F6E2F0E5F6401D012005F50010D09C0E6
:101CC80059F10AC05AF1F35001015927F4500101A2
:101CD8005A23600E01015927000E5A2359C1F6FFF5
:101CE8005AC1F7FF0800F5CF5DF15F50D8B404D0B2
:101CF8002F0E5F18D8A402D0E00E08D05F04D8B425
:101D080004D02E0E5F18D8A404D0F00E01015D6F28
:101D180007D001015D1FF00E01015D1701015D890A
:101D28005D0E0001F26F010E0001F36F400E00011D
:101D3800F46F000E0001F66F010EF56F1CEC2FF02A
:101D48005F2AB7D7486E000E496E000E476E41D025
:101D5800130E0F6E7E0E3BD0DA0E0F6E7D0E37D04F
:101D68002F0E0F6E7D0E33D0F60E0F6E7C0E2FD019
:101D7800BD0E0F6E7C0E2BD04B0E0F6E7C0E27D037
:101D8800840E0F6E7C0E23D0120E0F6E7C0E1FD0A9
:101D9800D90E0F6E7B0E1BD0A00E0F6E7B0E17D0C8
:101DA8002E0E0F6E7B0E13D0670E0F6E7B0E0FD0AC
:101DB800BC0E0F6E7A0E0BD0F50E0F6E7A0E07D092
:101DC800A10E0F6E7D0E03D0680E0F6E7D0E106E85
:101DD80039D044507F0B456E466A4650000AD8A455
:101DE80031D04550000AD8B4B3D7010AD8B4B4D713
:101DF800030AD8B4B5D7010AD8B4B6D7070AD8B4F5
:101E0800B7D7010AD8B4B8D7030AD8B4B9D70C0AD7
:101E1800D8B4BAD7070AD8B4BBD7690AD8B4BCD7DC
:101E2800010AD8B4BDD7030AD8B4BED7010AD8B4BA
:101E3800BFD70F0AD8B4C0D7010AD8B4C1D7030A8C
:101E4800D8B4C2D744BE89D043C041F04850020F2D
:101E5800F6EC2FF0000E5F6E120E5F6401D01FD0FB
:101E68005F50010D0FC045F010C046F0F3504526F5
:101E7800F450462245C0F6FF46C0F7FF0800F5CFEC
:101E880049F0490E396E000E3A6E400E3B6E000E58
:101E98003D6E010E3C6E67EC2FF05F2ADDD743C024
:101EA80041F04850030FF6EC2FF0000E5F6E120E53
:101EB8005F6401D023D05F50010D0FC045F010C002
:101EC80046F0F3504526F4504622130E4526000EE0
:101ED800462245C0F6FF46C0F7FF0800F5CF49F097
:101EE800490E396E000E3A6E400E3B6E000E3D6E86
:101EF800010E3C6E67EC2FF05F2AD9D743C041F042
:101F08004850040FF6EC2FF0000E5F6E120E5F645F
:101F180001D012005F50010D0FC045F010C046F00F
:101F2800F3504526F4504622260E4526000E46223A
:101F380045C0F6FF46C0F7FF0800F5CF49F0490E47
:101F4800396E000E3A6E400E3B6E000E3D6E010E6D
:101F58003C6E67EC2FF05F2AD9D744AE120043C01D
:101F680041F04850020FF6EC2FF0000E5F6E120E93
:101F78005F6401D024D05F50010D0FC045F010C040
:101F880046F0F3504526F450462245C0F6FF46C0B9
:101F9800F7FF0800F5CF49F049C047F0491E3F0E4A
:101FA8004916490E396E000E3A6E400E3B6E000E11
:101FB8003D6E010E3C6E67EC2FF05F2AD8D743C008
:101FC80041F04850030FF6EC2FF0000E5F6E120E32
:101FD8005F6401D026D05F50010D0FC045F010C0DE
:101FE80046F0F3504526F4504622130E4526000EBF
:101FF800462245C0F6FF46C0F7FF0800F5CF49F076
:1020080049C047F0491E490E396E000E3A6E400E1F
:102018003B6E000E3D6E010E3C6E67EC2FF05F2AA2
:10202800D6D743C041F04850040FF6EC2FF0000E0D
:102038005F6E120E5F6401D012005F50010D0FC079
:1020480045F010C046F0F3504526F4504622260EBF
:102058004526000E462245C0F6FF46C0F7FF080099
:10206800F5CF49F049C047F0F00E496E490E396E78
:10207800000E3A6E400E3B6E000E3D6E010E3C6E39
:1020880067EC2FF05F2AD5D7030E00018119D8A479
:102098003CD01C04D8A40CD0490E0101576F800E07
:1020A8000101586F000E65EC23F0000E1C6E120043
:1020B8001C50D8A41200010E1C6E1B50D8A40AD0C4
:1020C800490E0101576F800E0101586F000EA5ECF3
:1020D80025F012001B04D8A40AD0490E0101576F3D
:1020E800800E0101586F000E25EC24F01200020E3C
:1020F8001B18D8A41200490E0101576F800E010168
:10210800586F000EE5EC24F01200030E0001991937
:10211800D8A43FD01C04D8A40CD03F0E0101576F9F
:10212800800E0101586F010E06EC05F0000E1C6EC2
:1021380012001C50D8A41200010E1C6E00019D5103
:10214800D8A40AD03F0E0101576F840E0101586FC1
:10215800000E79EC09F0120000019D05D8A40AD000
:102168003F0E0101576F860E0101586F000E79EC82
:1021780009F01200020E00019D19D8A412003F0EAA
:102188000101576F8D0E0101586F000E79EC09F0AF
:102198001200030E0001A119D8A430D01C04D8A441
:1021A8000CD00E0E0101576F800E0101586F010E01
:1021B80006EC05F0000E1C6E12001C50D8A412008C
:1021C800010E1C6E0001A551D8A40AD00E0E010103
:1021D800576F810E0101586F000E79EC09F012005B
:1021E8000001A505D8A412000E0E0101576F820E3A
:1021F8000101586F000E79EC09F01200030E00017E
:10220800A919D8A43FD01C04D8A40CD03F0E0101B2
:10221800576F800E0101586F020E06EC05F0000E94
:102228001C6E12001C50D8A41200010E1C6E000176
:10223800AD51D8A40AD03F0E0101576F810E01019C
:10224800586F030E79EC09F012000001AD05D8A40F
:102258000AD03F0E0101576FEA0E0101586F030EB5
:1022680079EC09F01200020E0001AD19D8A4120091
:102278003F0E0101576F850E0101586F030E79EC6F
:1022880009F01200030E0001B119D8A412001C04B1
:10229800D8A420D01B50D8B404D0020E1B18D8A440
:1022A8000AD00E0E0101576F800E0101586F020E01
:1022B80006EC05F00CD01B04D8A409D0110E0101BE
:1022C800576F800E0101586F020E06EC05F0000EE4
:1022D8001C6E12001C50D8A41200010E1C6E0001C6
:1022E800B551D8A41ED01B50D8B404D0020E1B1868
:1022F800D8A40AD00E0E0101576F830E0101586F42
:10230800030E79EC09F012001B04D8A41200110E78
:102318000101576FE80E0101586F030E79EC09F0BF
:1023280012000001B505D8A41ED01B50D8B404D0A3
:10233800020E1B18D8A40AD00E0E0101576F830E87
:102348000101586F030E79EC09F012001B04D8A4A0
:102358001200110E0101576FE60E0101586F030EAE
:1023680079EC09F01200020E0001B519D8A4120088
:102378001B50D8B404D0020E1B18D8A40AD00E0ED5
:102388000101576F830E0101586F030E79EC09F0B4
:1023980012001B04D8A41200110E0101576FE50E9C
:1023A8000101586F030E79EC09F0120001015E6F0C
:1023B80082D1030E00018119D8A436D01B2A030E3E
:1023C8001B18D8A402D0000E1B6E470E0101576FD0
:1023D80081C058F1010EB3EC1EF01B50D8A409D0EF
:1023E800490E0101576F81C058F1010EA5EC25F087
:1023F80018D01B04D8A409D0490E0101576F81C019
:1024080058F1010E25EC24F00CD0020E1B18D8A4AC
:1024180008D0490E0101576F81C058F1010EE5EC53
:1024280024F081C082F012001D04D8A402D0800ECE
:1024380001D0000E0001816F000181510001821955
:10244800D8B41200470E0101576F81C058F1010E30
:10245800B3EC1EF01B50D8A409D0490E0101576FE8
:1024680081C058F1010EA5EC25F018D0020E1B18FA
:10247800D8A409D0490E0101576F81C058F1010E47
:10248800E5EC24F00BD01B04D8A408D0490E0101B8
:10249800576F81C058F1010E25EC24F081C082F0FD
:1024A8001200030E00018119D8A435D01B061B2881
:1024B800D8A402D0020E1B6E470E0101576F81C0CF
:1024C80058F1010EB3EC1EF01B50D8A409D0490EE8
:1024D8000101576F81C058F1010EA5EC25F018D005
:1024E8001B04D8A409D0490E0101576F81C058F1C7
:1024F800010E25EC24F00CD0020E1B18D8A408D02D
:10250800490E0101576F81C058F1010EE5EC24F026
:1025180081C082F012001D04D8A402D0800E01D020
:10252800000E0001816F0001815100018219D8B4A9
:102538001200470E0101576F81C058F1010EB3EC2C
:102548001EF01B50D8A409D0490E0101576F81C055
:1025580058F1010EA5EC25F018D0020E1B18D8A4CE
:1025680009D0490E0101576F81C058F1010EE5EC01
:1025780024F00BD01B04D8A408D0490E0101576FD2
:1025880081C058F1010E25EC24F081C082F01200C0
:10259800800E00018119D8A406D0030E0001816FB6
:1025A800010E1C6E35D0030E00018119D8A430D05D
:1025B8001B04D8A41ED0000E0101576F000E0101A4
:1025C800586F030E00EC0DF0110E0101576F680EE5
:1025D8000101586F030E79EC09F0680E0001B46F21
:1025E800010E0001846F030E0101216FE80E206FB8
:1025F8000CD0020E1B18D8A402D0020E04D01B5017
:10260800D8A403D0000E0001846F000E0001816F72
:102618000001815100018219D8B4120000018151D2
:10262800D8A446D0470E0101576F81C058F1010E5A
:10263800B3EC1EF01B50D8A41FD0490E0101576FF0
:1026480081C058F1010EA5EC25F0000E0101576F6D
:10265800000E0101586F020E00EC0DF00E0E010184
:10266800576F030E0101586F030E79EC09F0030E42
:102678000001B46F000E1AD01B04D8A40AD0490E6A
:102688000101576F81C058F1010E25EC24F0010EAD
:102698000DD0020E1B18D8A40BD0490E0101576F9C
:1026A80081C058F1010EE5EC24F0020E0101016F22
:1026B80081C082F0120001015E51F10AD8B479D6C6
:1026C800030AD8B4EED6010AD8A4120061D7486E1E
:1026D800000E496E000E476E11D02C0E096E7A0E50
:1026E8000BD09C0E096E790E07D00C0E096E790E70
:1026F80003D07C0E096E780E0A6E0DD04850010A80
:10270800D8B4EBD7030AD8B4ECD7010AD8B4EDD7BC
:10271800070AD8B4EED74450D8A486D043C041F0B5
:10272800050EF6EC2FF0000E5F6E2F0E5F6401D0E1
:102738001FD05F50010D09C045F00AC046F0F350A4
:102748004526F450462245C0F6FF46C0F7FF08006C
:10275800F5CF49F0490E396E000E3A6E400E3B6EC9
:10276800000E3D6E010E3C6E67EC2FF05F2ADDD740
:1027780043C041F0060EF6EC2FF0000E5F6E2F0EF0
:102788005F6401D023D05F50010D09C045F00AC035
:1027980046F0F3504526F4504622300E4526000EEA
:1027A800462245C0F6FF46C0F7FF0800F5CF49F0BE
:1027B800490E396E000E3A6E400E3B6E000E3D6EAD
:1027C800010E3C6E67EC2FF05F2AD9D743C041F069
:1027D800070EF6EC2FF0000E5F6E2F0E5F6401D02F
:1027E80012005F50010D09C045F00AC046F0F350D1
:1027F8004526F4504622600E4526000E462245C066
:10280800F6FF46C0F7FF0800F5CF49F0490E396ECC
:10281800000E3A6E400E3B6E000E3D6E010E3C6E91
:1028280067EC2FF05F2AD9D7800E4418D8A412007D
:1028380043C041F0050EF6EC2FF0000E5F6E2F0E30
:102848005F6401D035D05F50010D09C045F00AC062
:1028580046F0F3504526F450462245C0F6FF46C0E0
:10286800F7FF0800F5CF49F05F50D8B404D02F0E19
:102878005F18D8A402D00F0E08D05F04D8B404D0D3
:102888002E0E5F18D8A403D01F0E496E03D0491E20
:102898003F0E4916490E396E000E3A6E400E3B6ED9
:1028A800000E3D6E010E3C6E67EC2FF05F2AC7D715
:1028B80043C041F0060EF6EC2FF0000E5F6E2F0EAF
:1028C8005F6401D02DD05F50010D09C045F00AC0EA
:1028D80046F0F3504526F4504622300E4526000EA9
:1028E800462245C0F6FF46C0F7FF0800F5CF49F07D
:1028F8005F50D8B404D02F0E5F18D8A402D049680E
:1029080001D0491E490E396E000E3A6E400E3B6EDC
:10291800000E3D6E010E3C6E67EC2FF05F2ACFD79C
:1029280043C041F0070EF6EC2FF0000E5F6E2F0E3D
:102938005F6401D012005F50010D09C045F00AC064
:1029480046F0F3504526F4504622600E4526000E08
:10295800462245C0F6FF46C0F7FF0800F5CF49F00C
:102968005F50D8B404D02F0E5F18D8A402D0E00E60
:1029780008D05F04D8B404D02E0E5F18D8A403D0B2
:10298800F00E496E04D0491EF00E49164988490ECA
:10299800396E000E3A6E400E3B6E000E3D6E010E13
:1029A8003C6E67EC2FF05F2AC2D70600FACF4DF0D5
:1029B800FBCF4EF0E9CF4FF0EACF50F0E1CF51F026
:1029C800E2CF52F0D9CF53F0DACF54F0F3CF55F02D
:1029D800F4CF56F0F6CF57F0F7CF58F0F8CF59F0BC
:1029E800F5CF5AF0F0A282D0F092F1B802D0F18877
:1029F80002D0F1B8F19801010551D8B41AD00101FB
:102A08001005D8A473D0F1A805D082A00ED082A05A
:102A18006DD004D0F1B86AD082B005D001013D076D
:102A2800D8A03E0763D082A061D001013D4B3E2B68
:102A38005DD001010005D8A438D001012405D8A42F
:102A48001AD0F1A805D082A012D082A04FD004D00D
:102A5800F1B84CD082B009D001013107D8A03207B3
:102A680001012B07D8A02C0741D082A03FD001013B
:102A7800314B322B38D001012505D8A437D0F1A825
:102A880005D082A00ED082A031D004D0F1B82ED0CB
:102A980082B005D001013107D8A0320727D082A023
:102AA80025D00101314B322B21D0020E0101001932
:102AB800D8B41CD001010051D8A40CD001012405C0
:102AC800D8B411D001012505D8A410D001012D4B8F
:102AD8002E2B0CD0040E01010019D8A407D0010137
:102AE8002405D8A4EFD701012B4B2C2BF2A430D00E
:102AF8001F2A054A062A01012605D8A414D01BEC72
:102B08002EF037C007F038C008F0590E075C020EE7
:102B18000858D8A008D0000E01010D6F000E0C6FE8
:102B2800010E01010E6F065004E17E0E055CD8A06F
:102B380007D0010E0101076F000E066E000E056E2C
:102B48007D0E1F6404D0010E336E000E1F6EF294CA
:102B5800F2A074D081A883AC65D083BE81A662D070
:102B6800040E376E000E386E000E396E000E3A6E87
:102B780039EC30F081A883AC55D083BE81A652D001
:102B880052EC31F0000E366E01010351D8A426D064
:102B9800010E0101036FCAEC31F08B848C908C928A
:102BA8008C888C948C968B848C88DE0E436E7F0E7A
:102BB800446EDEEC29F0000E0101066F010E0101E2
:102BC800056F000E0101106F040E01011D6FD7EC97
:102BD8002AF024EC27F0F088F09224D001010305B4
:102BE800D8A420D0000E0101036FC8EC31F0250EE7
:102BF8000201006F000E396E020E3A6E000E3B6E37
:102C0800000E3D6E010E3C6E67EC2FF08B848C90AD
:102C18008C928C888C948C96F10E436E7F0E446E49
:102C2800DEEC29F081BA09D0010E0101236FF90EFB
:102C3800436E7F0E446EDEEC29F0F290F2A204D0CF
:102C4800010E0101066FF2925AC0F5FF59C0F8FF54
:102C580058C0F7FF57C0F6FF56C0F4FF55C0F3FF42
:102C680054C0DAFF53C0D9FF52C0E2FF51C0E1FFA0
:102C780050C0EAFF4FC0E9FF4EC0FBFF4DC0FAFF4E
:102C880063921100000E0001F96F000EF86F010148
:102C98002405D8A452D00D0E01011D19D8A41ED0A8
:102CA800000E01012C6F000E2B6F8C848C968C8883
:102CB80001012C5105E1BB0E01012B5DD8A0F8D70D
:102CC8008C948C868C883A0E0001F16F980EF06F08
:102CD80026EC31F08C888C948C9625D08C888C943A
:102CE8008C968C888C968C84010132BFFDD70101AB
:102CF800325105E1960E0101315DD8A0F5D78C94CB
:102D08008C868C883A0E0001F16F980EF06F26ECD5
:102D180031F08C888C948C96750E0001F16F300E12
:102D2800F06F26EC31F0000E0101246F000E010156
:102D3800256F010E0101266F120001012605D8A496
:102D480083D0000E01010B6F000E0A6F000E010107
:102D58000D6F000E0C6FF28AD58E8C808C928B844E
:102D68000ED080A8FED701010A4B0B2B80B8FED7E6
:102D780001010A4B0B2B01010E05D8B40FD001013C
:102D880022510001F66FF76B0001F65101010A5D4F
:102D98000001F75101010B59D8A0E3D78B848C901F
:102DA8008C92F29AF294D59E01010E05D8A442D0D5
:102DB800000E0101246F000E0101266F000E0101B3
:102DC800256F2CD044EC31F0C30E0001F16F500E8A
:102DD800F06F26EC31F0C30E0001F16F500EF06F6A
:102DE80026EC31F0C30E0001F16F500EF06F26ECA7
:102DF80031F0C30E0001F16F500EF06F26EC31F088
:102E0800C30E0001F16F500EF06F26EC31F0C30EC7
:102E18000001F16F500EF06F26EC31F081AAD2D785
:102E2800000E01010E6F010E0101056F030E010175
:102E3800006F1200000E0101246F000E0101266FC1
:102E4800010E0101256F120001012505D8A4120009
:102E58000D0E01011D19D8A412D08C948C868C8873
:102E680081B0FED78C848C968C883A0E0001F16F65
:102E7800980EF06F26EC31F019D08C9419D08C880C
:102E88008C948C86010132BF07D001013251FAE1DE
:102E980001013105D8B0F6D78C848C968C883A0E0F
:102EA8000001F16F980EF06F26EC31F08C88E5D7B1
:102EB8008C9620C1F0F021C1F1F026EC31F081AA06
:102EC80039D08C888C948C968B848C908C928C9036
:102ED8008C828B840AD080A8FED70001F84BF92B8E
:102EE80080B8FED70001F84BF92B040E0001F85DFD
:102EF800010E0001F959D8A0EED78B848C908C92E2
:102F0800000E0101246F000E0101256F000E010162
:102F1800266F000E0101236F0D0E01011D19D8A4A3
:102F280002D0000E01D0010E0101056F030E010150
:102F3800006F120081BA1200000E0101256F000E09
:102F48000101266F010E0101246F120001015E6F5D
:102F580030D1030E00019919D8A40BD000019D2B84
:102F6800030E00019D19D8A41200000E00019D6FE8
:102F78001200040E1D18D8A402D0800E01D0000E35
:102F88000001996F0001995100019A19D8B41200F3
:102F9800310E0101576F99C058F1010E09EC00F08C
:102FA80000019D51D8A40CD03F0E0101576F0001BC
:102FB800995104090101586F000E79EC09F020D0ED
:102FC80000019D05D8A40CD03F0E0101576F0001E8
:102FD800995106090101586F000E79EC09F010D0DB
:102FE800020E00019D19D8A40BD03F0E0101576FA6
:102FF800000199510D090101586F000E79EC09F093
:1030080099C09AF01200030E00019919D8A40AD0A9
:1030180000019D0700019D29D8A41200020E00019D
:103028009D6F1200040E1D18D8A402D0800E01D086
:10303800000E0001996F0001995100019A19D8B446
:103048001200310E0101576F99C058F1010E09ECB9
:1030580000F000019D51D8A40CD03F0E0101576F1C
:103068000001995104090101586F000E79EC09F02B
:1030780020D000019D05D8A40CD03F0E0101576F48
:103088000001995106090101586F000E79EC09F009
:1030980010D0020E00019D19D8A40BD03F0E0101DB
:1030A800576F000199510D090101586F000E79EC15
:1030B80009F099C09AF01200800E00019919D8A45D
:1030C80006D0030E0001996F010E1C6E08D0030E86
:1030D80000019919D8A403D0000E0001996F0001CE
:1030E800995100019A19D8B4120000019951D8A435
:1030F8005DD0310E0101576F000E0101586F010EAE
:1031080009EC00F000019D51D8A418D03F0E010130
:10311800576F0001995104090101586F000E79ECAD
:1031280009F0040E00019C6F040E5B6E040E1BD0A8
:10313800010E0101406F9C0E3F6F35D000019D05C7
:10314800D8A414D03F0E0101576F00019951060908
:103158000101586F000E79EC09F0060E00019C6F12
:10316800060E5B6E060E01011D6FE2D7020E00010E
:103178009D19D8A41BD03F0E0101576F000199512A
:103188000D090101586F000E79EC09F00D0E0001D0
:103198009C6F0D0E5B6E0D0E01011D6F000E01017F
:1031A800406F010EC9D7010E0101056F99C09AF051
:1031B800120001015E51F10AD8B4CBD6030AD8B483
:1031C80022D7010AD8A4120077D7000E01015C6F3C
:1031D800000E01015B6F6EEC2CF0F0C00BF0F1C03B
:1031E8000CF0DB0E0B5C020E0C58D8A004D04C0E71
:1031F8000D6E7E0E49D0D10E0B5C020E0C58D8A075
:103208000AD0DB0E0B5C020E0C58D8B004D07A0E34
:103218000D6E7E0E39D0C70E0B5C020E0C58D8A06E
:103228000AD0D10E0B5C020E0C58D8B004D0A80EF0
:103238000D6E7E0E29D0BD0E0B5C020E0C58D8A068
:103248000AD0C70E0B5C020E0C58D8B004D0D60EAC
:103258000D6E7E0E19D0B30E0B5C020E0C58D8A062
:103268000AD0BD0E0B5C020E0C58D8B004D0040E68
:103278000D6E7F0E09D0B30E0B5C020E0C58D8B041
:10328800D7D0320E0D6E7F0E0E6ED2D057C1FAF027
:10329800000E77EC2EF0000E5F6E160E5F6401D004
:1032A80025D05F50010D0DC059F10EC05AF1F350F1
:1032B80001015927F45001015A2359C1F6FF5AC197
:1032C800F7FF0800F5CF5CF15C0E0001F26F010E0C
:1032D8000001F36F400E0001F46F000E0001F66F5D
:1032E800010EF56F1CEC2FF05F2AD7D757C1FAF003
:1032F800010E77EC2EF0000E5F6E160E5F6401D0A3
:1033080012005F50010D0DC059F10EC05AF1F35073
:1033180001015927F45001015A23170E01015927B9
:10332800000E5A2359C1F6FF5AC1F7FF0800F5CF1E
:103338005CF15C0E0001F26F010E0001F36F400EAC
:103348000001F46F000E0001F66F010EF56F1CEC22
:103358002FF05F2AD2D757C1FAF0000E77EC2EF083
:10336800000E5F6E160E5F6401D029D05F50010D0C
:103378000DC059F10EC05AF1F35001015927F4500C
:1033880001015A2359C1F6FF5AC1F7FF0800F5CFCA
:103398005CF15CC15BF101015C1F5C0E0001F26F26
:1033A800010E0001F36F400E0001F46F000E0001E2
:1033B800F66F010EF56F1CEC2FF05F2AD3D757C1BB
:1033C800FAF0010E77EC2EF0000E5F6E160E5F64B9
:1033D80001D012005F50010D0DC059F10EC05AF115
:1033E800F35001015927F45001015A23170E010126
:1033F8005927000E5A2359C1F6FF5AC1F7FF080092
:10340800F5CF5CF15CC15BF101015C1F5C0E000152
:10341800F26F010E0001F36F400E0001F46F000E11
:103428000001F66F010EF56F1CEC2FF05F2ACED766
:1034380001015851000AD8B429D7800AD8A412002B
:103448008AD7000E0101666F000E656F0101240521
:10345800D8A44DD0000E01012C6F000E2B6F0D0E5D
:1034680001011D19D8A40BD08C848C8801012C5122
:103478001BE1BB0E01012B5DD8B016D0F7D78C84A9
:103488008C880AD081A4FED701012B4B2C2B81B448
:10349800FED701012B4B2C2B01012C5105E1140EF9
:1034A80001012B5DD8A0EED78C888C948C9620C116
:1034B800F0F021C1F1F0010E0001F36F2C0EF26F54
:1034C80091EC30F00001F0C0F6F00001F1C0F7F027
:1034D8000001F86BF96BF0EC30F0000E0101246F7D
:1034E800000E0101256F010E0101266F1200010176
:1034F8002605D8A445D0000E0101666F000E656F41
:103508008C808C928B840AD080A8FED70101654BF1
:10351800662B80B8FED70101654B662B010122514D
:103528000101636F646B010163510101655D010174
:10353800645101016659D8A0E7D78B848C908C928E
:1035480020C1F0F021C1F1F0010E0001F36F2C0E43
:10355800F26F91EC30F00001F0C0F6F00001F1C01C
:10356800F7F00001F86BF96BF0EC30F0000E010198
:10357800246F000E0101266F010E0101256F120054
:1035880001012505D8A41200000E01012E6F000EBE
:103598002D6F0D0E01011D19D8A405D08C868C88BD
:1035A80081A016D0FDD78C868C880AD081A4FED73E
:1035B80001012D4B2E2B81B4FED701012D4B2E2B53
:1035C80001012E5105E1140E01012D5DD8A0EED7A1
:1035D8008C888C948C9620C1F0F021C1F1F0010EFA
:1035E8000001F36F2C0EF26F91EC30F00001F0C087
:1035F800F6F00001F1C0F7F00001F86BF96BF0ECA0
:1036080030F0B50E0101576F7F0E0101586F34EC91
:1036180029F011B038D08C888C948C968B848C903F
:103628008C928C908C828B840AD080A8FED7010162
:10363800654B662B80B8FED70101654B662B0101EF
:10364800665105E10E0E0101655DD8A0EED78B84A9
:103658008C908C92000E0101246F000E0101256FE1
:10366800000E0101266F000E0101236F0D0E0101EE
:103678001D19D8A404D0000E0101056F1200010E17
:103688000101056F1200000E0101256F000E0101F6
:10369800266F010E0101246F1200000E0101646FF4
:1036A800000E636F01012405D8A444D0000E010167
:1036B8002C6F000E2B6F0D0E01011D19D8A40BD015
:1036C8008C888C8401012C510FE1BB0E01012B5D0C
:1036D800D8B00AD0F7D78C888C84360E0001F16FE9
:1036E800B00EF06F26EC31F08C888C948C96C30E5B
:1036F8000001F16F500EF06F26EC31F0C30E00019F
:10370800F16F500EF06F26EC31F0600E0101576F2B
:103718007F0E0101586F2BC159F12CC15AF134ECBD
:1037280029F0000E0101246F000E0101256F010E22
:103738000101266F01012605D8B42ED04AD0000E0B
:103748000101646F000E636F8C808C928B840AD0A9
:1037580080A8FED70101634B642B80B8FED7010116
:10376800634B642B0101645105E1920E0101635D15
:10377800D8A0EED78B848C908C92C30E0001F16F89
:10378800500EF06F26EC31F0D10E0101576F7F0E0D
:103798000101586F34EC29F081AAD1D7A40E010198
:1037A800576F7F0E0101586F34EC29F08B848C9091
:1037B8008C92C30E0001F16F500EF06F26EC31F0C1
:1037C800000E0101246F000E0101266F010E010198
:1037D800256F01012505D8A41200000E01012E6FE6
:1037E800000E2D6F0D0E01011D19D8A405D08C886F
:1037F8008C8681A00AD0FDD78C888C86860E000125
:10380800F16FA00EF06F26EC31F08C888C948C96BA
:1038180020C1F0F021C1F1F0010E0001F36F2C0E70
:10382800F26F91EC30F00001F0C0F6F00001F1C049
:10383800F7F00001F86BF96BF0EC30F0790E01014C
:10384800576F7F0E0101586F2DC159F12EC15AF1E2
:1038580034EC29F081AA12003A0E0001F16F980E9B
:10386800F06F26EC31F081AA12008C888C948C962B
:103878008B848C908C928C908C828B84000E0101AE
:10388800646F000E636F0AD080A8FED70101634BF6
:10389800642B80B8FED70101634B642B010164518E
:1038A80005E1780E0101635DD8A0EED78B848C907A
:1038B8008C92000E0101246F000E0101256F000E8D
:1038C8000101266F000E0101236F0D0E01011D1964
:1038D800D8A402D0000E01D0010E0101056F030E1D
:1038E8000101006F120001015E6F10D1030E00018B
:1038F800A919D8A40BD00001AD2B030E0001AD19F6
:10390800D8A41200000E0001AD6F1200060E1D189B
:10391800D8A402D0800E01D0000E0001A96F0001CA
:10392800A9510001AA19D8B41200310E0101576F2C
:10393800A9C058F1010E00EC0DF00001AD51D8A45A
:103948000CD03F0E0101576F0001A9510109010177
:10395800586F030E79EC09F020D00001AD05D8A40A
:103968000CD03F0E0101576F0001A9516A090101EE
:10397800586F030E79EC09F010D0020E0001AD1952
:10398800D8A40BD03F0E0101576F0001A9510509BA
:103998000101586F030E79EC09F0A9C0AAF01200D2
:1039A800030E0001A919D8A40AD00001AD0700012F
:1039B800AD29D8A41200020E0001AD6F1200060E48
:1039C8001D18D8A402D0800E01D0000E0001A96FE6
:1039D8000001A9510001AA19D8B41200310E010141
:1039E800576FA9C058F1010E00EC0DF00001AD5160
:1039F800D8A40CD03F0E0101576F0001A95101094D
:103A08000101586F030E79EC09F020D00001AD05D3
:103A1800D8A40CD03F0E0101576F0001A9516A09C3
:103A28000101586F030E79EC09F010D0020E000165
:103A3800AD19D8A40BD03F0E0101576F0001A95151
:103A480005090101586F030E79EC09F0A9C0AAF025
:103A58001200800E0001A919D8A406D0030E000197
:103A6800A96F010E1C6E08D0030E0001A919D8A475
:103A780003D0000E0001A96F0001A9510001AA1985
:103A8800D8B412000001A951D8A43DD0310E0101CB
:103A9800576F000E0101586F010E00EC0DF0000188
:103AA800AD51D8A40FD03F0E0101576F010E01018F
:103AB800586F030E79EC09F0010E22D0720E010145
:103AC800226F21D00001AD05D8A40BD03F0E010113
:103AD800576F6A0E0101586F030E79EC09F06A0EF0
:103AE8000FD0020E0001AD19D8A40DD03F0E010170
:103AF800576F050E0101586F030E79EC09F0050E9A
:103B08000001AC6FDBD7A9C0AAF0120001015E5119
:103B1800F10AD8B4EBD6030AD8B442D7010AD8A41C
:103B2800120097D7000E486E000E476E8CEC2DF0F1
:103B380037C00BF038C00CF0DB0E0B5C020E0C58D3
:103B4800D8A004D04C0E0D6E7E0E49D0D10E0B5C61
:103B5800020E0C58D8A00AD0DB0E0B5C020E0C58D3
:103B6800D8B004D07A0E0D6E7E0E39D0C70E0B5C1D
:103B7800020E0C58D8A00AD0D10E0B5C020E0C58BD
:103B8800D8B004D0A80E0D6E7E0E29D0BD0E0B5CE9
:103B9800020E0C58D8A00AD0C70E0B5C020E0C58A7
:103BA800D8B004D0D60E0D6E7E0E19D0B30E0B5CB5
:103BB800020E0C58D8A00AD0BD0E0B5C020E0C5891
:103BC800D8B004D0040E0D6E7F0E09D0B30E0B5C76
:103BD800020E0C58D8B0BBD0320E0D6E7F0E0E6E92
:103BE800B6D043C041F0000EF6EC2FF0000E5F6E29
:103BF800160E5F6401D01FD05F50010D0DC045F057
:103C08000EC046F0F3504526F450462245C0F6FF54
:103C180046C0F7FF0800F5CF48F0480E396E000E91
:103C28003A6E400E3B6E000E3D6E010E3C6E67EC28
:103C38002FF05F2ADDD743C041F0010EF6EC2FF0DC
:103C4800000E5F6E160E5F6401D012005F50010D0A
:103C58000DC045F00EC046F0F3504526F4504622FC
:103C6800170E4526000E462245C0F6FF46C0F7FF50
:103C78000800F5CF48F0480E396E000E3A6E400E37
:103C88003B6E000E3D6E010E3C6E67EC2FF05F2A16
:103C9800D9D743C041F0000EF6EC2FF0000E5F6E4E
:103CA800160E5F6401D022D05F50010D0DC045F0A3
:103CB8000EC046F0F3504526F450462245C0F6FFA4
:103CC80046C0F7FF0800F5CF48F048C047F0481E47
:103CD800480E396E000E3A6E400E3B6E000E3D6E79
:103CE800010E3C6E67EC2FF05F2ADAD743C041F033
:103CF800010EF6EC2FF0000E5F6E160E5F6401D019
:103D080012005F50010D0DC045F00EC046F0F35093
:103D18004526F4504622170E4526000E462245C079
:103D2800F6FF46C0F7FF0800F5CF48F048C047F057
:103D3800481E480E396E000E3A6E400E3B6E000E5D
:103D48003D6E010E3C6E67EC2FF05F2AD6D74450CB
:103D5800000AD8B446D7800AD8A412009AD7000E11
:103D680001015A6F000E0101596FFAD057C1FAF0DC
:103D7800000E77EC2EF0000E5F6E1A0E5F6401D015
:103D88001DD05F50010D460EF324F66E740EF4201C
:103D9800F76E0800F5CF5AF15A0E0001F26F010EC6
:103DA8000001F36F400E0001F46F000E0001F66F82
:103DB800010EF56F1CEC2FF05F2ADFD757C1FAF020
:103DC800010E77EC2EF0000E5F6E1A0E5F6401D0C4
:103DD80012005F50010D1B0EF326000EF422460E52
:103DE800F324F66E740EF420F76E0800F5CF5AF13E
:103DF8005A0E0001F26F010E0001F36F400E000130
:103E0800F46F000E0001F66F010EF56F1CEC2FF039
:103E18005F2ADBD757C1FAF0000E77EC2EF0000EC0
:103E28005F6E1A0E5F6401D046D05F50010D460EDA
:103E3800F324F66E740EF420F76E0800F5CF5AF1ED
:103E48005AC159F15F50D8B404D01A0E5F18D8A4DB
:103E58000AD001015A1F0101595101015A133F0E9D
:103E680001015A1716D05F04D8B404D0190E5F1890
:103E7800D8A409D001015A1F0101595101015A134F
:103E880001015A9F06D001015A1F01015951010130
:103E98005A135A0E0001F26F010E0001F36F400E23
:103EA8000001F46F000E0001F66F010EF56F1CECB7
:103EB8002FF05F2AB6D757C1FAF0010E77EC2EF033
:103EC800000E5F6E1A0E5F6401D012005F50010D84
:103ED8001B0EF326000EF422460EF324F66E740E23
:103EE800F420F76E0800F5CF5AF15AC159F15F5026
:103EF800D8B404D01A0E5F18D8A40AD001015A1FEA
:103F08000101595101015A13FC0E01015A1716D02B
:103F18005F04D8B404D0190E5F18D8A409D00101E1
:103F28005A1F0101595101015A1301015A9106D032
:103F380001015A1F0101595101015A135A0E00017A
:103F4800F26F010E0001F36F400E0001F46F000ED6
:103F58000001F66F010EF56F1CEC2FF05F2AB2D747
:103F680001015851000AD8B401D7800AD8A4120018
:103F780051D781B05FD0000E0101276F000E0101FB
:103F88003E6F000E3D6F020E0101406F580E3F6FED
:103F98008C948C868C882CD08C84000E0001F16F58
:103FA8000A0EF06F26EC31F0000E0001F16F0A0ED8
:103FB800F06F26EC31F0000E0001F16F0A0EF06F81
:103FC80026EC31F0000E0001F16F0A0EF06F26ECBE
:103FD80031F0000E0001F16F0A0EF06F26EC31F09F
:103FE8008C94000E0001F16F0A0EF06F26EC31F090
:103FF8002C0E01013D5D010E01013E59D8A0CCD720
:104008008C888C948C96C30E0001F16F500EF06F63
:1040180026EC31F0000E0101276F000E01013E6F02
:10402800000E3D6FE80E0101576F7F0E0101586FBA
:1040380034EC29F0040E01011D19D8A405D0010E95
:104048000101406F2C0E13D0060E01011D19D8A4D2
:1040580005D0010E0101406F9C0E09D00D0E010123
:104068001D19D8A405D0000E0101406F010E3F6F45
:10407800000E0101066F8C888C9410D08C86040E7B
:104088000001F16F380EF06F26EC31F08C96030EBC
:104098000001F16F980EF06F26EC31F00101065126
:1040A800D8B4ECD78C848C968C883A0E0001F16FCA
:1040B800980EF06F26EC31F08C888C948C960D0E4F
:1040C80001011D19D8A404D0000E0101056F1200CA
:1040D8008C888C96000E0101276F000E01013E6F3F
:1040E800000E3D6F010E0101106F10D08C84020E7E
:1040F8000001F16F580EF06F26EC31F08C94050E2C
:104108000001F16F780EF06F26EC31F001013F519C
:1041180001013D5D0101405101013E59D8A0E6D79A
:104128008C948C868C883A0E0001F16F980EF06F93
:1041380026EC31F08C888C948C96000E0101056F6A
:10414800000E0101066F000E01013E6F000E3D6F6B
:10415800000E0101276FF28AD58E120001015E6FF1
:10416800DDD0030E0001A119D8A40BD00001A52BA6
:10417800020E0001A519D8A41200000E0001A56FB7
:104188001200050E1D18D8A402D0800E01D0000E12
:104198000001A16F0001A1510001A219D8B41200B9
:1041A800000E0101576FA1C058F1020E09EC00F092
:1041B8000001A551D8A40CD00E0E0101576F0001C3
:1041C800A15101090101586F000E79EC09F00FD0D7
:1041D8000001A505D8A40BD00E0E0101576F0001F0
:1041E800A15102090101586F000E79EC09F0A1C034
:1041F800A2F01200030E0001A119D8A40AD00001F0
:10420800A5070001A529D8A41200010E0001A56F79
:104218001200050E1D18D8A402D0800E01D0000E81
:104228000001A16F0001A1510001A219D8B4120028
:10423800000E0101576FA1C058F1020E09EC00F001
:104248000001A551D8A40CD00E0E0101576F000132
:10425800A15101090101586F000E79EC09F00FD046
:104268000001A505D8A40BD00E0E0101576F00015F
:10427800A15102090101586F000E79EC09F0A1C0A3
:10428800A2F01200800E0001A119D8A406D0030ED6
:104298000001A16F010E1C6E08D0030E0001A119C8
:1042A800D8A403D0000E0001A16F0001A1510001A4
:1042B800A219D8B412000001A151D8A42CD0000E24
:1042C8000101576F000E0101586F020E09EC00F052
:1042D8000001A551D8A40DD00E0E0101576F0001A1
:1042E800A15101090101586F000E79EC09F0010E86
:1042F80010D00001A505D8A40ED00E0E0101576FED
:104308000001A15102090101586F000E79EC09F072
:10431800020E0001A46FA1C0A2F0120001015E51BB
:10432800F10AD8B41ED7030AD8B464D7010AD8A4AE
:104338001200A8D7000E01015C6F000E01015B6F2F
:10434800320E0D6E7F0E0E6ED2D057C1FAF0000EEF
:1043580077EC2EF0000E5F6E160E5F6401D025D04C
:104368005F50010D0DC059F10EC05AF1F350010113
:104378005927F45001015A2359C1F6FF5AC1F7FFD2
:104388000800F5CF5CF15C0E0001F26F010E000130
:10439800F36F400E0001F46F000E0001F66F010E7E
:1043A800F56F1CEC2FF05F2AD7D757C1FAF0010E32
:1043B80077EC2EF0000E5F6E160E5F6401D01200CF
:1043C8005F50010D0DC059F10EC05AF1F3500101B3
:1043D8005927F45001015A23170E01015927000EDD
:1043E8005A2359C1F6FF5AC1F7FF0800F5CF5CF10F
:1043F8005C0E0001F26F010E0001F36F400E000128
:10440800F46F000E0001F66F010EF56F1CEC2FF033
:104418005F2AD2D757C1FAF0000E77EC2EF0000EC3
:104428005F6E160E5F6401D029D05F50010D0DC07C
:1044380059F10EC05AF1F35001015927F450010106
:104448005A2359C1F6FF5AC1F7FF0800F5CF5CF1AE
:104458005CC15BF101015C1F5C0E0001F26F010E93
:104468000001F36F400E0001F46F000E0001F66FBB
:10447800010EF56F1CEC2FF05F2AD3D757C1FAF065
:10448800010E77EC2EF0000E5F6E160E5F6401D001
:1044980012005F50010D0DC059F10EC05AF1F350D2
:1044A80001015927F45001015A23170E0101592718
:1044B800000E5A2359C1F6FF5AC1F7FF0800F5CF7D
:1044C8005CF15CC15BF101015C1F5C0E0001F26FE5
:1044D800010E0001F36F400E0001F46F000E0001A1
:1044E800F66F010EF56F1CEC2FF05F2ACED7010195
:1044F8005851000AD8B429D7800AD8A412008AD7FC
:10450800000E466E000E456ED4D043C041F0000E3A
:10451800F6EC2FF0000E5F6E1A0E5F6401D019D012
:104528005F50010D460EF324F66E740EF420F76EFC
:104538000800F5CF46F0460E396E000E3A6E400E72
:104548003B6E000E3D6E010E3C6E67EC2FF05F2A4D
:10455800E3D743C041F0010EF6EC2FF0000E5F6E7A
:104568001A0E5F6401D012005F50010D1B0EF32676
:10457800000EF422460EF324F66E740EF420F76E45
:104588000800F5CF46F0460E396E000E3A6E400E22
:104598003B6E000E3D6E010E3C6E67EC2FF05F2AFD
:1045A800DFD743C041F0000EF6EC2FF0000E5F6E2F
:1045B8001A0E5F6401D037D05F50010D460EF32408
:1045C800F66E740EF420F76E0800F5CF46F046C07C
:1045D80045F05F50D8B404D01A0E5F18D8A406D09E
:1045E800461E455046123F0E46160FD05F04D8B4FB
:1045F80004D0190E5F18D8A405D0461E455046129F
:10460800469E03D0461E45504612460E396E000E91
:104618003A6E400E3B6E000E3D6E010E3C6E67EC2E
:104628002FF05F2AC5D743C041F0010EF6EC2FF0FA
:10463800000E5F6E1A0E5F6401D012005F50010D0C
:104648001B0EF326000EF422460EF324F66E740EAB
:10465800F420F76E0800F5CF46F046C045F05F50ED
:10466800D8B404D01A0E5F18D8A406D0461E4550F8
:104678004612FC0E46160FD05F04D8B404D0190EAB
:104688005F18D8A405D0461E45504612469003D060
:10469800461E45504612460E396E000E3A6E400EC2
:1046A8003B6E000E3D6E010E3C6E67EC2FF05F2AEC
:1046B800C1D74450000AD8B428D7800AD8A4120019
:1046C80070D7000E01015A6F000E0101596FB0D06A
:1046D80057C1FAF0000E77EC2EF0000E5F6E160E42
:1046E8005F6401D01DD05F50010D340EF324F66EC7
:1046F800750EF420F76E0800F5CF5AF15A0E000136
:10470800F26F010E0001F36F400E0001F46F000E0E
:104718000001F66F010EF56F1CEC2FF05F2ADFD752
:1047280057C1FAF0010E77EC2EF0000E5F6E160EF0
:104738005F6401D012005F50010D170EF326000EC2
:10474800F422340EF324F66E750EF420F76E08008A
:10475800F5CF5AF15A0E0001F26F010E0001F36F06
:10476800400E0001F46F000E0001F66F010EF56FA8
:104778001CEC2FF05F2ADBD757C1FAF0000E77EC5C
:104788002EF0000E5F6E160E5F6401D021D05F50D0
:10479800010D340EF324F66E750EF420F76E080042
:1047A800F5CF5AF15AC159F101015A1F5A0E0001A9
:1047B800F26F010E0001F36F400E0001F46F000E5E
:1047C8000001F66F010EF56F1CEC2FF05F2ADBD7A6
:1047D80057C1FAF0010E77EC2EF0000E5F6E160E40
:1047E8005F6401D012005F50010D170EF326000E12
:1047F800F422340EF324F66E750EF420F76E0800DA
:10480800F5CF5AF15AC159F101015A1F5A0E000148
:10481800F26F010E0001F36F400E0001F46F000EFD
:104828000001F66F010EF56F1CEC2FF05F2AD7D749
:1048380001015851000AD8B44BD7800AD8A41200F5
:104848009BD7000E01015A6F000E0101596FB0D0BD
:1048580057C1FAF0000E77EC2EF0000E5F6E160EC0
:104868005F6401D01DD05F50010DD80EF324F66EA1
:10487800740EF420F76E0800F5CF5AF15A0E0001B5
:10488800F26F010E0001F36F400E0001F46F000E8D
:104898000001F66F010EF56F1CEC2FF05F2ADFD7D1
:1048A80057C1FAF0010E77EC2EF0000E5F6E160E6F
:1048B8005F6401D012005F50010D170EF326000E41
:1048C800F422D80EF324F66E740EF420F76E080066
:1048D800F5CF5AF15A0E0001F26F010E0001F36F85
:1048E800400E0001F46F000E0001F66F010EF56F27
:1048F8001CEC2FF05F2ADBD757C1FAF0000E77ECDB
:104908002EF0000E5F6E160E5F6401D021D05F504E
:10491800010DD80EF324F66E740EF420F76E08001D
:10492800F5CF5AF15AC159F101015A1F5A0E000127
:10493800F26F010E0001F36F400E0001F46F000EDC
:104948000001F66F010EF56F1CEC2FF05F2ADBD724
:1049580057C1FAF0010E77EC2EF0000E5F6E160EBE
:104968005F6401D012005F50010D170EF326000E90
:10497800F422D80EF324F66E740EF420F76E0800B5
:10498800F5CF5AF15AC159F101015A1F5A0E0001C7
:10499800F26F010E0001F36F400E0001F46F000E7C
:1049A8000001F66F010EF56F1CEC2FF05F2AD7D7C8
:1049B80001015851000AD8B44BD7800AD8A4120074
:1049C8009BD7000E01015A6F000E0101596FB0D03C
:1049D80057C1FAF0000E77EC2EF0000E5F6E160E3F
:1049E8005F6401D01DD05F50010DAA0EF324F66E4E
:1049F800740EF420F76E0800F5CF5AF15A0E000134
:104A0800F26F010E0001F36F400E0001F46F000E0B
:104A18000001F66F010EF56F1CEC2FF05F2ADFD74F
:104A280057C1FAF0010E77EC2EF0000E5F6E160EED
:104A38005F6401D012005F50010D170EF326000EBF
:104A4800F422AA0EF324F66E740EF420F76E080012
:104A5800F5CF5AF15A0E0001F26F010E0001F36F03
:104A6800400E0001F46F000E0001F66F010EF56FA5
:104A78001CEC2FF05F2ADBD757C1FAF0000E77EC59
:104A88002EF0000E5F6E160E5F6401D021D05F50CD
:104A9800010DAA0EF324F66E740EF420F76E0800CA
:104AA800F5CF5AF15AC159F101015A1F5A0E0001A6
:104AB800F26F010E0001F36F400E0001F46F000E5B
:104AC8000001F66F010EF56F1CEC2FF05F2ADBD7A3
:104AD80057C1FAF0010E77EC2EF0000E5F6E160E3D
:104AE8005F6401D012005F50010D170EF326000E0F
:104AF800F422AA0EF324F66E740EF420F76E080062
:104B0800F5CF5AF15AC159F101015A1F5A0E000145
:104B1800F26F010E0001F36F400E0001F46F000EFA
:104B28000001F66F010EF56F1CEC2FF05F2AD7D746
:104B380001015851000AD8B44BD7800AD8A41200F2
:104B48009BD7000E01015A6F000E0101596FB0D0BA
:104B580057C1FAF0000E77EC2EF0000E5F6E160EBD
:104B68005F6401D01DD05F50010D060EF324F66E70
:104B7800750EF420F76E0800F5CF5AF15A0E0001B1
:104B8800F26F010E0001F36F400E0001F46F000E8A
:104B98000001F66F010EF56F1CEC2FF05F2ADFD7CE
:104BA80057C1FAF0010E77EC2EF0000E5F6E160E6C
:104BB8005F6401D012005F50010D170EF326000E3E
:104BC800F422060EF324F66E750EF420F76E080034
:104BD800F5CF5AF15A0E0001F26F010E0001F36F82
:104BE800400E0001F46F000E0001F66F010EF56F24
:104BF8001CEC2FF05F2ADBD757C1FAF0000E77ECD8
:104C08002EF0000E5F6E160E5F6401D021D05F504B
:104C1800010D060EF324F66E750EF420F76E0800EB
:104C2800F5CF5AF15AC159F101015A1F5A0E000124
:104C3800F26F010E0001F36F400E0001F46F000ED9
:104C48000001F66F010EF56F1CEC2FF05F2ADBD721
:104C580057C1FAF0010E77EC2EF0000E5F6E160EBB
:104C68005F6401D012005F50010D170EF326000E8D
:104C7800F422060EF324F66E750EF420F76E080083
:104C8800F5CF5AF15AC159F101015A1F5A0E0001C4
:104C9800F26F010E0001F36F400E0001F46F000E79
:104CA8000001F66F010EF56F1CEC2FF05F2AD7D7C5
:104CB80001015851000AD8B44BD7800AD8A4120071
:104CC8009BD7000E0001806F000E0001836F000E5D
:104CD8000001816F81C082F0000E0001846F000E18
:104CE8000001856FB40E0001866F230E0001876FE7
:104CF800000E0001886F000E00018B6F000E00018E
:104D0800896F89C08AF0000E00018C6F000E0001C7
:104D18008D6FD80E00018E6F5B0E00018F6F000E35
:104D28000001906F000E0001936F000E0001916F5B
:104D380091C092F0000E0001946F000E0001956F73
:104D48007A0E0001966F5B0E0001976F000E00014E
:104D5800986F000E00019B6F000E0001996F99C0BB
:104D68009AF0000E00019C6F000E00019D6F540E1A
:104D780000019E6F2F0E00019F6F000E0001A06FB3
:104D8800000E0001A36F000E0001A16FA1C0A2F0E8
:104D9800000E0001A46F000E0001A56F640E000153
:104DA800A66F410E0001A76F000E0001A86F000E4C
:104DB8000001AB6F000E0001A96FA9C0AAF0000E98
:104DC8000001AC6F000E0001AD6FEE0E0001AE6F7A
:104DD800380E0001AF6F000E0001B06F000E000129
:104DE800B36F000E0001B16FB1C0B2F0000E000148
:104DF800B46F000E0001B56F960E0001B66F0E0E6F
:104E08000001B76F000E0001B86F000E0001BB6F04
:104E1800000E0001B96F81C0BAF0000E0001BC6F2E
:104E2800000E0001BD6F000E0001BE6F000E0001F4
:104E3800BF6F000E1D6E000E1C6E000E1B6E120062
:104E48008CEC2FF029EC2DF0000E4A6E310E4A64DE
:104E580001D008D0C30E386E500E376E5FEC31F0BB
:104E68004A2AF4D78CEC2FF0470E436E000E446E9E
:104E7800010E84EC22F0490E436E000E446E010EC2
:104E8800DEEC27F0000E0001816F000E0001846F38
:104E9800230E436E000E446E010E84EC22F0250EA4
:104EA800436E000E446E010E89EC28F0000E0001DE
:104EB800896F580E00018C6F000E436E000E446E11
:104EC800010E84EC22F0020E436E000E446E010EB9
:104ED80096EC1DF0000E0001916F590E0001946FC1
:104EE800310E436E000E446E010EAEEC02F03F0E22
:104EF800436E040E446E000EA6EC0EF0000E000188
:104F0800996F040E00019C6F000E436E000E446EF4
:104F1800020EAEEC02F00E0E436E010E446E000E51
:104F2800A6EC0EF0000E0001A16F010E0001A46FA7
:104F3800310E436E000E446E010E6BEC13F03F0E03
:104F4800436E010E446E030EA6EC0EF0000E000137
:104F5800A96F010E0001AC6F000E436E000E446E87
:104F6800020E6BEC13F00E0E436E030E446E030E2E
:104F7800A6EC0EF0000E0001B16F030E0001B46F35
:104F8800010E0101016F010E0101406F9C0E3F6F80
:104F9800040E01011D6F010E01011E6F000E0101BB
:104FA8001F6F070E0101216FD00E206F8C0E0101BB
:104FB800226F1200000E466E000E456E9ED043C052
:104FC80041F0000EF6EC2FF0000E5F6E160E5F64D7
:104FD80001D019D05F50010D060EF324F66E750E40
:104FE800F420F76E0800F5CF46F0460E396E000E35
:104FF8003A6E400E3B6E000E3D6E010E3C6E67EC45
:105008002FF05F2AE3D743C041F0010EF6EC2FF0F2
:10501800000E5F6E160E5F6401D012005F50010D26
:10502800170EF326000EF422060EF324F66E750E04
:10503800F420F76E0800F5CF46F0460E396E000EE4
:105048003A6E400E3B6E000E3D6E010E3C6E67ECF4
:105058002FF05F2ADFD743C041F0000EF6EC2FF0A7
:10506800000E5F6E160E5F6401D01CD05F50010DFC
:10507800060EF324F66E750EF420F76E0800F5CFD1
:1050880046F046C045F0461E460E396E000E3A6E92
:10509800400E3B6E000E3D6E010E3C6E67EC2FF02D
:1050A8005F2AE0D743C041F0010EF6EC2FF0000E66
:1050B8005F6E160E5F6401D012005F50010D170E6F
:1050C800F326000EF422060EF324F66E750EF42075
:1050D800F76E0800F5CF46F046C045F0461E460E6E
:1050E800396E000E3A6E400E3B6E000E3D6E010E9C
:1050F8003C6E67EC2FF05F2ADCD74450000AD8B426
:105108005ED7800AD8A41200A6D7000E466E000EFD
:10511800456E9ED043C041F0000EF6EC2FF0000E15
:105128005F6E160E5F6401D019D05F50010D7C0EC2
:10513800F324F66E740EF420F76E0800F5CF46F0EF
:10514800460E396E000E3A6E400E3B6E000E3D6EF6
:10515800010E3C6E67EC2FF05F2AE3D743C041F0A5
:10516800010EF6EC2FF0000E5F6E160E5F6401D094
:1051780012005F50010D170EF326000EF4227C0E6C
:10518800F324F66E740EF420F76E0800F5CF46F09F
:10519800460E396E000E3A6E400E3B6E000E3D6EA6
:1051A800010E3C6E67EC2FF05F2ADFD743C041F059
:1051B800000EF6EC2FF0000E5F6E160E5F6401D045
:1051C8001CD05F50010D7C0EF324F66E740EF42093
:1051D800F76E0800F5CF46F046C045F0461E460E6D
:1051E800396E000E3A6E400E3B6E000E3D6E010E9B
:1051F8003C6E67EC2FF05F2AE0D743C041F0010E08
:10520800F6EC2FF0000E5F6E160E5F6401D01200F0
:105218005F50010D170EF326000EF4227C0EF324C6
:10522800F66E740EF420F76E0800F5CF46F046C00F
:1052380045F0461E460E396E000E3A6E400E3B6E25
:10524800000E3D6E010E3C6E67EC2FF05F2ADCD736
:105258004450000AD8B45ED7800AD8A41200A6D752
:10526800590E01015C6F010E01015D6F94D0250E8E
:1052780001016219D8B405D0010162518BEC31F0FB
:105288008AD0000E01015E6F57C1F6FF58C1F7FFC3
:105298000101574B582B0800F5CF62F1010162510B
:1052A800000AD8B41200640AD8B403D00D0AD8A4EE
:1052B80072D05CC1D9FF5DC1DAFFDECF60F1DDCF0E
:1052C80061F1020E01015C27000E5D23010161AF4F
:1052D80008D0030E01015E130101606D611FD8B093
:1052E800612B010E0101626F050E01016219D8B42C
:1052F80016D001016251020D620EF324F66E750E8E
:10530800F420F76E0900F5500101605D0900F550C1
:1053180001016159D8A003D00101622BE5D75EC114
:105328005BF1030E01015B17D8B403D02D0E8BEC93
:1053380031F062C15FF129D001015F51020D620EA7
:10534800F324F66E750EF420F76E0900F5CFF2F02F
:105358000A00F5CFF3F060C1F0F061C1F1F0EDECB7
:105368002CF0F0C0F7F0F1C0F8F0000E0001FA6F71
:105378000A0EF96F5BEC2DF00001F751300F0101B7
:10538800626F010162518BEC31F001015F0701018D
:105398005F29D8A4D1D757C1F6FF58C1F7FF01013B
:1053A800574B582B0800F5CF62F101016251D8B470
:1053B80012005DD7450E466E000E476E7DD0250E55
:1053C8004C18D8B404D04C50ADEC31F075D0000E68
:1053D800486E43C0F6FF44C0F7FF434A442A08001A
:1053E800F5CF4CF04C50000AD8B41200640AD8B477
:1053F80003D00D0AD8A460D046C0D9FF47C0DAFF51
:10540800DECF4AF0DDCF4BF0020E4626000E4722D3
:105418004BAE06D0030E48124A6C4B1ED8B04B2A2E
:10542800010E4C6E050E4C18D8B412D04C50020D1B
:10543800620EF324F66E750EF420F76E0900F5502F
:105448004A5C0900F5504B58D8A002D04C2AEAD73C
:1054580048C045F0030E4516D8B403D02D0EADEC68
:1054680031F04CC049F024D04950020D620EF324AB
:10547800F66E750EF420F76E0900F5CF39F00A00C4
:10548800F5CF3AF04AC037F04BC038F0CDEC2EF0EB
:1054980037C03EF038C03FF0000E416E0A0E406E35
:1054A80018EC30F03E50300F4C6E4C50ADEC31F0F3
:1054B80049064928D8A4D8D743C0F6FF44C0F7FF07
:1054C800434A442A0800F5CF4CF04C50D8B4120097
:1054D80076D7000E0101646F000E636F83BC37D06E
:1054E800050E0001F06F000EF16F000EF26F000E56
:1054F800F36FA4EC2EF083AC0BD029D00101634BE1
:10550800642BC30E0001F16F500EF06F26EC31F0E2
:1055180083ACF4D744EC31F00101645105E1650E28
:105528000101635DD8A011D0010E366E920E010103
:10553800576F7F0E0101586F34EC29F0040E0101FA
:10554800016FF29AD59E000E1200F10E120083BE72
:1055580013D0050E0001F06F000EF16F000EF26F10
:10556800000EF36FA4EC2EF083BE06D083AEFED7F8
:1055780044EC31F0F20E120081B613D0050E000192
:10558800F06F000EF16F000EF26F000EF36FA4ECD7
:105598002EF081B606D081A6FED744EC31F0F30E8A
:1055A8001200000E1200210E0201006F000E396E6B
:1055B800020E3A6E000E3B6E000E3D6E010E3C6E02
:1055C80067EC2FF0150E0201006F000E396E020E07
:1055D8003A6E000E3B6E000E3D6E010E3C6E67EC9F
:1055E8002FF0080E0201006F000E396E020E3A6E9F
:1055F800000E3B6E000E3D6E010E3C6E67EC2FF008
:105608009F0E0201006F000E396E020E3A6E000EF8
:105618003B6E000E3D6E010E3C6E67EC2FF0200EC7
:105628000201006F000E396E020E3A6E000E3B6EDC
:10563800000E3D6E010E3C6E67EC2FF0050E020168
:10564800006F000E396E020E3A6E000E3B6E000EB1
:105658003D6E010E3C6E67EC2FF00C0E0201006FE0
:10566800000E396E020E3A6E000E3B6E000E3D6E55
:10567800010E3C6E67EC2FF01200000E356E000E26
:10568800346E000E0001DC6F000EDD6F000EDE6F61
:10569800000EDF6F000E0001D86F000ED96F000EEC
:1056A800DA6F000EDB6FC4EC30F058EC30F028EC09
:1056B8002CF001010551D8B403D0BDEC1FF0F7D789
:1056C80001010005D8A403D046EC16F01FD0010153
:1056D8000051D8A403D051EC1BF018D0020E0101E0
:1056E8000019D8B413D0040E01010019D8A403D0AE
:1056F80025EC1AF00BD0030E01010019D8A406D02E
:105708004AEC2EF0B0EC2FF056EC0BF0E1EC2BF05D
:105718003350D8B4CCD748EC10F0000E336EC7D74E
:10572800840EF66E630EF76E000EF86E00EEFCF057
:1057380010EE04F00900F5CFEEFFE550E150FAE174
:105748007C0EF66E630EF76E000EF86E00EE5BF0E0
:1057580010EE08F00900F5CFEEFFE550E150FAE150
:1057680003EE00F011EE00F0EE6AE550E150FCE1C6
:10577800E250FAE102EE00F011EE00F0EE6AE550B8
:10578800E150FCE1E250FAE101EE00F0570EEE6A5A
:10579800E806FDE100EE80F0700EEE6AE806FDE135
:1057A80000EE01F0360EEE6AE806FDE163906392C2
:1057B800000EF86E000141EF2BF001012351D8B41F
:1057C80012004E0E0001F16F200EF06F26EC31F042
:1057D80081BA34D0F29AF294D59E44EC31F00101AA
:1057E8000105D8A407D0000E0101236F1DD001C107
:1057F80000F126D001010151D8A40FD0010E0101FA
:10580800246F000E0101256F000E0101266F01C1F2
:1058180000F1000E0101006F13D0040E01010119FF
:10582800D8A40ED0114A122A010E0101246F000ECD
:105838000101256F000E0101266FD9D7F28AD58E96
:10584800000E0101236F1200000E0101636F0101B8
:105858000351D8A412000D0E01011D19D8A41DD0A2
:105868008C848C968C88000E0101636F08D081A40B
:10587800FED70101632B81B4FED70101632BC70E4C
:1058880001016365F4D78C888C948C96C30E000153
:10589800F16F500EF06F26EC31F08B848C908C9267
:1058A8008C888C948C968B948C98040E01011D6FB7
:1058B800C40E0101576F7F0E0101586F34EC29F0B7
:1058C800F098F09200F000F000F0030000F000F013
:1058D80000F01200000E0001F86F000E0001F96FD1
:1058E800000E0001F56F000E0001F76F000EF66F55
:1058F800C294C296C298C29AC282C2B2FED7C4CF1C
:10590800F8F0C3CFF9F00001F951F8C0F2F0000146
:10591800F36BF2C0F3F00001F26B0001F213000E1A
:10592800F313060E0001F46F0001D890F333F2333D
:105938000001F42FF9D7FF0E0001F2150001F66FF0
:10594800030E0001F3150001F76FF6C0F0F0F7C081
:10595800F1F012000001F16F000E0001F26F000E6D
:105968000001F26F070E0001F26501D028D0000196
:10597800F251080D010EF326000EF422800EF324D6
:10598800D96E000EF420DA6E030EDE18D8A403D008
:10599800000E0001F16F0001F22BE4D7070E1D186D
:1059A800D8A403D0010E1D6E12001D2A12001D502E
:1059B800D8A403D0070E1D6E12001D0612000001A8
:1059C800F151F10AD8B4EAD7030AD8B4F0D7010ADA
:1059D8001200000E0001F66F000EF56F0001F25183
:1059E8000001F311D8B42CD0010E0001F46F06D0D9
:1059F8000001D890F237F3370001F42B0001F3AF20
:105A0800F7D70001D890F537F6370001F2510001B9
:105A1800F05D0001F3510001F159D8A00AD000014E
:105A2800F2510001F05F0001F3510001F15B000148
:105A3800F5810001D890F333F2330001F42FE1D758
:105A4800F5C0F0F0F6C0F1F01200000E466E080E38
:105A5800466401D01200000E416E4650F6EC2FF05D
:105A6800000E0201006F000E456E620E456401D003
:105A78001CD04650620D6C0E436E750E446EF3508A
:105A88004326F45044224550010DF3504324396E07
:105A9800F45044203A6E400E3B6E000E3D6E010EEF
:105AA8003C6E67EC2FF0452AE0D7462AD0D7000194
:105AB800F9510001FA11D8B426D0010E0001FB6F8C
:105AC80006D00001D890F937FA370001FB2B000106
:105AD800FAAFF7D70001F9510001F75D0001FA515B
