:0400000007EF00F016
:10000800628260ED14F051EF2BF001014D6F000E8C
:1000180001014E6F000E01014C6F01014D05D8A47E
:100028004AD101014B510101D8A480D04AC148F1FD
:10003800020E8BEC2CF0000E5E6E2F0E5E6401D06B
:100048001DD05E50010D930EF324F66E720EF4204F
:10005800F76E0800F5CF4EF14E0E0101406F010E0C
:100068000101416F400E0101426F000E0101446F12
:10007800010E436F30EC2DF05E2ADFD74AC148F1FC
:10008800030E8BEC2CF0000E5E6E2F0E5E6401D01A
:1000980021D05E50010D300EF326000EF422930E8F
:1000A800F324F66E720EF420F76E0800F5CF4EF1C9
:1000B8004E0E0101406F010E0101416F400E01011A
:1000C800426F000E0101446F010E436F30EC2DF0BA
:1000D8005E2ADBD74AC148F1040E8BEC2CF0000EE7
:1000E8005E6E2F0E5E6401D012005E50010D600E30
:1000F800F326000EF422930EF324F66E720EF4200B
:10010800F76E0800F5CF4EF14E0E0101406F010E5B
:100118000101416F400E0101426F000E0101446F61
:10012800010E436F30EC2DF05E2ADBD7800E010103
:100138004B19D8A412004AC148F1020E8BEC2CF0DE
:10014800000E5E6E2F0E5E6401D036D05E50010D3B
:10015800930EF324F66E720EF420F76E0800F5CFB6
:100168004EF15E50D8B404D02F0E5E18D8A402D039
:100178000F0E08D05E04D8B404D02E0E5E18D8A492
:1001880004D01F0E01014E6F05D001014E1F3F0E16
:1001980001014E174E0E0101406F010E0101416F22
:1001A800400E0101426F000E0101446F010E436FC2
:1001B80030EC2DF05E2AC6D74AC148F1030E8BEC0D
:1001C8002CF0000E5E6E2F0E5E6401D02DD05E50B6
:1001D800010D300EF326000EF422930EF324F66E72
:1001E800720EF420F76E0800F5CF4EF15E50D8B4C9
:1001F80004D02F0E5E18D8A403D001014E6902D096
:1002080001014E1F4E0E0101406F010E0101416FA9
:10021800400E0101426F000E0101446F010E436F51
:1002280030EC2DF05E2ACFD74AC148F1040E8BEC92
:100238002CF0000E5E6E2F0E5E6401D012005E5030
:10024800010D600EF326000EF422930EF324F66ED1
:10025800720EF420F76E0800F5CF4EF15E50D8B458
:1002680004D02F0E5E18D8A402D0E00E08D05E0489
:10027800D8B404D02E0E5E18D8A404D0F00E010114
:100288004E6F07D001014E1FF00E01014E170101FC
:100298004E894E0E0101406F010E0101416F400E63
:1002A8000101426F000E0101446F010E436F30ECF3
:1002B8002DF05E2AC0D7020E01014D19D8A41200F4
:1002C80001014B510101D8A480D04AC148F1020E66
:1002D8008BEC2CF0000E5E6E2F0E5E6401D01DD0EC
:1002E8005E50010D030EF324F66E720EF420F76EC5
:1002F8000800F5CF4EF14E0E0101406F010E0101CD
:10030800416F400E0101426F000E0101446F010E62
:10031800436F30EC2DF05E2ADFD74AC148F1030E57
:100328008BEC2CF0000E5E6E2F0E5E6401D021D097
:100338005E50010D300EF326000EF422030EF32456
:10034800F66E720EF420F76E0800F5CF4EF14E0EE1
:100358000101406F010E0101416F400E0101426F22
:10036800000E0101446F010E436F30EC2DF05E2A40
:10037800DBD74AC148F1040E8BEC2CF0000E5E6E00
:100388002F0E5E6401D012005E50010D600EF32640
:10039800000EF422030EF324F66E720EF420F76EAC
:1003A8000800F5CF4EF14E0E0101406F010E01011C
:1003B800416F400E0101426F000E0101446F010EB2
:1003C800436F30EC2DF05E2ADBD7800E01014B190C
:1003D800D8A412004AC148F1020E8BEC2CF0000E92
:1003E8005E6E2F0E5E6401D036D05E50010D030E96
:1003F800F324F66E720EF420F76E0800F5CF4EF176
:100408005E50D8B404D02F0E5E18D8A402D00F0EB8
:1004180008D05E04D8B404D02E0E5E18D8A404D038
:100428001F0E01014E6F05D001014E1F3F0E010145
:100438004E174E0E0101406F010E0101416F400E33
:100448000101426F000E0101446F010E436F30EC51
:100458002DF05E2AC6D74AC148F1030E8BEC2CF06A
:10046800000E5E6E2F0E5E6401D02DD05E50010D21
:10047800300EF326000EF422030EF324F66E720EED
:10048800F420F76E0800F5CF4EF15E50D8B404D0D2
:100498002F0E5E18D8A403D001014E6902D00101C5
:1004A8004E1F4E0E0101406F010E0101416F400EBB
:1004B8000101426F000E0101446F010E436F30ECE1
:1004C8002DF05E2ACFD74AC148F1040E8BEC2CF0F0
:1004D800000E5E6E2F0E5E6401D012005E50010D9C
:1004E800600EF326000EF422030EF324F66E720E4D
:1004F800F420F76E0800F5CF4EF15E50D8B404D062
:100508002F0E5E18D8A402D0E00E08D05E04D8B42E
:1005180004D02E0E5E18D8A404D0F00E01014E6F40
:1005280007D001014E1FF00E01014E1701014E893F
:100538004E0E0101406F010E0101416F400E010195
:10054800426F000E0101446F010E436F30EC2DF035
:100558005E2AC0D7426E000E436E000E416E420402
:10056800D8A426D14050D8A474D03FC03DF0020E84
:10057800E7EC2DF0000E5E6E2F0E5E6401D019D0F0
:100588005E50010D930EF324F66E720EF420F76E92
:100598000800F5CF43F0430E356E000E366E400E60
:1005A800376E000E396E010E386E7BEC2DF05E2A28
:1005B800E3D73FC03DF0030EE7EC2DF0000E5E6E72
:1005C8002F0E5E6401D01DD05E50010D300EF32653
:1005D800000EF422930EF324F66E720EF420F76EDA
:1005E8000800F5CF43F0430E356E000E366E400E10
:1005F800376E000E396E010E386E7BEC2DF05E2AD8
:10060800DFD73FC03DF0040EE7EC2DF0000E5E6E24
:100618002F0E5E6401D012005E50010D600EF326AD
:10062800000EF422930EF324F66E720EF420F76E89
:100638000800F5CF43F0430E356E000E366E400EBF
:10064800376E000E396E010E386E7BEC2DF05E2A87
:10065800DFD7800E4018D8A412003FC03DF0020E2C
:10066800E7EC2DF0000E5E6E2F0E5E6401D02FD0E9
:100678005E50010D930EF324F66E720EF420F76EA1
:100688000800F5CF43F05E50D8B404D02F0E5E18A2
:10069800D8A402D00F0E08D05E04D8B404D02E0E11
:1006A8005E18D8A403D01F0E436E03D0431E3F0E1E
:1006B8004316430E356E000E366E400E376E000E32
:1006C800396E010E386E7BEC2DF05E2ACDD73FC017
:1006D8003DF0030EE7EC2DF0000E5E6E2F0E5E640B
:1006E80001D027D05E50010D300EF326000EF42203
:1006F800930EF324F66E720EF420F76E0800F5CF11
:1007080043F05E50D8B404D02F0E5E18D8A402D09F
:10071800436801D0431E430E356E000E366E400E00
:10072800376E000E396E010E386E7BEC2DF05E2AA6
:10073800D5D73FC03DF0040EE7EC2DF0000E5E6EFD
:100748002F0E5E6401D012005E50010D600EF3267C
:10075800000EF422930EF324F66E720EF420F76E58
:100768000800F5CF43F05E50D8B404D02F0E5E18C1
:10077800D8A402D0E00E08D05E04D8B404D02E0E5F
:100788005E18D8A403D0F00E436E04D0431EF00EBA
:1007980043164388430E356E000E366E400E376E94
:1007A800000E396E010E386E7BEC2DF05E2AC8D72C
:1007B800020E4218D8A412004050D8A474D03FC0EA
:1007C8003DF0020EE7EC2DF0000E5E6E2F0E5E641B
:1007D80001D019D05E50010D030EF324F66E720E8F
:1007E800F420F76E0800F5CF43F0430E356E000E87
:1007F800366E400E376E000E396E010E386E7BEC89
:100808002DF05E2AE3D73FC03DF0030EE7EC2DF054
:10081800000E5E6E2F0E5E6401D01DD05E50010D7D
:10082800300EF326000EF422030EF324F66E720E39
:10083800F420F76E0800F5CF43F0430E356E000E36
:10084800366E400E376E000E396E010E386E7BEC38
:100858002DF05E2ADFD73FC03DF0040EE7EC2DF007
:10086800000E5E6E2F0E5E6401D012005E50010D08
:10087800600EF326000EF422030EF324F66E720EB9
:10088800F420F76E0800F5CF43F0430E356E000EE6
:10089800366E400E376E000E396E010E386E7BECE8
:1008A8002DF05E2ADFD7800E4018D8A412003FC072
:1008B8003DF0020EE7EC2DF0000E5E6E2F0E5E642A
:1008C80001D02FD05E50010D030EF324F66E720E88
:1008D800F420F76E0800F5CF43F05E50D8B404D08A
:1008E8002F0E5E18D8A402D00F0E08D05E04D8B41C
:1008F80004D02E0E5E18D8A403D01F0E436E03D06A
:10090800431E3F0E4316430E356E000E366E400EE4
:10091800376E000E396E010E386E7BEC2DF05E2AB4
:10092800CDD73FC03DF0030EE7EC2DF0000E5E6E14
:100938002F0E5E6401D027D05E50010D300EF326D5
:10094800000EF422030EF324F66E720EF420F76EF6
:100958000800F5CF43F05E50D8B404D02F0E5E18CF
:10096800D8A402D0436801D0431E430E356E000E52
:10097800366E400E376E000E396E010E386E7BEC07
:100988002DF05E2AD5D73FC03DF0040EE7EC2DF0E0
:10099800000E5E6E2F0E5E6401D012005E50010DD7
:1009A800600EF326000EF422030EF324F66E720E88
:1009B800F420F76E0800F5CF43F05E50D8B404D0A9
:1009C8002F0E5E18D8A402D0E00E08D05E04D8B46A
:1009D80004D02E0E5E18D8A403D0F00E436E04D0B7
:1009E800431EF00E43164388430E356E000E366ED6
:1009F800400E376E000E396E010E386E7BEC2DF00E
:100A08005E2AC8D701014C6F000E01014E6F000E1F
:100A180001014D6F01014C05D8A41AD101014B51B8
:100A28000101D8A480D04AC148F1020E8BEC2CF009
:100A3800000E5E6E120E5E6401D01DD05E50010D78
:100A4800230EF324F66E730EF420F76E0800F5CF2C
:100A58004EF14E0E0101406F010E0101416F400E33
:100A68000101426F000E0101446F010E436F30EC2B
:100A78002DF05E2ADFD74AC148F1030E8BEC2CF02B
:100A8800000E5E6E120E5E6401D021D05E50010D24
:100A9800130EF326000EF422230EF324F66E730EC3
:100AA800F420F76E0800F5CF4EF14E0E0101406FAD
:100AB800010E0101416F400E0101426F000E01015C
:100AC800446F010E436F30EC2DF05E2ADBD74AC12C
:100AD80048F1040E8BEC2CF0000E5E6E120E5E6474
:100AE80001D012005E50010D260EF326000EF422EE
:100AF800230EF324F66E730EF420F76E0800F5CF7C
:100B08004EF14E0E0101406F010E0101416F400E82
:100B18000101426F000E0101446F010E436F30EC7A
:100B28002DF05E2ADBD7800E01014B19D8A41200E4
:100B38004AC148F1020E8BEC2CF0000E5E6E120ECC
:100B48005E6401D024D05E50010D230EF324F66EAE
:100B5800730EF420F76E0800F5CF4EF14EC14DF13B
:100B680001014E1F3F0E01014E174E0E0101406F4D
:100B7800010E0101416F400E0101426F000E01019B
:100B8800446F010E436F30EC2DF05E2AD8D74AC16E
:100B980048F1030E8BEC2CF0000E5E6E120E5E64B4
:100BA80001D025D05E50010D130EF326000EF4225D
:100BB800230EF324F66E730EF420F76E0800F5CFBB
:100BC8004EF14EC14DF101014E1F4E0E0101406F15
:100BD800010E0101416F400E0101426F000E01013B
:100BE800446F010E436F30EC2DF05E2AD7D74AC10F
:100BF80048F1040E8BEC2CF0000E5E6E120E5E6453
:100C080001D012005E50010D260EF326000EF422CC
:100C1800230EF324F66E730EF420F76E0800F5CF5A
:100C28004EF14EC14DF1F00E01014E6F4E0E010115
:100C3800406F010E0101416F400E0101426F000E2D
:100C48000101446F010E436F30EC2DF05E2AD6D7B8
:100C5800020E01014C19D8A4120001014B510101E7
:100C6800D8A480D04AC148F1050E8BEC2CF0000EB8
:100C78005E6E120E5E6401D01DD05E50010D230E13
:100C8800F324F66E730EF420F76E0800F5CF4EF1DC
:100C98004E0E0101406F010E0101416F400E01012E
:100CA800426F000E0101446F010E436F30EC2DF0CE
:100CB8005E2ADFD74AC148F1060E8BEC2CF0000EF5
:100CC8005E6E120E5E6401D021D05E50010D130ECF
:100CD800F326000EF422230EF324F66E730EF4208E
:100CE800F76E0800F5CF4EF14E0E0101406F010E70
:100CF8000101416F400E0101426F000E0101446F76
:100D0800010E436F30EC2DF05E2ADBD74AC148F163
:100D1800070E8BEC2CF0000E5E6E120E5E6401D096
:100D280012005E50010D260EF326000EF422230E4B
:100D3800F324F66E730EF420F76E0800F5CF4EF12B
:100D48004E0E0101406F010E0101416F400E01017D
:100D5800426F000E0101446F010E436F30EC2DF01D
:100D68005E2ADBD7800E01014B19D8A412004AC1B4
:100D780048F1050E8BEC2CF0000E5E6E120E5E64D0
:100D880001D024D05E50010D230EF324F66E730EAD
:100D9800F420F76E0800F5CF4EF14EC14DF1010178
:100DA8004E1F3F0E01014E174E0E0101406F010EFE
:100DB8000101416F400E0101426F000E0101446FB5
:100DC800010E436F30EC2DF05E2AD8D74AC148F1A6
:100DD800060E8BEC2CF0000E5E6E120E5E6401D0D7
:100DE80025D05E50010D130EF326000EF422230EBB
:100DF800F324F66E730EF420F76E0800F5CF4EF16B
:100E08004EC14DF101014E1F4E0E0101406F010E02
:100E18000101416F400E0101426F000E0101446F54
:100E2800010E436F30EC2DF05E2AD7D74AC148F146
:100E3800070E8BEC2CF0000E5E6E120E5E6401D075
:100E480012005E50010D260EF326000EF422230E2A
:100E5800F324F66E730EF420F76E0800F5CF4EF10A
:100E68004EC14DF1F00E01014E6F4E0E0101406F63
:100E7800010E0101416F400E0101426F000E010198
:100E8800446F010E436F30EC2DF05E2AD6D7010176
:100E9800516F13D2030E0001B119D8A40BD0000171
:100EA800B52B030E0001B519D8A41200000E0001DD
:100EB800B56F1200070E1918D8A402D0800E01D001
:100EC800000E0001B16F0001B1510001B219D8B490
:100ED80012001750D8B404D0020E1718D8A409D09D
:100EE800000E01014A6FB1C04BF1020E4AEC0BF043
:100EF8000BD01704D8A408D0000E01014A6FB1C066
:100F08004BF1030E4AEC0BF00001B551D8A422D0E6
:100F18001750D8B404D0020E1718D8A40CD00E0E4F
:100F280001014A6F0001B151030901014B6F030E22
:100F38006DEC09F05BD01704D8A458D0110E01014C
:100F48004A6F0001B151670901014B6F030E6DEC47
:100F580009F04CD00001B505D8A422D01750D8B458
:100F680004D0020E1718D8A40CD00E0E01014A6F37
:100F78000001B151030901014B6F030E6DEC09F03B
:100F880035D01704D8A432D0110E01014A6F0001E0
:100F9800B151640901014B6F030E6DEC09F026D0C5
:100FA800020E0001B519D8A421D01750D8B404D026
:100FB800020E1718D8A40CD00E0E01014A6F0001BA
:100FC800B151030901014B6F030E6DEC09F00ED00E
:100FD8001704D8A40BD0110E01014A6F0001B151BA
:100FE800660901014B6F030E6DEC09F0B1C0B2F058
:100FF8001200030E0001B119D8A40AD00001B507E8
:101008000001B529D8A41200020E0001B56F120024
:10101800070E1918D8A402D0800E01D0000E0001C6
:10102800B16F0001B1510001B219D8B412001750C4
:10103800D8B404D0020E1718D8A409D0000E0101A4
:101048004A6FB1C04BF1020E4AEC0BF00BD01704FB
:10105800D8A408D0000E01014A6FB1C04BF1030EAD
:101068004AEC0BF00001B551D8A422D01750D8B4DF
:1010780004D0020E1718D8A40CD00E0E01014A6F26
:101088000001B151030901014B6F030E6DEC09F02A
:101098005BD01704D8A458D0110E01014A6F000183
:1010A800B151670901014B6F030E6DEC09F04CD08B
:1010B8000001B505D8A422D01750D8B404D0020E28
:1010C8001718D8A40CD00E0E01014A6F0001B151B7
:1010D800030901014B6F030E6DEC09F035D01704BD
:1010E800D8A432D0110E01014A6F0001B151640930
:1010F80001014B6F030E6DEC09F026D0020E0001C2
:10110800B519D8A421D01750D8B404D0020E171896
:10111800D8A40CD00E0E01014A6F0001B151030989
:1011280001014B6F030E6DEC09F00ED01704D8A423
:101138000BD0110E01014A6F0001B151660901017E
:101148004B6F030E6DEC09F0B1C0B2F01200800EC7
:101158000001B119D8A406D0030E0001B16F010E29
:10116800186E08D0030E0001B119D8A403D0000EE0
:101178000001B16F0001B1510001B219D8B41200D9
:101188000001B151D8A496D01750D8B404D0020E9B
:101198001718D8A40AD0000E01014A6F000E0101E9
:1011A8004B6F020E4AEC0BF00CD01704D8A409D0F0
:1011B800000E01014A6F000E01014B6F030E4AEC4D
:1011C8000BF00001B551D8A424D01750D8B404D0DE
:1011D800020E1718D8A40AD00E0E01014A6F030E8A
:1011E80001014B6F030E6DEC09F064D01704D8A40D
:1011F80061D0110E01014A6F0001B951670901015F
:101208004B6F030E6DEC09F0000E0001DA6F140E3F
:1012180050D00001B505D8A424D01750D8B404D0B4
:10122800020E1718D8A40AD00E0E01014A6F030E39
:1012380001014B6F030E6DEC09F03CD01704D8A4E4
:1012480039D0110E01014A6F0001B9516409010139
:101258004B6F030E6DEC09F0000E0001DA6FC80E3B
:1012680028D0020E0001B519D8A424D01750D8B43C
:1012780004D0020E1718D8A40AD00E0E01014A6F26
:10128800030E01014B6F030E6DEC09F013D0170428
:10129800D8A410D0110E01014A6F0001B951660996
:1012A80001014B6F030E6DEC09F0000E0001DA6FBF
:1012B800640ED96FB1C0B2F0120001015151F10AA8
:1012C800D8B4E8D5030AD8B494D6010AD8A4120031
:1012D8003ED701014F6F000E0101506F000E010152
:1012E8004E6F41D0570E096E7D0E3BD01E0E096E13
:1012F8007D0E37D0730E096E7C0E33D03A0E096E10
:101308007C0E2FD0010E096E7C0E2BD08F0E096E2D
:101318007B0E27D0C80E096E7B0E23D0560E096EA1
:101328007B0E1FD01D0E096E7B0E1BD0E40E096EBE
:101338007A0E17D0720E096E7A0E13D0AB0E096EA4
:101348007A0E0FD0000E096E7A0E0BD0390E096E88
:101358007A0E07D0E50E096E7C0E03D0AC0E096E2E
:101368007C0E0A6E3DD001014B517F0B01014C6F81
:101378004D6B01014D51000AD8A432D001014C51E6
:10138800000AD8B4AFD7010AD8B4B0D7030AD8B482
:10139800B1D7010AD8B4B2D7070AD8B4B3D7010A6B
:1013A800D8B4B4D7030AD8B4B5D70C0AD8B4B6D7CA
:1013B800070AD8B4B7D7690AD8B4B8D7010AD8B4D5
:1013C800B9D7030AD8B4BAD7010AD8B4BBD70F0A19
:1013D800D8B4BCD7010AD8B4BDD7030AD8B4BED78D
:1013E80001014BBFA0D04AC148F101014F51020F82
:1013F8008BEC2CF0000E5E6E120E5E6401D025D0D0
:101408005E50010D09C04CF10AC04DF1F3500101C5
:101418004C27F45001014D234CC1F6FF4DC1F7FF95
:101428000800F5CF50F1500E0101406F010E010187
:10143800416F400E0101426F000E0101446F010E21
:10144800436F30EC2DF05E2AD7D74AC148F101012D
:101458004F51030F8BEC2CF0000E5E6E120E5E6483
:1014680001D02AD05E50010D09C04CF10AC04DF1DF
:10147800F35001014C27F45001014D23130E0101D3
:101488004C27000E4D234CC1F6FF4DC1F7FF080055
:10149800F5CF50F1500E0101406F010E0101416F6F
:1014A800400E0101426F000E0101446F010E436FAF
:1014B80030EC2DF05E2AD2D74AC148F101014F51D4
:1014C800040F8BEC2CF0000E5E6E120E5E6401D0E1
:1014D80012005E50010D09C04CF10AC04DF1F350E5
:1014E80001014C27F45001014D23260E01014C2720
:1014F800000E4D234CC1F6FF4DC1F7FF0800F5CF94
:1015080050F1500E0101406F010E0101416F400E74
:101518000101426F000E0101446F010E436F30EC70
:101528002DF05E2AD2D701014BAF12004AC148F113
:1015380001014F51020F8BEC2CF0000E5E6E120E63
:101548005E6401D02CD05E50010D09C04CF10AC078
:101558004DF1F35001014C27F45001014D234CC1CA
:10156800F6FF4DC1F7FF0800F5CF50F150C14EF11D
:101578000101501F3F0E01015017500E0101406F2D
:10158800010E0101416F400E0101426F000E010181
:10159800446F010E436F30EC2DF05E2AD0D74AC15C
:1015A80048F101014F51030F8BEC2CF0000E5E6ED9
:1015B800120E5E6401D02ED05E50010D09C04CF1B0
:1015C8000AC04DF1F35001014C27F45001014D239D
:1015D800130E01014C27000E4D234CC1F6FF4DC1DF
:1015E800F7FF0800F5CF50F150C14EF10101501F2F
:1015F800500E0101406F010E0101416F400E0101C3
:10160800426F000E0101446F010E436F30EC2DF064
:101618005E2ACED74AC148F101014F51040F8BEC25
:101628002CF0000E5E6E120E5E6401D012005E5049
:10163800010D09C04CF10AC04DF1F35001014C27CE
:10164800F45001014D23260E01014C27000E4D23B5
:101658004CC1F6FF4DC1F7FF0800F5CF50F150C15E
:101668004EF1F00E0101506F500E0101406F010E56
:101678000101416F400E0101426F000E0101446FEC
:10168800010E436F30EC2DF05E2ACDD701014F6F6C
:10169800000E0101506F000E01014E6F11D0700E47
:1016A800036E790E0BD0E00E036E780E07D0500E45
:1016B800036E780E03D0C00E036E770E046E0ED044
:1016C80001014F51010AD8B4EAD7030AD8B4EBD7BD
:1016D800010AD8B4ECD7070AD8B4EDD701014B51A9
:1016E8000101D8A49AD04AC148F1050E8BEC2CF020
:1016F800000E5E6E2F0E5E6401D025D05E50010D87
:1017080003C04CF104C04DF1F35001014C27F450D3
:1017180001014D234CC1F6FF4DC1F7FF0800F5CF7D
:1017280050F1500E0101406F010E0101416F400E52
:101738000101426F000E0101446F010E436F30EC4E
:101748002DF05E2AD7D74AC148F1060E8BEC2CF053
:10175800000E5E6E2F0E5E6401D02AD05E50010D21
:1017680003C04CF104C04DF1F35001014C27F45073
:1017780001014D23300E01014C27000E4D234CC1B1
:10178800F6FF4DC1F7FF0800F5CF50F1500E0101EB
:10179800406F010E0101416F400E0101426F000EC2
:1017A8000101446F010E436F30EC2DF05E2AD2D751
:1017B8004AC148F1070E8BEC2CF0000E5E6E2F0E1E
:1017C8005E6401D012005E50010D03C04CF104C0EC
:1017D8004DF1F35001014C27F45001014D23600EE7
:1017E80001014C27000E4D234CC1F6FF4DC1F7FFF8
:1017F8000800F5CF50F1500E0101406F010E0101B4
:10180800416F400E0101426F000E0101446F010E4D
:10181800436F30EC2DF05E2AD2D7800E01014B19B0
:10182800D8A412004AC148F1050E8BEC2CF0000E2A
:101838005E6E2F0E5E6401D03ED05E50010D03C077
:101848004CF104C04DF1F35001014C27F450010153
:101858004D234CC1F6FF4DC1F7FF0800F5CF50F1FD
:101868005E50D8B404D02F0E5E18D8A402D00F0E44
:1018780008D05E04D8B404D02E0E5E18D8A404D0C4
:101888001F0E0101506F05D00101501F3F0E0101CD
:101898005017500E0101406F010E0101416F400EBB
:1018A8000101426F000E0101446F010E436F30ECDD
:1018B8002DF05E2ABED74AC148F1060E8BEC2CF0FB
:1018C800000E5E6E2F0E5E6401D036D05E50010DA4
:1018D80003C04CF104C04DF1F35001014C27F45002
:1018E80001014D23300E01014C27000E4D234CC140
:1018F800F6FF4DC1F7FF0800F5CF50F15E50D8B4A0
:1019080004D02F0E5E18D8A403D00101506902D06C
:101918000101501F500E0101406F010E0101416F7E
:10192800400E0101426F000E0101446F010E436F2A
:1019380030EC2DF05E2AC6D74AC148F1070E8BEC71
:101948002CF0000E5E6E2F0E5E6401D012005E5009
:10195800010D03C04CF104C04DF1F35001014C27B7
:10196800F45001014D23600E01014C27000E4D2358
:101978004CC1F6FF4DC1F7FF0800F5CF50F15E509E
:10198800D8B404D02F0E5E18D8A402D0E00E08D028
:101998005E04D8B404D02E0E5E18D8A404D0F00E7D
:1019A8000101506F07D00101501FF00E01015017BF
:1019B80001015089500E0101406F010E0101416F74
:1019C800400E0101426F000E0101446F010E436F8A
:1019D80030EC2DF05E2AB7D7446E000E456E000E2F
:1019E800436E41D0570E096E7D0E3BD01E0E096E18
:1019F8007D0E37D0730E096E7C0E33D03A0E096E09
:101A08007C0E2FD0010E096E7C0E2BD08F0E096E26
:101A18007B0E27D0C80E096E7B0E23D0560E096E9A
:101A28007B0E1FD01D0E096E7B0E1BD0E40E096EB7
:101A38007A0E17D0720E096E7A0E13D0AB0E096E9D
:101A48007A0E0FD0000E096E7A0E0BD0390E096E81
:101A58007A0E07D0E50E096E7C0E03D0AC0E096E27
:101A68007C0E0A6E39D040507F0B416E426A42505C
:101A7800000AD8A431D04150000AD8B4B3D7010A1B
:101A8800D8B4B4D7030AD8B4B5D7010AD8B4B6D7EE
:101A9800070AD8B4B7D7010AD8B4B8D7030AD8B454
:101AA800B9D70C0AD8B4BAD7070AD8B4BBD7690AC9
:101AB800D8B4BCD7010AD8B4BDD7030AD8B4BED7A6
:101AC800010AD8B4BFD70F0AD8B4C0D7010AD8B40E
:101AD800C1D7030AD8B4C2D740BE89D03FC03DF0B1
:101AE8004450020FE7EC2DF0000E5E6E120E5E649D
:101AF80001D01FD05E50010D09C041F00AC042F06C
:101B0800F3504126F450422241C0F6FF42C0F7FF8D
:101B18000800F5CF45F0450E356E000E366E400EC6
:101B2800376E000E396E010E386E7BEC2DF05E2A92
:101B3800DDD73FC03DF04450030FE7EC2DF0000E19
:101B48005E6E120E5E6401D023D05E50010D09C096
:101B580041F00AC042F0F3504126F4504222130EDD
:101B68004126000E422241C0F6FF42C0F7FF08009E
:101B7800F5CF45F0450E356E000E366E400E376EC9
:101B8800000E396E010E386E7BEC2DF05E2AD9D727
:101B98003FC03DF04450040FE7EC2DF0000E5E6EA0
:101BA800120E5E6401D012005E50010D09C041F0B2
:101BB8000AC042F0F3504126F4504222260E412634
:101BC800000E422241C0F6FF42C0F7FF0800F5CFE1
:101BD80045F0450E356E000E366E400E376E000E1F
:101BE800396E010E386E7BEC2DF05E2AD9D740AEE7
:101BF80012003FC03DF04450020FE7EC2DF0000EFC
:101C08005E6E120E5E6401D024D05E50010D09C0D4
:101C180041F00AC042F0F3504126F450422241C03C
:101C2800F6FF42C0F7FF0800F5CF45F045C043F086
:101C3800451E3F0E4516450E356E000E366E400E9B
:101C4800376E000E396E010E386E7BEC2DF05E2A71
:101C5800D8D73FC03DF04450030FE7EC2DF0000EFD
:101C68005E6E120E5E6401D026D05E50010D09C072
:101C780041F00AC042F0F3504126F4504222130EBC
:101C88004126000E422241C0F6FF42C0F7FF08007D
:101C9800F5CF45F045C043F0451E450E356E000EA4
:101CA800366E400E376E000E396E010E386E7BECC4
:101CB8002DF05E2AD6D73FC03DF04450040FE7EC24
:101CC8002DF0000E5E6E120E5E6401D012005E50A2
:101CD800010D09C041F00AC042F0F3504126F4500A
:101CE8004222260E4126000E422241C0F6FF42C083
:101CF800F7FF0800F5CF45F045C043F0F00E456EFC
:101D0800450E356E000E366E400E376E000E396E7B
:101D1800010E386E7BEC2DF05E2AD5D7030E00013C
:101D28008119D8A43CD01804D8A40CD0490E0101BC
:101D38004A6F800E01014B6F000ECDEC20F0000EB3
:101D4800186E12001850D8A41200010E186E175001
:101D5800D8A40AD0490E01014A6F800E01014B6FC9
:101D6800000ECDEC23F012001704D8A40AD0490EB7
:101D780001014A6F800E01014B6F000E4DEC22F0FD
:101D88001200020E1718D8A41200490E01014A6F5A
:101D9800800E01014B6F000E0DEC23F01200030EB4
:101DA80000019919D8A43FD01804D8A40CD03F0E2C
:101DB80001014A6F800E01014B6F010E06EC05F020
:101DC800000E186E12001850D8A41200010E186EDA
:101DD80000019D51D8A40AD03F0E01014A6F840E1C
:101DE80001014B6F000E6DEC09F0120000019D051A
:101DF800D8A40AD03F0E01014A6F860E01014B6F2D
:101E0800000E6DEC09F01200020E00019D19D8A415
:101E180012003F0E01014A6F8D0E01014B6F000E3B
:101E28006DEC09F01200030E0001A119D8A430D0FE
:101E38001804D8A40CD00E0E01014A6F800E0101BF
:101E48004B6F010E06EC05F0000E186E12001850CC
:101E5800D8A41200010E186E0001A551D8A40AD00A
:101E68000E0E01014A6F810E01014B6F000E6DECE1
:101E780009F012000001A505D8A412000E0E0101F8
:101E88004A6F820E01014B6F000E6DEC09F01200D3
:101E9800030E0001A919D8A43FD01804D8A40CD067
:101EA8003F0E01014A6F800E01014B6F020E06ECD6
:101EB80005F0000E186E12001850D8A41200010E7A
:101EC800186E0001AD51D8A40AD03F0E01014A6F27
:101ED800810E01014B6F030E6DEC09F01200000139
:101EE800AD05D8A40AD03F0E01014A6FEA0E0101E0
:101EF8004B6F030E6DEC09F01200020E0001AD19D4
:101F0800D8A412003F0E01014A6F850E01014B6FE4
:101F1800030E6DEC09F01200030E0001B119D8A4EC
:101F280012001804D8A420D01750D8B404D0020E38
:101F38001718D8A40AD00E0E01014A6F800E0101AD
:101F48004B6F020E06EC05F00CD01704D8A409D08C
:101F5800110E01014A6F800E01014B6F020E06EC53
:101F680005F0000E186E12001850D8A41200010EC9
:101F7800186E0001B551D8A41ED01750D8B404D09B
:101F8800020E1718D8A40AD00E0E01014A6F830E4C
:101F980001014B6F030E6DEC09F012001704D8A471
:101FA8001200110E01014A6FE70E01014B6F030E7B
:101FB8006DEC09F012000001B505D8A41ED0175029
:101FC800D8B404D0020E1718D8A40AD00E0E0101F6
:101FD8004A6F830E01014B6F030E6DEC09F012007E
:101FE8001704D8A41200110E01014A6FE40E010172
:101FF8004B6F030E6DEC09F01200020E0001B519CB
:10200800D8A412001750D8B404D0020E1718D8A4B8
:102018000AD00E0E01014A6F830E01014B6F030EA9
:102028006DEC09F012001704D8A41200110E01017A
:102038004A6FE60E01014B6F030E6DEC09F01200BA
:102048000101516F67D1030E00018119D8A436D060
:10205800172A030E1718D8A402D0000E176E470EC1
:1020680001014A6F81C04BF1010EFAEC1DF01750C7
:10207800D8A409D0490E01014A6F81C04BF1010E65
:10208800CDEC23F018D01704D8A409D0490E0101CB
:102098004A6F81C04BF1010E4DEC22F00CD0020EBC
:1020A8001718D8A408D0490E01014A6F81C04BF116
:1020B800010E0DEC23F081C082F012001904D8A49F
:1020C80002D0800E01D0000E0001816F0001815105
:1020D80000018219D8B41200470E01014A6F81C06D
:1020E8004BF1010EFAEC1DF01750D8A409D0490E97
:1020F80001014A6F81C04BF1010ECDEC23F018D0DD
:10210800020E1718D8A409D0490E01014A6F81C0E0
:102118004BF1010E0DEC23F00BD01704D8A408D016
:10212800490E01014A6F81C04BF1010E4DEC22F0BE
:1021380081C082F01200030E00018119D8A435D0A5
:1021480017061728D8A402D0020E176E470E0101F1
:102158004A6F81C04BF1010EFAEC1DF01750D8A45C
:1021680009D0490E01014A6F81C04BF1010ECDEC37
:1021780023F018D01704D8A409D0490E01014A6FDA
:1021880081C04BF1010E4DEC22F00CD0020E171855
:10219800D8A408D0490E01014A6F81C04BF1010E45
:1021A8000DEC23F081C082F012001904D8A402D0EB
:1021B800800E01D0000E0001816F000181510001E5
:1021C8008219D8B41200470E01014A6F81C04BF141
:1021D800010EFAEC1DF01750D8A409D0490E0101E0
:1021E8004A6F81C04BF1010ECDEC23F018D0020EDE
:1021F8001718D8A409D0490E01014A6F81C04BF1C4
:10220800010E0DEC23F00BD01704D8A408D0490E0A
:1022180001014A6F81C04BF1010E4DEC22F081C0E3
:1022280082F01200800E00018119D8A406D0030E96
:102238000001816F010E186E1DD0030E0001811977
:10224800D8A418D01704D8A412D0000E01014A6FE0
:10225800000E01014B6F030E4AEC0BF0110E010149
:102268004A6F670E01014B6F030E6DEC09F0000E0B
:102278000001816F0001815100018219D8B4120058
:1022880000018151D8A443D0470E01014A6F81C093
:102298004BF1010EFAEC1DF01750D8A41CD0490ED2
:1022A80001014A6F81C04BF1010ECDEC23F0000E05
:1022B80001014A6F000E01014B6F020E4AEC0BF050
:1022C8000E0E01014A6F030E01014B6F030E6DECF8
:1022D80009F0000E1AD01704D8A40AD0490E01013B
:1022E8004A6F81C04BF1010E4DEC22F0010E0DD06A
:1022F800020E1718D8A40BD0490E01014A6F81C0ED
:102308004BF1010E0DEC23F0020E0001C16F81C0EC
:1023180082F0120001015151F10AD8B494D6030A8F
:10232800D8B409D7010AD8A412007CD7446E000E8D
:10233800456E000E436E11D0700E036E790E0BD0F1
:10234800E00E036E780E07D0500E036E780E03D0A1
:10235800C00E036E770E046E0DD04450010AD8B437
:10236800EBD7030AD8B4ECD7010AD8B4EDD7070ADB
:10237800D8B4EED74050D8A486D03FC03DF0050E63
:10238800E7EC2DF0000E5E6E2F0E5E6401D01FD0BC
:102398005E50010D03C041F004C042F0F3504126E5
:1023A800F450422241C0F6FF42C0F7FF0800F5CFC3
:1023B80045F0450E356E000E366E400E376E000E37
:1023C800396E010E386E7BEC2DF05E2ADDD73FC0EA
:1023D8003DF0060EE7EC2DF0000E5E6E2F0E5E64EB
:1023E80001D023D05E50010D03C041F004C042F07B
:1023F800F3504126F4504222300E4126000E42226C
:1024080041C0F6FF42C0F7FF0800F5CF45F0450E82
:10241800356E000E366E400E376E000E396E010EA8
:10242800386E7BEC2DF05E2AD9D73FC03DF0070E01
:10243800E7EC2DF0000E5E6E2F0E5E6401D01200E8
:102448005E50010D03C041F004C042F0F350412634
:10245800F4504222600E4126000E422241C0F6FF8F
:1024680042C0F7FF0800F5CF45F0450E356E000E67
:10247800366E400E376E000E396E010E386E7BECEC
:102488002DF05E2AD9D7800E4018D8A412003FC07C
:102498003DF0050EE7EC2DF0000E5E6E2F0E5E642B
:1024A80001D035D05E50010D03C041F004C042F0A8
:1024B800F3504126F450422241C0F6FF42C0F7FFD4
:1024C8000800F5CF45F05E50D8B404D02F0E5E1842
:1024D800D8A402D00F0E08D05E04D8B404D02E0EB3
:1024E8005E18D8A403D01F0E456E03D0451E3F0EBC
:1024F8004516450E356E000E366E400E376E000ED0
:10250800396E010E386E7BEC2DF05E2AC7D73FC0BE
:102518003DF0060EE7EC2DF0000E5E6E2F0E5E64A9
:1025280001D02DD05E50010D03C041F004C042F02F
:10253800F3504126F4504222300E4126000E42222A
:1025480041C0F6FF42C0F7FF0800F5CF45F05E50E6
:10255800D8B404D02F0E5E18D8A402D0456801D094
:10256800451E450E356E000E366E400E376E000E57
:10257800396E010E386E7BEC2DF05E2ACFD73FC046
:102588003DF0070EE7EC2DF0000E5E6E2F0E5E6438
:1025980001D012005E50010D03C041F004C042F0AA
:1025A800F3504126F4504222600E4126000E42228A
:1025B80041C0F6FF42C0F7FF0800F5CF45F05E5076
:1025C800D8B404D02F0E5E18D8A402D0E00E08D0DC
:1025D8005E04D8B404D02E0E5E18D8A403D0F00E32
:1025E800456E04D0451EF00E45164588450E356EDD
:1025F800000E366E400E376E000E396E010E386EC4
:102608007BEC2DF05E2AC2D781B05FD0000E0001AE
:10261800E06F000E0001F76F000EF66F020E00016A
:10262800F96F580EF86F8C948C868C882CD08C841B
:10263800000E01013F6F0A0E3E6F27EC2FF0000ECF
:1026480001013F6F0A0E3E6F27EC2FF0000E0101CB
:102658003F6F0A0E3E6F27EC2FF0000E01013F6F0F
:102668000A0E3E6F27EC2FF0000E01013F6F0A0E95
:102678003E6F27EC2FF08C94000E01013F6F0A0E7D
:102688003E6F27EC2FF02C0E0001F65D010E0001C5
:10269800F759D8A0CCD78C888C948C96C30E01019E
:1026A8003F6F500E3E6F27EC2FF0000E0001E06FD9
:1026B800000E0001F76F000EF66FD80E01014A6F89
:1026C8007F0E01014B6FA2EC26F0040E0001D61913
:1026D800D8A405D0010E0001F96F2C0E13D0060EF8
:1026E8000001D619D8A405D0010E0001F96F9C0E7F
:1026F80009D00D0E0001D619D8A405D0000E00018E
:10270800F96F010EF86F000E0001C66F8C888C946B
:102718002CD08C86000E01013F6F0A0E3E6F27EC0D
:102728002FF0000E01013F6F0A0E3E6F27EC2FF0CD
:10273800000E01013F6F0A0E3E6F27EC2FF0000ECE
:1027480001013F6F0A0E3E6F27EC2FF0000E0101CA
:102758003F6F0A0E3E6F27EC2FF08C96000E01019A
:102768003F6F0A0E3E6F27EC2FF00001C651D8B418
:10277800D0D78C848C968C883A0E01013F6F980EC6
:102788003E6F27EC2FF08C888C948C960D0E0001F0
:10279800D619D8A404D0000E0001C56F12008C8889
:1027A8008C96000E0001E06F000E0001F76F000E1E
:1027B800F66F010E0001C96F38D08C84000E01013C
:1027C8003F6F0A0E3E6F27EC2FF0000E01013F6F9E
:1027D8000A0E3E6F27EC2FF0000E01013F6F0A0E24
:1027E8003E6F27EC2FF0000E01013F6F0A0E3E6F7F
:1027F80027EC2FF0000E01013F6F0A0E3E6F27EC09
:102808002FF0F50E01014A6F7F0E01014B6FF6C0E4
:102818004CF1F7C04DF1A2EC26F08C94000E0101AA
:102828003F6F0A0E3E6F27EC2FF00001F8510001B0
:10283800F65D0001F9510001F759D8A0BED78C9474
:102848008C868C883A0E01013F6F980E3E6F27ECFC
:102858002FF08C888C948C964B0E01014A6F7F0E5A
:1028680001014B6FF6C04CF1F7C04DF1A2EC26F018
:10287800C30E01013F6F500E3E6F27EC2FF05F0E25
:1028880001014A6F7F0E01014B6FF6C04CF1F7C092
:102898004DF1A2EC26F0000E0001C56F000E0001FC
:1028A800C66F000E0001F76F000EF66F000E0001F4
:1028B800E06FF28AD58E12000600FACF49F0FBCFFE
:1028C8004AF0E9CF4BF0EACF4CF0E1CF4DF0E2CF40
:1028D8004EF0D9CF4FF0DACF50F0F3CF51F0F4CF1C
:1028E80052F0F6CF53F0F7CF54F0F8CF55F0F5CFBC
:1028F80056F0F0A286D0F092F1B802D0F18802D05A
:10290800F1B8F1980001C551D8B41AD00001C90531
:10291800D8A477D0F1A805D082A00ED082A071D01B
:1029280004D0F1B86ED082B005D00001F607D8A067
:10293800F70767D082A065D00001F64BF72B61D06E
:102948000001C005D8A43CD00001DD05D8A41AD0E8
:10295800F1A805D082A012D082A053D004D0F1B83B
:1029680050D082B009D00001EA07D8A0EB070001D7
:10297800E407D8A0E50745D082A043D00001EA4B80
:10298800EB2B3CD00001DE05D8A43BD0F1A805D044
:1029980082A00ED082A035D004D0F1B832D082B057
:1029A80005D00001EA07D8A0EB072BD082A029D0D8
:1029B80001013607D8A037070001EA4BEB2B21D0DD
:1029C800020E0001C019D8B41CD00001C051D8A40F
:1029D8000CD00001DD05D8B411D00001DE05D8A463
:1029E80010D00001E64BE72B0CD0040E0001C019F3
:1029F800D8A407D00001DD05D8A4EFD70001E44B27
:102A0800E52BF2A418D01B2A014A022AA10E015C68
:102A18000F0E0258D8A007D0010E0001C76F000E94
:102A2800026E000E016E7D0E1B6404D0010E2F6E27
:102A3800000E1B6EF294F2A072D081A883AC63D012
:102A480083BE81A660D0040E336E000E346E000E75
:102A5800356E000E366E2AEC2EF081A883AC53D06A
:102A680083BE81A650D053EC2FF0000E326E0001C9
:102A7800C351D8A425D0010E0001C36FCBEC2FF0B1
:102A88008C908C928C888C948C968B848C88CE0EAF
:102A98003F6E7F0E406EDCEC27F0000E0001C66F23
:102AA800010E0001C56F000E0001C96F040E000180
:102AB800D66FD5EC28F04CEC27F0F088F09223D0B4
:102AC8000001C305D8A41FD0000E0001C36FC9ECD4
:102AD8002FF0250E0201006F000E356E020E366EC5
:102AE800000E376E000E396E010E386E7BEC2DF03D
:102AF8008C908C928C888C948C96E10E3F6E7F0E15
:102B0800406EDCEC27F081BA09D0010E0001DC6FC1
:102B1800F00E3F6E7F0E406EDCEC27F0F290F2A2D2
:102B280004D0010E0001C66FF29256C0F5FF55C0E1
:102B3800F8FF54C0F7FF53C0F6FF52C0F4FF51C06E
:102B4800F3FF50C0DAFF4FC0D9FF4EC0E2FF4DC0BF
:102B5800E1FF4CC0EAFF4BC0E9FF4AC0FBFF49C098
:102B6800FAFF62921100000E0101596F000E586FB2
:102B78000001DD05D8A470D00D0E0001D619D8A427
:102B88002BD0000E0001E56F000EE46F8C848C964C
:102B98008C88E90E01014A6F7F0E01014B6FA2EC90
:102BA80026F00001E55105E19C0E0001E45DD8A086
:102BB800F8D78C888C948C96FA0E01014A6F7F0E98
:102BC80001014B6FA2EC26F0C30E01013F6F500EBE
:102BD8003E6F27EC2FF036D08C888C948C968C889E
:102BE8008C968C840001EBBFFDD70001EB5105E109
:102BF800960E0001EA5DD8A0F5D78C948C868C8857
:102C08003A0E01013F6F980E3E6F27EC2FF08C882B
:102C18008C948C96C80E01014A6F7E0E01014B6F91
:102C2800EAC04CF1EBC04DF1A2EC26F0E30E010135
:102C38004A6F7E0E01014B6FEAC04CF1EBC04DF1BB
:102C4800A2EC26F0000E0001DD6F000E0001DE6F21
:102C5800010E0001DF6F12000001DF05D8A430D09B
:102C6800000E0101596F000E586F8C908C928C8069
:102C78008C928B840AD080A8FED70101584B592B1F
:102C880080B8FED70101584B592B0001DB510101D7
:102C9800566F576B010156510101585D010157519B
:102CA80001015959D8A0E7D78C908C92000E0001E9
:102CB800DD6F000E0001DF6F010E0001DE6F1200F4
:102CC8000001DE05D8A412000D0E0001D619D8A403
:102CD80010D08C948C868C8881B0FED78C888C948C
:102CE8008C96C30E01013F6F500E3E6F27EC2FF0FC
:102CF8001AD08C888C948C860001EBBF07D0000119
:102D0800EB51FAE10001EA05D8B0F6D78C848C962D
:102D18008C883A0E01013F6F980E3E6F27EC2FF01A
:102D28008C888C948C96FE0E01014A6F7E0E0101F0
:102D38004B6FEAC04CF1EBC04DF1A2EC26F0A40EAB
:102D480001014A6F7E0E01014B6FEAC04CF1EBC0E6
:102D58004DF1A2EC26F081AA39D08C888C948C96FF
:102D68008C908C928C908C928C908C828B840AD0D4
:102D780080A8FED70101584B592B80B8FED7010116
:102D8800584B592B040E0101585D010E0101595988
:102D9800D8A0EED78C908C92000E0001DD6F000E4B
:102DA8000001DE6F000E0001DF6F000E0001DC6F16
:102DB8000D0E0001D619D8A402D0000E01D0010EC4
:102DC8000001C56F030E0001C06F120081BA120026
:102DD800000E0001DE6F000E0001DF6F010E000122
:102DE800DD6F1200000E01014F6F000E01014E6FE2
:102DF800D2EC2AF03EC105F03FC106F0DB0E055CBF
:102E0800020E0658D8A004D0900E076E7D0E49D049
:102E1800D10E055C020E0658D8A00AD0DB0E055C60
:102E2800020E0658D8B004D0BE0E076E7D0E39D0FB
:102E3800C70E055C020E0658D8A00AD0D10E055C54
:102E4800020E0658D8B004D0EC0E076E7D0E29D0BD
:102E5800BD0E055C020E0658D8A00AD0C70E055C48
:102E6800020E0658D8B004D01A0E076E7E0E19D07E
:102E7800B30E055C020E0658D8A00AD0BD0E055C3C
:102E8800020E0658D8B004D0480E076E7E0E09D040
:102E9800B30E055C020E0658D8B0D7D0760E076E72
:102EA8007E0E086ED2D04AC148F1000E8BEC2CF091
:102EB800000E5E6E160E5E6401D025D05E50010DC8
:102EC80007C04CF108C04DF1F35001014C27F450F4
:102ED80001014D234CC1F6FF4DC1F7FF0800F5CFA6
:102EE8004FF14F0E0101406F010E0101416F400E7D
:102EF8000101426F000E0101446F010E436F30EC77
:102F08002DF05E2AD7D74AC148F1010E8BEC2CF080
:102F1800000E5E6E160E5E6401D012005E50010D4A
:102F280007C04CF108C04DF1F35001014C27F45093
:102F380001014D23170E01014C27000E4D234CC1F2
:102F4800F6FF4DC1F7FF0800F5CF4FF14F0E010115
:102F5800406F010E0101416F400E0101426F000EEA
:102F68000101446F010E436F30EC2DF05E2AD2D779
:102F78004AC148F1000E8BEC2CF0000E5E6E160E66
:102F88005E6401D029D05E50010D07C04CF108C025
:102F98004DF1F35001014C27F45001014D234CC170
:102FA800F6FF4DC1F7FF0800F5CF4FF14FC14EF1C5
:102FB80001014F1F4F0E0101406F010E0101416FCA
:102FC800400E0101426F000E0101446F010E436F74
:102FD80030EC2DF05E2AD3D74AC148F1010E8BECB4
:102FE8002CF0000E5E6E160E5E6401D012005E506C
:102FF800010D07C04CF108C04DF1F35001014C27F9
:10300800F45001014D23170E01014C27000E4D23EA
:103018004CC1F6FF4DC1F7FF0800F5CF4FF14FC186
:103028004EF101014F1F4F0E0101406F010E0101CA
:10303800416F400E0101426F000E0101446F010E05
:10304800436F30EC2DF05E2ACED701014B51000AB8
:10305800D8B429D7800AD8A412008AD70101516FA1
:1030680027D1030E00019919D8A40BD000019D2B7C
:10307800030E00019D19D8A41200000E00019D6FD7
:103088001200040E1918D8A402D0800E01D0000E28
:103098000001996F0001995100019A19D8B41200E2
:1030A800310E01014A6F99C04BF1010E09EC00F095
:1030B80000019D51D8A40CD03F0E01014A6F0001B8
:1030C8009951040901014B6F000E6DEC09F020D0F5
:1030D80000019D05D8A40CD03F0E01014A6F0001E4
:1030E8009951060901014B6F000E6DEC09F010D0E3
:1030F800020E00019D19D8A40BD03F0E01014A6FA2
:10310800000199510D0901014B6F000E6DEC09F09A
:1031180099C09AF01200030E00019919D8A40AD098
:1031280000019D0700019D29D8A41200020E00018C
:103138009D6F1200040E1918D8A402D0800E01D079
:10314800000E0001996F0001995100019A19D8B435
:103158001200310E01014A6F99C04BF1010E09ECC2
:1031680000F000019D51D8A40CD03F0E01014A6F18
:1031780000019951040901014B6F000E6DEC09F033
:1031880020D000019D05D8A40CD03F0E01014A6F44
:1031980000019951060901014B6F000E6DEC09F011
:1031A80010D0020E00019D19D8A40BD03F0E0101CA
:1031B8004A6F000199510D0901014B6F000E6DEC2A
:1031C80009F099C09AF01200800E00019919D8A44C
:1031D80006D0030E0001996F010E186E08D0030E79
:1031E80000019919D8A403D0000E0001996F0001BD
:1031F800995100019A19D8B4120000019951D8A424
:1032080054D0310E01014A6F000E01014B6F010EBF
:1032180009EC00F000019D51D8A415D03F0E010122
:103228004A6F00019951040901014B6F000E6DECC2
:1032380009F0040E5B6E040E18D0010E0001F96F40
:103248009C0EF86F2FD000019D05D8A411D03F0E19
:1032580001014A6F00019951060901014B6F000EE7
:103268006DEC09F0060E5B6E060E0001D66FE5D711
:10327800020E00019D19D8A418D03F0E01014A6F13
:10328800000199510D0901014B6F000E6DEC09F019
:103298000D0E5B6E0D0E0001D66F000E0001F96F6A
:1032A800010ECFD7010E0001C56F99C09AF0120028
:1032B80001015151F10AD8B4D4D6030AD8B42BD796
:1032C800010AD8A4120080D7000E0101576F000E22
:1032D800566F960E01014A6F7F0E01014B6FA2ECEB
:1032E80026F00001DD05D8A444D0000E0001E56FEA
:1032F800000EE46F0D0E0001D619D8A40BD08C88EF
:103308008C840001E5510FE19C0E0001E45DD8B00A
:103318000AD0F7D78C888C84360E01013F6FB00E27
:103328003E6F27EC2FF08C888C948C96C30E01018D
:103338003F6F500E3E6F27EC2FF0C30E01013F6F19
:10334800500E3E6F27EC2FF0190E01014A6F7F0EC9
:1033580001014B6FE4C04CF1E5C04DF1A2EC26F041
:10336800000E0001DD6F000E0001DE6F010E00018E
:10337800DF6F0001DF05D8B42FD04AD0000E01015D
:10338800576F000E566F8C908C928C808C928B8429
:103398000AD080A8FED70101564B572B80B8FED71C
:1033A8000101564B572B0101575105E1920E0101BE
:1033B800565DD8A0EED78C908C92C30E01013F6F5A
:1033C800500E3E6F27EC2FF0C10E01014A6F7F0EA1
:1033D80001014B6FA2EC26F081AAD0D7850E01011E
:1033E8004A6F7F0E01014B6FA2EC26F08C908C92F5
:1033F800C30E01013F6F500E3E6F27EC2FF0000EF9
:103408000001DD6F000E0001DF6F010E0001DE6FAD
:103418000001DE05D8A41200000E0001E76F000EBF
:10342800E66F0D0E0001D619D8A405D08C888C86BD
:1034380081A00AD0FDD78C888C86860E01013F6F4B
:10344800A00E3E6F27EC2FF08C888C948C96D9C0F8
:103458003EF1DAC03FF1010E0101416F2C0E406FC1
:1034680082EC2EF001013EC144F101013FC145F15A
:103478000101466B476BE0EC2EF0320E01014A6FFA
:103488007F0E01014B6FE6C04CF1E7C04DF1A2EC95
:1034980026F081AA12003A0E01013F6F980E3E6F86
:1034A80027EC2FF081AA12008C888C948C968C9033
:1034B8008C928C908C928C908C828B84000E010163
:1034C800576F000E566F0AD080A8FED70101564BE1
:1034D800572B80B8FED70101564B572B0101575186
:1034E80005E1780E0101565DD8A0EED78C908C923C
:1034F800000E0001DD6F000E0001DE6F000E0001FE
:10350800DF6F000E0001DC6F0D0E0001D619D8A484
:1035180002D0000E01D0010E0001C56F030E00019C
:10352800C06F1200000E0101596F000E586F0001A4
:10353800DD05D8A44DD0000E0001E56F000EE46F44
:103548000D0E0001D619D8A40BD08C848C880001EC
:10355800E5511BE19C0E0001E45DD8B016D0F7D709
:103568008C848C880AD081A4FED70001E44BE52B1B
:1035780081B4FED70001E44BE52B0001E55105E1DC
:10358800140E0001E45DD8A0EED78C888C948C963C
:10359800D9C03EF1DAC03FF1010E0101416F2C0E96
:1035A800406F82EC2EF001013EC144F101013FC1A0
:1035B80045F10101466B476BE0EC2EF0000E00016F
:1035C800DD6F000E0001DE6F010E0001DF6F1200DB
:1035D8000001DF05D8A446D0000E0101596F000E86
:1035E800586F8C908C928C808C928B840AD080A897
:1035F800FED70101584B592B80B8FED70101584B13
:10360800592B0001DB510101566F576B01015651CF
:103618000101585D0101575101015959D8A0E7D757
:103628008C908C92D9C03EF1DAC03FF1010E0101B5
:10363800416F2C0E406F82EC2EF001013EC144F127
:1036480001013FC145F10101466B476BE0EC2EF0EB
:10365800000E0001DD6F000E0001DF6F010E00019A
:10366800DE6F12000001DE05D8A41200000E000172
:10367800E76F000EE66F0D0E0001D619D8A405D02D
:103688008C868C8881A016D0FDD78C868C880AD031
:1036980081A4FED70001E64BE72B81B4FED70001D9
:1036A800E64BE72B0001E75105E1140E0001E65D4A
:1036B800D8A0EED78C888C948C96D9C03EF1DAC00D
:1036C8003FF1010E0101416F2C0E406F82EC2EF08C
:1036D80001013EC144F101013FC145F10101466BC1
:1036E800476BE0EC2EF0A50E01014A6F7F0E010139
:1036F8004B6FA2EC26F00BB038D08C888C948C964B
:103708008C908C928C908C928C908C828B840AD02A
:1037180080A8FED70101584B592B80B8FED701016C
:10372800584B592B0101595105E10E0E0101585D05
:10373800D8A0EED78C908C92000E0001DD6F000EA1
:103748000001DE6F000E0001DF6F000E0001DC6F6C
:103758000D0E0001D619D8A404D0000E0001C56FC3
:103768001200010E0001C56F1200000E0001DE6F8D
:10377800000E0001DF6F010E0001DD6F1200000E68
:10378800446E000E436E2DEC2CF033C005F034C0AF
:1037980006F0DB0E055C020E0658D8A004D0900E89
:1037A800076E7D0E49D0D10E055C020E0658D8A0D2
:1037B8000AD0DB0E055C020E0658D8B004D0BE0E47
:1037C800076E7D0E39D0C70E055C020E0658D8A0CC
:1037D8000AD0D10E055C020E0658D8B004D0EC0E03
:1037E800076E7D0E29D0BD0E055C020E0658D8A0C6
:1037F8000AD0C70E055C020E0658D8B004D01A0EBF
:10380800076E7E0E19D0B30E055C020E0658D8A0BE
:103818000AD0BD0E055C020E0658D8B004D0480E7A
:10382800076E7E0E09D0B30E055C020E0658D8B09E
:10383800BBD0760E076E7E0E086EB6D03FC03DF048
:10384800000EE7EC2DF0000E5E6E160E5E6401D0E1
:103858001FD05E50010D07C041F008C042F0F35080
:103868004126F450422241C0F6FF42C0F7FF08004B
:10387800F5CF44F0440E356E000E366E400E376EAE
:10388800000E396E010E386E7BEC2DF05E2ADDD706
:103898003FC03DF0010EE7EC2DF0000E5E6E160EF7
:1038A8005E6401D012005E50010D07C041F008C0EF
:1038B80042F0F3504126F4504222170E4126000EE2
:1038C800422241C0F6FF42C0F7FF0800F5CF44F09E
:1038D800440E356E000E366E400E376E000E396E91
:1038E800010E386E7BEC2DF05E2AD9D73FC03DF033
:1038F800000EE7EC2DF0000E5E6E160E5E6401D031
:1039080022D05E50010D07C041F008C042F0F350CC
:103918004126F450422241C0F6FF42C0F7FF08009A
:10392800F5CF44F044C043F0441E440E356E000EFB
:10393800366E400E376E000E396E010E386E7BEC17
:103948002DF05E2ADAD73FC03DF0010EE7EC2DF0EE
:10395800000E5E6E160E5E6401D012005E50010D00
:1039680007C041F008C042F0F3504126F45042220B
:10397800170E4126000E422241C0F6FF42C0F7FF53
:103988000800F5CF44F044C043F0441E440E356EA1
:10399800000E366E400E376E000E396E010E386E10
:1039A8007BEC2DF05E2AD6D74050000AD8B446D713
:1039B800800AD8A412009AD70101516F0BD1030EC7
:1039C8000001A919D8A40BD00001AD2B030E0001EA
:1039D800AD19D8A41200000E0001AD6F1200060E3A
:1039E8001918D8A402D0800E01D0000E0001A96FCA
:1039F8000001A9510001AA19D8B41200310E010121
:103A08004A6FA9C04BF1010E4AEC0BF00001AD5111
:103A1800D8A40CD03F0E01014A6F0001A951010939
:103A280001014B6F030E6DEC09F020D00001AD05CC
:103A3800D8A40CD03F0E01014A6F0001A9516A09B0
:103A480001014B6F030E6DEC09F010D0020E00015E
:103A5800AD19D8A40BD03F0E01014A6F0001A9513E
:103A6800050901014B6F030E6DEC09F0A9C0AAF01E
:103A78001200030E0001A919D8A40AD00001AD074D
:103A88000001AD29D8A41200020E0001AD6F12008A
:103A9800060E1918D8A402D0800E01D0000E00011D
:103AA800A96F0001A9510001AA19D8B41200310E5A
:103AB80001014A6FA9C04BF1010E4AEC0BF000015D
:103AC800AD51D8A40CD03F0E01014A6F0001A95195
:103AD800010901014B6F030E6DEC09F020D00001C4
:103AE800AD05D8A40CD03F0E01014A6F0001A951C1
:103AF8006A0901014B6F030E6DEC09F010D0020E3C
:103B08000001AD19D8A40BD03F0E01014A6F000186
:103B1800A951050901014B6F030E6DEC09F0A9C00D
:103B2800AAF01200800E0001A919D8A406D0030E2D
:103B38000001A96F010E186E08D0030E0001A91923
:103B4800D8A403D0000E0001A96F0001A9510001FB
:103B5800AA19D8B412000001A951D8A438D0310E3E
:103B680001014A6F000E01014B6F010E4AEC0BF088
:103B78000001AD51D8A40BD03F0E01014A6F010ED0
:103B880001014B6F030E6DEC09F08C0E1ED0000185
:103B9800AD05D8A40BD03F0E01014A6F6A0E010192
:103BA8004B6F030E6DEC09F0820E0FD0020E000170
:103BB800AD19D8A40CD03F0E01014A6F050E0101C2
:103BC8004B6F030E6DEC09F0A00E0001DB6FA9C06E
:103BD800AAF0120001015151F10AD8B4F0D6030A33
:103BE800D8B447D7010AD8A412009CD7000E010107
:103BF8004D6F000E01014C6FFAD04AC148F1000E1A
:103C08008BEC2CF0000E5E6E1A0E5E6401D01DD097
:103C18005E50010D5C0EF324F66E730EF420F76E01
:103C28000800F5CF4DF14D0E0101406F010E010165
:103C3800416F400E0101426F000E0101446F010EF9
:103C4800436F30EC2DF05E2ADFD74AC148F1010EF0
:103C58008BEC2CF0000E5E6E1A0E5E6401D0120022
:103C68005E50010D1B0EF326000EF4225C0EF324A9
:103C7800F66E730EF420F76E0800F5CF4DF14D0E79
:103C88000101406F010E0101416F400E0101426FB9
:103C9800000E0101446F010E436F30EC2DF05E2AD7
:103CA800DBD74AC148F1000E8BEC2CF0000E5E6E9B
:103CB8001A0E5E6401D046D05E50010D5C0EF324EE
:103CC800F66E730EF420F76E0800F5CF4DF14DC176
:103CD8004CF15E50D8B404D01A0E5E18D8A40AD09D
:103CE80001014D1F01014C5101014D133F0E01010E
:103CF8004D1716D05E04D8B404D0190E5E18D8A497
:103D080009D001014D1F01014C5101014D13010161
:103D18004D9F06D001014D1F01014C5101014D136A
:103D28004D0E0101406F010E0101416F400E01016E
:103D3800426F000E0101446F010E436F30EC2DF00D
:103D48005E2AB6D74AC148F1010E8BEC2CF0000E62
:103D58005E6E1A0E5E6401D012005E50010D1B0EDD
:103D6800F326000EF4225C0EF324F66E730EF42094
:103D7800F76E0800F5CF4DF14DC14CF15E50D8B447
:103D880004D01A0E5E18D8A40AD001014D1F0101F3
:103D98004C5101014D13FC0E01014D1716D05E0464
:103DA800D8B404D0190E5E18D8A409D001014D1F4B
:103DB80001014C5101014D1301014D9106D0010142
:103DC8004D1F01014C5101014D134D0E0101406F72
:103DD800010E0101416F400E0101426F000E010109
:103DE800446F010E436F30EC2DF05E2AB2D701010B
:103DF8004B51000AD8B401D7800AD8A4120051D771
:103E08000101516FD9D0030E0001A119D8A40BD01C
:103E18000001A52B020E0001A519D8A41200000E5E
:103E28000001A56F1200050E1918D8A402D0800E43
:103E380001D0000E0001A16F0001A1510001A219DB
:103E4800D8B41200000E01014A6FA1C04BF1020E56
:103E580009EC00F00001A551D8A40CD00E0E010108
:103E68004A6F0001A151010901014B6F000E6DEC71
:103E780009F00FD00001A505D8A40BD00E0E010142
:103E88004A6F0001A151020901014B6F000E6DEC50
:103E980009F0A1C0A2F01200030E0001A119D8A4D4
:103EA8000AD00001A5070001A529D8A41200010E17
:103EB8000001A56F1200050E1918D8A402D0800EB3
:103EC80001D0000E0001A16F0001A1510001A2194B
:103ED800D8B41200000E01014A6FA1C04BF1020EC6
:103EE80009EC00F00001A551D8A40CD00E0E010178
:103EF8004A6F0001A151010901014B6F000E6DECE1
:103F080009F00FD00001A505D8A40BD00E0E0101B1
:103F18004A6F0001A151020901014B6F000E6DECBF
:103F280009F0A1C0A2F01200800E0001A119D8A4C6
:103F380006D0030E0001A16F010E186E08D0030E03
:103F48000001A119D8A403D0000E0001A16F00013F
:103F5800A1510001A219D8B412000001A151D8A49E
:103F680028D0000E01014A6F000E01014B6F020EAE
:103F780009EC00F00001A551D8A40CD00E0E0101E7
:103F88004A6F0001A151010901014B6F000E6DEC50
:103F980009F00FD00001A505D8A40BD00E0E010121
:103FA8004A6F0001A151020901014B6F000E6DEC2F
:103FB80009F0A1C0A2F0120001015151F10AD8B4D0
:103FC80022D7030AD8B468D7010AD8A41200ACD7FC
:103FD800000E426E000E416ED4D03FC03DF0000E80
:103FE800E7EC2DF0000E5E6E1A0E5E6401D019D05B
:103FF8005E50010D5C0EF324F66E730EF420F76E1E
:104008000800F5CF42F0420E356E000E366E400EB7
:10401800376E000E396E010E386E7BEC2DF05E2A7D
:10402800E3D73FC03DF0010EE7EC2DF0000E5E6EC9
:104038001A0E5E6401D012005E50010D1B0EF326AD
:10404800000EF4225C0EF324F66E730EF420F76E65
:104058000800F5CF42F0420E356E000E366E400E67
:10406800376E000E396E010E386E7BEC2DF05E2A2D
:10407800DFD73FC03DF0000EE7EC2DF0000E5E6E7E
:104088001A0E5E6401D037D05E50010D5C0EF32429
:10409800F66E730EF420F76E0800F5CF42F042C0BA
:1040A80041F05E50D8B404D01A0E5E18D8A406D0D9
:1040B800421E415042123F0E42160FD05E04D8B441
:1040C80004D0190E5E18D8A405D0421E41504212E1
:1040D800429E03D0421E41504212420E356E000EDF
:1040E800366E400E376E000E396E010E386E7BEC60
:1040F8002DF05E2AC5D73FC03DF0010EE7EC2DF04C
:10410800000E5E6E1A0E5E6401D012005E50010D44
:104118001B0EF326000EF4225C0EF324F66E730ECB
:10412800F420F76E0800F5CF42F042C041F05E502F
:10413800D8B404D01A0E5E18D8A406D0421E415036
:104148004212FC0E42160FD05E04D8B404D0190EE9
:104158005E18D8A405D0421E41504212429003D0A6
:10416800421E41504212420E356E000E366E400E0F
:10417800376E000E396E010E386E7BEC2DF05E2A1C
:10418800C1D74050000AD8B428D7800AD8A4120052
:1041980070D7000E01014D6F000E01014C6FB0D0B9
:1041A8004AC148F1000E8BEC2CF0000E5E6E160E24
:1041B8005E6401D01DD05E50010D780EF324F66EBA
:1041C800740EF420F76E0800F5CF4DF14D0E010185
:1041D800406F010E0101416F400E0101426F000E58
:1041E8000101446F010E436F30EC2DF05E2ADFD7DA
:1041F8004AC148F1010E8BEC2CF0000E5E6E160ED3
:104208005E6401D012005E50010D170EF326000EF9
:10421800F422780EF324F66E740EF420F76E08007C
:10422800F5CF4DF14D0E0101406F010E0101416FB7
:10423800400E0101426F000E0101446F010E436FF1
:1042480030EC2DF05E2ADBD74AC148F1000E8BEC2A
:104258002CF0000E5E6E160E5E6401D021D05E500A
:10426800010D780EF324F66E740EF420F76E080034
:10427800F5CF4DF14DC14CF101014D1F4D0E01011E
:10428800406F010E0101416F400E0101426F000EA7
:104298000101446F010E436F30EC2DF05E2ADBD72D
:1042A8004AC148F1010E8BEC2CF0000E5E6E160E22
:1042B8005E6401D012005E50010D170EF326000E49
:1042C800F422780EF324F66E740EF420F76E0800CC
:1042D800F5CF4DF14DC14CF101014D1F4D0E0101BE
:1042E800406F010E0101416F400E0101426F000E47
:1042F8000101446F010E436F30EC2DF05E2AD7D7D1
:1043080001014B51000AD8B44BD7800AD8A4120037
:104318009BD7000E01014D6F000E01014C6FB0D00C
:104328004AC148F1000E8BEC2CF0000E5E6E160EA2
:104338005E6401D01DD05E50010DC00EF324F66EF0
:10434800730EF420F76E0800F5CF4DF14D0E010104
:10435800406F010E0101416F400E0101426F000ED6
:104368000101446F010E436F30EC2DF05E2ADFD758
:104378004AC148F1010E8BEC2CF0000E5E6E160E51
:104388005E6401D012005E50010D170EF326000E78
:10439800F422C00EF324F66E730EF420F76E0800B4
:1043A800F5CF4DF14D0E0101406F010E0101416F36
:1043B800400E0101426F000E0101446F010E436F70
:1043C80030EC2DF05E2ADBD74AC148F1000E8BECA9
:1043D8002CF0000E5E6E160E5E6401D021D05E5089
:1043E800010DC00EF324F66E730EF420F76E08006C
:1043F800F5CF4DF14DC14CF101014D1F4D0E01019D
:10440800406F010E0101416F400E0101426F000E25
:104418000101446F010E436F30EC2DF05E2ADBD7AB
:104428004AC148F1010E8BEC2CF0000E5E6E160EA0
:104438005E6401D012005E50010D170EF326000EC7
:10444800F422C00EF324F66E730EF420F76E080003
:10445800F5CF4DF14DC14CF101014D1F4D0E01013C
:10446800406F010E0101416F400E0101426F000EC5
:104478000101446F010E436F30EC2DF05E2AD7D74F
:1044880001014B51000AD8B44BD7800AD8A41200B6
:104498009BD7000E01014D6F000E01014C6FB0D08B
:1044A8004AC148F1000E8BEC2CF0000E5E6E160E21
:1044B8005E6401D01DD05E50010D1C0EF324F66E13
:1044C800740EF420F76E0800F5CF4DF14D0E010182
:1044D800406F010E0101416F400E0101426F000E55
:1044E8000101446F010E436F30EC2DF05E2ADFD7D7
:1044F8004AC148F1010E8BEC2CF0000E5E6E160ED0
:104508005E6401D012005E50010D170EF326000EF6
:10451800F4221C0EF324F66E740EF420F76E0800D5
:10452800F5CF4DF14D0E0101406F010E0101416FB4
:10453800400E0101426F000E0101446F010E436FEE
:1045480030EC2DF05E2ADBD74AC148F1000E8BEC27
:104558002CF0000E5E6E160E5E6401D021D05E5007
:10456800010D1C0EF324F66E740EF420F76E08008D
:10457800F5CF4DF14DC14CF101014D1F4D0E01011B
:10458800406F010E0101416F400E0101426F000EA4
:104598000101446F010E436F30EC2DF05E2ADBD72A
:1045A8004AC148F1010E8BEC2CF0000E5E6E160E1F
:1045B8005E6401D012005E50010D170EF326000E46
:1045C800F4221C0EF324F66E740EF420F76E080025
:1045D800F5CF4DF14DC14CF101014D1F4D0E0101BB
:1045E800406F010E0101416F400E0101426F000E44
:1045F8000101446F010E436F30EC2DF05E2AD7D7CE
:1046080001014B51000AD8B44BD7800AD8A4120034
:104618009BD7000E01014D6F000E01014C6FB0D009
:104628004AC148F1000E8BEC2CF0000E5E6E160E9F
:104638005E6401D01DD05E50010DEE0EF324F66EBF
:10464800730EF420F76E0800F5CF4DF14D0E010101
:10465800406F010E0101416F400E0101426F000ED3
:104668000101446F010E436F30EC2DF05E2ADFD755
:104678004AC148F1010E8BEC2CF0000E5E6E160E4E
:104688005E6401D012005E50010D170EF326000E75
:10469800F422EE0EF324F66E730EF420F76E080083
:1046A800F5CF4DF14D0E0101406F010E0101416F33
:1046B800400E0101426F000E0101446F010E436F6D
:1046C80030EC2DF05E2ADBD74AC148F1000E8BECA6
:1046D8002CF0000E5E6E160E5E6401D021D05E5086
:1046E800010DEE0EF324F66E730EF420F76E08003B
:1046F800F5CF4DF14DC14CF101014D1F4D0E01019A
:10470800406F010E0101416F400E0101426F000E22
:104718000101446F010E436F30EC2DF05E2ADBD7A8
:104728004AC148F1010E8BEC2CF0000E5E6E160E9D
:104738005E6401D012005E50010D170EF326000EC4
:10474800F422EE0EF324F66E730EF420F76E0800D2
:10475800F5CF4DF14DC14CF101014D1F4D0E010139
:10476800406F010E0101416F400E0101426F000EC2
:104778000101446F010E436F30EC2DF05E2AD7D74C
:1047880001014B51000AD8B44BD7800AD8A41200B3
:104798009BD7000E01014D6F000E01014C6FB0D088
:1047A8004AC148F1000E8BEC2CF0000E5E6E160E1E
:1047B8005E6401D01DD05E50010D4A0EF324F66EE2
:1047C800740EF420F76E0800F5CF4DF14D0E01017F
:1047D800406F010E0101416F400E0101426F000E52
:1047E8000101446F010E436F30EC2DF05E2ADFD7D4
:1047F8004AC148F1010E8BEC2CF0000E5E6E160ECD
:104808005E6401D012005E50010D170EF326000EF3
:10481800F4224A0EF324F66E740EF420F76E0800A4
:10482800F5CF4DF14D0E0101406F010E0101416FB1
:10483800400E0101426F000E0101446F010E436FEB
:1048480030EC2DF05E2ADBD74AC148F1000E8BEC24
:104858002CF0000E5E6E160E5E6401D021D05E5004
:10486800010D4A0EF324F66E740EF420F76E08005C
:10487800F5CF4DF14DC14CF101014D1F4D0E010118
:10488800406F010E0101416F400E0101426F000EA1
:104898000101446F010E436F30EC2DF05E2ADBD727
:1048A8004AC148F1010E8BEC2CF0000E5E6E160E1C
:1048B8005E6401D012005E50010D170EF326000E43
:1048C800F4224A0EF324F66E740EF420F76E0800F4
:1048D800F5CF4DF14DC14CF101014D1F4D0E0101B8
:1048E800406F010E0101416F400E0101426F000E41
:1048F8000101446F010E436F30EC2DF05E2AD7D7CB
:1049080001014B51000AD8B44BD7800AD8A4120031
:104918009BD7000E0001806F000E0001836F000E10
:104928000001816F81C082F0000E0001846F000ECB
:104938000001856F480E0001866F200E0001876F09
:10494800000E0001886F000E00018B6F000E000141
:10495800896F89C08AF0000E00018C6F000E00017B
:104968008D6F340E00018E6F530E00018F6F000E95
:104978000001906F000E0001936F000E0001916F0F
:1049880091C092F0000E0001946F000E0001956F27
:104998007E0E0001966F520E0001976F000E000107
:1049A800986F000E00019B6F000E0001996F99C06F
:1049B8009AF0000E00019C6F000E00019D6F640EBE
:1049C80000019E6F300E00019F6F000E0001A06F66
:1049D800000E0001A36F000E0001A16FA1C0A2F09C
:1049E800000E0001A46F000E0001A56F080E000163
:1049F800A66F3E0E0001A76F000E0001A86F000E03
:104A08000001AB6F000E0001A96FA9C0AAF0000E4B
:104A18000001AC6F000E0001AD6FC00E0001AE6F5B
:104A2800390E0001AF6F000E0001B06F000E0001DB
:104A3800B36F000E0001B16FB1C0B2F0000E0001FB
:104A4800B46F000E0001B56F960E0001B66F0E0E22
:104A58000001B76F000E0001B86F000E0001BB6FB8
:104A6800000E0001B96F81C0BAF0000E0001BC6FE2
:104A7800000E0001BD6F000E0001BE6F000E0001A8
:104A8800BF6F000E196E000E186E000E176E120022
:104A9800000E426E000E416E9ED03FC03DF0000EEB
:104AA800E7EC2DF0000E5E6E160E5E6401D019D094
:104AB8005E50010DC00EF324F66E730EF420F76EEF
:104AC8000800F5CF42F0420E356E000E366E400EED
:104AD800376E000E396E010E386E7BEC2DF05E2AB3
:104AE800E3D73FC03DF0010EE7EC2DF0000E5E6EFF
:104AF800160E5E6401D012005E50010D170EF326EB
:104B0800000EF422C00EF324F66E730EF420F76E36
:104B18000800F5CF42F0420E356E000E366E400E9C
:104B2800376E000E396E010E386E7BEC2DF05E2A62
:104B3800DFD73FC03DF0000EE7EC2DF0000E5E6EB3
:104B4800160E5E6401D01CD05E50010DC00EF32419
:104B5800F66E730EF420F76E0800F5CF42F042C0EF
:104B680041F0421E420E356E000E366E400E376E14
:104B7800000E396E010E386E7BEC2DF05E2AE0D700
:104B88003FC03DF0010EE7EC2DF0000E5E6E160EF4
:104B98005E6401D012005E50010D170EF326000E60
:104BA800F422C00EF324F66E730EF420F76E08009C
:104BB800F5CF42F042C041F0421E420E356E000E63
:104BC800366E400E376E000E396E010E386E7BEC75
:104BD8002DF05E2ADCD74050000AD8B45ED7800A90
:104BE800D8A41200A6D7000E426E000E416E9ED0C9
:104BF8003FC03DF0000EE7EC2DF0000E5E6E160E85
:104C08005E6401D019D05E50010D4A0EF324F66E91
:104C1800740EF420F76E0800F5CF42F0420E356EA0
:104C2800000E366E400E376E000E396E010E386E6D
:104C38007BEC2DF05E2AE3D73FC03DF0010EE7EC98
:104C48002DF0000E5E6E160E5E6401D012005E50EE
:104C5800010D170EF326000EF4224A0EF324F66E09
:104C6800740EF420F76E0800F5CF42F0420E356E50
:104C7800000E366E400E376E000E396E010E386E1D
:104C88007BEC2DF05E2ADFD73FC03DF0000EE7EC4D
:104C98002DF0000E5E6E160E5E6401D01CD05E50C4
:104CA800010D4A0EF324F66E740EF420F76E080018
:104CB800F5CF42F042C041F0421E420E356E000E62
:104CC800366E400E376E000E396E010E386E7BEC74
:104CD8002DF05E2AE0D73FC03DF0010EE7EC2DF045
:104CE800000E5E6E160E5E6401D012005E50010D5D
:104CF800170EF326000EF4224A0EF324F66E740EF5
:104D0800F420F76E0800F5CF42F042C041F0421E91
:104D1800420E356E000E366E400E376E000E396E3E
:104D2800010E386E7BEC2DF05E2ADCD74050000A6D
:104D3800D8B45ED7800AD8A41200A6D74C0E0101B9
:104D48004F6F010E0101506F94D0250E01015519C6
:104D5800D8B405D0010155518CEC2FF08AD0000E43
:104D68000101516F4AC1F6FF4BC1F7FF01014A4BE0
:104D78004B2B0800F5CF55F101015551000AD8B465
:104D88001200640AD8B403D00D0AD8A472D04FC157
:104D9800D9FF50C1DAFFDECF53F1DDCF54F1020E57
:104DA80001014F27000E5023010154AF08D0030E14
:104DB800010151130101536D541FD8B0542B010E3A
:104DC8000101556F050E01015519D8B416D001011E
:104DD8005551020DA60EF324F66E740EF420F76EEC
:104DE8000900F5500101535D0900F55001015459BE
:104DF800D8A003D00101552BE5D751C14EF1030EC0
:104E080001014E17D8B403D02D0E8CEC2FF055C1EC
:104E180052F129D001015251020DA60EF324F66E6B
:104E2800740EF420F76E0900F5CF40F10A00F5CFB3
:104E380041F153C13EF154C13FF18EEC2BF03EC11C
:104E480045F13FC146F1000E0101486F0A0E476F58
:104E5800FCEC2BF001014551300F0101556F0101A8
:104E680055518CEC2FF00101520701015229D8A4A9
:104E7800D1D74AC1F6FF4BC1F7FF01014A4B4B2B73
:104E88000800F5CF55F101015551D8B412005DD78E
:104E9800A0EC2DF0CAEC2BF0000E466E310E4664E5
:104EA80001D008D0C30E346E500E336E60EC2FF074
:104EB800462AF4D7A0EC2DF0470E3F6E000E406E48
:104EC800010EECEC1FF0490E3F6E000E406E010E15
:104ED800F7EC25F0230E3F6E000E406E010EECEC51
:104EE8001FF0250E3F6E000E406E010E4CEC25F0B3
:104EF800000E3F6E000E406E010EECEC1FF0020E2D
:104F08003F6E000E406E010EC3EC1BF0310E3F6E7B
:104F1800000E406E010EAEEC02F03F0E3F6E040E26
:104F2800406E000EF0EC0CF0000E3F6E000E406E6E
:104F3800020EAEEC02F00E0E3F6E010E406E000E39
:104F4800F0EC0CF0310E3F6E000E406E010E9AEC44
:104F580011F03F0E3F6E010E406E030EF0EC0CF0A8
:104F6800000E3F6E000E406E020E9AEC11F00E0E0F
:104F78003F6E030E406E030EF0EC0CF0010E0001C4
:104F8800C16F010E0001F96F9C0EF86F040E00014D
:104F9800D66F010E0001D76F000E0001D86F000E0A
:104FA8000001DA6F140ED96F8C0E0001DB6F12004E
:104FB800410E426E000E436E7DD0250E4818D8B4BF
:104FC80004D04850AEEC2FF075D0000E446E3FC0B0
:104FD800F6FF40C0F7FF3F4A402A0800F5CF48F0E7
:104FE8004850000AD8B41200640AD8B403D00D0A95
:104FF800D8A460D042C0D9FF43C0DAFFDECF46F064
:10500800DDCF47F0020E4226000E432247AE06D0FF
:10501800030E4412466C471ED8B0472A010E486E4C
:10502800050E4818D8B412D04850020DA60EF32425
:10503800F66E740EF420F76E0900F550465C090010
:10504800F5504758D8A002D0482AEAD744C041F0C2
:10505800030E4116D8B403D02D0EAEEC2FF048C085
:1050680045F024D04550020DA60EF324F66E740EBA
:10507800F420F76E0900F5CF35F00A00F5CF36F0C9
:1050880046C033F047C034F0E1EC2CF033C03AF0BE
:1050980034C03BF0000E3D6E0A0E3C6E09EC2EF05B
:1050A8003A50300F486E4850AEEC2FF04506452870
:1050B800D8A4D8D73FC0F6FF40C0F7FF3F4A402AE0
:1050C8000800F5CF48F04850D8B4120076D7000E43
:1050D8000101576F000E566F83BC37D0050E0101D2
:1050E8003E6F000E3F6F000E406F000E416FB8EC30
:1050F8002CF083AC0BD029D00101564B572BC30E93
:1051080001013F6F500E3E6F27EC2FF083ACF4D7B0
:1051180045EC2FF00101575105E1650E0101565D7F
:10512800D8A011D0010E326E730E01014A6F7F0EA6
:1051380001014B6FA2EC26F0040E0001C16FF29A38
:10514800D59E000E1200F10E120083BE13D0050E7C
:1051580001013E6F000E3F6F000E406F000E416F61
:10516800B8EC2CF083BE06D083AEFED745EC2FF00A
:10517800F20E120081B613D0050E01013E6F000E2B
:105188003F6F000E406F000E416FB8EC2CF081B6F7
:1051980006D081A6FED745EC2FF0F30E1200000EC4
:1051A8001200210E0201006F000E356E020E366EDF
:1051B800000E376E000E396E010E386E7BEC2DF046
:1051C800150E0201006F000E356E020E366E000ECF
:1051D800376E000E396E010E386E7BEC2DF0080E1E
:1051E8000201006F000E356E020E366E000E376E2D
:1051F800000E396E010E386E7BEC2DF09F0E020109
:10520800006F000E356E020E366E000E376E000E01
:10521800396E010E386E7BEC2DF0200E0201006F06
:10522800000E356E020E366E000E376E000E396EA9
:10523800010E386E7BEC2DF0050E0201006F000E9A
:10524800356E020E366E000E376E000E396E010E88
:10525800386E7BEC2DF00C0E0201006F000E356EDF
:10526800020E366E000E376E000E396E010E386E65
:105278007BEC2DF012000101506F4ED0030E00019F
:105288009119D8B409D0030E1918D8A402D0800EE9
:1052980001D0000E0001916F000191510001921997
:1052A800D8B41200000E01014A6F91C04BF1010EF3
:1052B800FAEC1DF0020E01014A6F91C04BF1010E8C
:1052C800F6EC16F091C092F01200030E000191194D
:1052D800D8B409D0030E1918D8A402D0800E01D072
:1052E800000E0001916F0001915100019219D8B48C
:1052F8001200000E01014A6F91C04BF1010EFAEC49
:105308001DF0020E01014A6F91C04BF1010EF6EC3F
:1053180016F091C092F0120001015051F10AD8B470
:10532800ADD7030AD8B4D1D7010A120001014E6FD4
:105338004ED0030E00018919D8B41200020E1918B4
:10534800D8A402D0800E01D0000E0001896F0001A0
:10535800895100018A19D8B41200230E01014A6F3D
:1053680089C04BF1010EFAEC1DF0250E01014A6FC0
:1053780089C04BF1010E8DEC21F089C08AF0120032
:10538800030E00018919D8B41200020E1918D8A406
:1053980002D0800E01D0000E0001896F00018951F2
:1053A80000018A19D8B41200230E01014A6F89C07E
:1053B8004BF1010EFAEC1DF0250E01014A6F89C070
:1053C8004BF1010E8DEC21F089C08AF01200010129
:1053D8004E51F10AD8B4ADD7030AD8B4D1D7010ACF
:1053E8001200000E316E000E306E000E0101306F9B
:1053F800000E316F000E326F000E336F000E010188
:105408002C6F000E2D6F000E2E6F000E2F6F9DEC6F
:105418002EF049EC2EF08DEC2AF00001C551D8B4DD
:1054280003D008EC13F0F7D70001C005D8A403D0C7
:10543800B7EC15F01DD00001C051D8A403D068EC1A
:1054480019F016D0020E0001C019D8B411D0040EFC
:105458000001C019D8A403D096EC1AF009D0030EA5
:105468000001C019D8A404D05EEC2CF006EC2FF093
:1054780046EC2AF02F50D8B4CED792EC0EF0000E9E
:105488002F6EC9D70001DC51D8B412004E0E0101AD
:105498003F6F200E3E6F27EC2FF081BA34D0F29A7E
:1054A800F294D59E45EC2FF00001C105D8A407D091
:1054B800000E0001DC6F1DD0C1C0C0F026D0000175
:1054C800C151D8A40FD0010E0001DD6F000E0001FC
:1054D800DE6F000E0001DF6FC1C0C0F0000E0001DA
:1054E800C06F13D0040E0001C119D8A40ED00B4A06
:1054F8000C2A010E0001DD6F000E0001DE6F000EA8
:105508000001DF6FD9D7F28AD58E000E0001DC6F5B
:105518001200000E0101566F0001C351D8A41200F9
:105528000D0E0001D619D8A41DD08C848C968C88B9
:10553800000E0101566F08D081A4FED70101562B39
:1055480081B4FED70101562BC70E01015665F4D769
:105558008C888C948C96C30E01013F6F500E3E6F61
:1055680027EC2FF08C908C928C888C948C968B9452
:105578008C98040E0001D66FB40E01014A6F7F0E9D
:1055880001014B6FA2EC26F0F098F09200F000F0C9
:1055980000F0030000F000F000F01200000E01011E
:1055A800466F000E0101476F000E0101436F000EA8
:1055B8000101456F000E446FC294C296C298C29A08
:1055C800C282C2B2FED7C4CF46F1C3CF47F10101B0
:1055D800475146C140F10101416B40C141F1010110
:1055E800406B01014013000E4113060E0101426F8A
:1055F8000101D890413340330101422FF9D7FF0E02
:10560800010140150101446F030E0101411501011B
:10561800456F44C13EF145C13FF1120001013F6FA2
:10562800000E0101406F000E0101406F070E0101DD
:10563800406501D028D001014051080D010EF32624
:10564800000EF422800EF324D96E000EF420DA6ED8
:10565800030EDE18D8A403D0000E01013F6F01012C
:10566800402BE4D7070E1918D8A403D0010E196EE1
:105678001200192A12001950D8A403D0070E196E67
:1056880012001906120001013F51F10AD8B4EAD7F5
:10569800030AD8B4F0D7010A1200740EF66E5F0E32
:1056A800F76E000EF86E00EE57F010EE0BF00900E2
:1056B800F5CFEEFFE550E150FAE103EE00F011EE10
:1056C80000F0EE6AE550E150FCE1E250FAE102EE4A
:1056D80000F011EE00F0EE6AE550E150FCE1E25016
:1056E800FAE101EE00F03E0EEE6AE806FDE100EE9A
:1056F80080F0800EEE6AE806FDE100EE01F0320E61
:10570800EE6AE806FDE162906292000EF86E000112
:10571800F5EF29F0000E0101446F000E436F0101FF
:10572800405101014111D8B42CD0010E0101426F42
:1057380006D00101D890403741370101422B0101C1
:1057480041AFF7D70101D8904337443701014051A1
:1057580001013E5D0101415101013F59D8A00AD024
:105768000101405101013E5F0101415101013F5BCF
:10577800010143810101D890413340330101422F97
:10578800E1D743C13EF144C13FF11200000E426E21
:10579800080E426401D01200000E3D6E4250E7EC44
:1057A8002DF0000E0201006F000E416E620E416482
:1057B80001D01CD04250620DB00E3F6E740E406E88
:1057C800F3503F26F45040224150010DF3503F243E
:1057D800356EF4504020366E400E376E000E396E2E
:1057E800010E386E7BEC2DF0412AE0D7422AD0D743
:1057F8000101475101014811D8B426D0010E010119
:10580800496F06D00101D890473748370101492B25
:10581800010148AFF7D7010147510101455D010179
:10582800485101014659D8A008D00101475101014A
:10583800455F010148510101465B0101D890483399
:1058480047330101492FE7D745C145F146C146F124
:105858001200000E3B6E000E3C6E000E386E000EFD
:105868003A6E000E396EC294C296C298C29AC2822B
:10587800C2B2FED7C4CF3BF0C3CF3CF03C503BC0D4
:1058880035F0366A35C036F0356A3512000E3612F4
:10589800060E376ED89036323532372EFBD7FF0ECC
:1058A8003514396E030E36143A6E39C033F03AC0E7
:1058B80034F01200000E0101586F6BEC28F0010162
:1058C800586F0101585112EC2BF001015851010198
:1058D800D8B412000101585124EC10F001015851BC
:1058E8009AEC29F0010158513FEC29F00101585177
:1058F80032EC18F00101585104EC1FF00101585125
:10590800E0EC1CF0010158514BEC07F012000101CA
:10591800496F01014851800F0201006F000E01011B
:10592800406F020E0101416F000E0101426F000E2F
:105938000101446F010E436F30EC2DF00101495114
:10594800400F0201006F000E0101406F020E0101BD
:10595800416F000E0101426F000E0101446F010EFC
:10596800436F30EC2DF01200000E0101436F000E62
:10597800426F18D0000E0101436F000E426F880E6F
:105988000101425D130E01014359D8B005D000F062
:105998000101424B432BF3D701013E07000E3F5B49
:1059A800405B415B01013E5101013F110101401182
:1059B80001014111D8B41200DDD7000E386E000E77
:1059C800376E35503610D8B41CD0010E396E04D05D
:1059D800D89035363636392A36AEFAD7D890373693
:1059E80038363550335C36503458D8A005D0355049
:1059F800335E3650345A3780D89036323532392EA5
:105A0800EDD737C033F038C034F01200A1EC2FF0D6
:105A18008D92000E01013F6F010E3E6F56EC2DF086
:105A28008D82000E01013F6F010E3E6F56EC2DF086
:105A3800250E0201006F000E0101406F020E0101E8
:105A4800416F000E0101426F000E0101446F010E0B
:105A5800436F30EC2DF0120042C147F16DEC2FF08E
:105A6800780EC4EC2DF0CBEC2EF001014751C4ECBC
:105A78002DF0CBEC2EF040C1F6FF41C1F7FFF86ADC
:105A8800050EF76403D00800F55005D0F6CFE9FFFE
:105A9800F7CFEAFFEF50C4EC2DF0CBEC2EF0A8ECDA
:105AA8002FF01200000E0101416F000E406F14D05C
:105AB800000E0101436F000E426F100E0101425D9E
:105AC800270E01014359D8B004D00101424B432BA2
:105AD800F4D70101404B412B01013E510101405DCA
