:0400000007EF00F016
:10000800638208ED13F099EF2AF00101476F000EA3
:100018000101486F000E0101466F01014705D8A490
:100028004AD1010145510101D8A480D044C142F10F
:10003800020EA2EC2BF0000E5F6E2F0E5F6401D053
:100048001DD05F50010DA70EF324F66E730EF42039
:10005800F76E0800F5CF48F1480E01013A6F010E1E
:1000680001013B6F400E01013C6F000E01013E6F24
:10007800010E3D6F47EC2CF05F2ADFD744C142F1F7
:10008800030EA2EC2BF0000E5F6E2F0E5F6401D002
:1000980021D05F50010D300EF326000EF422A70E7A
:1000A800F324F66E730EF420F76E0800F5CF48F1CE
:1000B800480E01013A6F010E01013B6F400E01012C
:1000C8003C6F000E01013E6F010E3D6F47EC2CF0B6
:1000D8005F2ADBD744C142F1040EA2EC2BF0000EDC
:1000E8005F6E2F0E5F6401D012005F50010D600E2D
:1000F800F326000EF422A70EF324F66E730EF420F6
:10010800F76E0800F5CF48F1480E01013A6F010E6D
:1001180001013B6F400E01013C6F000E01013E6F73
:10012800010E3D6F47EC2CF05F2ADBD7800E0101F2
:100138004519D8A4120044C142F1020EA2EC2BF0DA
:10014800000E5F6E2F0E5F6401D036D05F50010D38
:10015800A70EF324F66E730EF420F76E0800F5CFA1
:1001680048F15F50D8B404D02F0E5F18D8A402D03D
:100178000F0E08D05F04D8B404D02E0E5F18D8A490
:1001880004D01F0E0101486F05D00101481F3F0E22
:1001980001014817480E01013A6F010E01013B6F3A
:1001A800400E01013C6F000E01013E6F010E3D6FD4
:1001B80047EC2CF05F2AC6D744C142F1030EA2ECEB
:1001C8002BF0000E5F6E2F0E5F6401D02DD05F50B4
:1001D800010D300EF326000EF422A70EF324F66E5E
:1001E800730EF420F76E0800F5CF48F15F50D8B4CD
:1001F80004D02F0E5F18D8A403D00101486902D09B
:100208000101481F480E01013A6F010E01013B6FC1
:10021800400E01013C6F000E01013E6F010E3D6F63
:1002280047EC2CF05F2ACFD744C142F1040EA2EC70
:100238002BF0000E5F6E2F0E5F6401D012005F502E
:10024800010D600EF326000EF422A70EF324F66EBD
:10025800730EF420F76E0800F5CF48F15F50D8B45C
:1002680004D02F0E5F18D8A402D0E00E08D05F0487
:10027800D8B404D02E0E5F18D8A404D0F00E010113
:10028800486F07D00101481FF00E0101481701010E
:100298004889480E01013A6F010E01013B6F400E7B
:1002A80001013C6F000E01013E6F010E3D6F47ECEE
:1002B8002CF05F2AC0D7020E01014719D8A41200FA
:1002C800010145510101D8A480D044C142F1020E78
:1002D800A2EC2BF0000E5F6E2F0E5F6401D01DD0D4
:1002E8005F50010D170EF324F66E730EF420F76EAF
:1002F8000800F5CF48F1480E01013A6F010E0101DF
:100308003B6F400E01013C6F000E01013E6F010E74
:100318003D6F47EC2CF05F2ADFD744C142F1030E52
:10032800A2EC2BF0000E5F6E2F0E5F6401D021D07F
:100338005F50010D300EF326000EF422170EF32441
:10034800F66E730EF420F76E0800F5CF48F1480EEC
:1003580001013A6F010E01013B6F400E01013C6F34
:10036800000E01013E6F010E3D6F47EC2CF05F2A35
:10037800DBD744C142F1040EA2EC2BF0000E5F6EF5
:100388002F0E5F6401D012005F50010D600EF3263E
:10039800000EF422170EF324F66E730EF420F76E97
:1003A8000800F5CF48F1480E01013A6F010E01012E
:1003B8003B6F400E01013C6F000E01013E6F010EC4
:1003C8003D6F47EC2CF05F2ADBD7800E0101451901
:1003D800D8A4120044C142F1020EA2EC2BF0000E88
:1003E8005F6E2F0E5F6401D036D05F50010D170E7F
:1003F800F324F66E730EF420F76E0800F5CF48F17B
:100408005F50D8B404D02F0E5F18D8A402D00F0EB6
:1004180008D05F04D8B404D02E0E5F18D8A404D036
:100428001F0E0101486F05D00101481F3F0E010151
:100438004817480E01013A6F010E01013B6F400E4B
:1004480001013C6F000E01013E6F010E3D6F47EC4C
:100458002CF05F2AC6D744C142F1030EA2EC2BF060
:10046800000E5F6E2F0E5F6401D02DD05F50010D1E
:10047800300EF326000EF422170EF324F66E730ED8
:10048800F420F76E0800F5CF48F15F50D8B404D0D7
:100498002F0E5F18D8A403D00101486902D00101CA
:1004A800481F480E01013A6F010E01013B6F400ED3
:1004B80001013C6F000E01013E6F010E3D6F47ECDC
:1004C8002CF05F2ACFD744C142F1040EA2EC2BF0E6
:1004D800000E5F6E2F0E5F6401D012005F50010D99
:1004E800600EF326000EF422170EF324F66E730E38
:1004F800F420F76E0800F5CF48F15F50D8B404D067
:100508002F0E5F18D8A402D0E00E08D05F04D8B42C
:1005180004D02E0E5F18D8A404D0F00E0101486F45
:1005280007D00101481FF00E010148170101488951
:10053800480E01013A6F010E01013B6F400E0101A7
:100548003C6F000E01013E6F010E3D6F47EC2CF031
:100558005F2AC0D7436E000E446E000E426E4304FD
:10056800D8A426D14150D8A474D040C03EF0020E81
:10057800FEEC2CF0000E5F6E2F0E5F6401D019D0D8
:100588005F50010DA70EF324F66E730EF420F76E7C
:100598000800F5CF44F0440E366E000E376E400E5C
:1005A800386E000E3A6E010E396E92EC2CF05F2A0E
:1005B800E3D740C03EF0030EFEEC2CF0000E5F6E59
:1005C8002F0E5F6401D01DD05F50010D300EF32651
:1005D800000EF422A70EF324F66E730EF420F76EC5
:1005E8000800F5CF44F0440E366E000E376E400E0C
:1005F800386E000E3A6E010E396E92EC2CF05F2ABE
:10060800DFD740C03EF0040EFEEC2CF0000E5F6E0B
:100618002F0E5F6401D012005F50010D600EF326AB
:10062800000EF422A70EF324F66E730EF420F76E74
:100638000800F5CF44F0440E366E000E376E400EBB
:10064800386E000E3A6E010E396E92EC2CF05F2A6D
:10065800DFD7800E4118D8A4120040C03EF0020E29
:10066800FEEC2CF0000E5F6E2F0E5F6401D02FD0D1
:100678005F50010DA70EF324F66E730EF420F76E8B
:100688000800F5CF44F05F50D8B404D02F0E5F189F
:10069800D8A402D00F0E08D05F04D8B404D02E0E10
:1006A8005F18D8A403D01F0E446E03D0441E3F0E1B
:1006B8004416440E366E000E376E400E386E000E2D
:1006C8003A6E010E396E92EC2CF05F2ACDD740C0FD
:1006D8003EF0030EFEEC2CF0000E5F6E2F0E5F64F2
:1006E80001D027D05F50010D300EF326000EF42202
:1006F800A70EF324F66E730EF420F76E0800F5CFFC
:1007080044F05F50D8B404D02F0E5F18D8A402D09C
:10071800446801D0441E440E366E000E376E400EFB
:10072800386E000E3A6E010E396E92EC2CF05F2A8C
:10073800D5D740C03EF0040EFEEC2CF0000E5F6EE4
:100748002F0E5F6401D012005F50010D600EF3267A
:10075800000EF422A70EF324F66E730EF420F76E43
:100768000800F5CF44F05F50D8B404D02F0E5F18BE
:10077800D8A402D0E00E08D05F04D8B404D02E0E5E
:100788005F18D8A403D0F00E446E04D0441EF00EB7
:1007980044164488440E366E000E376E400E386E8E
:1007A800000E3A6E010E396E92EC2CF05F2AC8D713
:1007B800020E4318D8A412004150D8A474D040C0E7
:1007C8003EF0020EFEEC2CF0000E5F6E2F0E5F6402
:1007D80001D019D05F50010D170EF324F66E730E79
:1007E800F420F76E0800F5CF44F0440E366E000E84
:1007F800376E400E386E000E3A6E010E396E92EC6E
:100808002CF05F2AE3D740C03EF0030EFEEC2CF03C
:10081800000E5F6E2F0E5F6401D01DD05F50010D7A
:10082800300EF326000EF422170EF324F66E730E24
:10083800F420F76E0800F5CF44F0440E366E000E33
:10084800376E400E386E000E3A6E010E396E92EC1D
:100858002CF05F2ADFD740C03EF0040EFEEC2CF0EF
:10086800000E5F6E2F0E5F6401D012005F50010D05
:10087800600EF326000EF422170EF324F66E730EA4
:10088800F420F76E0800F5CF44F0440E366E000EE3
:10089800376E400E386E000E3A6E010E396E92ECCD
:1008A8002CF05F2ADFD7800E4118D8A4120040C070
:1008B8003EF0020EFEEC2CF0000E5F6E2F0E5F6411
:1008C80001D02FD05F50010D170EF324F66E730E72
:1008D800F420F76E0800F5CF44F05F50D8B404D088
:1008E8002F0E5F18D8A402D00F0E08D05F04D8B41A
:1008F80004D02E0E5F18D8A403D01F0E446E03D068
:10090800441E3F0E4416440E366E000E376E400EDF
:10091800386E000E3A6E010E396E92EC2CF05F2A9A
:10092800CDD740C03EF0030EFEEC2CF0000E5F6EFB
:100938002F0E5F6401D027D05F50010D300EF326D3
:10094800000EF422170EF324F66E730EF420F76EE1
:100958000800F5CF44F05F50D8B404D02F0E5F18CC
:10096800D8A402D0446801D0441E440E366E000E4E
:10097800376E400E386E000E3A6E010E396E92ECEC
:100988002CF05F2AD5D740C03EF0040EFEEC2CF0C8
:10099800000E5F6E2F0E5F6401D012005F50010DD4
:1009A800600EF326000EF422170EF324F66E730E73
:1009B800F420F76E0800F5CF44F05F50D8B404D0A7
:1009C8002F0E5F18D8A402D0E00E08D05F04D8B468
:1009D80004D02E0E5F18D8A403D0F00E446E04D0B5
:1009E800441EF00E44164488440E366E000E376ED0
:1009F800400E386E000E3A6E010E396E92EC2CF0F5
:100A08005F2AC8D70101466F000E0101486F000E2A
:100A18000101476F01014605D8A41AD101014551CA
:100A28000101D8A480D044C142F1020EA2EC2BF0FF
:100A3800000E5F6E120E5F6401D01DD05F50010D75
:100A4800370EF324F66E740EF420F76E0800F5CF17
:100A580048F1480E01013A6F010E01013B6F400E4B
:100A680001013C6F000E01013E6F010E3D6F47EC26
:100A78002CF05F2ADFD744C142F1030EA2EC2BF021
:100A8800000E5F6E120E5F6401D021D05F50010D21
:100A9800130EF326000EF422370EF324F66E740EAE
:100AA800F420F76E0800F5CF48F1480E01013A6FBF
:100AB800010E01013B6F400E01013C6F000E010168
:100AC8003E6F010E3D6F47EC2CF05F2ADBD744C127
:100AD80042F1040EA2EC2BF0000E5F6E120E5F6462
:100AE80001D012005F50010D260EF326000EF422ED
:100AF800370EF324F66E740EF420F76E0800F5CF67
:100B080048F1480E01013A6F010E01013B6F400E9A
:100B180001013C6F000E01013E6F010E3D6F47EC75
:100B28002CF05F2ADBD7800E01014519D8A41200EA
:100B380044C142F1020EA2EC2BF0000E5F6E120EC1
:100B48005F6401D024D05F50010D370EF324F66E98
:100B5800740EF420F76E0800F5CF48F148C147F14C
:100B68000101481F3F0E01014817480E01013A6F65
:100B7800010E01013B6F400E01013C6F000E0101A7
:100B88003E6F010E3D6F47EC2CF05F2AD8D744C169
:100B980042F1030EA2EC2BF0000E5F6E120E5F64A2
:100BA80001D025D05F50010D130EF326000EF4225C
:100BB800370EF324F66E740EF420F76E0800F5CFA6
:100BC80048F148C147F10101481F480E01013A6F39
:100BD800010E01013B6F400E01013C6F000E010147
:100BE8003E6F010E3D6F47EC2CF05F2AD7D744C10A
:100BF80042F1040EA2EC2BF0000E5F6E120E5F6441
:100C080001D012005F50010D260EF326000EF422CB
:100C1800370EF324F66E740EF420F76E0800F5CF45
:100C280048F148C147F1F00E0101486F480E010133
:100C38003A6F010E01013B6F400E01013C6F000E3F
:100C480001013E6F010E3D6F47EC2CF05F2AD6D7AD
:100C5800020E01014619D8A41200010145510101F3
:100C6800D8A480D044C142F1050EA2EC2BF0000EAE
:100C78005F6E120E5F6401D01DD05F50010D370EFC
:100C8800F324F66E740EF420F76E0800F5CF48F1E1
:100C9800480E01013A6F010E01013B6F400E010140
:100CA8003C6F000E01013E6F010E3D6F47EC2CF0CA
:100CB8005F2ADFD744C142F1060EA2EC2BF0000EEA
:100CC8005F6E120E5F6401D021D05F50010D130ECC
:100CD800F326000EF422370EF324F66E740EF42079
:100CE800F76E0800F5CF48F1480E01013A6F010E82
:100CF80001013B6F400E01013C6F000E01013E6F88
:100D0800010E3D6F47EC2CF05F2ADBD744C142F15E
:100D1800070EA2EC2BF0000E5F6E120E5F6401D07E
:100D280012005F50010D260EF326000EF422370E36
:100D3800F324F66E740EF420F76E0800F5CF48F130
:100D4800480E01013A6F010E01013B6F400E01018F
:100D58003C6F000E01013E6F010E3D6F47EC2CF019
:100D68005F2ADBD7800E01014519D8A4120044C1BF
:100D780042F1050EA2EC2BF0000E5F6E120E5F64BE
:100D880001D024D05F50010D370EF324F66E740E97
:100D9800F420F76E0800F5CF48F148C147F101018A
:100DA800481F3F0E01014817480E01013A6F010E16
:100DB80001013B6F400E01013C6F000E01013E6FC7
:100DC800010E3D6F47EC2CF05F2AD8D744C142F1A1
:100DD800060EA2EC2BF0000E5F6E120E5F6401D0BF
:100DE80025D05F50010D130EF326000EF422370EA6
:100DF800F324F66E740EF420F76E0800F5CF48F170
:100E080048C147F10101481F480E01013A6F010E20
:100E180001013B6F400E01013C6F000E01013E6F66
:100E2800010E3D6F47EC2CF05F2AD7D744C142F141
:100E3800070EA2EC2BF0000E5F6E120E5F6401D05D
:100E480012005F50010D260EF326000EF422370E15
:100E5800F324F66E740EF420F76E0800F5CF48F10F
:100E680048C147F1F00E0101486F480E01013A6F81
:100E7800010E01013B6F400E01013C6F000E0101A4
:100E88003E6F010E3D6F47EC2CF05F2AD6D701016B
:100E98004B6F13D2030E0001B119D8A40BD0000177
:100EA800B52B030E0001B519D8A41200000E0001DD
:100EB800B56F1200070E1B18D8A402D0800E01D0FF
:100EC800000E0001B16F0001B1510001B219D8B490
:100ED80012001950D8B404D0020E1918D8A409D099
:100EE800000E0101446FB1C045F1020E4AEC0BF04F
:100EF8000BD01904D8A408D0000E0101446FB1C06A
:100F080045F1030E4AEC0BF00001B551D8A422D0EC
:100F18001950D8B404D0020E1918D8A40CD00E0E4B
:100F28000101446F0001B15103090101456F030E2E
:100F38006DEC09F05BD01904D8A458D0110E01014A
:100F4800446F0001B15167090101456F030E6DEC53
:100F580009F04CD00001B505D8A422D01950D8B456
:100F680004D0020E1918D8A40CD00E0E0101446F3B
:100F78000001B15103090101456F030E6DEC09F041
:100F880035D01904D8A432D0110E0101446F0001E4
:100F9800B15164090101456F030E6DEC09F026D0CB
:100FA800020E0001B519D8A421D01950D8B404D024
:100FB800020E1918D8A40CD00E0E0101446F0001BE
:100FC800B15103090101456F030E6DEC09F00ED014
:100FD8001904D8A40BD0110E0101446F0001B151BE
:100FE80066090101456F030E6DEC09F0B1C0B2F05E
:100FF8001200030E0001B119D8A40AD00001B507E8
:101008000001B529D8A41200020E0001B56F120024
:10101800070E1B18D8A402D0800E01D0000E0001C4
:10102800B16F0001B1510001B219D8B412001950C2
:10103800D8B404D0020E1918D8A409D0000E0101A2
:10104800446FB1C045F1020E4AEC0BF00BD0190405
:10105800D8A408D0000E0101446FB1C045F1030EB9
:101068004AEC0BF00001B551D8A422D01950D8B4DD
:1010780004D0020E1918D8A40CD00E0E0101446F2A
:101088000001B15103090101456F030E6DEC09F030
:101098005BD01904D8A458D0110E0101446F000187
:1010A800B15167090101456F030E6DEC09F04CD091
:1010B8000001B505D8A422D01950D8B404D0020E26
:1010C8001918D8A40CD00E0E0101446F0001B151BB
:1010D80003090101456F030E6DEC09F035D01904C1
:1010E800D8A432D0110E0101446F0001B151640936
:1010F8000101456F030E6DEC09F026D0020E0001C8
:10110800B519D8A421D01950D8B404D0020E191892
:10111800D8A40CD00E0E0101446F0001B15103098F
:101128000101456F030E6DEC09F00ED01904D8A427
:101138000BD0110E0101446F0001B1516609010184
:10114800456F030E6DEC09F0B1C0B2F01200800ECD
:101158000001B119D8A406D0030E0001B16F010E29
:101168001A6E08D0030E0001B119D8A403D0000EDE
:101178000001B16F0001B1510001B219D8B41200D9
:101188000001B151D8A496D01950D8B404D0020E99
:101198001918D8A40AD0000E0101446F000E0101ED
:1011A800456F020E4AEC0BF00CD01904D8A409D0F4
:1011B800000E0101446F000E0101456F030E4AEC59
:1011C8000BF00001B551D8A424D01950D8B404D0DC
:1011D800020E1918D8A40AD00E0E0101446F030E8E
:1011E8000101456F030E6DEC09F064D01904D8A411
:1011F80061D0110E0101446F0001B9516709010165
:10120800456F030E6DEC09F0000E0001D86F140E47
:1012180050D00001B505D8A424D01950D8B404D0B2
:10122800020E1918D8A40AD00E0E0101446F030E3D
:101238000101456F030E6DEC09F03CD01904D8A4E8
:1012480039D0110E0101446F0001B951640901013F
:10125800456F030E6DEC09F0000E0001D86FC80E43
:1012680028D0020E0001B519D8A424D01950D8B43A
:1012780004D0020E1918D8A40AD00E0E0101446F2A
:10128800030E0101456F030E6DEC09F013D019042C
:10129800D8A410D0110E0101446F0001B95166099C
:1012A8000101456F030E6DEC09F0000E0001D86FC7
:1012B800640ED76FB1C0B2F0120001014B51F10AB0
:1012C800D8B4E8D5030AD8B494D6010AD8A4120031
:1012D8003ED70101496F000E01014A6F000E01015E
:1012E800486F41D06B0E036E7E0E3BD0320E036EFC
:1012F8007E0E37D0870E036E7D0E33D04E0E036EF2
:101308007D0E2FD0150E036E7D0E2BD0A30E036E0F
:101318007C0E27D0DC0E036E7C0E23D06A0E036E83
:101328007C0E1FD0310E036E7C0E1BD0F80E036EA0
:101338007B0E17D0860E036E7B0E13D0BF0E036E86
:101348007B0E0FD0140E036E7B0E0BD04D0E036E6A
:101358007B0E07D0F90E036E7D0E03D0C00E036E10
:101368007D0E046E3DD0010145517F0B0101466F92
:10137800476B01014751000AD8A432D001014651F8
:10138800000AD8B4AFD7010AD8B4B0D7030AD8B482
:10139800B1D7010AD8B4B2D7070AD8B4B3D7010A6B
:1013A800D8B4B4D7030AD8B4B5D70C0AD8B4B6D7CA
:1013B800070AD8B4B7D7690AD8B4B8D7010AD8B4D5
:1013C800B9D7030AD8B4BAD7010AD8B4BBD70F0A19
:1013D800D8B4BCD7010AD8B4BDD7030AD8B4BED78D
:1013E800010145BFA0D044C142F101014951020F9A
:1013F800A2EC2BF0000E5F6E120E5F6401D025D0B8
:101408005F50010D03C046F104C047F1F3500101DC
:101418004627F4500101472346C1F6FF47C1F7FFAD
:101428000800F5CF4AF14A0E01013A6F010E010199
:101438003B6F400E01013C6F000E01013E6F010E33
:101448003D6F47EC2CF05F2AD7D744C142F1010128
:101458004951030FA2EC2BF0000E5F6E120E5F6471
:1014680001D02AD05F50010D03C046F104C047F1F6
:10147800F35001014627F45001014723130E0101DF
:101488004627000E472346C1F6FF47C1F7FF08006D
:10149800F5CF4AF14A0E01013A6F010E01013B6F87
:1014A800400E01013C6F000E01013E6F010E3D6FC1
:1014B80047EC2CF05F2AD2D744C142F101014951CF
:1014C800040FA2EC2BF0000E5F6E120E5F6401D0C9
:1014D80012005F50010D03C046F104C047F1F350FC
:1014E80001014627F45001014723260E0101462732
:1014F800000E472346C1F6FF47C1F7FF0800F5CFA6
:101508004AF14A0E01013A6F010E01013B6F400E8C
:1015180001013C6F000E01013E6F010E3D6F47EC6B
:101528002CF05F2AD2D7010145AF120044C142F125
:1015380001014951020FA2EC2BF0000E5F6E120E52
:101548005F6401D02CD05F50010D03C046F104C088
:1015580047F1F35001014627F4500101472346C1E2
:10156800F6FF47C1F7FF0800F5CF4AF14AC148F135
:1015780001014A1F3F0E01014A174A0E01013A6F45
:10158800010E01013B6F400E01013C6F000E01018D
:101598003E6F010E3D6F47EC2CF05F2AD0D744C157
:1015A80042F101014951030FA2EC2BF0000E5F6ECE
:1015B800120E5F6401D02ED05F50010D03C046F1BA
:1015C80004C047F1F35001014627F45001014723B5
:1015D800130E01014627000E472346C1F6FF47C1F7
:1015E800F7FF0800F5CF4AF14AC148F101014A1F47
:1015F8004A0E01013A6F010E01013B6F400E0101D5
:101608003C6F000E01013E6F010E3D6F47EC2CF060
:101618005F2ACED744C142F101014951040FA2EC1F
:101628002BF0000E5F6E120E5F6401D012005F5047
:10163800010D03C046F104C047F1F35001014627EC
:10164800F45001014723260E01014627000E4723C7
:1016580046C1F6FF47C1F7FF0800F5CF4AF14AC176
:1016680048F1F00E01014A6F4A0E01013A6F010E6E
:1016780001013B6F400E01013C6F000E01013E6FFE
:10168800010E3D6F47EC2CF05F2ACDD70101496F61
:10169800000E01014A6F000E0101486F11D0840E3F
:1016A800016E7A0E0BD0F40E016E790E07D0640E1F
:1016B800016E790E03D0D40E016E780E026E0ED034
:1016C80001014951010AD8B4EAD7030AD8B4EBD7C3
:1016D800010AD8B4ECD7070AD8B4EDD701014551AF
:1016E8000101D8A49AD044C142F1050EA2EC2BF016
:1016F800000E5F6E2F0E5F6401D025D05F50010D84
:1017080001C046F102C047F1F35001014627F450E9
:101718000101472346C1F6FF47C1F7FF0800F5CF8F
:101728004AF14A0E01013A6F010E01013B6F400E6A
:1017380001013C6F000E01013E6F010E3D6F47EC49
:101748002CF05F2AD7D744C142F1060EA2EC2BF049
:10175800000E5F6E2F0E5F6401D02AD05F50010D1E
:1017680001C046F102C047F1F35001014627F45089
:1017780001014723300E01014627000E472346C1C9
:10178800F6FF47C1F7FF0800F5CF4AF14A0E0101FD
:101798003A6F010E01013B6F400E01013C6F000ED4
:1017A80001013E6F010E3D6F47EC2CF05F2AD2D746
:1017B80044C142F1070EA2EC2BF0000E5F6E2F0E13
:1017C8005F6401D012005F50010D01C046F102C0F4
:1017D80047F1F35001014627F45001014723600EF9
:1017E80001014627000E472346C1F6FF47C1F7FF10
:1017F8000800F5CF4AF14A0E01013A6F010E0101C6
:101808003B6F400E01013C6F000E01013E6F010E5F
:101818003D6F47EC2CF05F2AD2D7800E01014519A5
:10182800D8A4120044C142F1050EA2EC2BF0000E20
:101838005F6E2F0E5F6401D03ED05F50010D01C076
:1018480046F102C047F1F35001014627F450010167
:10185800472346C1F6FF47C1F7FF0800F5CF4AF115
:101868005F50D8B404D02F0E5F18D8A402D00F0E42
:1018780008D05F04D8B404D02E0E5F18D8A404D0C2
:101888001F0E01014A6F05D001014A1F3F0E0101D9
:101898004A174A0E01013A6F010E01013B6F400ED3
:1018A80001013C6F000E01013E6F010E3D6F47ECD8
:1018B8002CF05F2ABED744C142F1060EA2EC2BF0F1
:1018C800000E5F6E2F0E5F6401D036D05F50010DA1
:1018D80001C046F102C047F1F35001014627F45018
:1018E80001014723300E01014627000E472346C158
:1018F800F6FF47C1F7FF0800F5CF4AF15F50D8B4AB
:1019080004D02F0E5F18D8A403D001014A6902D071
:1019180001014A1F4A0E01013A6F010E01013B6F96
:10192800400E01013C6F000E01013E6F010E3D6F3C
:1019380047EC2CF05F2AC6D744C142F1070EA2EC4F
:101948002BF0000E5F6E2F0E5F6401D012005F5007
:10195800010D01C046F102C047F1F35001014627CD
:10196800F45001014723600E01014627000E47236A
:1019780046C1F6FF47C1F7FF0800F5CF4AF15F50AF
:10198800D8B404D02F0E5F18D8A402D0E00E08D027
:101998005F04D8B404D02E0E5F18D8A404D0F00E7B
:1019A80001014A6F07D001014A1FF00E01014A17D1
:1019B80001014A894A0E01013A6F010E01013B6F8C
:1019C800400E01013C6F000E01013E6F010E3D6F9C
:1019D80047EC2CF05F2AB7D7456E000E466E000E16
:1019E800446E41D06B0E036E7E0E3BD0320E036EFA
:1019F8007E0E37D0870E036E7D0E33D04E0E036EEB
:101A08007D0E2FD0150E036E7D0E2BD0A30E036E08
:101A18007C0E27D0DC0E036E7C0E23D06A0E036E7C
:101A28007C0E1FD0310E036E7C0E1BD0F80E036E99
:101A38007B0E17D0860E036E7B0E13D0BF0E036E7F
:101A48007B0E0FD0140E036E7B0E0BD04D0E036E63
:101A58007B0E07D0F90E036E7D0E03D0C00E036E09
:101A68007D0E046E39D041507F0B426E436A43505D
:101A7800000AD8A431D04250000AD8B4B3D7010A1A
:101A8800D8B4B4D7030AD8B4B5D7010AD8B4B6D7EE
:101A9800070AD8B4B7D7010AD8B4B8D7030AD8B454
:101AA800B9D70C0AD8B4BAD7070AD8B4BBD7690AC9
:101AB800D8B4BCD7010AD8B4BDD7030AD8B4BED7A6
:101AC800010AD8B4BFD70F0AD8B4C0D7010AD8B40E
:101AD800C1D7030AD8B4C2D741BE89D040C03EF0AE
:101AE8004550020FFEEC2CF0000E5F6E120E5F6484
:101AF80001D01FD05F50010D03C042F004C043F075
:101B0800F3504226F450432242C0F6FF43C0F7FF89
:101B18000800F5CF46F0460E366E000E376E400EC2
:101B2800386E000E3A6E010E396E92EC2CF05F2A78
:101B3800DDD740C03EF04550030FFEEC2CF0000E00
:101B48005F6E120E5F6401D023D05F50010D03C099
:101B580042F004C043F0F3504226F4504322130EDF
:101B68004226000E432242C0F6FF43C0F7FF08009A
:101B7800F5CF46F0460E366E000E376E400E386EC4
:101B8800000E3A6E010E396E92EC2CF05F2AD9D70E
:101B980040C03EF04550040FFEEC2CF0000E5F6E86
:101BA800120E5F6401D012005F50010D03C042F0B5
:101BB80004C043F0F3504226F4504322260E422636
:101BC800000E432242C0F6FF43C0F7FF0800F5CFDE
:101BD80046F0460E366E000E376E400E386E000E1A
:101BE8003A6E010E396E92EC2CF05F2AD9D741AECD
:101BF800120040C03EF04550020FFEEC2CF0000EE3
:101C08005F6E120E5F6401D024D05F50010D03C0D7
:101C180042F004C043F0F3504226F450432242C03D
:101C2800F6FF43C0F7FF0800F5CF46F046C044F082
:101C3800461E3F0E4616460E366E000E376E400E96
:101C4800386E000E3A6E010E396E92EC2CF05F2A57
:101C5800D8D740C03EF04550030FFEEC2CF0000EE4
:101C68005F6E120E5F6401D026D05F50010D03C075
:101C780042F004C043F0F3504226F4504322130EBE
:101C88004226000E432242C0F6FF43C0F7FF080079
:101C9800F5CF46F046C044F0461E460E366E000E9E
:101CA800376E400E386E000E3A6E010E396E92ECA9
:101CB8002CF05F2AD6D740C03EF04550040FFEEC0A
:101CC8002CF0000E5F6E120E5F6401D012005F50A0
:101CD800010D03C042F004C043F0F3504226F45013
:101CE8004322260E4226000E432242C0F6FF43C07E
:101CF800F7FF0800F5CF46F046C044F0F00E466EF8
:101D0800460E366E000E376E400E386E000E3A6E76
:101D1800010E396E92EC2CF05F2AD5D7030E000124
:101D28008119D8A43CD01A04D8A40CD0490E0101BA
:101D3800446F800E0101456F000E3BEC1FF0000E52
:101D48001A6E12001A50D8A41200010E1A6E1950F9
:101D5800D8A40AD0490E0101446F800E0101456FD5
:101D6800000EFBEC22F012001904D8A40AD0490E88
:101D78000101446F800E0101456F000E7BEC21F0DC
:101D88001200020E1918D8A41200490E0101446F5E
:101D9800800E0101456F000E3BEC22F01200030E8D
:101DA80000019919D8A43FD01A04D8A40CD03F0E2A
:101DB8000101446F800E0101456F010E06EC05F02C
:101DC800000E1A6E12001A50D8A41200010E1A6ED4
:101DD80000019D51D8A40AD03F0E0101446F840E22
:101DE8000101456F000E6DEC09F0120000019D0520
:101DF800D8A40AD03F0E0101446F860E0101456F39
:101E0800000E6DEC09F01200020E00019D19D8A415
:101E180012003F0E0101446F8D0E0101456F000E47
:101E28006DEC09F01200030E0001A119D8A430D0FE
:101E38001A04D8A40CD00E0E0101446F800E0101C3
:101E4800456F010E06EC05F0000E1A6E12001A50CE
:101E5800D8A41200010E1A6E0001A551D8A40AD008
:101E68000E0E0101446F810E0101456F000E6DECED
:101E780009F012000001A505D8A412000E0E0101F8
:101E8800446F820E0101456F000E6DEC09F01200DF
:101E9800030E0001A919D8A43FD01A04D8A40CD065
:101EA8003F0E0101446F800E0101456F020E06ECE2
:101EB80005F0000E1A6E12001A50D8A41200010E76
:101EC8001A6E0001AD51D8A40AD03F0E0101446F2B
:101ED800820E0101456F030E6DEC09F0120000013E
:101EE800AD05D8A40AD03F0E0101446F830E01014D
:101EF800456F030E6DEC09F01200020E0001AD19DA
:101F0800D8A412003F0E0101446F850E0101456FF0
:101F1800030E6DEC09F01200030E0001B119D8A4EC
:101F280012001A04D8A420D01950D8B404D0020E34
:101F38001918D8A40AD00E0E0101446F800E0101B1
:101F4800456F020E06EC05F00CD01904D8A409D090
:101F5800110E0101446F800E0101456F020E06EC5F
:101F680005F0000E1A6E12001A50D8A41200010EC5
:101F78001A6E0001B551D8A41ED01950D8B404D097
:101F8800020E1918D8A40AD00E0E0101446F830E50
:101F98000101456F030E6DEC09F012001904D8A475
:101FA8001200110E0101446FE70E0101456F030E87
:101FB8006DEC09F012000001B505D8A41ED0195027
:101FC800D8B404D0020E1918D8A40AD00E0E0101F4
:101FD800446F830E0101456F030E6DEC09F012008A
:101FE8001904D8A41200110E0101446FE40E010176
:101FF800456F030E6DEC09F01200020E0001B519D1
:10200800D8A412001950D8B404D0020E1918D8A4B4
:102018000AD00E0E0101446F830E0101456F030EB5
:102028006DEC09F012001904D8A41200110E010178
:10203800446FE60E0101456F030E6DEC09F01200C6
:1020480001014B6F67D1030E00018119D8A436D066
:10205800192A030E1918D8A402D0000E196E470EBB
:102068000101446F81C045F1010EA8EC1BF0195025
:10207800D8A409D0490E0101446F81C045F1010E71
:10208800FBEC22F018D01904D8A409D0490E01019C
:10209800446F81C045F1010E7BEC21F00CD0020E9B
:1020A8001918D8A408D0490E0101446F81C045F120
:1020B800010E3BEC22F081C082F012001B04D8A470
:1020C80002D0800E01D0000E0001816F0001815105
:1020D80000018219D8B41200470E0101446F81C073
:1020E80045F1010EA8EC1BF01950D8A409D0490EEF
:1020F8000101446F81C045F1010EFBEC22F018D0BC
:10210800020E1918D8A409D0490E0101446F81C0E4
:1021180045F1010E3BEC22F00BD01904D8A408D0ED
:10212800490E0101446F81C045F1010E7BEC21F09D
:1021380081C082F01200030E00018119D8A435D0A5
:1021480019061928D8A402D0020E196E470E0101EB
:10215800446F81C045F1010EA8EC1BF01950D8A4BA
:1021680009D0490E0101446F81C045F1010EFBEC15
:1021780022F018D01904D8A409D0490E0101446FDF
:1021880081C045F1010E7BEC21F00CD0020E19182C
:10219800D8A408D0490E0101446F81C045F1010E51
:1021A8003BEC22F081C082F012001B04D8A402D0BC
:1021B800800E01D0000E0001816F000181510001E5
:1021C8008219D8B41200470E0101446F81C045F14D
:1021D800010EA8EC1BF01950D8A409D0490E010132
:1021E800446F81C045F1010EFBEC22F018D0020EBD
:1021F8001918D8A409D0490E0101446F81C045F1CE
:10220800010E3BEC22F00BD01904D8A408D0490EDB
:102218000101446F81C045F1010E7BEC21F081C0C2
:1022280082F01200800E00018119D8A406D0030E96
:102238000001816F010E1A6E1DD0030E0001811975
:10224800D8A418D01904D8A412D0000E0101446FE4
:10225800000E0101456F030E4AEC0BF0110E01014F
:10226800446F670E0101456F030E6DEC09F0000E17
:102278000001816F0001815100018219D8B4120058
:1022880000018151D8A443D0470E0101446F81C099
:1022980045F1010EA8EC1BF01950D8A41CD0490E2A
:1022A8000101446F81C045F1010EFBEC22F0000EE4
:1022B8000101446F000E0101456F020E4AEC0BF05C
:1022C8000E0E0101446F030E0101456F030E6DEC04
:1022D80009F0000E1AD01904D8A40AD0490E010139
:1022E800446F81C045F1010E7BEC21F0010E0DD049
:1022F800020E1918D8A40BD0490E0101446F81C0F1
:1023080045F1010E3BEC22F0020E0001C16F81C0C5
:1023180082F0120001014B51F10AD8B494D6030A95
:10232800D8B409D7010AD8A412007CD7456E000E8C
:10233800466E000E446E11D0840E016E7A0E0BD0DC
:10234800F40E016E790E07D0640E016E790E03D07B
:10235800D40E016E780E026E0DD04550010AD8B425
:10236800EBD7030AD8B4ECD7010AD8B4EDD7070ADB
:10237800D8B4EED74150D8A486D040C03EF0050E60
:10238800FEEC2CF0000E5F6E2F0E5F6401D01FD0A4
:102398005F50010D01C042F002C043F0F3504226E5
:1023A800F450432242C0F6FF43C0F7FF0800F5CFC0
:1023B80046F0460E366E000E376E400E386E000E32
:1023C8003A6E010E396E92EC2CF05F2ADDD740C0D0
:1023D8003EF0060EFEEC2CF0000E5F6E2F0E5F64D2
:1023E80001D023D05F50010D01C042F002C043F07C
:1023F800F3504226F4504322300E4226000E432268
:1024080042C0F6FF43C0F7FF0800F5CF46F0460E7E
:10241800366E000E376E400E386E000E3A6E010EA4
:10242800396E92EC2CF05F2AD9D740C03EF0070EE7
:10243800FEEC2CF0000E5F6E2F0E5F6401D01200D0
:102448005F50010D01C042F002C043F0F350422634
:10245800F4504322600E4226000E432242C0F6FF8B
:1024680043C0F7FF0800F5CF46F0460E366E000E63
:10247800376E400E386E000E3A6E010E396E92ECD1
:102488002CF05F2AD9D7800E4118D8A4120040C07A
:102498003EF0050EFEEC2CF0000E5F6E2F0E5F6412
:1024A80001D035D05F50010D01C042F002C043F0A9
:1024B800F3504226F450432242C0F6FF43C0F7FFD0
:1024C8000800F5CF46F05F50D8B404D02F0E5F183F
:1024D800D8A402D00F0E08D05F04D8B404D02E0EB2
:1024E8005F18D8A403D01F0E466E03D0461E3F0EB9
:1024F8004616460E366E000E376E400E386E000ECB
:102508003A6E010E396E92EC2CF05F2AC7D740C0A4
:102518003EF0060EFEEC2CF0000E5F6E2F0E5F6490
:1025280001D02DD05F50010D01C042F002C043F030
:10253800F3504226F4504322300E4226000E432226
:1025480042C0F6FF43C0F7FF0800F5CF46F05F50E2
:10255800D8B404D02F0E5F18D8A402D0466801D092
:10256800461E460E366E000E376E400E386E000E52
:102578003A6E010E396E92EC2CF05F2ACFD740C02C
:102588003EF0070EFEEC2CF0000E5F6E2F0E5F641F
:1025980001D012005F50010D01C042F002C043F0AB
:1025A800F3504226F4504322600E4226000E432286
:1025B80042C0F6FF43C0F7FF0800F5CF46F05F5072
:1025C800D8B404D02F0E5F18D8A402D0E00E08D0DB
:1025D8005F04D8B404D02E0E5F18D8A403D0F00E30
:1025E800466E04D0461EF00E46164688460E366ED7
:1025F800000E376E400E386E000E3A6E010E396EC0
:1026080092EC2CF05F2AC2D70600FACF4AF0FBCF33
:102618004BF0E9CF4CF0EACF4DF0E1CF4EF0E2CFEE
:102628004FF0D9CF50F0DACF51F0F3CF52F0F4CFCA
:1026380053F0F6CF54F0F7CF55F0F8CF56F0F5CF6A
:1026480057F0F0A286D0F092F1B802D0F18802D00B
:10265800F1B8F1980001C551D8B41AD00001C705E6
:10266800D8A477D0F1A805D082A00ED082A071D0CE
:1026780004D0F1B86ED082B005D00001F407D8A01C
:10268800F50767D082A065D00001F44BF52B61D027
:102698000001C005D8A43CD00001DB05D8A41AD09D
:1026A800F1A805D082A012D082A053D004D0F1B8EE
:1026B80050D082B009D00001E807D8A0E90700018E
:1026C800E207D8A0E30745D082A043D00001E84B39
:1026D800E92B3CD00001DC05D8A43BD0F1A805D0FB
:1026E80082A00ED082A035D004D0F1B832D082B00A
:1026F80005D00001E807D8A0E9072BD082A029D08F
:102708000001FC07D8A0FD070001E84BE92B21D008
:10271800020E0001C019D8B41CD00001C051D8A4C1
:102728000CD00001DB05D8B411D00001DC05D8A419
:1027380010D00001E44BE52B0CD0040E0001C019A9
:10274800D8A407D00001DB05D8A4EFD70001E24BDD
:10275800E32BF2A41FD0010E01011427000E15234C
:102768001623172301011751010116110101151133
:1027780005E17E0E0101145DD8A00BD0010E306E6C
:10278800000E0101146F000E156F000E166F000E7B
:10279800176FF294F2A072D081A883AC63D083BE85
:1027A80081A660D0040E346E000E356E000E366EB3
:1027B800000E376E41EC2DF081A883AC53D083BE58
:1027C80081A650D059EC2EF0000E336E0001C35193
:1027D800D8A425D0010E0001C36FD1EC2EF08C9047
:1027E8008C928C888C948C968B848C88CE0E406EC0
:1027F8007F0E416EB5EC27F0000E0001C66F010E8A
:102808000001C56F000E0001C76F040E0001D46FF0
:10281800AEEC28F025EC27F0F088F09223D00001E8
:10282800C305D8A41FD0000E0001C36FCFEC2EF053
:10283800250E0201006F000E366E020E376E000E76
:10284800386E000E3A6E010E396E92EC2CF08C90B8
:102858008C928C888C948C96E10E406E7F0E416E23
:10286800B5EC27F081BA09D0010E0001DA6FF00E3D
:10287800406E7F0E416EB5EC27F0F290F2A204D0C4
:10288800010E0001C66FF29257C0F5FF56C0F8FF5F
:1028980055C0F7FF54C0F6FF53C0F4FF52C0F3FF12
:1028A80051C0DAFF50C0D9FF4FC0E2FF4EC0E1FF70
:1028B8004DC0EAFF4CC0E9FF4BC0FBFF4AC0FAFF1E
:1028C8006392110081B05FD0000E0001DE6F000E30
:1028D8000001F56F000EF46F020E0001F76F580E3D
:1028E800F66F8C948C868C882CD08C84000E010119
:1028F800396F0A0E386F2DEC2EF0000E0101396F7A
:102908000A0E386F2DEC2EF0000E0101396F0A0EF9
:10291800386F2DEC2EF0000E0101396F0A0E386F5A
:102928002DEC2EF0000E0101396F0A0E386F2DECD8
:102938002EF08C94000E0101396F0A0E386F2DECC1
:102948002EF02C0E0001F45D010E0001F559D8A0FF
:10295800CCD78C888C948C96C30E0101396F500E9D
:10296800386F2DEC2EF0000E0001DE6F000E000116
:10297800F56F000EF46FD80E0101446F7F0E010150
:10298800456F7BEC26F0040E0001D419D8A405D0BD
:10299800010E0001F76F2C0E13D0060E0001D4199A
:1029A800D8A405D0010E0001F76F9C0E09D00D0EBA
:1029B8000001D419D8A405D0000E0001F76F010E4C
:1029C800F66F000E0001C66F8C888C942CD08C8614
:1029D800000E0101396F0A0E386F2DEC2EF0000E33
:1029E8000101396F0A0E386F2DEC2EF0000E01012F
:1029F800396F0A0E386F2DEC2EF0000E0101396F79
:102A08000A0E386F2DEC2EF0000E0101396F0A0EF8
:102A1800386F2DEC2EF08C96000E0101396F0A0EDE
:102A2800386F2DEC2EF00001C651D8B4D0D78C8465
:102A38008C968C883A0E0101396F980E386F2DEC00
:102A48002EF08C888C948C960D0E0001D419D8A485
:102A580004D0000E0001C56F12008C888C96000E01
:102A68000001DE6F000E0001F56F000EF46F010E1D
:102A78000001C76F38D08C84000E0101396F0A0E2F
:102A8800386F2DEC2EF0000E0101396F0A0E386FE9
:102A98002DEC2EF0000E0101396F0A0E386F2DEC67
:102AA8002EF0000E0101396F0A0E386F2DEC2EF052
:102AB800000E0101396F0A0E386F2DEC2EF0F50E5D
:102AC8000101446F7F0E0101456FF4C046F1F5C066
:102AD80047F17BEC26F08C94000E0101396F0A0E49
:102AE800386F2DEC2EF00001F6510001F45D000165
:102AF800F7510001F559D8A0BED78C948C868C88E4
:102B08003A0E0101396F980E386F2DEC2EF08C8833
:102B18008C948C964B0E0101446F7F0E0101456F1A
:102B2800F4C046F1F5C047F17BEC26F0C30E010175
:102B3800396F500E386F2DEC2EF05F0E0101446F87
:102B48007F0E0101456FF4C046F1F5C047F17BECFB
:102B580026F0000E0001C56F000E0001C66F000EC2
:102B68000001F56F000EF46F000E0001DE6FF28AAF
:102B7800D58E1200000E0101536F000E526F000136
:102B8800DB05D8A470D00D0E0001D419D8A42BD021
:102B9800000E0001E36F000EE26F8C848C968C8827
:102BA800E90E0101446F7F0E0101456F7BEC26F0B1
:102BB8000001E35105E19C0E0001E25DD8A0F8D7C1
:102BC8008C888C948C96FA0E0101446F7F0E01015B
:102BD800456F7BEC26F0C30E0101396F500E386F3C
:102BE8002DEC2EF036D08C888C948C968C888C9614
:102BF8008C840001E9BFFDD70001E95105E1960E7B
:102C08000001E85DD8A0F5D78C948C868C883A0EA4
:102C18000101396F980E386F2DEC2EF08C888C944A
:102C28008C96C80E0101446F7E0E0101456FE8C005
:102C380046F1E9C047F17BEC26F0E30E0101446F51
:102C48007E0E0101456FE8C046F1E9C047F17BEC13
:102C580026F0000E0001DB6F000E0001DC6F010E94
:102C68000001DD6F12000001DD05D8A430D0000E90
:102C78000101536F000E526F8C908C928C808C9255
:102C88008B840AD080A8FED70101524B532B80B801
:102C9800FED70101524B532B0001D9510101506F4E
:102CA800516B010150510101525D01015151010166
:102CB8005359D8A0E7D78C908C92000E0001DB6F97
:102CC800000E0001DD6F010E0001DC6F1200000133
:102CD800DC05D8A412000D0E0001D419D8A410D018
:102CE8008C948C868C8881B0FED78C888C948C963A
:102CF800C30E0101396F500E386F2DEC2EF01AD02B
:102D08008C888C948C860001E9BF07D00001E951BA
:102D1800FAE10001E805D8B0F6D78C848C968C8847
:102D28003A0E0101396F980E386F2DEC2EF08C8811
:102D38008C948C96FE0E0101446F7E0E0101456F46
:102D4800E8C046F1E9C047F17BEC26F0A40E01018A
:102D5800446F7E0E0101456FE8C046F1E9C047F1B6
:102D68007BEC26F081AA39D08C888C948C968C9038
:102D78008C928C908C928C908C828B840AD080A8B8
:102D8800FED70101524B532B80B8FED70101524B9D
:102D9800532B040E0101525D010E01015359D8A0B5
:102DA800EED78C908C92000E0001DB6F000E0001B4
:102DB800DC6F000E0001DD6F000E0001DA6F0D0EF2
:102DC8000001D419D8A402D0000E01D0010E0001D0
:102DD800C56F030E0001C06F120081BA1200000E09
:102DE8000001DC6F000E0001DD6F010E0001DB6FDA
:102DF800120001014B6F27D1030E00019919D8A4C5
:102E08000BD000019D2B030E00019D19D8A41200C0
:102E1800000E00019D6F1200040E1B18D8A402D0EA
:102E2800800E01D0000E0001996F00019951000138
:102E38009A19D8B41200310E0101446F99C045F1B6
:102E4800010E09EC00F000019D51D8A40CD03F0EF2
:102E58000101446F0001995104090101456F000EF9
:102E68006DEC09F020D000019D05D8A40CD03F0ED0
:102E78000101446F0001995106090101456F000ED7
:102E88006DEC09F010D0020E00019D19D8A40BD0EA
:102E98003F0E0101446F000199510D090101456F71
:102EA800000E6DEC09F099C09AF01200030E0001B3
:102EB8009919D8A40AD000019D0700019D29D8A41A
:102EC8001200020E00019D6F1200040E1B18D8A4F8
:102ED80002D0800E01D0000E0001996F00019951B7
:102EE80000019A19D8B41200310E0101446F99C03B
:102EF80045F1010E09EC00F000019D51D8A40CD059
:102F08003F0E0101446F0001995104090101456F09
:102F1800000E6DEC09F020D000019D05D8A40CD05E
:102F28003F0E0101446F0001995106090101456FE7
:102F3800000E6DEC09F010D0020E00019D19D8A406
:102F48000BD03F0E0101446F000199510D09010199
:102F5800456F000E6DEC09F099C09AF01200800ED2
:102F680000019919D8A406D0030E0001996F010E2B
:102F78001A6E08D0030E00019919D8A403D0000EC8
:102F88000001996F0001995100019A19D8B41200F3
:102F980000019951D8A454D0310E0101446F000E9C
:102FA8000101456F010E09EC00F000019D51D8A404
:102FB80015D03F0E0101446F000199510409010128
:102FC800456F000E6DEC09F0040E5C6E040E18D00F
:102FD800010E0001F76F9C0EF66F2FD000019D05C2
:102FE800D8A411D03F0E0101446F00019951060980
:102FF8000101456F000E6DEC09F0060E5C6E060EC1
:103008000001D46FE5D7020E00019D19D8A418D08D
:103018003F0E0101446F000199510D090101456FEF
:10302800000E6DEC09F00D0E5C6E0D0E0001D46FF4
:10303800000E0001F76F010ECFD7010E0001C56F1A
:1030480099C09AF0120001014B51F10AD8B4D4D6B4
:10305800030AD8B42BD7010AD8A4120080D7000ECF
:103068000101516F000E506F960E0101446F7F0EE3
:103078000101456F7BEC26F00001DB05D8A444D0A4
:10308800000E0001E36F000EE26F0D0E0001D4196F
:10309800D8A40BD08C888C840001E3510FE19C0EDE
:1030A8000001E25DD8B00AD0F7D78C888C84360E40
:1030B8000101396FB00E386F2DEC2EF08C888C948E
:1030C8008C96C30E0101396F500E386F2DEC2EF01F
:1030D800C30E0101396F500E386F2DEC2EF0190E0A
:1030E8000101446F7F0E0101456FE2C046F1E3C064
:1030F80047F17BEC26F0000E0001DB6F000E0001AB
:10310800DC6F010E0001DD6F0001DD05D8B42FD0A2
:103118004AD0000E0101516F000E506F8C908C92B6
:103128008C808C928B840AD080A8FED70101504BEA
:10313800512B80B8FED70101504B512B0101515141
:1031480005E1920E0101505DD8A0EED78C908C92CB
:10315800C30E0101396F500E386F2DEC2EF0C10EE1
:103168000101446F7F0E0101456F7BEC26F081AAB7
:10317800D0D7850E0101446F7F0E0101456F7BECAE
:1031880026F08C908C92C30E0101396F500E386F67
:103198002DEC2EF0000E0001DB6F000E0001DD6F3C
:1031A800010E0001DC6F0001DC05D8A41200000E3E
:1031B8000001E56F000EE46F0D0E0001D419D8A4CC
:1031C80005D08C888C8681A00AD0FDD78C888C8607
:1031D800860E0101396FA00E386F2DEC2EF08C8809
:1031E8008C948C96D7C038F1D8C039F1010E010102
:1031F8003B6F2C0E3A6F99EC2DF0010138C13EF16E
:10320800010139C13FF10101406B416BF7EC2DF031
:10321800320E0101446F7F0E0101456FE4C046F193
:10322800E5C047F17BEC26F081AA12003A0E0101B5
:10323800396F980E386F2DEC2EF081AA12008C8809
:103248008C948C968C908C928C908C928C908C8296
:103258008B84000E0101516F000E506F0AD080A8B8
:10326800FED70101504B512B80B8FED70101504BBE
:10327800512B0101515105E1780E0101505DD8A093
:10328800EED78C908C92000E0001DB6F000E0001CF
:10329800DC6F000E0001DD6F000E0001DA6F0D0E0D
:1032A8000001D419D8A402D0000E01D0010E0001EB
:1032B800C56F030E0001C06F1200000E0101536FAD
:1032C800000E526F0001DB05D8A44DD0000E00019E
:1032D800E36F000EE26F0D0E0001D419D8A40BD0D5
:1032E8008C848C880001E3511BE19C0E0001E25D97
:1032F800D8B016D0F7D78C848C880AD081A4FED792
:103308000001E24BE32B81B4FED70001E24BE32B33
:103318000001E35105E1140E0001E25DD8A0EED7EB
:103328008C888C948C96D7C038F1D8C039F1010EAE
:1033380001013B6F2C0E3A6F99EC2DF0010138C159
:103348003EF1010139C13FF10101406B416BF7ECDE
:103358002DF0000E0001DB6F000E0001DC6F010E86
:103368000001DD6F12000001DD05D8A446D0000E73
:103378000101536F000E526F8C908C928C808C924E
:103388008B840AD080A8FED70101524B532B80B8FA
:10339800FED70101524B532B0001D9510101506F47
:1033A800516B010150510101525D0101515101015F
:1033B8005359D8A0E7D78C908C92D7C038F1D8C091
:1033C80039F1010E01013B6F2C0E3A6F99EC2DF08B
:1033D800010138C13EF1010139C13FF10101406BE2
:1033E800416BF7EC2DF0000E0001DB6F000E0001C1
:1033F800DD6F010E0001DC6F12000001DC05D8A4AE
:103408001200000E0001E56F000EE46F0D0E0001C2
:10341800D419D8A405D08C868C8881A016D0FDD765
:103428008C868C880AD081A4FED70001E44BE52B5A
:1034380081B4FED70001E44BE52B0001E55105E11D
:10344800140E0001E45DD8A0EED78C888C948C967D
:10345800D7C038F1D8C039F1010E01013B6F2C0EED
:103468003A6F99EC2DF0010138C13EF1010139C1E3
:103478003FF10101406B416BF7EC2DF0A50E010106
:10348800446F7F0E0101456F7BEC26F007B038D002
:103498008C888C948C968C908C928C908C928C903E
:1034A8008C828B840AD080A8FED70101524B532B03
:1034B80080B8FED70101524B532B0101535105E14E
:1034C8000E0E0101525DD8A0EED78C908C92000EA2
:1034D8000001DB6F000E0001DC6F000E0001DD6FE4
:1034E800000E0001DA6F0D0E0001D419D8A404D023
:1034F800000E0001C56F1200010E0001C56F120019
:10350800000E0001DC6F000E0001DD6F010E0001EE
:10351800DB6F120001014B6F0BD1030E0001A919DB
:10352800D8A40BD00001AD2B030E0001AD19D8A40F
:103538001200000E0001AD6F1200060E1B18D8A471
:1035480002D0800E01D0000E0001A96F0001A95120
:103558000001AA19D8B41200310E0101446FA9C0A4
:1035680045F1010E4AEC0BF00001AD51D8A40CD086
:103578003F0E0101446F0001A95102090101456F85
:10358800030E6DEC09F020D00001AD05D8A40CD0D5
:103598003F0E0101446F0001A95103090101456F64
:1035A800030E6DEC09F010D0020E0001AD19D8A47D
:1035B8000BD03F0E0101446F0001A951050901011B
:1035C800456F030E6DEC09F0A9C0AAF01200030EB6
:1035D8000001A919D8A40AD00001AD070001AD293E
:1035E800D8A41200020E0001AD6F1200060E1B18BF
:1035F800D8A402D0800E01D0000E0001A96F0001EE
:10360800A9510001AA19D8B41200310E0101446F62
:10361800A9C045F1010E4AEC0BF00001AD51D8A448
:103628000CD03F0E0101446F0001A95102090101AC
:10363800456F030E6DEC09F020D00001AD05D8A44C
:103648000CD03F0E0101446F0001A951030901018B
:10365800456F030E6DEC09F010D0020E0001AD1994
:10366800D8A40BD03F0E0101446F0001A9510509F0
:103678000101456F030E6DEC09F0A9C0AAF0120014
:10368800800E0001A919D8A406D0030E0001A96F65
:10369800010E1A6E08D0030E0001A919D8A403D090
:1036A800000E0001A96F0001A9510001AA19D8B4A0
:1036B80012000001A951D8A438D0310E0101446F7D
:1036C800000E0101456F010E4AEC0BF00001AD51EF
:1036D800D8A40BD03F0E0101446F020E0101456FC3
:1036E800030E6DEC09F08C0E1ED00001AD05D8A4B8
:1036F8000BD03F0E0101446F030E0101456F030E0D
:103708006DEC09F0820E0FD0020E0001AD19D8A49D
:103718000CD03F0E0101446F050E0101456F030EE9
:103728006DEC09F0A00E0001D96FA9C0AAF0120033
:1037380001014B51F10AD8B4F0D6030AD8B447D7DF
:10374800010AD8A412009CD7000E0101476F000E91
:103758000101466FFAD044C142F1000EA2EC2BF0F1
:10376800000E5F6E1A0E5F6401D01DD05F50010D10
:10377800700EF324F66E740EF420F76E0800F5CF81
:1037880047F1470E01013A6F010E01013B6F400EF0
:1037980001013C6F000E01013E6F010E3D6F47ECC9
:1037A8002CF05F2ADFD744C142F1010EA2EC2BF0C6
:1037B800000E5F6E1A0E5F6401D012005F50010D9B
:1037C8001B0EF326000EF422700EF324F66E740E10
:1037D800F420F76E0800F5CF47F1470E01013A6F64
:1037E800010E01013B6F400E01013C6F000E01010B
:1037F8003E6F010E3D6F47EC2CF05F2ADBD744C1CA
:1038080042F1000EA2EC2BF0000E5F6E1A0E5F6400
:1038180001D046D05F50010D700EF324F66E740E81
:10382800F420F76E0800F5CF47F147C146F15F5025
:10383800D8B404D01A0E5F18D8A40AD00101471FC3
:1038480001014651010147133F0E0101471716D0E8
:103858005F04D8B404D0190E5F18D8A409D00101A8
:10386800471F01014651010147130101479F06D037
:103878000101471F0101465101014713470E01018C
:103888003A6F010E01013B6F400E01013C6F000EC3
:1038980001013E6F010E3D6F47EC2CF05F2AB6D751
:1038A80044C142F1010EA2EC2BF0000E5F6E1A0E1D
:1038B8005F6401D012005F50010D1B0EF326000E4D
:1038C800F422700EF324F66E740EF420F76E0800DE
:1038D800F5CF47F147C146F15F50D8B404D01A0E6E
:1038E8005F18D8A40AD00101471F01014651010100
:1038F8004713FC0E0101471716D05F04D8B404D053
:10390800190E5F18D8A409D00101471F01014651BB
:10391800010147130101479106D00101471F010129
:10392800465101014713470E01013A6F010E01018B
:103938003B6F400E01013C6F000E01013E6F010E0E
:103948003D6F47EC2CF05F2AB2D701014551000AC0
:10395800D8B401D7800AD8A4120051D701014B6FFF
:10396800D9D0030E0001A119D8A40BD00001A52BB2
:10397800020E0001A519D8A41200000E0001A56FBF
:103988001200050E1B18D8A402D0800E01D0000E1C
:103998000001A16F0001A1510001A219D8B41200C1
:1039A800000E0101446FA1C045F1020E09EC00F0C0
:1039B8000001A551D8A40CD00E0E0101446F0001DE
:1039C800A15101090101456F000E6DEC09F00FD0FE
:1039D8000001A505D8A40BD00E0E0101446F00010B
:1039E800A15102090101456F000E6DEC09F0A1C05B
:1039F800A2F01200030E0001A119D8A40AD00001F8
:103A0800A5070001A529D8A41200010E0001A56F81
:103A18001200050E1B18D8A402D0800E01D0000E8B
:103A28000001A16F0001A1510001A219D8B4120030
:103A3800000E0101446FA1C045F1020E09EC00F02F
:103A48000001A551D8A40CD00E0E0101446F00014D
:103A5800A15101090101456F000E6DEC09F00FD06D
:103A68000001A505D8A40BD00E0E0101446F00017A
:103A7800A15102090101456F000E6DEC09F0A1C0CA
:103A8800A2F01200800E0001A119D8A406D0030EDE
:103A98000001A16F010E1A6E08D0030E0001A119D2
:103AA800D8A403D0000E0001A16F0001A1510001AC
:103AB800A219D8B412000001A151D8A428D0000E30
:103AC8000101446F000E0101456F020E09EC00F080
:103AD8000001A551D8A40CD00E0E0101446F0001BD
:103AE800A15101090101456F000E6DEC09F00FD0DD
:103AF8000001A505D8A40BD00E0E0101446F0001EA
:103B0800A15102090101456F000E6DEC09F0A1C039
:103B1800A2F0120001014B51F10AD8B422D7030ACE
:103B2800D8B468D7010AD8A41200ACD7000E436EE7
:103B3800000E426ED4D040C03EF0000EFEEC2CF0D9
:103B4800000E5F6E1A0E5F6401D019D05F50010D30
:103B5800700EF324F66E740EF420F76E0800F5CF9D
:103B680043F0430E366E000E376E400E386E000E70
:103B78003A6E010E396E92EC2CF05F2AE3D740C002
:103B88003EF0010EFEEC2CF0000E5F6E1A0E5F6424
:103B980001D012005F50010D1B0EF326000EF42217
:103BA800700EF324F66E740EF420F76E0800F5CF4D
:103BB80043F0430E366E000E376E400E386E000E20
:103BC8003A6E010E396E92EC2CF05F2ADFD740C0B6
:103BD8003EF0000EFEEC2CF0000E5F6E1A0E5F64D5
:103BE80001D037D05F50010D700EF324F66E740EBD
:103BF800F420F76E0800F5CF43F043C042F05F5061
:103C0800D8B404D01A0E5F18D8A406D0431E425068
:103C180043123F0E43160FD05F04D8B404D0190ED8
:103C28005F18D8A405D0431E42504312439E03D0C8
:103C3800431E42504312430E366E000E376E400E3E
:103C4800386E000E3A6E010E396E92EC2CF05F2A37
:103C5800C5D740C03EF0010EFEEC2CF0000E5F6EA2
:103C68001A0E5F6401D012005F50010D1B0EF3267F
:103C7800000EF422700EF324F66E740EF420F76E24
:103C88000800F5CF43F043C042F05F50D8B404D0E9
:103C98001A0E5F18D8A406D0431E42504312FC0ED9
:103CA80043160FD05F04D8B404D0190E5F18D8A4F7
:103CB80005D0431E42504312439003D0431E425046
:103CC8004312430E366E000E376E400E386E000EED
:103CD8003A6E010E396E92EC2CF05F2AC1D7415032
:103CE800000AD8B428D7800AD8A4120070D7000ECA
:103CF800326E000E316E000E0101346F000E356F0A
:103D0800000E366F000E376F000E0101306F000E87
:103D1800316F000E326F000E336FB4EC2DF060EC93
:103D28002DF015EC2AF00001C551D8B475D08C9A45
:103D3800C30E0101396F500E386F2DEC2EF0C30EF3
:103D48000101396F500E386F2DEC2EF0C30E0101B2
:103D5800396F500E386F2DEC2EF0C30E0101396FFC
:103D6800500E386F2DEC2EF0C30E0101396F500E36
:103D7800386F2DEC2EF0C30E0101396F500E386FDD
:103D88002DEC2EF0C30E0101396F500E386F2DEC5B
:103D98002EF0C30E0101396F500E386F2DEC2EF046
:103DA8008C8AC30E0101396F500E386F2DEC2EF03E
:103DB800C30E0101396F500E386F2DEC2EF0C30E73
:103DC8000101396F500E386F2DEC2EF0C30E010132
:103DD800396F500E386F2DEC2EF0C30E0101396F7C
:103DE800500E386F2DEC2EF0C30E0101396F500EB6
:103DF800386F2DEC2EF0C30E0101396F500E386F5D
:103E08002DEC2EF0C30E0101396F500E386F2DECDA
:103E18002EF066EC14F085D70001C005D8A403D0B5
:103E2800BEEC15F01AD00001C051D8A403D033EC71
:103E380018F013D0020E0001C019D8B40ED0040E29
:103E48000001C019D8A403D061EC19F006D0030E04
:103E58000001C019D8B475EC2BF0CEEC29F0305025
:103E6800D8B45FD792EC0EF0000E306E5AD7000E21
:103E78000101476F000E0101466FB0D044C142F105
:103E8800000EA2EC2BF0000E5F6E160E5F6401D0E0
:103E98001DD05F50010D8C0EF324F66E750EF420C4
:103EA800F76E0800F5CF47F1470E01013A6F010E92
:103EB80001013B6F400E01013C6F000E01013E6F96
:103EC800010E3D6F47EC2CF05F2ADFD744C142F169
:103ED800010EA2EC2BF0000E5F6E160E5F6401D08F
:103EE80012005F50010D170EF326000EF4228C0EFF
:103EF800F324F66E750EF420F76E0800F5CF47F13F
:103F0800470E01013A6F010E01013B6F400E01019E
:103F18003C6F000E01013E6F010E3D6F47EC2CF027
:103F28005F2ADBD744C142F1000EA2EC2BF0000E51
:103F38005F6E160E5F6401D021D05F50010D8C0EAC
:103F4800F324F66E750EF420F76E0800F5CF47F1EE
:103F580047C146F10101471F470E01013A6F010EA3
:103F680001013B6F400E01013C6F000E01013E6FE5
:103F7800010E3D6F47EC2CF05F2ADBD744C142F1BC
:103F8800010EA2EC2BF0000E5F6E160E5F6401D0DE
:103F980012005F50010D170EF326000EF4228C0E4E
:103FA800F324F66E750EF420F76E0800F5CF47F18E
:103FB80047C146F10101471F470E01013A6F010E43
:103FC80001013B6F400E01013C6F000E01013E6F85
:103FD800010E3D6F47EC2CF05F2AD7D70101455100
:103FE800000AD8B44BD7800AD8A412009BD7000E79
:103FF8000101476F000E0101466FB0D044C142F184
:10400800000EA2EC2BF0000E5F6E160E5F6401D05E
:104018001DD05F50010DA60EF324F66E740EF42029
:10402800F76E0800F5CF47F1470E01013A6F010E10
:1040380001013B6F400E01013C6F000E01013E6F14
:10404800010E3D6F47EC2CF05F2ADFD744C142F1E7
:10405800010EA2EC2BF0000E5F6E160E5F6401D00D
:1040680012005F50010D170EF326000EF422A60E63
:10407800F324F66E740EF420F76E0800F5CF47F1BE
:10408800470E01013A6F010E01013B6F400E01011D
:104098003C6F000E01013E6F010E3D6F47EC2CF0A6
:1040A8005F2ADBD744C142F1000EA2EC2BF0000ED0
:1040B8005F6E160E5F6401D021D05F50010DA60E11
:1040C800F324F66E740EF420F76E0800F5CF47F16E
:1040D80047C146F10101471F470E01013A6F010E22
:1040E80001013B6F400E01013C6F000E01013E6F64
:1040F800010E3D6F47EC2CF05F2ADBD744C142F13B
:10410800010EA2EC2BF0000E5F6E160E5F6401D05C
:1041180012005F50010D170EF326000EF422A60EB2
:10412800F324F66E740EF420F76E0800F5CF47F10D
:1041380047C146F10101471F470E01013A6F010EC1
:1041480001013B6F400E01013C6F000E01013E6F03
:10415800010E3D6F47EC2CF05F2AD7D7010145517E
:10416800000AD8B44BD7800AD8A412009BD7000EF7
:104178000101476F000E0101466FB0D044C142F102
:10418800000EA2EC2BF0000E5F6E160E5F6401D0DD
:104198001DD05F50010DD40EF324F66E740EF4207A
:1041A800F76E0800F5CF47F1470E01013A6F010E8F
:1041B80001013B6F400E01013C6F000E01013E6F93
:1041C800010E3D6F47EC2CF05F2ADFD744C142F166
:1041D800010EA2EC2BF0000E5F6E160E5F6401D08C
:1041E80012005F50010D170EF326000EF422D40EB4
:1041F800F324F66E740EF420F76E0800F5CF47F13D
:10420800470E01013A6F010E01013B6F400E01019B
:104218003C6F000E01013E6F010E3D6F47EC2CF024
:104228005F2ADBD744C142F1000EA2EC2BF0000E4E
:104238005F6E160E5F6401D021D05F50010DD40E61
:10424800F324F66E740EF420F76E0800F5CF47F1EC
:1042580047C146F10101471F470E01013A6F010EA0
:1042680001013B6F400E01013C6F000E01013E6FE2
:10427800010E3D6F47EC2CF05F2ADBD744C142F1B9
:10428800010EA2EC2BF0000E5F6E160E5F6401D0DB
:1042980012005F50010D170EF326000EF422D40E03
:1042A800F324F66E740EF420F76E0800F5CF47F18C
:1042B80047C146F10101471F470E01013A6F010E40
:1042C80001013B6F400E01013C6F000E01013E6F82
:1042D800010E3D6F47EC2CF05F2AD7D701014551FD
:1042E800000AD8B44BD7800AD8A412009BD7000E76
:1042F8000101476F000E0101466FB0D044C142F181
:10430800000EA2EC2BF0000E5F6E160E5F6401D05B
:104318001DD05F50010D300EF324F66E750EF4209B
:10432800F76E0800F5CF47F1470E01013A6F010E0D
:1043380001013B6F400E01013C6F000E01013E6F11
:10434800010E3D6F47EC2CF05F2ADFD744C142F1E4
:10435800010EA2EC2BF0000E5F6E160E5F6401D00A
:1043680012005F50010D170EF326000EF422300ED6
:10437800F324F66E750EF420F76E0800F5CF47F1BA
:10438800470E01013A6F010E01013B6F400E01011A
:104398003C6F000E01013E6F010E3D6F47EC2CF0A3
:1043A8005F2ADBD744C142F1000EA2EC2BF0000ECD
:1043B8005F6E160E5F6401D021D05F50010D300E84
:1043C800F324F66E750EF420F76E0800F5CF47F16A
:1043D80047C146F10101471F470E01013A6F010E1F
:1043E80001013B6F400E01013C6F000E01013E6F61
:1043F800010E3D6F47EC2CF05F2ADBD744C142F138
:10440800010EA2EC2BF0000E5F6E160E5F6401D059
:1044180012005F50010D170EF326000EF422300E25
:10442800F324F66E750EF420F76E0800F5CF47F109
:1044380047C146F10101471F470E01013A6F010EBE
:1044480001013B6F400E01013C6F000E01013E6F00
:10445800010E3D6F47EC2CF05F2AD7D7010145517B
:10446800000AD8B44BD7800AD8A412009BD7000EF4
:104478000101476F000E0101466FB0D044C142F1FF
:10448800000EA2EC2BF0000E5F6E160E5F6401D0DA
:104498001DD05F50010D020EF324F66E750EF42048
:1044A800F76E0800F5CF47F1470E01013A6F010E8C
:1044B80001013B6F400E01013C6F000E01013E6F90
:1044C800010E3D6F47EC2CF05F2ADFD744C142F163
:1044D800010EA2EC2BF0000E5F6E160E5F6401D089
:1044E80012005F50010D170EF326000EF422020E83
:1044F800F324F66E750EF420F76E0800F5CF47F139
:10450800470E01013A6F010E01013B6F400E010198
:104518003C6F000E01013E6F010E3D6F47EC2CF021
:104528005F2ADBD744C142F1000EA2EC2BF0000E4B
:104538005F6E160E5F6401D021D05F50010D020E30
:10454800F324F66E750EF420F76E0800F5CF47F1E8
:1045580047C146F10101471F470E01013A6F010E9D
:1045680001013B6F400E01013C6F000E01013E6FDF
:10457800010E3D6F47EC2CF05F2ADBD744C142F1B6
:10458800010EA2EC2BF0000E5F6E160E5F6401D0D8
:1045980012005F50010D170EF326000EF422020ED2
:1045A800F324F66E750EF420F76E0800F5CF47F188
:1045B80047C146F10101471F470E01013A6F010E3D
:1045C80001013B6F400E01013C6F000E01013E6F7F
:1045D800010E3D6F47EC2CF05F2AD7D701014551FA
:1045E800000AD8B44BD7800AD8A412009BD7000E73
:1045F8000101476F000E0101466FB0D044C142F17E
:10460800000EA2EC2BF0000E5F6E160E5F6401D058
:104618001DD05F50010D5E0EF324F66E750EF4206A
:10462800F76E0800F5CF47F1470E01013A6F010E0A
:1046380001013B6F400E01013C6F000E01013E6F0E
:10464800010E3D6F47EC2CF05F2ADFD744C142F1E1
:10465800010EA2EC2BF0000E5F6E160E5F6401D007
:1046680012005F50010D170EF326000EF4225E0EA5
:10467800F324F66E750EF420F76E0800F5CF47F1B7
:10468800470E01013A6F010E01013B6F400E010117
:104698003C6F000E01013E6F010E3D6F47EC2CF0A0
:1046A8005F2ADBD744C142F1000EA2EC2BF0000ECA
:1046B8005F6E160E5F6401D021D05F50010D5E0E53
:1046C800F324F66E750EF420F76E0800F5CF47F167
:1046D80047C146F10101471F470E01013A6F010E1C
:1046E80001013B6F400E01013C6F000E01013E6F5E
:1046F800010E3D6F47EC2CF05F2ADBD744C142F135
:10470800010EA2EC2BF0000E5F6E160E5F6401D056
:1047180012005F50010D170EF326000EF4225E0EF4
:10472800F324F66E750EF420F76E0800F5CF47F106
:1047380047C146F10101471F470E01013A6F010EBB
:1047480001013B6F400E01013C6F000E01013E6FFD
:10475800010E3D6F47EC2CF05F2AD7D70101455178
:10476800000AD8B44BD7800AD8A412009BD7000EF1
:104778000001806F000E0001836F000E0001816F41
:1047880081C082F0000E0001846F000E0001856F69
:10479800480E0001866F200E0001876F000E000191
:1047A800886F000E00018B6F000E0001896F89C0B1
:1047B8008AF0000E00018C6F000E00018D6FE60E6E
:1047C80000018E6F520E00018F6F000E0001906F76
:1047D800000E0001936F000E0001916F91C092F0DE
:1047E800000E0001946F000E0001956F300E00015D
:1047F800966F520E0001976F000E0001986F000E21
:1048080000019B6F000E0001996F99C09AF0000E8D
:1048180000019C6F000E00019D6FFA0E00019E6F53
:104828002D0E00019F6F000E0001A06F000E000109
:10483800A36F000E0001A16FA1C0A2F0000E00013D
:10484800A46F000E0001A56F640E0001A66F390E5B
:104858000001A76F000E0001A86F000E0001AB6FEA
:10486800000E0001A96FA9C0AAF0000E0001AC6FEC
:10487800000E0001AD6F1C0E0001AE6F350E000179
:10488800AF6F000E0001B06F000E0001B36F000E95
:104898000001B16FB1C0B2F0000E0001B46F000E9C
:1048A8000001B56F960E0001B66F0E0E0001B76FCE
:1048B800000E0001B86F000E0001BB6F000E000172
:1048C800B96F81C0BAF0000E0001BC6F000E000184
:1048D800BD6F000E0001BE6F000E0001BF6F000E1D
:1048E8001B6E000E1A6E000E196E1200000E436E3B
:1048F800000E426E9ED040C03EF0000EFEEC2CF042
:10490800000E5F6E160E5F6401D019D05F50010D66
:10491800D40EF324F66E740EF420F76E0800F5CF6B
:1049280043F0430E366E000E376E400E386E000EA2
:104938003A6E010E396E92EC2CF05F2AE3D740C034
:104948003EF0010EFEEC2CF0000E5F6E160E5F645A
:1049580001D012005F50010D170EF326000EF4224D
:10496800D40EF324F66E740EF420F76E0800F5CF1B
:1049780043F0430E366E000E376E400E386E000E52
:104988003A6E010E396E92EC2CF05F2ADFD740C0E8
:104998003EF0000EFEEC2CF0000E5F6E160E5F640B
:1049A80001D01CD05F50010DD40EF324F66E740EA6
:1049B800F420F76E0800F5CF43F043C042F0431EE1
:1049C800430E366E000E376E400E386E000E3A6E8D
:1049D800010E396E92EC2CF05F2AE0D740C03EF011
:1049E800010EFEEC2CF0000E5F6E160E5F6401D017
:1049F80012005F50010D170EF326000EF422D40E9C
:104A0800F324F66E740EF420F76E0800F5CF43F029
:104A180043C042F0431E430E366E000E376E400E02
:104A2800386E000E3A6E010E396E92EC2CF05F2A49
:104A3800DCD74150000AD8B45ED7800AD8A4120047
:104A4800A6D7000E436E000E426E9ED040C03EF0C8
:104A5800000EFEEC2CF0000E5F6E160E5F6401D0A7
:104A680019D05F50010D5E0EF324F66E750EF4201A
:104A7800F76E0800F5CF43F0430E366E000E376E22
:104A8800400E386E000E3A6E010E396E92EC2CF024
:104A98005F2AE3D740C03EF0010EFEEC2CF0000E7A
:104AA8005F6E160E5F6401D012005F50010D170E85
:104AB800F326000EF4225E0EF324F66E750EF42033
:104AC800F76E0800F5CF43F0430E366E000E376ED2
:104AD800400E386E000E3A6E010E396E92EC2CF0D4
:104AE8005F2ADFD740C03EF0000EFEEC2CF0000E2F
:104AF8005F6E160E5F6401D01CD05F50010D5E0E14
:104B0800F324F66E750EF420F76E0800F5CF43F027
:104B180043C042F0431E430E366E000E376E400E01
:104B2800386E000E3A6E010E396E92EC2CF05F2A48
:104B3800E0D740C03EF0010EFEEC2CF0000E5F6E98
:104B4800160E5F6401D012005F50010D170EF32698
:104B5800000EF4225E0EF324F66E750EF420F76E46
:104B68000800F5CF43F043C042F0431E430E366EB3
:104B7800000E376E400E386E000E3A6E010E396E1A
:104B880092EC2CF05F2ADCD74150000AD8B45ED7EB
:104B9800800AD8A41200A6D7000E436E000E426EFB
:104BA8009ED040C03EF0000EFEEC2CF0000E5F6E72
:104BB800160E5F6401D019D05F50010DA60EF324C4
:104BC800F66E740EF420F76E0800F5CF43F0430E2E
:104BD800366E000E376E400E386E000E3A6E010EBD
:104BE800396E92EC2CF05F2AE3D740C03EF0010EFC
:104BF800FEEC2CF0000E5F6E160E5F6401D0120002
:104C08005F50010D170EF326000EF422A60EF324B2
:104C1800F66E740EF420F76E0800F5CF43F0430EDD
:104C2800366E000E376E400E386E000E3A6E010E6C
:104C3800396E92EC2CF05F2ADFD740C03EF0000EB0
:104C4800FEEC2CF0000E5F6E160E5F6401D01CD0D7
:104C58005F50010DA60EF324F66E740EF420F76E65
:104C68000800F5CF43F043C042F0431E430E366EB2
:104C7800000E376E400E386E000E3A6E010E396E19
:104C880092EC2CF05F2AE0D740C03EF0010EFEEC1B
:104C98002CF0000E5F6E160E5F6401D012005F509C
:104CA800010D170EF326000EF422A60EF324F66E5D
:104CB800740EF420F76E0800F5CF43F043C042F0BD
:104CC800431E430E366E000E376E400E386E000ED1
:104CD8003A6E010E396E92EC2CF05F2ADCD7415007
:104CE800000AD8B45ED7800AD8A41200A6D7460E08
:104CF8000101496F010E01014A6F94D0250E01018F
:104D08004F19D8B405D001014F5192EC2EF08AD03A
:104D1800000E01014B6F44C1F6FF45C1F7FF0101C9
:104D2800444B452B0800F5CF4FF101014F51000AC4
:104D3800D8B41200640AD8B403D00D0AD8A472D02B
:104D480049C1D9FF4AC1DAFFDECF4DF1DDCF4EF1BF
:104D5800020E01014927000E4A2301014EAF08D077
:104D6800030E01014B1301014D6D4E1FD8B04E2BA0
:104D7800010E01014F6F050E01014F19D8B416D06D
:104D880001014F51020DBA0EF324F66E750EF42090
:104D9800F76E0900F55001014D5D0900F55001015C
:104DA8004E59D8A003D001014F2BE5D74BC148F18C
:104DB800030E01014817D8B403D02D0E92EC2EF043
:104DC8004FC14CF129D001014C51020DBA0EF32408
:104DD800F66E750EF420F76E0900F5CF3AF10A0069
:104DE800F5CF3BF14DC138F14EC139F1D6EC2AF07F
:104DF80038C13FF139C140F1000E0101426F0A0E7E
:104E0800416F44EC2BF001013F51300F01014F6F0E
:104E180001014F5192EC2EF001014C0701014C2980
:104E2800D8A4D1D744C1F6FF45C1F7FF0101444BCF
:104E3800452B0800F5CF4FF101014F51D8B41200AE
:104E48005DD7B7EC2CF012EC2BF0000E476E310E4C
:104E5800476401D008D0C30E356E500E346E66EC30
:104E68002EF0472AF4D7B7EC2CF0470E406E000E10
:104E7800416E010E9AEC1DF0490E406E000E416E17
:104E8800010E25EC25F0230E406E000E416E010E3A
:104E98009AEC1DF0250E406E000E416E010E7AEC64
:104EA80024F0000E406E000E416E010E9AEC1DF0CB
:104EB800020E406E000E416E010ED0EC25F0310E50
:104EC800406E000E416E010EAEEC02F03F0E406ED9
:104ED800040E416E000EF0EC0CF0000E406E000E59
:104EE800416E020EAEEC02F00E0E406E010E416EE7
:104EF800000EF0EC0CF0310E406E000E416E010E0B
:104F08009AEC11F03F0E406E020E416E030EF0EC6B
:104F18000CF0000E406E000E416E020E9AEC11F07D
:104F28000E0E406E030E416E030EF0EC0CF0010EF7
:104F38000001C16F010E0001F76F9C0EF66F040EA1
:104F48000001D46F010E0001D56F000E0001D66F6D
:104F5800000E0001D86F140ED76F8C0E0001D96FA8
:104F68001200420E436E000E446E7DD0250E491885
:104F7800D8B404D04950B4EC2EF075D0000E456E6C
:104F880040C0F6FF41C0F7FF404A412A0800F5CF6C
:104F980049F04950000AD8B41200640AD8B403D0C2
:104FA8000D0AD8A460D043C0D9FF44C0DAFFDECFD1
:104FB80047F0DDCF48F0020E4326000E442248AEEB
:104FC80006D0030E4512476C481ED8B0482A010E79
:104FD800496E050E4918D8B412D04950020DBA0EC0
:104FE800F324F66E750EF420F76E0900F550475C51
:104FF8000900F5504858D8A002D0492AEAD745C038
:1050080042F0030E4216D8B403D02D0EB4EC2EF0A5
:1050180049C046F024D04650020DBA0EF324F66E6D
:10502800750EF420F76E0900F5CF36F00A00F5CFBB
:1050380037F047C034F048C035F0F8EC2BF034C0F6
:105048003BF035C03CF0000E3E6E0A0E3D6E20EC83
:105058002DF03B50300F496E4950B4EC2EF0460607
:105068004628D8A4D8D740C0F6FF41C0F7FF404A29
:10507800412A0800F5CF49F04950D8B4120076D734
:10508800000E0101516F000E506F83BC37D0050E22
:105098000101386F000E396F000E3A6F000E3B6F3A
:1050A800CFEC2BF083AC0BD029D00101504B512B06
:1050B800C30E0101396F500E386F2DEC2EF083AC02
:1050C800F4D74BEC2EF00101515105E1650E0101B9
:1050D800505DD8A011D0010E336E730E0101446FDC
:1050E8007F0E0101456F7BEC26F0040E0001C16FB5
:1050F800F29AD59E000E1200F10E120083BE13D054
:10510800050E0101386F000E396F000E3A6F000E60
:105118003B6FCFEC2BF083BE06D083AEFED74BECB3
:105128002EF0F20E120081B613D0050E0101386F71
:10513800000E396F000E3A6F000E3B6FCFEC2BF06C
:1051480081B606D081A6FED74BEC2EF0F30E1200E6
:10515800000E1200210E0201006F000E366E020EC4
:10516800376E000E386E000E3A6E010E396E92ECF4
:105178002CF0150E0201006F000E366E020E376E0F
:10518800000E386E000E3A6E010E396E92EC2CF05D
:10519800080E0201006F000E366E020E376E000E0A
:1051A800386E000E3A6E010E396E92EC2CF09F0E9E
:1051B8000201006F000E366E020E376E000E386E5A
:1051C800000E3A6E010E396E92EC2CF0200E0201A0
:1051D800006F000E366E020E376E000E386E000E2F
:1051E8003A6E010E396E92EC2CF0050E0201006F3A
:1051F800000E366E020E376E000E386E000E3A6ED6
:10520800010E396E92EC2CF00C0E0201006F000EAC
:10521800366E020E376E000E386E000E3A6E010EB4
:10522800396E92EC2CF012000101486F4ED0030E3B
:1052380000019119D8B409D0030E1B18D8A402D0C4
:10524800800E01D0000E0001916F00019151000104
:105258009219D8B41200000E0101446F91C045F1B3
:10526800010EA8EC1BF0020E0101446F91C045F13C
:10527800010EFBEC1FF091C092F01200030E00012A
:105288009119D8B409D0030E1B18D8A402D0800EE7
:1052980001D0000E0001916F000191510001921997
:1052A800D8B41200000E0101446F91C045F1010EFF
:1052B800A8EC1BF0020E0101446F91C045F1010EEC
:1052C800FBEC1FF091C092F0120001014851F10A65
:1052D800D8B4ADD7030AD8B4D1D7010A1200010156
:1052E800486F4ED0030E00018919D8B41200020E7F
:1052F8001B18D8A402D0800E01D0000E0001896FBF
:105308000001895100018A19D8B41200230E010145
:10531800446F89C045F1010EA8EC1BF0250E010170
:10532800446F89C045F1010EBBEC20F089C08AF0BA
:105338001200030E00018919D8B41200020E1B18BE
:10534800D8A402D0800E01D0000E0001896F0001A0
:10535800895100018A19D8B41200230E0101446F43
:1053680089C045F1010EA8EC1BF0250E0101446F20
:1053780089C045F1010EBBEC20F089C08AF012000B
:1053880001014851F10AD8B4ADD7030AD8B4D1D72E
:10539800010A12000001DA51D8B412004E0E0101C0
:1053A800396F200E386F2DEC2EF081BA34D0F29A76
:1053B800F294D59E4BEC2EF00001C105D8A407D07D
:1053C800000E0001DA6F1DD0C1C0C0F026D0000168
:1053D800C151D8A40FD0010E0001DB6F000E0001EF
:1053E800DC6F000E0001DD6FC1C0C0F0000E0001CF
:1053F800C06F13D0040E0001C119D8A40ED0074AFB
:10540800082A010E0001DB6F000E0001DC6F000EA0
:105418000001DD6FD9D7F28AD58E000E0001DA6F50
:105428001200000E0101506F0001C351D8A41200F0
:105438000D0E0001D419D8A41DD08C848C968C88AC
:10544800000E0101506F08D081A4FED70101502B36
:1054580081B4FED70101502BC70E01015065F4D766
:105468008C888C948C96C30E0101396F500E386F5E
:105478002DEC2EF08C908C928C888C948C968B943E
:105488008C98040E0001D46FB40E0101446F7F0E96
:105498000101456F7BEC26F0F098F09200F000F0E7
:1054A80000F0030000F000F000F012000101396F75
:1054B800000E01013A6F000E01013A6F070E01015B
:1054C8003A6501D028D001013A51080D010EF326A2
:1054D800000EF422800EF324D96E000EF420DA6E4A
:1054E800030EDE18D8A403D0000E0101396F0101A4
:1054F8003A2BE4D7070E1B18D8A403D0010E1B6E55
:1055080012001B2A12001B50D8A403D0070E1B6ED2
:1055180012001B06120001013951F10AD8B4EAD76A
:10552800030AD8B4F0D7010A1200800EF66E5D0E99
:10553800F76E000EF86E00EE58F010EE0BF0090052
:10554800F5CFEEFFE550E150FAE103EE00F011EE81
:1055580000F0EE6AE550E150FCE1E250FAE102EEBB
:1055680000F011EE00F0EE6AE550E150FCE1E25087
:10557800FAE101EE00F0380EEE6AE806FDE100EE11
:1055880080F0800EEE6AE806FDE100EE01F0330ED1
:10559800EE6AE806FDE163906392000EF86E000182
:1055A8007BEF1EF0000E01013E6F000E3D6F010102
:1055B8003A5101013B11D8B42CD0010E01013C6FC6
:1055C80006D00101D8903A373B3701013C2B010145
:1055D8003BAFF7D70101D8903D373E3701013A512B
:1055E8000101385D01013B5101013959D8A00AD0A8
:1055F80001013A510101385F01013B510101395B59
:1056080001013D810101D8903B333A3301013C2F20
:10561800E1D73DC138F13EC139F11200000E436EA9
:10562800080E436401D01200000E3E6E4350FEEC9B
:105638002CF0000E0201006F000E426E620E4264F2
:1056480001D01CD04350620DC40E406E750E416EE1
:10565800F3504026F45041224250010DF3504024AB
:10566800366EF4504120376E400E386E000E3A6E9A
:10567800010E396E92EC2CF0422AE0D7432AD0D79B
:105688000101415101014211D8B426D0010E010196
:10569800436F06D00101D890413742370101432BAF
:1056A800010142AFF7D70101415101013F5D0101FD
:1056B800425101014059D8A008D0010141510101CE
:1056C8003F5F010142510101405B0101D890423323
:1056D80041330101432FE7D73FC13FF140C140F1BA
:1056E8001200000E0101526F44EC28F00101526FC4
:1056F800010152515AEC2AF0010152510101D8B46A
:1057080012000101525124EC10F00101525173ECC6
:1057180029F00101525118EC29F001015251FDEC18
:1057280016F001015251B2EC1CF0010152518EECFD
:105738001AF0010152514BEC07F012000101436FBE
:1057480001014251800F0201006F000E01013A6F02
:10575800020E01013B6F000E01013C6F000E0101BA
:105768003E6F010E3D6F47EC2CF001014351400F95
:105778000201006F000E01013A6F020E01013B6F3A
:10578800000E01013C6F000E01013E6F010E3D6FDE
:1057980047EC2CF01200000E01013D6F000E3C6F2B
:1057A80018D0000E01013D6F000E3C6F880E0101FC
:1057B8003C5D130E01013D59D8B005D000F0010140
:1057C8003C4B3D2BF3D701013807000E395B3A5BA0
:1057D8003B5B010138510101391101013A11010105
:1057E8003B11D8B41200DDD7000E396E000E386EAA
:1057F80036503710D8B41CD0010E3A6E04D0D89069
:10580800363637363A2A37AEFAD7D8903836393658
:105818003650345C37503558D8A005D03650345EF1
:105828003750355A3880D890373236323A2EEDD73D
:1058380038C034F039C035F01200A7EC2EF08D9244
:10584800000E0101396F010E386F6DEC2CF08D825E
:10585800000E0101396F010E386F6DEC2CF0250E2A
:105868000201006F000E01013A6F020E01013B6F49
:10587800000E01013C6F000E01013E6F010E3D6FED
:1058880047EC2CF012003CC141F173EC2EF0780E7D
:10589800DBEC2CF0E2EC2DF001014151DBEC2CF0BB
:1058A800E2EC2DF03AC1F6FF3BC1F7FFF86A050EAE
:1058B800F76403D00800F55005D0F6CFE9FFF7CF1D
:1058C800EAFFEF50DBEC2CF0E2EC2DF0AEEC2EF022
:1058D8001200000E01013B6F000E3A6F14D0000E4B
:1058E80001013D6F000E3C6F100E01013C5D270E5B
:1058F80001013D59D8B004D001013C4B3D2BF4D7F0
:1059080001013A4B3B2B0101385101013A5D01017C
:10591800395101013B59D8B01200E1D738C03DF0E8
:105928007EEC2EF0780E7DEC2DF00AEC2EF03D503A
:105938007DEC2DF00AEC2EF036C0F6FF37C0F7FFED
:10594800F86A050EF76403D00800F55005D0F6CFC5
:10595800E9FFF7CFEAFFEF507DEC2DF00AEC2EF0CF
:10596800BAEC2EF01200000E416E080E416401D010
:105978001200000E3E6E4150FEEC2CF0000E0201AB
:10598800006F000E406E620E406401D00ED0000E13
:10599800366E020E376E400E386E000E3A6E010EED
:1059A800396E92EC2CF0402AEED7412ADED701015D
:1059B800386F000E0101396F070E0101396501D0FA
:1059C8001200010138AF02D08B8601D08B96D3EC40
:1059D8002EF08B88D3EC2EF08B98070E0101391925
:1059E800D8B48B860101D8903837D3EC2EF001015A
:1059F800392BE2D73F6E3E50800F0201006F000E38
:105A0800366E020E376E000E386E000E3A6E010EBC
:105A1800396E92EC2CF03F50400F0201006F000EDF
:105A2800366E020E376E000E386E000E3A6E010E9C
:105A3800396E92EC2CF012003D503E10D8B418D0BC
:105A4800010E3F6E04D0D8903D363E363F2A3EAE1A
:105A5800FAD73D503B5C3E503C58D8A004D03D504E
:105A68003B5E3E503C5AD8903E323D323F2EF1D7F5
:105A78003BC03BF03CC03CF01200000E396E000EFB
:105A8800386E13D0000E396E000E386E880E385CF2
:105A9800130E3958D8B004D000F0384A392AF6D74E
:105AA8003406000E355A365A375A345035103610E7
:105AB8003710D8B41200E6D7000E0001C56F010EEA
:105AC8000001C16F010E0001F76F9C0EF66F040E06
:105AD8000001D46F000E0001C36F030E0001C06FF8
